:400000000040002011000000110B0000110B000008B5044B1A6803F53F5302331A6000F079FD00BFFA46004010B5054C237833B9044B13B10448AFF300800123237010BD09
:4000400028C1FF1F00000000802C0000084B10B51BB108480849AFF300800848036803B910BD074B002BFBD0BDE81040184700BF00000000802C00002CC1FF1F08C1FF1FE9
:400080000000000008B501F083F801F0D1FA01F01BF901F0EBF801F073FB01F08FF901F0C1F901F0C5FB01F0F7FB01F03FFC01F071FC01F00FFA01F07FFA01F0D3FE01F0CA
:4000C000FBFF01F029FF01F081FF00F0E5FC62B64FF4FA7001F00CF800F00AFD00F0F6FB002001F057FE002001F07EFF224B1B78012B08D10022204B1A70204B9B7F012B58
:4001000001D11E4B9A771E4B1B78012B04D100F02BFA00221A4B1A701A4B1B88012B21D1002000F0BFFC184B1880022000F0BAFC164B1880012001F02DFEC82000F0EEFFA1
:40014000002001F027FEC82000F0E8FF012001F04BFFC82000F0E2FF002001F045FF0022084B1A800A4B1B88012BBFD100F05CFC0022074B1A80B9E7EAE9FF1F60C3FF1F35
:40018000F8E9FF1FECE9FF1FACC3FF1F88C3FF1FF2E9FF1F08B501F02BF808BD08B50D4BAA221A705A70EF229A700222DA701871597100231A4605E00649C95C0A44D2B209
:4001C0000133DBB2052BF7D9024882710721FFF7E1FF08BDB0C3FF1F38B500231C4604E0C25C2244D4B20133DBB24A1E9342F7DB835CA34240F08B800378AA2B40F08780F7
:400200004378AF2B40F083808378022B02D101793F4A5170032B0CD10279437943EA02233B4A938044F62062934202D90022384B9A8005468378042B3BD10379C3F16403C8
:40024000DBB2632B00D9642303EB830303EB83039A0090B201F0C4FA6B79C3F16403DBB2632B00D9642303EB830303EB83039A0090B201F0BBFAAB79C3F16403DBB2632B52
:4002800000D9642303EB830303EB83039A0090B201F024FBEB79C3F16403DBB2632B00D9642303EB830303EB83039A0090B201F01BFBAB78052B02D12A79154B9A70AB78EF
:4002C000062B09D12B79012B03D1012001F002FF02E0002001F0FEFEAB78092B05D12B79632B02D101220A4B9A77A878132802D12146FFF753FFA878142802D12146FFF729
:400300004DFFA878152802D12146FFF747FF38BD60C3FF1F10B5294B1B7833B9AA2804D1264B01221A70187110BD012B06D1AF2804D1224B02221A70587110BD022B06D131
:40034000F02804D81D4B03221A70987110BD032B0BD1312809D8194B04221A70D87183F83600002283F8372010BD042B13D1134A92F836207AB1013AD2B2104981F8362027
:4003800091F837305C1C81F837400B441872A2B905220A7010BD052B0CD1084B00221A7093F837105A1810720531181DC9B2FFF713FF10BD0022014B1A7010BD44C1FF1FCE
:4003C00030B583B0124DAA242C706C700124AC70002428716971110AA971EA71ADF806301A0A2A726B720623EB702346224605E00749C95C0A44D2B20133DBB2092BF7D91A
:40040000034882720B21FFF7C5FE03B030BD00BFB0C3FF1FF0B583B0089F099E2A4DAA242C706C700224AC7000244FEA106E85F804E0C0F3074E85F805E0C0F3072E85F878
:4004400006E0E871080E2872C1F307406872C1F30720A872E972110E2973C2F307416973C2F30721A973EA731A0E2A74C3F307426A74C3F30722AA74EB743B0E2B75C7F3DC
:4004800007436B75C7F30723AB75EF750196330E2B76C6F307436B76C6F30723AB76EE761823EB702346224605E00749C95C0A44D2B20133DBB21B2BF7D9034802771D2179
:4004C000FFF768FE03B0F0BDB0C3FF1F10B582B0ADF80600ADF804100F4BAA221A705A7003229A700022040A1C715871080A9871D9710421D970134605E00749C95C0A4451
:40050000D2B20133DBB2072BF7D9034802720921FFF740FE02B010BDB0C3FF1F10B582B0104BAA221A705A7005229A700022040A1C715871ADF80610080A9871D9710421D9
:40054000D970134605E00749C95C0A44D2B20133DBB2072BF7D9034802720921FFF71AFE02B010BDB0C3FF1F2DE9F04182B06E4B93F838206D4BA3FB02139B0803EB83034C
:40058000D31ADBB2042B02D10121694B9970694BA3FB0213DB0803EB830103EB4103D31ADBB20A2B02D10121614B5970624BA3FB02139B0803EB430103EB8103D31ADBB2B8
:4005C0000C2B02D101215A4B5972584BA3FB02131B0903EB83039B00D31ADBB2132B02D10121534BD972554BA3FB02131B09322101FB1323DBB2312B02D101214C4B197343
:400600000132494B83F83820494B1B781BB10022474B1A7084E0464B5B7853B10020444B5870474B59789A88464B1B88FFF7C8FE76E03F4B9B78002B5AD000243C4B9C7038
:40064000414EB6F90C0001F0A3FE00224FF07C5301F004FF00223D4B01F000FF02F010F98046314DE863B6F90E0001F091FE00224FF07C5301F0F2FE0022344B01F0EEFE8A
:4006800002F0FEF807462864B6F9100001F080FE00224FF07C5301F0E1FE00222B4B01F0DDFE02F0EDF8064668644046284902F037F980463846264902F032F9054630464E
:4006C000234902F02DF90746404602F079FA0646284602F075FA0546384602F071FA024600940194304629462346FFF793FE17E00F4B5B7A43B100220D4B5A72104B188C58
:40070000598CFFF7E3FE0BE0094B1B7B43B10022074B1A730F4B18880F4B1988FFF7FEFE02B0BDE8F08100BF44C1FF1FCDCCCCCCE4C3FF1FA38B2EBA4FECC44E1F85EB5169
:4007400060C3FF1F88C3FF1F8CC3FF1F0080664000007A44ACC3FF1FA4C3FF1F10B50C460346B8B9022915D001F0CCFA204601F0E1FA194B1B7833B9012001F0CFFA0122C1
:40078000154B1A7010BD002001F0C8FA0022124B1A7010BD012B18D1022C16D0002001F0D5FA204601F0EAFA0B4B1B7833B9012001F0D8FA0122084B1A7010BD002001F0FE
:4007C000D1FA0022044B1A7010BD012001F09AFA012001F0BBFA10BD8CC1FF1F10B50C4600F0C4FD34B9012000F07CFD002000F085FD10BD012C06D1002000F073FD01207E
:4008000000F07CFD10BD002000F06CFD002000F075FD10BD10B50C4600F0A8FD34B9012000F060FD002000F069FD10BD012C06D1002000F057FD012000F060FD10BD0020AD
:4008400000F050FD002000F059FD10BD10B50C4600F092FD34B9012000F05CFD002000F065FD10BD012C06D1002000F053FD012000F05CFD10BD002000F04CFD002000F0D8
:4008800055FD10BD10B504460021FFF7A7FF20460021FFF7BFFF20460021FFF7D7FF20460021FFF7D3FF10BD10B504460121FFF795FF20460121FFF7ADFF20460121FFF740
:4008C000C5FF20460121FFF7C1FF10BD08B50D4B0822DA7043F2B06199805A709A70012001F010FA002001F025FA002001F016FA012001F02BFA002001F040FA002001F06D
:4009000031FA08BD60C3FF1F84B008B50DF1080E8EE80F009DF80A3023B900200146FFF71DFF1CE0012B04D100200121FFF716FF15E0022B04D101200021FFF70FFF0EE063
:40094000032B04D101200146FFF708FF07E000200221FFF703FF01200221FFF7FFFEBDE8084004B0704700BF38B50446450828460021FFF733FF28460021FFF74BFF20462F
:400980000121FFF763FF20460121FFF75FFF38BD10B504460121FFF721FF20460121FFF739FF640820460021FFF750FF20460021FFF74CFF10BD00BF08B500200221FFF76D
:4009C0000DFF00200221FFF725FF00200221FFF73DFF00200221FFF739FF08BD84B010B502AC84E80F009DF809401CB9BDF80C00FFF748FF012C03D1BDF80C00FFF754FF05
:400A0000022C03D1BDF80C00FFF7AEFF032C03D1BDF80C00FFF7BCFF082C01D1FFF7CCFFBDE8104004B070472DE9F04186B0194DD5F80080D5F804C0D5F808E0EF686E4633
:400A40002C4654F8100F6168A268E3680FC620693060A38AB3804046614672463B46FFF7BDFFD5F800C0D5F804E0AF68EE686D4620686168A268E3680FC520692860A38AFF
:400A8000AB80604671463A463346FFF73DFF06B0BDE8F08160C3FF1F08B501F00DF801F01FF808BD38B50546002407E0284601F01BF80D4B23F814000134E4B2632CF5D992
:400AC0000022134605E0084931F913100A440133DBB2632BF7D9054880FB0230D217C2EB601000B238BD00BF90C1FF1F1F85EB510222044B1A705422034B1A700522034B16
:400B00001A707047E9E9FF1F10EAFF1F20E0FF1FFEE700BF08B5104E104D16E029686B68AC68002204E051F8040B43F8040B0432A242F8D1E868002203E0002143F8041B69
:400B400004328242F9D11035013E002EE6D102F05DF8FFF797FAFEE701000000D82C000008B5134A134B1A60134A136843F40073136000230AE0032B03D8104A52F82310BC
:400B800000E00F490F4A42F8231001332F2BF2D90D4B1A780D4B1A700A4A0D4B1A6000F0E7F800F0C1F900220A4B1A6008BD00BF0004FA050CED00E014ED00E00000000041
:400BC000110B000000C0FF1FBC76004004C1FF1F08ED00E000C1FF1FF0B40022174611E050F82760F3B226F0FF0608E001EB420511F812406D78A5550132013BDBB2002BD3
:400C0000F4D10137292FEBD9F0BC704770B4174B1B78DBB216480278D2B2164C2178C9B203F00706144D2E701B0901352B7042F00303037041F00303237044250F4B1D7007
:400C4000042640331E7040230D4E33700236337006F21D26337020260A4B1E7021700270A3F2AD231D7070BC704700BFCF010049F8460040F94600406E5800400D510040B5
:400C800001590040235B004008B50A46002101F0EEFF08BD38B50E222A4B1A8018232A4A137017210232118002321370192502321580023213700232158002321370022297
:400CC000224B1A7008224FF040231A70042203F500731A701E4B1B78DBB21E4A137001221D4B1A804FF4716203F21E231A8041F25122023B1A8000240CE0184B1B7803F097
:400D0000010343EA440404F003044FF4F07000F0FBF8013D0DB1032CEFD10F4B07221A7000210F4A117048210232117001221A700222033B1A700B4A137843F00F03137067
:400D400038BD00BF80400040824000400043004089010049A1460040044000402542004006400040A243004008B501F075FF08BD70B572B6464A137843F00403137000243A
:400D80000CE0444963001A1952000A4423445B00C8589188FFF778FF0134E4B2052CF0D900240BE03B49A3001A1952000A44506A916A8022FFF7D8FF0134E4B2002CF1D072
:400DC0004FF090403449FFF707FF34480421FFF75BFF334833490422FFF7C6FF324A137843F0020313701032137843F0020313702E4C237843F040032370A2F58632513A60
:400E0000137843F01003137029482A490A22FFF7ABFF294829490822FFF7A6FF284829490822FFF7A1FF284828490822FFF79CFF274828490A22FFF797FF274827490A2225
:400E4000FFF792FF264827490A22FFF78DFF264826490A22FFF788FF254826490A22FFF783FF254A137843F008031370234E01253570FFF70FFF81233370214B1D70FFF728
:400E8000C5FE204821460E22FFF76EFF70BD00BFE8460040842C0000A80000480076004008760040E410004803500140A04300400051004084100048C25100409010004804
:400EC000F25100409810004812510040A010004820510040A810004830510040B410004840510040C010004850510040CC10004860510040D810004822430040004800402A
:400F000004000840B04300400230800803D000BF01380046FCD17047EFF3108072B6704780F31088704700BF0B4A7F2313708021517007E0DA0002F1804202F5F042013B5A
:400F4000DBB21370002BF5D1DB0003F1804303F5F04300221A7070470CC1FF1F172815D831B103010A495A5C42F020025A5405E0030107495A5C02F0DF025A540001044A89
:400F8000835C43F00103835400207047012070471070004017280CD80001074BC1180A7942F004020A71C25C42F00102C254002070470120704700BF1070004017280BD897
:400FC0000001064A835C03F0F10301F0070143EA4101815400207047012070471070004041F6FF73994201D14FF4005141F6FF739A4201D14FF40052172808D8C00000F188
:40100000804000F5EC408180C280002070470120704700BF172805D8034B03EB0010417200207047012070471070004017281BD810B4C00000F1804404F5EC44D201D2B2A9
:4010400001F07F01114321709DF804201201D2B203F00F03134363709DF8083003F00F03A3700020E07001E0012070475DF8044B704700BF10B5FFF74FFF0A4B5B78182B00
:401080000BD9084A1478013B5370E30003F1804303F5F0431B78137000E0FF24FFF740FF204610BD0CC1FF1F10F0800F0CD111F4704F0BD1C00000F1804000F5F04001801B
:4010C0008270C37000207047012070470120704710F0800F08D1C00000F1804000F5F0408180C280002070470120704701BE704710B5044605E0084B1868FFF705FFA4F584
:401100000044B4F5004FF6D8034B586800FB04F0FFF7FAFE10BD00BF14C1FF1F08B5034B1B7A03FB00F0FFF7EFFE08BD14C1FF1F7222084B1A702022F9331A700622A3F5E9
:40114000B0731A70472210331A70012251331A70704700BF8C64004010B5FFF7DDFE04460A4A137843F020031370F932137843F010031370FF3A137843F01003137000F021
:401180004BF82046FFF7CCFE10BD00BF9C64004008B5054B1B7823B9FFF7CAFF0122024B1A70FFF7D9FF08BD20C3FF1F084B1B78DBB213F0200F06D0064A1078C0B213F069
:4011C0001E0F02D17047002070470020704700BF6565004043640040034B1B7813F0040FFAD1024B187070476664004046640040084B1B7833B97047305DFFF7EDFF01346B
:40120000E4B203E070B50D4606460024AC42F3D370BD00BF20C3FF1F054A137843F0080313701032137843F008031370704700BFA2430040704700BF014B1B6898657047EF
:4012400008ED00E04001C0B2014B1870704700BF06E400E04022014B1A60704700E100E04022014B1A60704780E100E008B5FFF7F7FF0448FFF7E0FF0720FFF7E3FFFFF753
:40128000E9FF08BD3512000008B5FFF78FFFFFF741F808BD014B1B689864704708ED00E04001C0B2014B1870704700BF02E400E00422014B1A60704700E100E00422014B15
:4012C0001A60704780E100E008B5FFF7F7FF0448FFF7E0FF0720FFF7E3FFFFF7E9FF08BD89120000044A137803F0FE0300F0010018431070704700BFC0510040044A13783C
:4013000003F0BF03800100F0400018431070704730510040044A137803F0FD03400000F00200184310707047C0510040044A137803F07F03C001C0B203431370704700BF53
:4013400030510040024A137843F080031370704777650040014B1880704700BF146A0040014B1880704700BF946A0040014B1880704700BF546A0040014B1880704700BF67
:40138000746A0040014B1870704700BF8B650040014B1878704700BF6B650040014B188880B27047B46A004008B501E0FFF7F6FFFFF7EEFF10F0100FF8D108BD10B5174AC1
:4013C000137803F0C00343F0090313702332137843F001031370124C237843F00103237044F62060FFF7B6FF44F62060FFF7B8FF43F2B060FFF7BAFF3F20FFF7BDFF00209C
:40140000FFF7C0FFFFF788FD237843F010032370FFF786FDFFF7C8FF10BD00BF776500409B65004008B5054B1B7823B9FFF7C6FF0122024B1A70FFF785FF08BD22C3FF1F77
:40144000024A137843F080031370704779640040014B1870704700BF89640040014B1878704700BF69640040014B1880704700BF50680040014B188880B270479068004053
:40148000014B1880704700BF1068004008B501E0FFF7F0FFFFF7E2FF10F0080FF8D108BD08B545F6BF50FFF7DFFF45F6BF50FFF7E7FFFFF731FD064A137843F01003137052
:4014C000FFF72EFDFFF7E2FF0120FFF7C1FF08BD9964004008B5054B1B7823B9FFF7E0FF0122024B1A70FFF7ABFF08BD23C3FF1F10B41C4B1988013189B219801A4B188890
:40150000013080B21880194A138801339BB21380174C2288013292B22280B0F57A7F05D901241448048000240F480480052905D901201149087000200A490880642A05D992
:4015400000210B4A118001210C4A1180032B05D90022064B1A800122094B1A805DF8044B704700BFF0E9FF1FEEE9FF1FF6E9FF1FF4E9FF1FEAE9FF1FF8E9FF1FECE9FF1F50
:40158000F2E9FF1F014B1B685865704708ED00E04001C0B2014B1870704700BF05E400E02022014B1A60704700E100E02022014B1A60704780E100E008B5FFF7F7FF0448DF
:4015C000FFF7E0FF0720FFF7E3FFFFF7E9FF08BDF11400007222074B1A702022033B1A700622A3331A70472210331A70002253331A7070478564004010B5FFF78DFC044697
:401600000A4A137843F020031370033A137843F01003137002F58372137843F01003137000F0BCF82046FFF77BFC10BD9564004008B5054B1B7823B9FFF7CCFF0122024BF7
:401640001A70FFF7D9FF08BD24C3FF1F084B1B78DBB213F0200F06D0064A1078C0B213F01E0F02D17047002070470020704700BF626400404164004038B5324C2578FFF773
:40168000E5FF25442871237813B92279552A57D10133DBB22B4A13700B2B51D1134600221A701B79552B4BD1264B5B79522B1AD0532B2FD0512B43D1224BD8799979224A60
:4016C00041EA00211180587A197A41EA00215180D87A997A41EA00219180597B1B7B43EA0123538238BD174BD8799979164A41EA0021D180587A197A41EA00211181D87AED
:40170000997A41EA00215181597B1B7B43EA0123538238BD0B4BD87999790B4A41EA00219181587A197A41EA0021D181D87A997A41EA00211182597B1B7B43EA01235382B0
:4017400038BD00BF28C3FF1F8CC3FF1F014B1B685864704708ED00E04001C0B2014B1870704700BF01E400E00222014B1A60704700E100E00222014B1A60704780E100E022
:4017800008B5FFF7F7FF0448FFF7E0FF0720FFF7E3FFFFF7E9FF08BD79160000054A137843F0040313701032137843F004031370704700BFA2430040024A137843F08003E5
:4017C0001370704779650040014B1880704700BF106A0040014B1880704700BF906A0040014B1880704700BF506A0040014B1880704700BF706A0040014B1870704700BFD7
:4018000089650040014B1878704700BF69650040014B188880B27047B06A004008B501E0FFF7F6FFFFF7EEFF10F0100FF8D108BD10B5174A137803F0C00343F009031370A9
:401840001F32137843F001031370124C237843F00103237042F21070FFF7B6FF42F21070FFF7B8FF42F21070FFF7BAFF42F21070FFF7BCFF0020FFF7BFFFFFF74DFB2378DA
:4018800043F010032370FFF74BFBFFF7C7FF10BD796500409965004008B5054B1B7823B9FFF7C6FF0122024B1A70FFF785FF08BD38C3FF1F024A137843F0800313707047DE
:4018C00074650040014B1880704700BF0C6A0040014B1880704700BF8C6A0040014B1880704700BF4C6A0040014B1880704700BF6C6A0040014B1870704700BF87650040F9
:40190000014B1878704700BF67650040014B188880B27047AC6A004008B501E0FFF7F6FFFFF7EEFF10F0100FF8D108BD10B5174A137803F0C00343F00903137022321378FD
:4019400043F001031370124C237843F00103237042F21070FFF7B6FF42F21070FFF7B8FF42F21070FFF7BAFF42F21070FFF7BCFF0020FFF7BFFFFFF7CFFA237843F01003EE
:401980002370FFF7CDFAFFF7C7FF10BD746500409765004008B5054B1B7823B9FFF7C6FF0122024B1A70FFF785FF08BD39C3FF1F10B5022001214FF4804241F6FF7300F0C8
:4019C00055F9084C20700620012141F6FF72134600F06CF96070044800F086F9002000F089F910BD3CC3FF1F051B000070B52C4C2078FFF7CFFA6078FFF7CCFA294B1B7861
:401A0000FF2B03D1FFF736FB264B1870254D2A78104606210B46FFF747FB214E341DA4B2287845F6A0312246FFF752FB30782978FFF7F0FA6B78FF2B02D1FFF71BFB687014
:401A4000184D6A78104606210723FFF72DFB68782146154A92B2FFF73BFB114C60786978FFF7D8FA20780121FFF778FA60780121FFF774FAFFF750FA0C4A137843F020036F
:401A80001370FFF74DFA0A4B1A7842F001021A701A7842F002021A700122064B1A6070BD3CC3FF1F24C1FF1FFCE9FF1F9B6400407864004080E200E008B5074BDB6823B965
:401AC000FFF776FF0122044BDA60FFF78FFF00F0B7F8024B1B7808BD3CC3FF1F6A64004008B500F0BBF808BDC0F10200034B33F81030034A1088181A00B27047FCE9FF1FC8
:401B000006EAFF1F704700BF08B50A280FD00C2802D0082806D102E04FF4805209E04FF4807206E00020FFF7E1FA002201E04FF480620021094B198042F2107303FB02F37A
:401B400003F6C413064A82FB0302DB17C3EBE223044A1360044B198008BD00BF04EAFF1FAD8BDB6808EAFF1F06EAFF1F10B5FFF7D3F90446184A137843F001031370103292
:401B8000137843F00103137002F5AA520832137843F0030313701822104B1A70013B1A7842F040021A701A7802F0FC021A70C822053B1A700222A3F597530C3B1A70084AF8
:401BC000137843F0080313700A20FFF7A7FA2046FFF7A6F910BD00BFAB43004006590040275B004010B504460A280DD00C2802D0082804D101E0C22207E0422205E0002084
:401C0000FFF774FAC22200E08222034B1A702046FFF77AFF10BD00BF0259004008B5064A137843F0060313700C20FFF7DBFF0022024B1A8008BD00BF015900400CEAFF1F76
:401C400008B5054B1B7823B9FFF7E8FF0122024B1A70FFF78BFF08BD4CC3FF1F024A137843F001031370704700590040F0B583B086460F4616461D460B4C012323700022D6
:401C800000920192184671463A46FFF7CFF9207831462A46FFF7A4F920780221FFF78EF9207803B0F0BD00BF26C1FF1FF0B583B086460F4616461D460A4C0023237000934F
:401CC0000193184671463A46FFF7B0F9207831462A46FFF785F920780221FFF76FF9207803B0F0BD27C1FF1F014B1B681864704708ED00E04001C0B2014B1870704700BF3E
:401D000000E400E0044A137803F0DF03400100F0200018431070704730510040044A137803F0EF03000100F0100018431070704730510040044A137803F0F703C00000F005
:401D4000080018431070704730510040044A137803F0FB03800000F0040018431070704730510040044A137803F0FD03400000F0020018431070704730510040044A13784D
:401D800003F0FE0300F0010018431070704700BF30510040044A137803F0F703C00000F0080018431070704720510040024A137843F08003137070477E640040014B1870AE
:401DC000704700BF8E640040014B1878704700BF6E640040014B1880704700BF54680040014B188880B2704794680040014B1880704700BF1468004000F00300044B1A7886
:401E000002F0FC021A701A7810431870704700BF7E64004008B501E0FFF7E2FFFFF7D4FF10F0080FF8D108BD08B54FF6FF70FFF7D1FF4FF6FF70FFF7D9FFFFF76DF8084ADA
:401E4000137843F010031370FFF76AF80020FFF7D3FFFFF7DFFF0220FFF7B0FF08BD00BF9E64004008B5054B1B7823B9FFF7DCFF0122024B1A70FFF799FF08BD4DC3FF1FA5
:401E800010B5154C237801332370FFF7A9FFC04380B260802378022B1AD1A388984202D3C01AE08003E0C01A01380B4BD8800A4B00225A801A70DA88642303FB02F3074A74
:401EC00082FB03121A44DB17C3EB6213044A1384014B5A889A8010BD4EC3FF1F09CB3D8D60C3FF1F014B1B681865704708ED00E04001C0B2014B1870704700BF04E400E038
:401F00001022014B1A60704700E100E01022014B1A60704780E100E008B5FFF7F7FF0448FFF7E0FF0720FFF7E3FFFFF7E9FF08BD811E000010B5154C23780133237000F0BE
:401F400079F8C04380B260802378022B1AD1A388984202D3C01AE08003E0C01A01380B4BD8800A4B00225A801A70DA88642303FB02F3074A82FB03121A44DB17C3EB621363
:401F8000044A5384014B5A889A8010BD56C3FF1F09CB3D8D60C3FF1F014B1B68D864704708ED00E04001C0B2014B1870704700BF03E400E00822014B1A60704700E100E00E
:401FC0000822014B1A60704780E100E008B5FFF7F7FF0448FFF7E0FF0720FFF7E3FFFFF7E9FF08BD351F0000044A137803F0FD03400000F0020018431070704720510040F8
:40200000024A137843F08003137070477F640040014B1870704700BF8F640040014B1878704700BF6F640040014B1880704700BF5C680040014B188880B270479C6800405D
:40204000014B1880704700BF1C68004000F00300044B1A7802F0FC021A701A7810431870704700BF7F64004008B501E0FFF7E2FFFFF7D4FF10F0080FF8D108BD08B54FF609
:40208000FF70FFF7D1FF4FF6FF70FFF7D9FFFEF743FF084A137843F010031370FEF740FF0020FFF7D3FFFFF7DFFF0220FFF7B0FF08BD00BF9F64004008B5054B1B7823B992
:4020C000FFF7DCFF0122024B1A70FFF799FF08BD5EC3FF1F044A137803F0FD03400000F00200184310707047F051004081F0004102E000BF83F0004330B54FEA41044FEACD
:40210000430594EA050F08BF90EA020F1FBF54EA000C55EA020C7FEA645C7FEA655C00F0E2804FEA5454D4EB5555B8BF6D420CDD2C4480EA020281EA030382EA000083EAD8
:40214000010180EA020281EA0303362D88BF30BD11F0004F4FEA01314FF4801C4CEA113102D0404261EB410113F0004F4FEA03334CEA133302D0524263EB430394EA050F2A
:4021800000F0A780A4F10104D5F1200E0DDB02FA0EFC22FA05F2801841F1000103FA0EF2801843FA05F359410EE0A5F120050EF1200E012A03FA0EFC28BF4CF0020C43FAD4
:4021C00005F3C01851EBE37101F0004507D54FF0000EDCF1000C7EEB00006EEB0101B1F5801F1BD3B1F5001F0CD349085FEA30004FEA3C0C04F101044FEA445212F5800F02
:4022000080F09A80BCF1004F08BF5FEA500C50F1000041EB045141EA050130BD5FEA4C0C404141EB010111F4801FA4F10104E9D191F0000F04BF01460020B1FA81F308BFE4
:402240002033A3F10B03B3F120020CDA0C3208DD02F1140CC2F10C0201FA0CF021FA02F10CE002F11402D8BFC2F1200C01FA02F120FA0CFCDCBF41EA0C019040E41AA2BF44
:4022800001EB0451294330BD6FEA04041F3C1CDA0C340EDC04F11404C4F1200220FA04F001FA02F340EA030021FA04F345EA030130BDC4F10C04C4F1200220FA02F001FAC4
:4022C00004F340EA0300294630BD21FA04F0294630BD94F0000F83F4801306BF81F480110134013D4EE77FEA645C18BF7FEA655C29D094EA050F08BF90EA020F05D054EAC9
:40230000000C04BF1946104630BD91EA030F1EBF0021002030BD5FEA545C05D14000494128BF41F0004130BD14F580043CBF01F5801130BD01F0004545F0FE4141F4700169
:402340004FF0000030BD7FEA645C1ABF194610467FEA655C1CBF0B46024650EA013406BF52EA033591EA030F41F4002130BD00BF90F0000F04BF0021704730B54FF480646F
:4023800004F132044FF000054FF0000150E700BF90F0000F04BF0021704730B54FF4806404F1320410F0004548BF40424FF000013EE700BF42004FEAE2014FEA31014FEA23
:4023C00002701FBF12F07F4393F07F4F81F06051704792F0000F14BF93F07F4F704730B54FF4607401F0004521F0004120E700BF50EA010208BF704730B54FF000050AE01B
:4024000050EA010208BF704730B511F0004502D5404261EB41014FF4806404F132045FEA915C3FF4DCAE4FF003025FEADC0C18BF03325FEADC0C18BF033202EBDC02C2F14E
:40244000200300FA03FC20FA02F001FA03FE40EA0E0021FA02F11444C1E600BF70B54FF0FF0C4CF4E06C1CEA11541DBF1CEA135594EA0C0F95EA0C0F00F0DEF82C4481EAB0
:40248000030621EA4C5123EA4C5350EA013518BF52EA033541F4801143F4801338D0A0FB02CE4FF00005E1FB02E506F00042E0FB03E54FF00006E1FB03569CF0000F18BF13
:4024C0004EF0010EA4F1FF04B6F5007F64F5407404D25FEA4E0E6D4146EB060642EAC62141EA55514FEAC52040EA5E504FEACE2EB4F1FD0C88BFBCF5E06F1ED8BEF1004F62
:4025000008BF5FEA500E50F1000041EB045170BD06F0004646EA010140EA020081EA0301B4EB5C04C2BFD4EB0C0541EA045170BD41F480114FF0000E013C00F3AB8014F1C5
:40254000360FDEBF002001F0004170BDC4F10004203C35DA0C341BDC04F11404C4F1200500FA05F320FA04F001FA05F240EA020001F0004221F0004110EBD37021FA04F6C2
:4025800042EB06015EEA430E08BF20EAD37070BDC4F10C04C4F1200500FA04F320FA05F001FA04F240EA020001F0004110EBD37041F100015EEA430E08BF20EAD37070BDD4
:4025C000C4F1200500FA05F24EEA020E20FA04F301FA05F243EA020321FA04F001F0004121FA04F220EA020000EBD3705EEA430E08BF20EAD37070BD94F0000F0FD101F0C9
:402600000046400041EB010111F4801F08BF013CF7D041EA060195F0000F18BF704703F00046520043EB030313F4801F08BF013DF7D043EA0603704794EA0C0F0CEA13550E
:4026400018BF95EA0C0F0CD050EA410618BF52EA4306D1D181EA030101F000414FF0000070BD50EA410606BF1046194652EA430619D094EA0C0F02D150EA013613D195EAD8
:402680000C0F05D152EA03361CBF104619460AD181EA030101F0004141F0FE4141F470014FF0000070BD41F0FE4141F4780170BD70B54FF0FF0C4CF4E06C1CEA11541DBF99
:4026C0001CEA135594EA0C0F95EA0C0F00F0A7F8A4EB050481EA030E52EA03354FEA013100F088804FEA03334FF0805545EA131343EA12634FEA022245EA111545EA1065EF
:402700004FEA00260EF000419D4208BF964244F1FD0404F5407402D25B084FEA3202B61A65EB03055B084FEA32024FF480104FF4002CB6EB020E75EB030E22BFB61A75462E
:4027400040EA0C005B084FEA3202B6EB020E75EB030E22BFB61A754640EA5C005B084FEA3202B6EB020E75EB030E22BFB61A754640EA9C005B084FEA3202B6EB020E75EB3A
:40278000030E22BFB61A754640EADC0055EA060E18D04FEA051545EA16754FEA06164FEAC30343EA52734FEAC2025FEA1C1CC0D111F4801F0BD141EA00014FF000004FF0CF
:4027C000004CB6E711F4801F04BF01430020B4F1FD0C88BFBCF5E06F3FF6AFAEB5EB030C04BFB6EB020C5FEA500C50F1000041EB045170BD0EF0004E4EEA113114EB5C04C4
:40280000C2BFD4EB0C0541EA045170BD41F480114FF0000E013C90E645EA060E8DE60CEA135594EA0C0F08BF95EA0C0F3FF43BAF94EA0C0F0AD150EA01347FF434AF95EAF1
:402840000C0F7FF425AF104619462CE795EA0C0F06D152EA03353FF4FDAE1046194622E750EA410618BF52EA43067FF4C5AE50EA41047FF40DAF52EA43057FF4EBAE12E7B3
:402880004FEA4102B2F1E04324BFB3F5001CDCF1FE5C0DD901F0004C4FEAC0024CEA5070B2F1004F40EB830008BF20F00100704711F0804F21D113F13872BCBF01F00040A9
:4028C000704741F480114FEA5252C2F11802C2F1200C10FA0CF320FA02F018BF40F001004FEAC1234FEAD32303FA0CFC40EA0C0023FA02F34FEA4303CCE77FEA625307D1F4
:4029000050EA01331EBF4FF0FE4040F44000704701F0004040F0FE4040F40000704700BF4FF0FF0C1CEAD0521EBF1CEAD15392EA0C0F93EA0C0F6FD01A4480EA010C40025D
:4029400018BF5FEA41211ED04FF0006343EA501043EA5111A0FB01310CF00040B1F5000F3EBF490041EAD3715B0040EA010062F17F02FD2A1DD8B3F1004F40EBC25008BF49
:4029800020F00100704790F0000F0CF0004C08BF49024CEA502040EA51207F3AC2BFD2F1FF0340EAC250704740F400004FF00003013A5DDC12F1190FDCBF00F0004070479C
:4029C000C2F10002410021FA02F1C2F1200200FA02FC5FEA310040F1000053EA4C0308BF20EADC70704792F0000F00F0004C02BF400010F4000F013AF9D040EA0C0093F05D
:402A0000000F01F0004C02BF490011F4000F013BF9D041EA0C018FE70CEAD15392EA0C0F18BF93EA0C0F0AD030F0004C18BF31F0004CD8D180EA010000F00040704790F054
:402A4000000F17BF90F0004F084691F0000F91F0004F14D092EA0C0F01D142020FD193EA0C0F03D14B0218BF084608D180EA010000F0004040F0FE4040F40000704740F0A8
:402A8000FE4040F4400070474FF0FF0C1CEAD0521EBF1CEAD15392EA0C0F93EA0C0F69D0A2EB030280EA010C49024FEA402037D04FF0805343EA111143EA10130CF00040EB
:402AC0008B4238BF5B0042F17D024FF4000C8B4224BF5B1A40EA0C00B3EB510F24BFA3EB510340EA5C00B3EB910F24BFA3EB910340EA9C00B3EBD10F24BFA3EBD10340EA1C
:402B0000DC001B0118BF5FEA1C1CE0D1FD2A3FF650AF8B4240EBC25008BF20F0010070470CF0004C4CEA50207F32C2BFD2F1FF0340EAC250704740F400004FF00003013A17
:402B400037E792F0000F00F0004C02BF400010F4000F013AF9D040EA0C0093F0000F01F0004C02BF490011F4000F013BF9D041EA0C0195E70CEAD15392EA0C0F08D14202A8
:402B80007FF47DAF93EA0C0F7FF470AF084676E793EA0C0F04D14B023FF44CAF08466EE730F0004C18BF31F0004CCAD130F000427FF45CAF31F000437FF43CAF5FE700BF24
:402BC0004FEA4002B2F1FE4F0FD34FF09E03B3EB12620DD94FEA002343F0004310F0004F23FA02F018BF404270474FF00000704712F1610F01D1420205D110F0004008BF14
:402C00006FF0004070474FF0000070470E4B70B51E460E4C0025E41AA410A54204D056F8253098470135F8E700F044F8084B094C1E46E41AA4100025A54204D056F8253076
:402C400098470135F8E770BDC02C0000C02C0000C02C0000C82C000010B5431E0A44914204D011F8014B03F8014FF8E710BD03460244934202D003F8011BFAE7704700002F
:402C80000000000000000140800000010140000F00140140000800400140000A004C01400002005001402000800001400410004880000000F8B500BFF8BC08BC9E467047BE
:402CC0004D000000610B0000F8B500BFF8BC08BC9E46704729000000E82C000008C1FF1F20000000E8280000000000007F800000030000000000E02EC05D00001800000003
:402D000000366E01FFFFFFFF0000000000000000000000000000000000000000000000000000000000000000000000000000000000000000000000000000000000000000F2
:402D40000000000000000000000000000000000000000000000000000000000000000000000000000000000000000000000000000000000000000000000000000000000053
:402D80000000000000000000000000000000000000000000000000000000000000000000000000000000000000000000000000000000000000000000000000000000000013
:402DC00000000000000000000000000000000000000000000000000000000000000000000000000000000000000000000000000000000000000000000000000000000000D3
:402E00000000000000000000000000000000000000000000000000000000000000000000000000000000000000000000000000000000000000000000000000000000000092
:020000040001F9
:0200000480007A
:400000000F520040015B004008640040066500400B0001403A010140590201405503014044040140580501404206014058070140610801404A090140430A01404E0B014079
:400040004A0C0140470D0140630E0140320F01404F1401404915014068160140511701404B180140481901404B1A01404E1B014011400140134101400A420140094301409E
:40008000044401400945014008460140094701400C48014005490140054C01400D4D01400C500140035101400044010409C01080141420082104241028F029A03180344034
:4000C00061C078047908278482388572860F890D8B028C728E0F8F0F840F8538870F880F890F8B0F0C01100114011C01220124012C013001580459045F010140058406A85F
:40010000084009020A100D100E600F101001110112101588164017101A801D041E4A25042620271128012A012B012D802E082F483040320233403504361039433A103B20EE
:400140003C023D283E40452046A04E804F5057106102620179207B08821286208740C0F1C27DC4FDCAF9CC69CEFDD0E0D23000010226041F05020F0113041414150116491F
:40018000181F19011F04240A250826D129082D08300732183304346035083680370339803E103F0454185604580459045B045C225D205F018303880289038A158C278D0399
:4001C0009101930298049A0A9C209D029F01A027A103A401A60AAD03B102B207B301B420B618BA02BE40C032C106C205C401C50CC60EC805C9FFCAFFCBFFCC62CDA0CEF046
:40020000CF41D00CD804D904DA04DC03DD03DF01E640E702E910EA30EB10ED10EE10EF120090021003100408050106400A090C200E10101013011508181119081A441C0202
:400240001D211E1022012310259027102A012B012C202D042F0A3242334035103680370539423B203D803F084001410842044A084B4450805E026440669083018440860181
:4002800088408A028B408D408E58910895E2972098109B019D809E499F40A2A5A310A401A530A612A701A910AAC0AD04AF40B010C033C263C42CCA79CCF9CE5DD00ED20C30
:4002C000D680D8B0E28BE608EE082201260134013E10580459045F018315853387048A808B408E1C941C952A96A3970498A19A0E9B409C409D339E839F0CA308A580A6089A
:40030000A903AB04ACA1AE16B080B10FB20FB330B41AB580B660B740B880B908BA28BB02BE01BF54C002C640C9FFCA07CBFFCC40CD20CEF0CF05D008D602D712D804D9043B
:40034000DA04DB04DC33DD23DF01E040E1A8E240E3200010014003200540060408810E140F0110841108120115101624174019201C401D641E141F40276928802D182F407C
:4003800030453108350436203740381039403A013B203E043F2141104310468047214F0156205E08624063016C046D046F0A7580760877107D807F0182128440850887212E
:4003C0008901934494089566968897209D909E899F04A080A180A224A310A540A610A70FAD08AE01AF10B204B508C0C7C2E9C4AFCAE1CC7BCEEDD020D640E202E608EA0282
:40040000EE01011407A009100D100F0C111C1302178019E01F0321092310250C271129E02D402F80311F3360378039083F444014410245EE47BC483349FF4AFF4BFF4EF022
:400440004F44500C54015604580459045A045B045C305D335F0166C06A406B02C032C106C5BCC6E0C80BC9FFCAFFCBFFCEF0CF44D00CD280D804D904DA04DB04DD12DF015D
:40048000E6C0EA40EB02000801400601072008810C410D010F2010461320154016082688278028802E042F49304635143602378039423A083C043D803E203F0A4004430CB0
:4004C000456046404740484049144D095220560457015C405D115F086501724080828140824183108404860887108B8090409110920493C4954296809722984499209A60FE
:400500009B489C819D199E059F04A1A0A202A610A704A904B204B501C0A5C2B9C4CBCAF1CCFBCEFBD0B6D204D6F0D880E060E204E607EA04EE440102050809200A040B1097
:400540000D400F8011101208132015011A011B041D04230227082A022B012D802F40300832043401360237FF3F40405649FF4AFF4BFF4F01501852035302580459045A047E
:400580005B045D095F016040624064406540668068806A806C806E808202830489089101920194029B04A204A303AA01B006B102B301B401B504B601B708BE40BF50C056E8
:4005C000C5ECC702C813C9FFCAFFCBFFCD83CE03CF01D018D280D401D804D90CDA04DB04DC09DD99DF01E040E240E440E540E680E880EA80EC80EE800102070809080B4087
:400600000E441248151019821B101C801E021F28210A22442304270129022C842E402F683020310234013611374839223C803D303E8649054A084B404E084F405208598552
:400640006C086F0273407B028080820183208708888089108E40924497809A029B489C419E88A111A204A448A611A73AAA08B001B324C048C25CC44ACAF1CCF5CEF5D23C3B
:40068000D60BDE08E060E420EA80EE044032420549FF4AFF4BFF4F0150185401580459045A045B0C5D015F016040624064406540668068806A806C806E8088019402980C16
:4006C0009C089E04A004A208A40CA802B202B401B60CB808BE14C032C205C5ECC620C80BC9FFCAFFCBFFCD83CE03CF01D018D602D739D804D904DA04DB0CDC03DD01DF01F5
:40070000E040E240E440E540E680E880EA80EC80EE8000800328060808210C280E010F1011041340150217241C021D041E0928202E802F2830013328361139243BC03D04FF
:400740003F40412442204520462049404D8A5520561058405F1065046D206E446F40760277087B027F028460851086108904910A970899C09B049D0A9E10A020A101A208AB
:40078000A440A710AB10AF01B001B120B304B501B720C047C2EAC475CA72CCA7CE5ED066D218D628D840DE18E020E840EC20007C01080202045C05040621087F090C0C671E
:4007C0000DF30E180F0C1141150F17F019FF1A231E042004210C23F3240825C3281829822C102FD331C0324033203438351C361F370F39083A803BA03E04560257115804DE
:4008000059045B045C335D305F01801887018B018C20900292019302941898019A069C089E10A808AA10AE03B004B238B403B502B603B701BA0CBE40BF40D804D904DC1136
:40084000DF010002018004690514070109200A520F06100A15161601171819C01A581B041C011E201F502004224024082501260827012C012F6431013514370239083A1001
:400880003C403D143E025E206C206F06760377188304842086048702884289048B108C1091029202940496809B029D4BA00BA301A704AF20B010B181B302C0F9C2CFC4F30D
:4008C000CAF0CCE1CEF6D620E220E440E620EA2009030B3C0D550F0A1103139C220129052BEA2FFF300131F0350F3B024043420549FF4AFF4BFF4F015018528354035804C4
:4009000059045A045B045C135D115F016040624064406540668068806A806C806E808001820284028601891A8A688B648C50912E92189350952E960497509E78A101A207E0
:40094000A378A630AD1AAF64B078B204B378B403B507B603BA02BB30BE44C046C201C5ECC620C80BC9FFCAFFCBFFCD83CE03CF01D018D283D403D804D904DA04DB04DC11D8
:40098000DD11DF01E040E240E440E540E680E880EA80EC80EE800404050107090E420F201302168017041B011C201D801E421F602211272829402B042E402F40320137092B
:4009C00039503E1042A0458046804A014D044F2156205710590A5AA05D845F21680969506E106F0570027680C0F0C2B0C438CA9CCCC1CE2CD093D228D6FF0A010B0C0E0516
:400A00000F03120815081D012A042E02300831083201330434043501360237023E104040410645D146054702481749FF4AFF4BFF4DA04F04501852805407580459045A0452
:400A40005B045C115D115F01604062C06440654066C068C06AC06CC06EC087048F0495029B03B102B501B704BF40C006C740C9FFCA07CBFFCC40CD20CEF0CF05D008D4180A
:400A8000D604D804D904DA04DB04DC10DD32DF01E040E1A8E240E320006006080A400D010F2010081380142415011601184019081A041B402255274532443610370438A094
:400AC0003F44404046404701481849014A104E085048570559015A245B405E026520664067807380802085098740885089018A018C808E019020924093449502980499203D
:400B00009A099C50A208A310A480A745AB20AE04B201C043C238C4F3CC6ACE5CD001D224D68FD8B0E408E606E8020110040305200604070308430AB40CAA0D140E54110952
:400B400013101443169C190C1A551B111EA8222029102B0C2D1C2F0230F0320F331F343837203A2A3B203F404050410249FF4AFF4BFF4DA04F045018580459045A045C22F8
:400B80005D015F01604062C06440654066C068C06AC06CC06EC0860887038A018E0D910292029F04A308AA04AF0CB001B101B204B304B408B508B602B702BE04C050C1062B
:400BC000C5D1C650C702C81BC9FFCAFFCBFFCDAFCE0FCF04D018D280D407D804D904DA04DB04DC11DD11DF01E040E2C0E440E540E6C0E8C0EAC0ECC0EEC0002001800220B0
:400C00000440051409020D800E120F081204150119481A061B021C401D101E101F09212022422320250426102701284029402F0930803202351036013B083C803D093F0281
:400C40004604481849814B084D804F8050185224581059095A80710281048280830285208B019240934495029702980499249A099D10A040A180A288A310A610A70CAA204C
:400C8000C0E7C2E8C412CA39CCA9CED2D020D21CD60FE004E405E620EA80EC012E0132014050410649FF4AFF4BFF4DA04F0450185401580459045A045B045D215F01604003
:400CC00062C06440654066C068C06AC06CC06EC088088F0692019301940297029F0CA202A60DB002B101B204B302B408B508B601B704BF04C050C106C5D0C651C702C81E8B
:400D0000C9FFCAFFCBFFCDAFCE0FCF04D018D280D407D804D904DA04DB04DC11DD11DF01E040E2C0E440E540E6C0E8C0EAC0ECC0EEC0001004010580068007040A200B40E9
:400D40000E2210801210140415041740181019101A411C201E202140221423402D842F28308031023208361137043B403E8049014A084B404E084F405080521859115A48B7
:400D80005D605E085F02710281608601920493049502978098859A829B4B9E40A101A205A328A420A610AA08AB02B040B204C0D2C2ACC4ECCA70CCEBCE18D23CD6FFE00C13
:400DC000EA804060410249FF4AFF4BFF4DA04F0450185608580459045A045B045D915F01604062C06440654066C068C06AC06CC06EC08322870889048A0C931097019808F2
:400E00009C029F04A508A901AD02AE03B002B120B208B404B51FB601B920BF10C060C102C5D0C620C715C83AC9FFCAFFCBFFCDAFCE0FCF04D018D407D804D904DA04DB0496
:400E4000DC01DD11DF01E040E2C0E440E540E6C0E8C0EAC0ECC0EEC0000101800328060408010E091110122016011C101E49240425022621270428012D822F283102332818
:400E800036203749380539103C203D103E8641204520480449804A014B904F11542155245605588159025C105E405F0562408320862088118D059001920493049780988119
:400EC0009A829B499D809E409F04A014A101A328A420A940B004B101C04FC2C8C486CAF8CCF7CEF7D024D224D6F8D808E290E408E6C0E8230B101302168032803302340863
:400F0000361039103B023E8056105B40C210C430CCF0CE70D4C0324035805E8185108A10951097029B029E10A690A702AB40AC08AF10CC30D6A0E610E810EE9097029B02C3
:400F40009D809E10A680A702AA40AE41EA10EEC08B028C019B029E10A680A702AB01B580EE2008106104C202D80201800B8065409D04B010C002C208D601EA041B042780EF
:400F80009D44B340B580C608C801EE0344088C088D049D44AB04B380D004E00AEE0424025202562086208A1094029E10A702B280C820D4C0E2108702A702AA02E210EA80C5
:400FC0006102810187109D40D8026501668073108540931099019A809D40A902AE80D601D801DC01000F0101080D0A0F0C0B0D010E0A100F11011A0F1C071D0100FF013F3A
:40100000100A00000000E304F33C0C4204000023081C00611F00E000FF6700180C7F000000000000C3040000410800001C18E300821000002C000F1F1038C04000800A0891
:40104000000010003406050002E0C0000AFFFFFF62A0F0410C0000000000000004040400220200010000000000004002001030100010101200000000000000000000000044
:401080000000000001000001010000444400000000C3C300C0000000000E0E000C00000000C0C000C00000000A00148A8A008000000000003F0000FFFF0000000000000008
:4010C000080010080800080404000000F00000F0F000F0000000000080004080800080000000000000010000000000000000000000000000000000000000000000000000B7
:4011000000000000000000000000000000000000000000000000000000000000000000000000000000000000000000000000000000000000000000000000000000000000AF
:40114000000000000000000000000000000000000000000000000000000000000000000000000000000000000000000000000000000000000000000000000000000000006F
:40118000000000000000000000000000000000000000000000000000000000000000000000000000000000000000000000000000000000000000000000000000000000002F
:4011C00000000000000000000000000000000000000000000000000000000000000000000000000000000000000000000000000000000000000000000000000000000000EF
:0200000490006A
:0400000000004005B7
:0200000490105A
:04000000BC90ACAF55
:0200000490303A
:02000000872B4C
:0200000490402A
:4000000000000000000000000000000000000000000000000000000000000000000000000000000000000000000000000000000000000000000000000000000000000000C0
:400040000000000000000000000000000000000000000000000000000000000000000000000000000000000000000000000000000000000000000000000000000000000080
:0200000490501A
:0C00000000012E13306900012E2AB79475
:00000001FF