:400000000040002011000000150E0000150E000008B5044B1A6803F53F5302331A6000F0FBFE00BFFA46004010B5054C237833B9044B13B10448AFF300800123237010BD78
:4000400028C1FF1F0000000088360000084B10B51BB108480849AFF300800848036803B910BD074B002BFBD0BDE81040184700BF00000000883600002CC1FF1F08C1FF1FC5
:400080000000000008B5012002F04CF8142001F0D9F9002002F046F8142001F0D3F9012002F06AF9142001F0CDF9002002F064F908BD00BF08B502F089FA00F0DDFD01F0B3
:4000C000FBF901F01DFC01F093FA01F063FA01F0BFFC01F0EBFA01F00DFB01F0FBFC01F035FD01F067FD01F0A1FD01F0D3FD01F00DFE02F013FB02F04DFB01F053FB01F0A5
:40010000C3FB02F077F802F09FF902F0CDF802F025F9002002F006F8002002F02DF900F05FFD02F0CBF9012001F0A8FF62B600F093FD00F061FC294C204629494FF47A72EB
:400140000A2300F0C9FD204600F0D0FD254C2046254941F288324FF47A7300F0BDFD204600F0C4FD214C204621496422134600F0B3FD204600F0BAFD1E4C20461E49002234
:400180004FF47A7300F0A8FD204600F0AFFD1B4C20461B499622032300F09EFD204600F0A5FD184C2046184932225A2300F094FD204600F09BFD4FF4FA7001F02DF9134C58
:4001C0002046134940F2DC524FF4FA7300F084FD204600F08BFD00F0ADFDFCE7C8C3FF1F7906000004C4FF1FB10C00002CC4FF1F390C000018C4FF1F410A0000F4C3FF1F29
:40020000850B000078C3FF1F8500000044C4FF1F850D000008B501F07FF908BD08B50D4BAA221A705A70EF229A700222DA701871597100231A4605E00649C95C0A44D2B2EE
:400240000133DBB2052BF7D9024882710721FFF7E1FF08BD54C4FF1F38B500231C4604E0C25C2244D4B20133DBB24A1E9342F7DB835CA34240F099800378AA2B40F09580B5
:400280004378AF2B40F0918083782BB90279AA2A02D10121454A1170012B02D10179444A1170022B02D10279414B9A708378032B0CD10279437943EA02233D4AD38044F6F9
:4002C0002062934202D90022394BDA8005468378042B3BD10379C3F16403DBB2632B00D9642303EB830303EB83039A0090B201F0E5FB6B79C3F16403DBB2632B00D964232A
:4003000003EB830303EB83039A0090B201F046FCAB79C3F16403DBB2632B00D9642303EB830303EB83039A0090B201F0A7FCEB79C3F16403DBB2632B00D9642303EB830346
:4003400003EB83039A0090B202F0DCF9AB78052B02D12A79164BDA70AB78062B09D12B79012B03D1012002F07DF802E0002002F079F8AB78092B06D12B79632B03D10122DC
:400380000B4B83F82020A878132802D12146FFF745FFA878142802D12146FFF73FFFA878152802D12146FFF739FF38BD88C4FF1F88C3FF1F10B5294B1B7833B9AA2804D1A7
:4003C000264B01221A70187110BD012B06D1AF2804D1224B02221A70587110BD022B06D1F02804D81D4B03221A70987110BD032B0BD1312809D8194B04221A70D87183F828
:400400003600002283F8372010BD042B13D1134A92F836207AB1013AD2B2104981F8362091F837305C1C81F837400B441872A2B905220A7010BD052B0CD1084B00221A705D
:4004400093F837105A1810720531181DC9B2FFF703FF10BD0022014B1A7010BD44C1FF1F70B582B0ADF80600ADF80410ADF80220ADF80030154DAA242C706C700024AC70E4
:40048000060A2E716871080AA871E971110A29726A721A0AAA72EB729DF819302B739DF818306B730A23EB702346224605E00749C95C0A44D2B20133DBB20D2BF7D9034830
:4004C00082730F21FFF7A6FE02B070BD54C4FF1F30B583B0124DAA242C706C700124AC70002428716971110AA971EA71ADF806301A0A2A726B720623EB702346224605E051
:400500000749C95C0A44D2B20133DBB2092BF7D9034882720B21FFF77DFE03B030BD00BF54C4FF1FF0B583B0089F099E2A4DAA242C706C700224AC7000244FEA106E85F8C1
:4005400004E0C0F3074E85F805E0C0F3072E85F806E0E871080E2872C1F307406872C1F30720A872E972110E2973C2F307416973C2F30721A973EA731A0E2A74C3F3074205
:400580006A74C3F30722AA74EB743B0E2B75C7F307436B75C7F30723AB75EF750196330E2B76C6F307436B76C6F30723AB76EE761823EB702346224605E00749C95C0A44F8
:4005C000D2B20133DBB21B2BF7D9034802771D21FFF720FE03B0F0BD54C4FF1F10B582B0ADF80600ADF804100F4BAA221A705A7003229A700022040A1C715871080A98714F
:40060000D9710421D970134605E00749C95C0A44D2B20133DBB2072BF7D9034802720921FFF7F8FD02B010BD54C4FF1F10B582B0104BAA221A705A7005229A700022040A5E
:400640001C715871ADF80610080A9871D9710421D970134605E00749C95C0A44D2B20133DBB2072BF7D9034802720921FFF7D2FD02B010BD54C4FF1F2DE9F04182B0754BB2
:4006800093F83820744BA3FB02139B0803EB8303D31ADBB2042B02D10121704B9970704BA3FB0213DB0803EB830103EB4103D31ADBB20A2B02D10121684B5970694BA3FB05
:4006C00002139B0803EB430103EB8103D31ADBB20C2B02D10121614B59725F4BA3FB02131B0903EB83039B00D31ADBB2132B02D101215A4BD9725C4BA3FB02131B09322183
:4007000001FB1323DBB2312B02D10121534B19730132504B83F83820504B1B7893B10133DBB24E4A13700A2B02D100224B4B1A704E4C208F618FA28DE38D248E0094FFF732
:400740008FFE84E0454B5B7853B10020434B5870464B9978DA88464B1B88FFF7B9FE76E03E4B9B78002B5AD000243C4B9C70414EB6F90C0002F010FB00224FF07C5302F05F
:4007800071FB00223C4B02F06DFB02F07DFD8046304DE863B6F90E0002F0FEFA00224FF07C5302F05FFB0022334B02F05BFB02F06BFD07462864B6F9100002F0EDFA0022D8
:4007C0004FF07C5302F04EFB00222B4B02F04AFB02F05AFD064668644046284902F0A4FD80463846254902F09FFD05463046234902F09AFD0746404602F0E6FE064628469D
:4008000002F0E2FE0546384602F0DEFE024600940194304629462346FFF784FE17E00F4B5B7A43B100220D4B5A72104B588C998CFFF7D4FE0BE0094B1B7B43B10022074B4F
:400840001A730F4B18880F4B1988FFF7EFFE02B0BDE8F08144C1FF1FCDCCCCCC88C4FF1FA38B2EBA4FECC44E1F85EB5188C3FF1FD8C3FF1FDCC3FF1F0080664000007A4487
:4008800042C4FF1F14C4FF1F10B50C460346B8B9022915D001F0FEFB204601F013FC194B1B7833B9012001F001FC0122154B1A7010BD002001F0FAFB0022124B1A7010BD45
:4008C000012B18D1022C16D0002001F007FC204601F01CFC0B4B1B7833B9012001F00AFC0122084B1A7010BD002001F003FC0022044B1A7010BD012001F0CCFB012001F0CF
:40090000EDFB10BD8CC1FF1F10B50C4600F0C2FE34B9012000F07AFE002000F083FE10BD012C06D1002000F071FE012000F07AFE10BD002000F06AFE002000F073FE10BD5D
:4009400010B50C4600F0A6FE34B9012000F05EFE002000F067FE10BD012C06D1002000F055FE012000F05EFE10BD002000F04EFE002000F057FE10BD10B50C4600F090FE6C
:4009800034B9012000F05AFE002000F063FE10BD012C06D1002000F051FE012000F05AFE10BD002000F04AFE002000F053FE10BD10B504460021FFF7A7FF20460021FFF73B
:4009C000BFFF20460021FFF7D7FF20460021FFF7D3FF10BD10B504460121FFF795FF20460121FFF7ADFF20460121FFF7C5FF20460121FFF7C1FF10BD08B5104B4FF4CD72FE
:400A00001A876E225A8708221A7143F2B061D9809A70DA70012001F03DFB002001F052FB002001F043FB012001F058FB002001F06DFB002001F05EFB08BD00BF88C3FF1FD0
:400A4000074B93F82030012B05D1054B002283F820205A7070470122014B5A70704700BF88C3FF1F84B008B50DF1080E8EE80F009DF80B3023B900200146FFF705FF1CE0EE
:400A8000012B04D100200121FFF7FEFE15E0022B04D101200021FFF7F7FE0EE0032B04D101200146FFF7F0FE07E000200221FFF7EBFE01200221FFF7E7FEBDE8084004B0D7
:400AC000704700BF38B50446450828460021FFF71BFF28460021FFF733FF20460121FFF74BFF20460121FFF747FF38BD10B504460121FFF709FF20460121FFF721FF6408EC
:400B000020460021FFF738FF20460021FFF734FF10BD00BF08B500200221FFF7F5FE00200221FFF70DFF00200221FFF725FF00200221FFF721FF08BD84B010B502AC84E809
:400B40000F009DF80A401CB9BDF80E00FFF730FF012C03D1BDF80E00FFF73CFF022C03D1BDF80E00FFF7AEFF032C03D1BDF80E00FFF7BCFF082C01D1FFF7CCFFBDE810403A
:400B800004B07047F0B58DB0144B5B78FBB9134F6D4607F110040FCC0FC50FCC0FC594E8070085E8070097E80F00FFF7C5FF6D4607F110060FCE0FC50FCE0FC594E807009E
:400BC00085E8070097E80F00FFF74CFF04E00822024B9A70FFF79EFF0DB0F0BD88C3FF1F08B501F025F901F037F908BD38B50546002407E0284601F033F90D4B23F81400E0
:400C00000134E4B2632CF5D90022134605E0084931F913100A440133DBB2632BF7D9054880FB0230D217C2EB601000B238BD00BF90C1FF1F1F85EB5108B50020FFF7D6FFC4
:400C4000034B18800220FFF7D1FF024B188008BD42C4FF1FD8C3FF1F0222044B1A705422034B1A700522034B1A7070478DEAFF1FB8EAFF1FC4E0FF1F38B50C4D0023AB856E
:400C8000012001F011FD0402022001F00DFD2043013080B2A885000A012101F09BFC95F82C00022101F096FC38BD00BF88C3FF1F074BDA8D0132DA8506490A8801320A80E5
:400CC0009B78082B03D0024A138E01331386704788C3FF1F8EEAFF1F8160034909680A4402604360704700BF20C3FF1F084B5A68134602E0834207D0DB68002BFAD1C260BC
:400D0000034B5860002070474FF0FF30704700BF20C3FF1F064A06E0834202D1DB68136001E003F10C021368002BF5D1704700BF24C3FF1F10B50B4B5C680FE02268094BF7
:400D40001B689A4209D862681AB92046FFF7E2FF01E013442360A3689847E468002CEDD110BD00BF20C3FF1F024A136801331360704700BF20C3FF1F014B1870704700BFC2
:400D800028C3FF1F08B5214B1B785BB31F4A53780133DBB25370012B0CD1002000F08EFE002000F0FBFE002000F068FF002001F0A9FC17E0022B15D142F2107000F07EFEA3
:400DC00042F2107000F0EAFE42F2107000F056FF42F2107001F096FC0C4B00225A701A78013A1A700A4B5B78084A9370D27893420BD0012B03D10A20FFF7BEFF02E0012046
:400E0000FFF7BAFF014B9A78DA7008BD28C3FF1F88C3FF1FFEE700BF08B5104E104D16E029686B68AC68002204E051F8040B43F8040B0432A242F8D1E868002203E0002199
:400E400043F8041B04328242F9D11035013E002EE6D102F0DFFBFFF72DF9FEE701000000F436000008B5134A134B1A60134A136843F40073136000230AE0032B03D8104A9C
:400E800052F8231000E00F490F4A42F8231001332F2BF2D90D4B1A780D4B1A700A4A0D4B1A6000F0EFF800F0D3F900220A4B1A6008BD00BF0004FA050CED00E014ED00E0A7
:400EC00000000000150E000000C0FF1FBC76004004C1FF1F08ED00E000C1FF1FF0B40022174611E050F82760F3B226F0FF0608E001EB420511F812406D78A5550132013B81
:400F0000DBB2002BF4D101372A2FEBD9F0BC704770B4174B1B78DBB216480278D2B2164C2178C9B203F00706144D2E701B0901352B7042F00303037041F003032370442532
:400F40000F4B1D70042640331E7040230D4E33700236337006F21D26337020260A4B1E7021700270A3F2AD231D7070BC704700BFCF010049F8460040F94600406E58004069
:400F80000D51004001590040235B004008B50A46002102F070FB08BD38B50E222C4B1A8018232C4A137017222B490A8002310B7002310A80294A13701925023215800232B6
:400FC000137002321580023213700222244B1A7008224FF040231A70042203F500731A70204B1B78DBB2204A137001221F4B1A804FF4716203F21E231A8041F25122023BF8
:401000001A8000240CE01A4B1B7803F0010343EA440404F003044FF4F07000F009F9013D0DB1032CEFD1114B07221A700021114A117048210232117001221A700222033BEE
:401040001A700D4A137843F01F03137038BD00BF8040004082400040844000408A4000400043004089010049A1460040044000402542004006400040A243004008B502F066
:40108000EFFA08BD70B572B6494A137843F00403137000240CE0474963001A1952000A4423445B00C8589188FFF770FF0134E4B2072CF0D900240FE03E49A3001A1952009B
:4010C0000A4452F8300F23445B000B4451681A8FFFF7D4FF0134E4B2012CEDD94FF090403549FFF7FBFE35480421FFF74FFF344834490422FFF7C2FF334A137843F00203A7
:4011000013701032137843F0020313702F4C237843F040032370A2F58632513A137843F0100313702A482B490A22FFF7A7FF2A482A490A22FFF7A2FF29482A490822FFF7FD
:401140009DFF294829490A22FFF798FF284829490A22FFF793FF284828490A22FFF78EFF274828490A22FFF789FF274827490A22FFF784FF264827490A22FFF77FFF8422DF
:40118000254B1A70254A137843F008031370244E01253570FFF700FF81233370214B1D70FFF7B6FE204821460E22FFF767FF70BDE84600408C360000AC00004800760040FC
:4011C000087600405811004803500140A043004000510040F0100048C0510040FC100048F2510040081100481051004010110048205100401C1100483051004028110048F5
:4012000040510040341100485051004040110048605100404C110048DB180140224300400048004004000840B0430040000000000230800803D000BF01380046FCD1704711
:40124000EFF3108072B6704780F31088704700BF0B4A7F2313708021517007E0DA0002F1804202F5F042013BDBB21370002BF5D1DB0003F1804303F5F04300221A707047C4
:401280000CC1FF1F172815D831B103010A495A5C42F020025A5405E0030107495A5C02F0DF025A540001044A835C43F00103835400207047012070471070004017280CD8E8
:4012C0000001074BC1180A7942F004020A71C25C42F00102C254002070470120704700BF1070004017280BD80001064A835C03F0F10301F0070143EA4101815400207047A8
:40130000012070471070004041F6FF73994201D14FF4005141F6FF739A4201D14FF40052172808D8C00000F1804000F5EC408180C280002070470120704700BF172805D8C1
:40134000034B03EB0010417200207047012070471070004017281BD810B4C00000F1804404F5EC44D201D2B201F07F01114321709DF804201201D2B203F00F031343637040
:401380009DF8083003F00F03A3700020E07001E0012070475DF8044B704700BF10B5FFF74FFF0A4B5B78182B0BD9084A1478013B5370E30003F1804303F5F0431B781370F5
:4013C00000E0FF24FFF740FF204610BD0CC1FF1F10F0800F0CD111F4704F0BD1C00000F1804000F5F04001808270C37000207047012070470120704710F0800F08D1C000A0
:4014000000F1804000F5F0408180C280002070470120704701BE704710B5044605E0084B1868FFF705FFA4F50044B4F5004FF6D8034B586800FB04F0FFF7FAFE10BD00BF93
:4014400014C1FF1F08B5034B1B7A03FB00F0FFF7EFFE08BD14C1FF1F7222084B1A702022FC331A700622A3F5B0731A70472210331A70012249331A70704700BF8B64004073
:4014800010B5FFF7DDFE04460A4A137843F020031370FC32137843F010031370A2F20712137843F01003137000F04AF82046FFF7CBFE10BD9B64004008B5054B1B7823B932
:4014C000FFF7CAFF0122024B1A70FFF7D9FF08BD2CC3FF1F084B1B78DBB213F0200F06D0064A1078C0B213F01E0F02D17047002070470020704700BF676500404F640040A8
:40150000034B1B7813F0040FFAD1024B187070476064004047650040084B1B7833B97047305DFFF7EDFF0134E4B203E070B50D4606460024AC42F3D370BD00BF2CC3FF1F32
:40154000054A137843F0100313701032137843F010031370704700BFA2430040704700BF014B1B68D865704708ED00E04001C0B2014B1870704700BF07E400E08022014BD3
:401580001A60704700E100E08022014B1A60704780E100E008B5FFF7F7FF0448FFF7E0FF0720FFF7E3FFFFF7E9FF08BD5D15000008B5FFF78FFFFEF7FDFE08BD014B1B6836
:4015C000D864704708ED00E04001C0B2014B1870704700BF03E400E00822014B1A60704700E100E00822014B1A60704780E100E008B5FFF7F7FF0448FFF7E0FF0720FFF728
:40160000E3FFFFF7E9FF08BDB1150000044A137803F0FE0300F0010018431070704700BFC0510040044A137803F0BF03800100F0400018431070704730510040044A137894
:4016400003F0FD03400000F00200184310707047C0510040044A137803F07F03C001C0B203431370704700BF30510040024A137843F080031370704771640040014B188021
:40168000704700BF00680040014B1880704700BF80680040014B1880704700BF40680040014B1880704700BF6068004008B5104A137803F0C00343F0090313701F321378F0
:4016C00043F0010313700132137843F00103137044F62060FFF7D2FF44F62060FFF7D4FF43F2B060FFF7D6FF3F20FFF7D9FF08BD7164004008B5054B1B7823B9FFF7D6FF56
:401700000122024B1A70FFF7B1FF08BD2EC3FF1F024A137843F080031370704775650040014B1870704700BF85650040014B1878704700BF65650040014B1880704700BF2A
:401740004A6A0040014B188880B270478A6A0040014B1880704700BF0A6A004008B501E0FFF7F0FFFFF7E2FF10F0080FF8D108BD08B545F6BF50FFF7DFFF45F6BF50FFF744
:40178000E7FFFFF75DFD064A137843F010031370FFF75AFDFFF7E2FF0120FFF7C1FF08BD9565004008B5054B1B7823B9FFF7E0FF0122024B1A70FFF7ABFF08BD2FC3FF1F95
:4017C00010B51C4B1988013189B219801A4B1888013080B21880194A138801339BB21380174C2288013292B22280B0F5FA6F05D901241448048000240F480480052905D9E2
:4018000001201149087000200A490880642A05D900210B4A118001210C4A1180032B05D90022064B1A800122094B1A80FFF79CFA10BD00BF96EAFF1F94EAFF1F9CEAFF1F1E
:401840009AEAFF1F90EAFF1F9EEAFF1F92EAFF1F98EAFF1F014B1B689865704708ED00E04001C0B2014B1870704700BF06E400E04022014B1A60704700E100E04022014BE1
:401880001A60704780E100E008B5FFF7F7FF0448FFF7E0FF0720FFF7E3FFFFF7E9FF08BDC11700007222074B1A70202201331A7006229E331A70472210331A70002257339D
:4018C0001A7070478564004010B5FFF7B9FC04460A4A137843F0200313700132137843F01003137002F20512137843F01003137000F0BCF82046FFF7A7FC10BD956400407D
:4019000008B5054B1B7823B9FFF7CCFF0122024B1A70FFF7D9FF08BD30C3FF1F084B1B78DBB213F0200F06D0064A1078C0B213F01E0F02D17047002070470020704700BFE0
:40194000666400404264004038B5324C2578FFF7E5FF25442871237813B92279552A57D10133DBB22B4A13700B2B51D1134600221A701B79552B4BD1264B5B79522B1AD0F8
:40198000532B2FD0512B43D1224BD8799979224A41EA00211180587A197A41EA00215180D87A997A41EA00219180597B1B7B43EA0123538238BD174BD8799979164A41EAE8
:4019C0000021D180587A197A41EA00211181D87A997A41EA00215181597B1B7B43EA0123538238BD0B4BD87999790B4A41EA00219181587A197A41EA0021D181D87A997A56
:401A000041EA00211182597B1B7B43EA0123538238BD00BF34C3FF1FDCC3FF1F014B1B689864704708ED00E04001C0B2014B1870704700BF02E400E00422014B1A607047F4
:401A400000E100E00422014B1A60704780E100E008B5FFF7F7FF0448FFF7E0FF0720FFF7E3FFFFF7E9FF08BD49190000054A137843F0080313701032137843F008031370CA
:401A8000704700BFA2430040084A137843F0010313701032137843F00103137002F64D32137843F001031370704700BFA3430040014B1880704700BF044F0040014B188044
:401AC000704700BF064F0040014B1870704700BF034F004008B51A4A137843F0020313700232137803F08F0343F010031370154B1A7802F0CF021A701A7842F030021A70CC
:401B00001A7802F0F0021A701A7842F00F021A7042F21070FFF7CCFF42F21070FFF7CEFF0020FFF7D1FF084A137843F00103137002F65E32137843F00103137008BD00BF8C
:401B4000004F00400B4F0040A343004008B5054B1B7823B9FFF7BEFF0122024B1A70FFF793FF08BD44C3FF1F084A137843F0020313701032137843F00203137002F65932D8
:401B8000137843F001031370704700BFA3430040014B1880704700BF104F0040014B1880704700BF124F0040014B1870704700BF0F4F004008B51A4A137843F00203137001
:401BC0000232137803F08F0343F010031370154B1A7802F0CF021A701A7842F030021A701A7802F0F0021A701A7842F00F021A7042F21070FFF7CCFF42F21070FFF7CEFFCE
:401C00000020FFF7D1FF084A137843F00203137002F66A32137843F00103137008BD00BF0C4F0040174F0040A343004008B5054B1B7823B9FFF7BEFF0122024B1A70FFF743
:401C400093FF08BD45C3FF1F084A137843F0040313701032137843F00403137002F66532137843F001031370704700BFA3430040014B1880704700BF1C4F0040014B18806A
:401C8000704700BF1E4F0040014B1870704700BF1B4F004008B51A4A137843F0020313700232137803F08F0343F010031370154B1A7802F0CF021A701A7842F030021A70DA
:401CC0001A7802F0F0021A701A7842F00F021A7042F21070FFF7CCFF42F21070FFF7CEFF0020FFF7D1FF084A137843F00403137002F67632137843F00103137008BD00BFB0
:401D0000184F0040234F0040A343004008B5054B1B7823B9FFF7BEFF0122024B1A70FFF793FF08BD46C3FF1F10B5022001214FF4804241F6FF7300F055F9084C2070062088
:401D4000012141F6FF72134600F06CF96070044800F086F9002000F089F910BD48C3FF1F7D1E000070B52C4C2078FFF7A7FA6078FFF7A4FA294B1B78FF2B03D1FFF70EFB01
:401D8000264B1870254D2A78104606210B46FFF71FFB214E341DA4B2287845F6A0312246FFF72AFB30782978FFF7C8FA6B78FF2B02D1FFF7F3FA6870184D6A781046062193
:401DC0000723FFF705FB68782146154A92B2FFF713FB114C60786978FFF7B0FA20780121FFF750FA60780121FFF74CFAFFF728FA0C4A137843F020031370FFF725FA0A4BB3
:401E00001A7842F001021A701A7842F002021A700122064B1A6070BD48C3FF1F24C1FF1FA0EAFF1F976400407865004080E200E008B5074BDB6823B9FFF776FF0122044B6B
:401E4000DA60FFF78FFF00F0B7F8024B1B7808BD48C3FF1F6465004008B500F0BBF808BDC0F10200034B33F81030034A1088181A00B27047A0EAFF1FAAEAFF1F704700BF4D
:401E800008B50A280FD00C2802D0082806D102E04FF4805209E04FF4807206E00020FFF7B9FA002201E04FF480620021094B198042F2107303FB02F303F6C413064A82FB06
:401EC0000302DB17C3EBE223044A1360044B198008BD00BFA8EAFF1FAD8BDB68ACEAFF1FAAEAFF1F10B5FFF7ABF90446184A137843F0010313701032137843F001031370A3
:401F000002F5AA520832137843F0030313701822104B1A70013B1A7842F040021A701A7802F0FC021A70C822053B1A700222A3F597530C3B1A70084A137843F0080313706D
:401F40000A20FFF77FFA2046FFF77EF910BD00BFAB43004006590040275B004010B504460A280DD00C2802D0082804D101E0C22207E0422205E00020FFF74CFAC22200E09C
:401F80008222034B1A702046FFF77AFF10BD00BF0259004008B5064A137843F0060313700C20FFF7DBFF0022024B1A8008BD00BF01590040B0EAFF1F08B5054B1B7823B9FB
:401FC000FFF7E8FF0122024B1A70FFF78BFF08BD58C3FF1F024A137843F001031370704700590040F0B583B086460F4616461D460B4C012323700022009201921846714689
:402000003A46FFF7A7F9207831462A46FFF77CF920780221FFF766F9207803B0F0BD00BF26C1FF1FF0B583B086460F4616461D460A4C0023237000930193184671463A4654
:40204000FFF788F9207831462A46FFF75DF920780221FFF747F9207803B0F0BD27C1FF1F014B1B681864704708ED00E04001C0B2014B1870704700BF00E400E0044A1378BE
:4020800003F07F03C001C0B203431370704700BF20510040044A137803F0DF03400100F0200018431070704730510040044A137803F0EF03000100F01000184310707047E5
:4020C00030510040044A137803F0F703C00000F0080018431070704730510040044A137803F0FB03800000F0040018431070704730510040044A137803F0FD03400000F0C1
:40210000020018431070704730510040044A137803F0FE0300F0010018431070704700BF30510040044A137803F0F703C00000F0080018431070704720510040024A1378E2
:4021400043F080031370704779640040014B1870704700BF8E640040014B1878704700BF6E640040014B1880704700BF58680040014B188880B2704798680040014B18801F
:40218000704700BF1868004000F00300044B1A7802F0FC021A701A7810431870704700BF7964004008B501E0FFF7E2FFFFF7D4FF10F0080FF8D108BD08B54FF6FF70FFF751
:4021C000D1FF4FF6FF70FFF7D9FFFFF739F8084A137843F010031370FFF736F80020FFF7D3FFFFF7DFFF0220FFF7B0FF08BD00BF9E64004008B5054B1B7823B9FFF7DCFF06
:402200000122024B1A70FFF799FF08BD59C3FF1F10B5154C237801332370FFF7A9FFC04380B260802378022B1AD1A388984202D3C01AE08003E0C01A01380B4BD8800A4B1C
:4022400000225A801A70DA88642303FB02F3074A82FB03121A44DB17C3EB6213044A5384014B5A889A8010BD5AC3FF1F09CB3D8D88C3FF1F014B1B685865704708ED00E012
:402280004001C0B2014B1870704700BF05E400E02022014B1A60704700E100E02022014B1A60704780E100E008B5FFF7F7FF0448FFF7E0FF0720FFF7E3FFFFF7E9FF08BD6C
:4022C0001122000010B5154C23780133237000F079F8C04380B260802378022B1AD1A388984202D3C01AE08003E0C01A01380B4BD8800A4B00225A801A70DA88642303FB80
:4023000002F3074A82FB03121A44DB17C3EB6213044A9384014B5A889A8010BD62C3FF1F09CB3D8D88C3FF1F014B1B681865704708ED00E04001C0B2014B1870704700BFB9
:4023400004E400E01022014B1A60704700E100E01022014B1A60704780E100E008B5FFF7F7FF0448FFF7E0FF0720FFF7E3FFFFF7E9FF08BDC5220000044A137803F0FD0316
:40238000400000F0020018431070704720510040024A137843F080031370704778640040014B1870704700BF8C640040014B1878704700BF6C640040014B1880704700BF8F
:4023C00054680040014B188880B2704794680040014B1880704700BF1468004000F00300044B1A7802F0FC021A701A7810431870704700BF7864004008B501E0FFF7E2FFF8
:40240000FFF7D4FF10F0080FF8D108BD08B54FF6FF70FFF7D1FF4FF6FF70FFF7D9FFFEF70FFF084A137843F010031370FEF70CFF0020FFF7D3FFFFF7DFFF0220FFF7B0FF49
:4024400008BD00BF9C64004008B5054B1B7823B9FFF7DCFF0122024B1A70FFF799FF08BD6AC3FF1F044A137803F0FD03400000F00200184310707047F0510040024B1878C5
:4024800000F00F00704700BF6A650040014B1870704700BF8A65004008B50F20FFF7F6FFFFF7ECFFFEF7CCFE034A137843F010031370FEF7C9FE08BD9A65004008B500F09A
:4024C00071F84FF4004000F01FF8044B1B7813B90122024B1A70FFF7DFFF08BD6BC3FF1F024A137843F08003137070477C640040014B1870704700BF89650040014B187821
:40250000704700BF69650040014B1880704700BF10680040014B188880B2704790680040014B1880704700BF50680040014B1880704700BF7068004008B501E0FFF7EAFFB7
:40254000FFF7DCFF10F0400FF8D108BD08B5134B1A7802F0F8021A701A7802F0FC021A70FFF7EAFF4FF40040FFF7DAFF4FF40040FFF7CAFF0020FFF7BBFFFFF7BFFF4FF444
:402580000040FFF7D3FFFEF75BFE054A137843F010031370FEF758FE08BD00BF7C6400409965004008B5054B1B7823B9FFF7CEFF0122024B1A70FFF793FF08BD6CC3FF1F22
:4025C00008B500F04BF900F053F908BD08B5FFF7F7FF08BD30B583B00C468DF8070000F087F9B4F5006F54D22509C5EB053319010C44A4B200F028FA00284CD140202146E3
:402600000DF10702012300F09FF9044607282FD1234B1B7813F0020FFAD0214B1B7813F0020F06D01E4B1B789B0805D04FF0FF3403E04FF0FF3400E00024E4B9194B402006
:4026400029461A785B7800F0BBF9072816D1144B1B7813F0020FFAD0114B1B7813F0020F0FD00F4B1B789B0810D04FF0FF340DE0012809D10AE04FF0FF3407E04FF0FF3493
:4026800004E04FF0FF3401E04FF0FF3400F002FA02E0012400E00424204603B030BD00BF22470040B4EAFF1F38B50446FEF7C8FD054600F007F904F1804000F500400478BA
:4026C000E4B200F00DF92846FEF7BEFD204638BD084A137843F0080313701032137843F00803137002F67132137843F001031370704700BFA3430040014B1880704700BFD3
:40270000284F0040014B1880704700BF2A4F0040014B1870704700BF274F004008B51A4A137843F0020313700232137803F08F0343F010031370154B1A7802F0CF021A701C
:402740001A7842F030021A701A7802F0F0021A701A7842F00F021A7042F21070FFF7CCFF42F21070FFF7CEFF0020FFF7D1FF084A137843F00803137002F68232137843F0A0
:402780000103137008BD00BF244F00402F4F0040A343004008B5054B1B7823B9FFF7BEFF0122024B1A70FFF793FF08BD6DC3FF1F10B500F09DF800F047F9D0B900F086F941
:4027C0000446072812D102E00120FEF73BFE0A4B1B7813F0020FF7D0074B1B7813F0020F04D0054B1B789B0800D1002400F052F900E00424204610BD2247004010B500F06D
:4028000077F800F021F910BB012000F0FFF8072818D11048022100F07DF802280AD102E00120FEF70FFE0C4B1B7813F0020FF7D0002409E0084B1B7813F0020FE9D04FF086
:40284000FF3401E04FF0FF3400F024F900E00424204610BDB4EAFF1F2247004008B5FFF7A7FF034610B9FFF7C9FF0346184608BD08B5FEF7E5FC0F4A137843F00803137058
:402880001032137843F008031370C8220A4B1A700A4A137843F0100313701032137843F010031370064B1B7813F0200FFAD0FEF7CBFC08BDA043004001470040AC43004048
:4028C00000470040054A137843F001031370034B1B7813F0020FFAD0704700BF02470040024A137803F0FE03137070470247004008B5FEF7A5FC064A137843F00803137082
:402900001032137843F008031370FEF79DFC08BDA043004070B506460D4600240CE00120FEF790FD064B1B7813F0010FF7D0054B1B7833550134E4B2AC42F3D3204670BDE1
:40294000224700402047004030B43E2801D81F2B03D93F2827D90F2B27D8174C247814F0020F24D0154CB6252570D4252570012525700234247814F0020F1AD10F4C20703F
:40298000C1F300202070C9B22170591EC9B22170002104E0545C094804700131C9B29942F8D3072006E0012004E0012002E0042000E0092030BC7047224700402047004022
:4029C00030B4104C247814F0020F15D00E4CB6252570D8252570052525700234247814F0020F0BD1084C2070080A2070C9B2217022702370072002E0042000E0092030BC4A
:402A0000704700BF22470040204700400C4B1B7813F0020F0FD00B4BB6221A70E1221A700E221A7002331B7813F0020F05D1054B187007207047042070470920704700BF12
:402A4000224700402047004010B5FEF7F9FB0F4B1B78A3B901220D4B1A700D4B1B6813F0010F0ED00A4A136823F00103136000BF00BF00BF0122054B5A60002402E004244D
:402A800000E00024FEF7E0FB204610BD70C3FF1F0400084008B5FEF7D3FB0A4B00221A705B68012B0AD1084A136843F00103136000BF00BF00BF0022024B5A60FEF7C4FB96
:402AC00008BD00BF70C3FF1F04000840074B1B7813F0020F08D0064BB6221A70E0221A700D221A700720704704207047224700402047004081F0004102E000BF83F00043DA
:402B000030B54FEA41044FEA430594EA050F08BF90EA020F1FBF54EA000C55EA020C7FEA645C7FEA655C00F0E2804FEA5454D4EB5555B8BF6D420CDD2C4480EA020281EA11
:402B4000030382EA000083EA010180EA020281EA0303362D88BF30BD11F0004F4FEA01314FF4801C4CEA113102D0404261EB410113F0004F4FEA03334CEA133302D0524267
:402B800063EB430394EA050F00F0A780A4F10104D5F1200E0DDB02FA0EFC22FA05F2801841F1000103FA0EF2801843FA05F359410EE0A5F120050EF1200E012A03FA0EFC12
:402BC00028BF4CF0020C43FA05F3C01851EBE37101F0004507D54FF0000EDCF1000C7EEB00006EEB0101B1F5801F1BD3B1F5001F0CD349085FEA30004FEA3C0C04F10104EF
:402C00004FEA445212F5800F80F09A80BCF1004F08BF5FEA500C50F1000041EB045141EA050130BD5FEA4C0C404141EB010111F4801FA4F10104E9D191F0000F04BF01467B
:402C40000020B1FA81F308BF2033A3F10B03B3F120020CDA0C3208DD02F1140CC2F10C0201FA0CF021FA02F10CE002F11402D8BFC2F1200C01FA02F120FA0CFCDCBF41EA70
:402C80000C019040E41AA2BF01EB0451294330BD6FEA04041F3C1CDA0C340EDC04F11404C4F1200220FA04F001FA02F340EA030021FA04F345EA030130BDC4F10C04C4F1A7
:402CC000200220FA02F001FA04F340EA0300294630BD21FA04F0294630BD94F0000F83F4801306BF81F480110134013D4EE77FEA645C18BF7FEA655C29D094EA050F08BF34
:402D000090EA020F05D054EA000C04BF1946104630BD91EA030F1EBF0021002030BD5FEA545C05D14000494128BF41F0004130BD14F580043CBF01F5801130BD01F00045DB
:402D400045F0FE4141F470014FF0000030BD7FEA645C1ABF194610467FEA655C1CBF0B46024650EA013406BF52EA033591EA030F41F4002130BD00BF90F0000F04BF00210E
:402D8000704730B54FF4806404F132044FF000054FF0000150E700BF90F0000F04BF0021704730B54FF4806404F1320410F0004548BF40424FF000013EE700BF42004FEADD
:402DC000E2014FEA31014FEA02701FBF12F07F4393F07F4F81F06051704792F0000F14BF93F07F4F704730B54FF4607401F0004521F0004120E700BF50EA010208BF70479D
:402E000030B54FF000050AE050EA010208BF704730B511F0004502D5404261EB41014FF4806404F132045FEA915C3FF4DCAE4FF003025FEADC0C18BF03325FEADC0C18BFE4
:402E4000033202EBDC02C2F1200300FA03FC20FA02F001FA03FE40EA0E0021FA02F11444C1E600BF70B54FF0FF0C4CF4E06C1CEA11541DBF1CEA135594EA0C0F95EA0C0F94
:402E800000F0DEF82C4481EA030621EA4C5123EA4C5350EA013518BF52EA033541F4801143F4801338D0A0FB02CE4FF00005E1FB02E506F00042E0FB03E54FF00006E1FB33
:402EC00003569CF0000F18BF4EF0010EA4F1FF04B6F5007F64F5407404D25FEA4E0E6D4146EB060642EAC62141EA55514FEAC52040EA5E504FEACE2EB4F1FD0C88BFBCF5D0
:402F0000E06F1ED8BEF1004F08BF5FEA500E50F1000041EB045170BD06F0004646EA010140EA020081EA0301B4EB5C04C2BFD4EB0C0541EA045170BD41F480114FF0000ED8
:402F4000013C00F3AB8014F1360FDEBF002001F0004170BDC4F10004203C35DA0C341BDC04F11404C4F1200500FA05F320FA04F001FA05F240EA020001F0004221F00041AB
:402F800010EBD37021FA04F642EB06015EEA430E08BF20EAD37070BDC4F10C04C4F1200500FA04F320FA05F001FA04F240EA020001F0004110EBD37041F100015EEA430EB8
:402FC00008BF20EAD37070BDC4F1200500FA05F24EEA020E20FA04F301FA05F243EA020321FA04F001F0004121FA04F220EA020000EBD3705EEA430E08BF20EAD37070BDE2
:4030000094F0000F0FD101F00046400041EB010111F4801F08BF013CF7D041EA060195F0000F18BF704703F00046520043EB030313F4801F08BF013DF7D043EA0603704797
:4030400094EA0C0F0CEA135518BF95EA0C0F0CD050EA410618BF52EA4306D1D181EA030101F000414FF0000070BD50EA410606BF1046194652EA430619D094EA0C0F02D1AB
:4030800050EA013613D195EA0C0F05D152EA03361CBF104619460AD181EA030101F0004141F0FE4141F470014FF0000070BD41F0FE4141F4780170BD70B54FF0FF0C4CF44E
:4030C000E06C1CEA11541DBF1CEA135594EA0C0F95EA0C0F00F0A7F8A4EB050481EA030E52EA03354FEA013100F088804FEA03334FF0805545EA131343EA12634FEA02224B
:4031000045EA111545EA10654FEA00260EF000419D4208BF964244F1FD0404F5407402D25B084FEA3202B61A65EB03055B084FEA32024FF480104FF4002CB6EB020E75EBA8
:40314000030E22BFB61A754640EA0C005B084FEA3202B6EB020E75EB030E22BFB61A754640EA5C005B084FEA3202B6EB020E75EB030E22BFB61A754640EA9C005B084FEAF8
:403180003202B6EB020E75EB030E22BFB61A754640EADC0055EA060E18D04FEA051545EA16754FEA06164FEAC30343EA52734FEAC2025FEA1C1CC0D111F4801F0BD141EAFF
:4031C00000014FF000004FF0004CB6E711F4801F04BF01430020B4F1FD0C88BFBCF5E06F3FF6AFAEB5EB030C04BFB6EB020C5FEA500C50F1000041EB045170BD0EF0004E14
:403200004EEA113114EB5C04C2BFD4EB0C0541EA045170BD41F480114FF0000E013C90E645EA060E8DE60CEA135594EA0C0F08BF95EA0C0F3FF43BAF94EA0C0F0AD150EA18
:4032400001347FF434AF95EA0C0F7FF425AF104619462CE795EA0C0F06D152EA03353FF4FDAE1046194622E750EA410618BF52EA43067FF4C5AE50EA41047FF40DAF52EAEC
:4032800043057FF4EBAE12E74FEA4102B2F1E04324BFB3F5001CDCF1FE5C0DD901F0004C4FEAC0024CEA5070B2F1004F40EB830008BF20F00100704711F0804F21D113F1A8
:4032C0003872BCBF01F00040704741F480114FEA5252C2F11802C2F1200C10FA0CF320FA02F018BF40F001004FEAC1234FEAD32303FA0CFC40EA0C0023FA02F34FEA43033D
:40330000CCE77FEA625307D150EA01331EBF4FF0FE4040F44000704701F0004040F0FE4040F40000704700BF4FF0FF0C1CEAD0521EBF1CEAD15392EA0C0F93EA0C0F6FD0C1
:403340001A4480EA010C400218BF5FEA41211ED04FF0006343EA501043EA5111A0FB01310CF00040B1F5000F3EBF490041EAD3715B0040EA010062F17F02FD2A1DD8B3F17B
:40338000004F40EBC25008BF20F00100704790F0000F0CF0004C08BF49024CEA502040EA51207F3AC2BFD2F1FF0340EAC250704740F400004FF00003013A5DDC12F1190FC1
:4033C000DCBF00F000407047C2F10002410021FA02F1C2F1200200FA02FC5FEA310040F1000053EA4C0308BF20EADC70704792F0000F00F0004C02BF400010F4000F013A53
:40340000F9D040EA0C0093F0000F01F0004C02BF490011F4000F013BF9D041EA0C018FE70CEAD15392EA0C0F18BF93EA0C0F0AD030F0004C18BF31F0004CD8D180EA01002F
:4034400000F00040704790F0000F17BF90F0004F084691F0000F91F0004F14D092EA0C0F01D142020FD193EA0C0F03D14B0218BF084608D180EA010000F0004040F0FE4052
:4034800040F40000704740F0FE4040F4400070474FF0FF0C1CEAD0521EBF1CEAD15392EA0C0F93EA0C0F69D0A2EB030280EA010C49024FEA402037D04FF0805343EA111152
:4034C00043EA10130CF000408B4238BF5B0042F17D024FF4000C8B4224BF5B1A40EA0C00B3EB510F24BFA3EB510340EA5C00B3EB910F24BFA3EB910340EA9C00B3EBD10FF5
:4035000024BFA3EBD10340EADC001B0118BF5FEA1C1CE0D1FD2A3FF650AF8B4240EBC25008BF20F0010070470CF0004C4CEA50207F32C2BFD2F1FF0340EAC250704740F41B
:4035400000004FF00003013A37E792F0000F00F0004C02BF400010F4000F013AF9D040EA0C0093F0000F01F0004C02BF490011F4000F013BF9D041EA0C0195E70CEAD153D5
:4035800092EA0C0F08D142027FF47DAF93EA0C0F7FF470AF084676E793EA0C0F04D14B023FF44CAF08466EE730F0004C18BF31F0004CCAD130F000427FF45CAF31F00043C9
:4035C0007FF43CAF5FE700BF4FEA4002B2F1FE4F0FD34FF09E03B3EB12620DD94FEA002343F0004310F0004F23FA02F018BF404270474FF00000704712F1610F01D1420284
:4036000005D110F0004008BF6FF0004070474FF0000070470E4B70B51E460E4C0025E41AA410A54204D056F8253098470135F8E700F04EF8084B094C1E46E41AA4100025E3
:40364000A54204D056F8253098470135F8E770BDDC360000DC360000DC360000E436000010B5431E0A44914204D011F8014B03F8014FF8E710BD03460244934202D003F8E3
:40368000011BFAE77047000000000000004F0040300000000140000280020140000C000F0140000100140140000800400140000A004C0140000200500140200000020140C9
:4036C000F00F00488000800E0140701000488000F8B500BFF8BC08BC9E4670474D000000650E0000F8B500BFF8BC08BC9E467047290000000837000008C1FF1F20000000BF
:403700009029000000000000000000007F800000030000000000E02EC05D00001800000000366E01FFFFFFFF000000000000000000000000000000000000000000000000EA
:403740000000000000000000000000000000000000000000000000000000000000000000000000000000000000000000000000000000000000000000000000000000000049
:403780000000000000000000000000000000000000000000000000000000000000000000000000000000000000000000000000000000000000000000000000000000000009
:4037C00000000000000000000000000000000000000000000000000000000000000000000000000000000000000000000000000000000000000000000000000000000000C9
:403800000000000000000000000000000000000000000000000000000000000000000000000000000000000000000000000000000000000000000000000000000000000088
:020000040001F9
:0200000480007A
:40000000084F00400E520040015B0040076400400565004071000140370101400302014053030140370401405005014033060140560701404B08014052090140630A014088
:40004000470B01406B0C0140500D0140060E0140330F01405114014049150140581601405917014046180140531901404A1A0140551B014011400140154101400D420140BF
:400080001143014004440140074501400B4601400A4701401D4801400A4901400B4C01400E4D01400C5001400351014001100A360D1016361910223625102E3608C009C06C
:4000C00014142008210C241028F029303180344060C061C078087C302784800F8572863887028B728C0F8E0F850D8738896F8A0F8B0F030806230D030E0C0F04121015403B
:40010000161019201A081B051C4C1D131E031F0C2061220624612513260E27042D0A2F143130321033403460360F370F382039023A823B803E143F044060410349FF4AFFB2
:400140004BFF4DA04F04501854015604580459045A045B045C445D425F01604062C06440654066C068C06AC06CC06EC08204853E86088A1095289606971299029B0C9E0297
:40018000A114A323A610A93EAE01B002B218B30EB401B530B604B701BE04C060C103C550C621C80EC9FFCAFFCBFFCDAFCE0FCF04D018D280D804D904DA04DB04DC32DD2273
:4001C000DF01E040E2C0E440E540E6C0E8C0EAC0ECC0EEC000800220064007180A220B440F1110101280174419601A021B051C081D081E412080210122C427162810294030
:400200002F48310432603714388039823E044220462048044B104F115660580259805A186202774080808310860289C48B04C075C2AFC4ACCAAACC6ECE49D042D224D60F7C
:40024000D801D804D904DF01004404020580062007040A420B100CA20E10100412801420168117111E1A1F0125042789280E29012C202E202F4132803580361C3712384427
:400280003B103D483E103F024508464047104C014D404E0A4F0257106640670278207A04810482018D018F40928193889480950896049704980199209B069C189D04A0C283
:4002C000A108A304A620A708AA10AC02AF48B001B341B40AB544B650C0F5C2FDC4EACAFDCCF8CEFED0E0D230E010E602EE44030209010E0115081B101D04210227412B28DE
:400300002F843001311F33203540378039023F015608580459045B045D905F01820884028503880189038D018F02900493039503960898019D03A201A404A804AD03B2030B
:40034000B302B408B604B701B808BE10D602D712D804D904DB04DC03DD30DF010024020104080608078008040A400E880F20128813401514170119011A401D101E101F40A8
:40038000202421182281231024022720282029012A502E4031083290340A368039203A033C043F504A024B805B405F0863026D146E846F087420758076207E017F028C01BB
:4003C0009280930894C4950896469714980199209A809BC89C1A9D859E20A040A201A314A420A6B2A708B201C077C27CC47BCA1FCCDECE75D648D808E240EE8454185604D5
:40040000580459045B045D305F01820486018A088B018C108E208F0292029440968098019C02A004A408A820AA10AC80AE40B101B2FFB302BE04C006C504C9FFCA07CBFF44
:40044000CC40CD20CEF0CF05D008D602D73ED804D904DA04DB0DDD04DF01E040E1A8E240E32000640284036004440740082A09080A450D080E4010081145125016241A2009
:40048000204021082209234028062A202B202C042E4031083281368839503A043C243F4049204B0450105110522058C059085A805E026202651166806808695572077B08EC
:4004C000850889408A808C408D01900492D0930894C8950896209744980199309A809C3C9D049E5A9F01A050A281A307A63CAB20B00AB201B680C0BFC23FC46FCA3ECC5BAB
:40050000CE7ED204D682D8B1DE04E668EE04070F09030B0C0F30151019051B0A1D051F0A2103230C254029403110330F3520374039803F414024410549FF4AFF4BFF4DA050
:400540004F0150185283580459045A045B045C205D225F016040628064406540668068406A806C406D206E80C024C105C54EC6C3C702C81FC9FFCAFFCBFFCDAFCE07CF0141
:40058000D018D283D804D904DA04DB04DD22DF01E040E280E440E540E680E840EA80EC40ED20EE80021003020510062108600B200F181141142015402410278928612A01BF
:4005C0002B022CA02D1031103660370839413A323C803D203E04408844884501484049844D8050445120600463086AA06DA06E80724077407D807E028020851089088E025D
:400600008F04914892049320941496E0982099129A409B049C019E019F40A080A220A381A510A602A740B060B210B390B480B540C0E5C267C4A9CAEBCC74CE7DD0A5D2188E
:40064000E0C0E201E8E0EE0400040101020203020502070109010B060E011402160C18021A041C021D011E141F0A2310300631043210330334083508360137103A023B0862
:400680004013420249FF4AFF4BFF4F015018580459045A045C225D025F016040624064406540668068806A806C806E80811085088B048D5C8FA193A39504997C9B82A1E750
:4006C000A318A518A9FFB140B31FB538B798BB88BF01C013C202C5ECC702C813C9FFCAFFCBFFCD83CE03CF01D018D602D713D804D904DA04DB04DC40DD42DF01E040E24023
:40070000E440E540E680E880EA80EC80EE8000800102042406010A1A0C010E28154019021A1A2195240A25402601271428802D082F4431803719392A3C203D803E0A412878
:4007400043404528474049104A044B204D014F0455085E026C026D106F207528761A902092049388941E955196E097249A409B099C019D209E129F50A090A120A220A301F3
:40078000A402A518A602A760AB04B441C0E9C277C480CAE1CCE8CEF7D07ED68000010128020603520402060109F915901608174A19401BA425F92D012E0B3008310132049E
:4007C0003318340335E0360337063E113F404016420549FF4AFF4BFF4F01501852805403580459045A045B045C425D225F016040624064406540668068806A806C806E80B5
:40080000801889308BC98C018E06920394089610980299309A019BC39C209D559FA0A018A150A3AEA808AA10AFFFB038B1F0B203B30FB404B603BA03BB08BE40C046C20108
:40084000C5ECC702C813C9FFCAFFCBFFCD83CE03CF01D018D804D904DA04DC22DD02DF01E040E240E440E540E680E880EA80EC80EE80004001020401050408020A6A0D081A
:4008800010401310174019421A0A1B841DA41E84208023102541261429422C022F203040325036143B103D103E0142404380440249094A084E0952085C105D015E805F0494
:4008C0007640858088408B208C108E0192019388940E9540964497209B099C019D299E139F30A090A220A301A551A61EA740A910B060B209B30CB704C039C22FC48ACA59D2
:40090000CC6CCEA4D019D234D6F0E440E8C0EA20EE205403580459045B045D205F010004014203280402052006200A020B200E290F401201161217111CA01D101F40258058
:400940002620274029022B4C2C803081318032013320362A39403A013B203D203E4444204541462047014BC04C044F42560859095B60C07FC2F5C4F1CA85CCE5CE7DD0D0B1
:40098000D230D60F07080B080F0811011B031D042108250831023308350137043F444002460449FF4A074BFF4C404D204EF04F05500854015804590D5A045B0D5D035F011F
:4009C000604061A862406320810C820183118510870C8A02911C920193029E049F03A110A402A514A909AB10AC08B001B11FB208B406B601BE05C045C9FFCAFFCBFFCF01E8
:400A0000D018D280D401D804D904DA04DB04DC39DD99DF01E040E240E440E540E680E880EA80EC80EE80002402800302051006800A420F82120817481D181E8221862308E6
:400A4000274028502CA02E1031123240374138A03B083C023E04400846804F805084514059805D055E8076807B0880048580870888088A408D088E0190A4910592D693088E
:400A80009408958898509B019EC0A031A288A34BA580AE04B180B501B640C05FC299C4A2CAE3CC9DCECED084D210D6D8DE04E210E441E610E802EC20050106A90868090174
:400AC0000A930D0111011616170118681A951D012056228928602A802E022F01301B34E4360737013AAA404545EC4602480749FF4AFF4BFF4D834E034F015018580459047F
:400B00005A045C035D095F016040624064406540668068806A806C806E80820386208C098ED0941498109A409C109EACA40CA671A8DCAA22B01FB4E0BA20C042C106C50EE7
:400B4000C6BCC80DC9FFCAFFCBFFCEF0CF44D00CD418D604D804D904DA04DB04DC04DD44DF01E6C0EA40EB020080010202200408060808400B240E181014158017111912D4
:400B80001A801C021D021E2C254029012B022F02328B368A380439103C243D103E4040804110468049144D054F805040531057405811591060406240630864046508660859
:400BC000670880408310842087088801890A8B01902491209252930C9488950898C19C109D049E089F01A050A2A8A307A540A614A708A804AC04AE02AF02B010C06DC267C6
:400C0000C4D6CA19CCDBCE76D085D214D601D80DE206E683E814EA02EC44000802F00478068408EC160718011C941E48220124182620289C2A203001321C340236F03E01DF
:400C400040154104460B47CE483449FF4AFF4BFF4EF04F44500C52035302580459045A045B045C025D035F0166C06A406B028503860588028C048D038E018F0C91049A025D
:400C8000A405A901B002B108B304B404B502B601B701B9A0BE51BF44D40FD804D904DB04DC20DD20DF050008018003080522071008100B040E2513081508164017201951C3
:400CC0001C401E251F40200821022244280429202F923102350838883B043C043E203F80444045404C015689581059015A085B8061246D106E8078047D027E4080808201E3
:400D000086C088408A108B108C48908C910893209510990E9A409B8C9C089D809E20A120A3C3A501AA01AB40AF01B312C077C2E2C474CAD4CC41CE7AD090D210D60FD80685
:400D4000DE02E080E420E680E810ECC400040437059407600D9E0E080F601207146015CF16041730180119FD1A021B0220612130220223C92680285729732F0F300F31FF28
:400D800032803470382039083F05540F5604580459045B045C025D205F01820C8410860489FB8B048E04915893A195CC9732981C99779E02A01CA1ACA351A602A801A930CD
:400DC000ABCFB004B202B30FB401B5F0B618B880BE55D401D804D904DB04DC20DD30DF010084010204020613074009080A400B080C200F02112012401304144016081704C7
:400E0000180419201A441B0A1C201E881F802080231025182628272029A22B022F443108322033103522360839083A403B883D20580259505A045C205E885F026080834044
:400E40008402862088108A088B828C208E029108938494029710984099529A199B049C809DA09F30A020A301A708AC20AD40B620C0BDC2CEC47ECAADCCE6CE2AD6FFD801E9
:400E8000E280E440E680E820EC600B1011021680308235283B423E80550259108701C210C430CCF0CE70D480D620E24032103301348051105B0487408D0197429A209B0102
:400EC0009D38A101A482A502AF10B620CC70D420D640E640E8108D10952097029A209C809D389F04A208A482A502AA10B208EE2018101B401D011F8089108C0295209A20AD
:400F00009C809D28A208A482A502AB05C6F0EA80EE2009206220C202D80202040A20A620B120C002C208EE01021005041B042720A620B614C00CC608C801EA02EE08454015
:400F400083209B20A620AB04B210B504D004EA08EE04270152085620640469406D406F0271208128880489208B029A209C809D28A208A340A480A502AB80B410B501C820C8
:400F8000D460D880DAC0DC20E6A0EC2084808C808D028F409C80A340A480A502B301E210648093029880A002A540A620AB01B482D801E808EC026501670274028D019302C0
:400FC000A002B140B220D601D801DE04E402E804EC04001D0101081D0A190B010C150E15101D11011A191B011C0D00FF01FF100A0000F3800C3C0042823C004108000003AA
:40100000410000040F67F018047F0000C310000000040000F3080C00FF1800001C00E3801C402C1F0F20C08000022808000000506502040003C0E0000AFFFFFF62A0F04116
:401040000C00000000000000040404003303000100000000000040020010301000101012000000000000000000000000000000000F00D000DF10000F042000460000008096
:40108000D36A0C00C30000808260000D410020000020C3430C0000000C00D30008000000C080200010700F0F200080B0000000015403060001C0000E12FFFFFF62A0F0417E
:4010C0000C0000000000000004040400240400010000000000004002001030100010101200000000000000000000000000000000010000010100004444000000C00000C3DD
:40110000C300C00000000000300E0E000C000000C00000C0C000C000000000000A00148A8A000000000000003F0000FFFF000000000000000800100808000804040000002D
:40114000F00000F0F000F00000000000800040808000800000000000000100000000000000000000000000000000000000000000000000000000000000000000000000006E
:40118000000000000000000000000000000000000000000000000000000000000000000000000000000000000000000000000000000000000000000000000000000000002F
:4011C00000000000000000000000000000000000000000000000000000000000000000000000000000000000000000000000000000000000000000000000000000000000EF
:4012000000000000000000000000000000000000000000000000000000000000000000000000000000000000000000000000000000000000000000000000000000000000AE
:40124000000000000000000000000000000000000000000000000000000000000000000000000000000000000000000000000000000000000000000000000000000000006E
:0200000490006A
:0400000000004005B7
:0200000490105A
:04000000BC90ACAF55
:0200000490303A
:02000000275E79
:0200000490402A
:4000000000000000000000000000000000000000000000000000000000000000000000000000000000000000000000000000000000000000000000000000000000000000C0
:400040000000000000000000000000000000000000000000000000000000000000000000000000000000000000000000000000000000000000000000000000000000000080
:0200000490501A
:0C00000000012E13306900012E2E57C79E
:00000001FF