:400000000040002011000000A5140000A514000008B5044B1A6803F53F5302331A6001F043FA00BFFA46004010B5054C237833B9044B13B10448AFF300800123237010BD07
:4000400028C1FF1F00000000DC3D0000084B10B51BB108480849AFF300800848036803B910BD074B002BFBD0BDE81040184700BF00000000DC3D00002CC1FF1F08C1FF1F0F
:400080000000000008B502F00BFD014B986208BD6CC2FF1F08B502F063FB00F0B9FE01F085FD01F035FF02F07DFC01F01BFE01F0EBFD01F0D5FF02F0B9FC02F0ABFE02F09F
:4000C000CFFE02F053FE02F077FE02F00BF802F045F802F07DF802F0B7F802F0E9F802F023F902F0E5FB02F01FFC01F053FE01F0E1FE00F04BFE02F011FD012002F0BEFA87
:4001000062B600F075FE00F0F9FC324C204632494FF47A720A2300F0B1FE204600F0B8FE2E4C20462E4941F288324FF47A7300F0A5FE204600F0ACFE2A4C20462A4964221D
:40014000134600F09BFE204600F0A2FE274C2046274900224FF47A7300F090FE204600F097FE244C204624499622022300F086FE204600F08DFE4FF4FA7001F09DFC1F4C8C
:4001800020461F4940F2DC524FF4FA7300F076FE204600F07DFE1B4C20461B4964224FF4FA7300F06BFE204600F072FE174C204617494FF4FA724FF47A7300F05FFE2046EB
:4001C00000F066FE0122134B83F82C2000F084FEFCE700BFD0C2FF1F510700000CC3FF1F4D0E000034C3FF1F990D000020C3FF1F550B0000FCC2FF1F0D0D00006CC3FF1FA0
:40020000290F000054C3FF1F8500000044C3FF1FDD0F00006CC2FF1F08B501F0F7FC08BD08B50D4BAA221A705A70EF229A700222DA701871597100231A4605E00649C95C1C
:400240000A44D2B20133DBB2052BF7D9024882710721FFF7E1FF08BD7CC3FF1F70B500231C4604E0C25C2244D4B20133DBB24A1E9342F7DB835CA34240F0EF800378AA2B73
:4002800040F0EB804378AF2B40F0E78083782BB90279AA2A02D10121704A1170012B02D101796F4A1170022B0FD103796C4A937092F83820012A08D113B9694B9A7004E0D0
:4002C000012B02D10022664B9A7005468378032B14D10179427902EB8202530043EA01239BB25F4AD380B3F57A7F02D900225C4BDA8001F041FF002001F0E8FEAB78042B1D
:4003000047D12E79C6F16406F6B2632E00D9642601F032FF534BA3FB0030400906FB00F080B201F0D3FE6E79C6F16406F6B2632E00D9642601F020FF4A4BA3FB0030400925
:4003400006FB00F080B201F037FFAE79C6F16406F6B2632E00D9642601F00EFF414BA3FB0030400906FB00F080B201F095FFEE79C6F16406F6B2632E00D9642601F0FCFEF7
:40038000384BA3FB0030400906FB00F080B202F083FAAB78052B02D12A79314BDA70AB78062B09D12B79012B03D1012002F0C6F902E0002002F0C2F9AB78072B17D12E794B
:4003C0006B7943EA0626A6F51C53103B9BB24CF2503293420BD8304601F072FE304601F0E5FE304601F052FF304602F04FFAAB78082B08D12B791A4A5371022B03D10122FD
:40040000174B83F82C20AB78092B06D12B79632B03D10122124B83F82020AB780A2B03D12A790F4B83F83820AB781E2B03D12A790B4B83F85420A878132802D12146FFF775
:40044000EFFEA878142802D12146FFF7E9FEA878152802D12146FFF7E3FE70BDB0C3FF1F6CC2FF1F1F85EB5110B5294B1B7833B9AA2804D1264B01221A70187110BD012BC5
:4004800006D1AF2804D1224B02221A70587110BD022B06D1F02804D81D4B03221A70987110BD032B0BD1312809D8194B04221A70D87183F83600002283F8372010BD042BE1
:4004C00013D1134A92F836207AB1013AD2B2104981F8362091F837305C1C81F837400B441872A2B905220A7010BD052B0CD1084B00221A7093F837105A1810720531181D92
:40050000C9B2FFF7ABFE10BD0022014B1A7010BD44C1FF1F70B582B0ADF80600ADF80410ADF80220ADF80030154DAA242C706C700024AC70060A2E716871080AA871E971A0
:40054000110A29726A721A0AAA72EB729DF819302B739DF818306B730A23EB702346224605E00749C95C0A44D2B20133DBB20D2BF7D9034882730F21FFF74EFE02B070BD36
:400580007CC3FF1F70B582B0069E174DAA242C706C700124AC70002428716971110AA971EA71ADF806301A0A2A726B720096330EAB72C6F30743EB72C6F307232B736E73A3
:4005C0000A23EB702346224605E00749C95C0A44D2B20133DBB20D2BF7D9034882730F21FFF71AFE02B070BD7CC3FF1FF0B583B0089F099E2A4DAA242C706C700224AC70CE
:4006000000244FEA106E85F804E0C0F3074E85F805E0C0F3072E85F806E0E871080E2872C1F307406872C1F30720A872E972110E2973C2F307416973C2F30721A973EA73B1
:400640001A0E2A74C3F307426A74C3F30722AA74EB743B0E2B75C7F307436B75C7F30723AB75EF750196330E2B76C6F307436B76C6F30723AB76EE761823EB70234622461A
:4006800005E00749C95C0A44D2B20133DBB21B2BF7D9034802771D21FFF7BEFD03B0F0BD7CC3FF1F10B582B0ADF80600ADF804100F4BAA221A705A7003229A700022040A93
:4006C0001C715871080A9871D9710421D970134605E00749C95C0A44D2B20133DBB2072BF7D9034802720921FFF796FD02B010BD7CC3FF1F70B582B0144DAA242C706C703D
:400700000524AC700024060A2E716871080AA871E971110A29726A72ADF806301A0AAA72EB720823EB702346224605E00749C95C0A44D2B20133DBB20B2BF7D9034802732F
:400740000D21FFF769FD02B070BD00BF7CC3FF1F2DE9F04782B07C4B93F838207B4BA3FB02139B0803EB8303D31ADBB2042B02D10121774B9970774BA3FB0213DB0803EB8C
:40078000830103EB4103D31ADBB20A2B02D101216F4B5970704BA3FB02139B0803EB430103EB8103D31ADBB20C2B02D10121684B5972664BA3FB02131B0903EB83039B00EC
:4007C000D31ADBB2132B02D10121614BD97202F00703072B02D101215D4B197301325A4B83F838205A4B1B78BBB10133DBB2584A1370322B02D10022554B1A70574CB4F8FE
:400800004C00B4F84E10B4F84020B4F84230B4F844400094FFF77EFE93E04D4B5B7883B100204B4B58704D4CE388A178474AA2FB03324B4B1B88A46A0094D208FFF7A2FEA7
:400840007FE0434B9B78002B5ED00026404B9E70444DB5F90C0002F049FE00224FF07C5302F0AAFE0022404B02F0A6FE03F0B6F88046354CE063B5F90E0002F037FE00229F
:400880004FF07C5302F098FE0022374B02F094FE03F0A4F807462064B5F9100002F026FE00224FF07C5302F087FE00222E4B02F083FE03F093F80546606440462B4903F017
:4008C000DDF881463846294903F0D8F882462846264903F0D3F88046204BDC8D93F83070484603F01BFA8146504603F017FA0546404603F013FA0246009701964846294646
:400900002346FFF773FE1CE0114B5B7A43B100220F4B5A72114B588C998CFFF7C3FE10E00B4B1B7B6BB10022094B1A730B4BB3F85C00B3F85610B3F85A20B3F85830FFF7AB
:40094000D9FE02B0BDE8F08744C1FF1FCDCCCCCCB0C3FF1FA38B2EBA4FECC44E6CC2FF1FE0C2FF1FE4C2FF1F0080664000007A4410B50C4601281AD1022918D0002001F087
:4009800095FEB4FA84F0400901F0A8FE184B1B7833B9012001F096FE0122154B1A7010BD002001F08FFE0022114B1A7010BDB8B9022C15D001F09EFE204601F0B3FE0C4B5D
:4009C0005B7833B9012001F0A1FE0122084B5A7010BD002001F09AFE0022054B5A7010BD012001F063FE012001F084FE10BD00BF8CC1FF1F10B5044640F2DE33984200D9C5
:400A00001C4631B9002002F0F9F9204602F0FCF910BD012906D1204602F0F0F9002002F0F3F910BD002002F0E9F9002002F0ECF910BD00BF10B5044640F2DE33984200D9C3
:400A40001C4631B9002002F085F9204602F088F910BD012906D1204602F07CF9204602F07FF910BD002002F075F9002002F078F910BD00BF10B5044640F2DE33984200D9F5
:400A80001C4631B9002002F065F9204602F068F910BD012906D1204602F05CF9002002F05FF910BD002002F055F9002002F058F910BD00BF10B504460021FFF79BFF20469A
:400AC0000021FFF7B7FF20460021FFF7D3FF20460021FFF7CFFF10BD10B504460121FFF789FF20460121FFF7A5FF20460121FFF7C1FF20460121FFF7BDFF10BD08B5144B90
:400B00004FF4CD72A3F84C206E22A3F84E2008221A7140F2DE31D9809A70DA705A71012001F0C4FD002001F0D9FD002001F0CAFD012001F0DFFD002001F0F4FD002001F092
:400B4000E5FD012002F0A6F9012002F097F908BD6CC2FF1F074B93F82030012B05D1054B002283F820205A7070470122014B5A70704700BF6CC2FF1F84B008B50DF1080E50
:400B80008EE80F009DF80B3023B900200121FFF7EFFE1CE0012B04D100200146FFF7E8FE15E0022B04D101200146FFF7E1FE0EE0032B04D101200021FFF7DAFE07E0002063
:400BC0000221FFF7D5FE01200221FFF7D1FEBDE8084004B0704700BF84B008B50DF1080E8EE80F009DF80D30B3B9002002F086F8012002F077F8184B9B7833B9012002F09A
:400C000089F80122144B9A7022E0002002F082F80022114B9A701BE0012B16D1002002F06DF8002002F05EF80B4B9B7833B9012002F070F80122084B9A7009E0002002F059
:400C400069F80022044B9A7002E0012002F056F8BDE8084004B070478CC1FF1F38B50446450828460021FFF7C5FE28460021FFF7E1FE20460121FFF7FDFE20460121FFF76B
:400C8000F9FE38BD10B504460121FFF7B3FE20460121FFF7CFFE640820460021FFF7EAFE20460021FFF7E6FE10BD00BF08B500200221FFF79FFE00200221FFF7BBFE0020C2
:400CC0000221FFF7D7FE00200221FFF7D3FE08BD08B518B90846FFF7EDFE08BD012803D10846FFF7F9FE08BD022803D10846FFF7B5FF08BD032803D10846FFF7C3FF08BD33
:400D0000082801D1FFF7D2FF08BD00BF70B594B01D4B5B785BBB1C4CA078E188FFF7D8FF04F110065025684631462A4603F042F894E80F00FFF720FF684631462A4603F08C
:400D400039F894E80F00FFF747FF94F85430012B06D1012002F0AAF8012002F0B3F811E0002002F0A3F8002002F0ACF80AE00822054B9A70FFF79AFF012002F097F80120E1
:400D800002F0A0F814B070BD6CC2FF1F08B501F05DFB01F06FFB08BD08B516200E2100F041FAB0F1FF3F02D0104BA3F85C001620082100F037FAB0F1FF3F02D00B4BA3F8D4
:400DC00058001620092100F02DFAB0F1FF3F02D0064BA3F8560016200A2100F023FAB0F1FF3F02D0014BA3F85A0008BD6CC2FF1F0222044B1A705422034B1A700522034B00
:400E00001A707047B5E9FF1FE8E9FF1FECDFFF1F38B50D4D0023A5F84030012001F00EFD0402022001F00AFD2043013080B2A5F84000000A012101F097FC95F840000221E6
:400E400001F092FC38BD00BF6CC2FF1F094BB3F842200132A3F8422007490A8801320A809B78082B05D0034AB2F844300133A2F8443070476CC2FF1FB6E9FF1F816003490E
:400E800009680A4402604360704700BF94C1FF1F084B5A68134602E0834207D0DB68002BFAD1C260034B5860002070474FF0FF30704700BF94C1FF1F064A06E0834202D13C
:400EC000DB68136001E003F10C021368002BF5D1704700BF98C1FF1F10B50B4B5C680FE02268094B1B689A4209D862681AB92046FFF7E2FF01E013442360A3689847E46849
:400F0000002CEDD110BD00BF94C1FF1F024A136801331360704700BF94C1FF1F014B1870704700BF9CC1FF1F08B5244B1B788BB3224A53780133DBB25370012B0FD10020C8
:400F400001F0C4F8002001F037F9002001F0A4F9002001F0A1FC002001F09CFB1AE0022B18D142F2107001F0B1F842F2107001F023F942F2107001F08FF942F2107001F08E
:400F80008BFC012001F086FB0C4B00225A701A78013A1A700A4B5B78084A9370D27893420BD0012B03D11E20FFF7B8FF02E00120FFF7B4FF014B9A78DA7008BD9CC1FF1F87
:400FC0006CC2FF1F08B5012001F074FE012001F065FE012001F07AFE08BD00BF08B5444B93F82C30012B1FD1424B1B787BB9012001F048FE002001F05DFE002001F04EFE1D
:40100000002001F063FE01223A4B1A7008BD002001F038FE0022374B1A70354B83F82C20012283F8502008BD022B16D1314B1B781BB901222F4B1A7008BD012001F03AFE8B
:40104000012001F02BFE012001F040FE0023294A1370274A82F82C3008BD032B16D1254B1B7833B9012001F019FE0122214B1A7008BD002001F012FE00221E4B1A701C4B18
:4010800083F82C20012283F8502008BD042B16D1184B1B7833B9012001F00CFE0122154B1A7008BD002001F005FE0022114B1A700F4B83F82C20012283F8502008BD052B70
:4010C00015D10C4B1B7833B9012001F0FFFD0122084B1A7008BD002001F0F8FD0022054B1A70034B83F82C20012283F8502008BD6CC2FF1FA0C1FF1F10B40123002204E0BE
:40110000C45C2244D2B20133DBB24C1EA342F7DB035D93420DD1C379017A074A03EB83035C006318D385437A82F83030012382F850305DF8044B70476CC2FF1F38B52F4B42
:401140005A889918087101325A8093F8363043B9102806D1294B012283F8362083F8380038BD012B08D1082806D1244B022283F8362083F8390038BD022B0ED107280CD119
:401180001E4B032283F8362083F83A00072283F86A20002283F86B2038BD032B15D1174A92F86A208AB1013AD2B2144981F86A2091F86B305C1C81F86B400B4483F83B0028
:4011C000D2B9042281F8362038BD042B10D10B4C002584F8365094F86B10631883F83B00043104F13800C9B2FFF786FF658038BD0022024B83F8362038BD00BFA0C1FF1F0F
:401200004840082310F0800F02D14000C0B203E0400080F00700C0B2013B13F0FF03F1D1704700BF30B583B00C4601AA032300F0F7F803281ED100201621FFF7E1FF21469A
:40124000FFF7DEFF1721FFF7DBFF9DF804402146FFF7D6FF9DF805502946FFF7D1FF084B187044EA05249DF80630984205D04FF0FF3003E04FF0FF3000E0204603B030BD18
:40128000B8E9FF1F82B009E00023019302E0019B01330193019B002BF9DD01380028F3D102B0704708B5012001F0DCFB1420FFF7E9FF002001F012FE1420FFF7E3FF002027
:4012C00001F0D0FB1420FFF7DDFF012001F006FE1420FFF7D7FF08BD38B5054600241CE015F0800F03D0012001F0F8FD02E0002001F0F4FD1420FFF7C5FF012001F0B2FBFA
:401300001420FFF7BFFF6D00EDB2002001F0AAFB1420FFF7B7FF0134E4B2072CE0D938BD08B5002001F0DAFD1420FFF7ABFF012001F098FB1420FFF7A5FF012001F0CEFDAE
:401340001420FFF79FFF08BD08B5002001F08AFB1420FFF797FF012001F0C0FD1420FFF791FF012001F07EFB1420FFF78BFF002001F078FB1420FFF785FF08BD08B5002031
:4013800001F070FB1420FFF77DFF002001F0A6FD1420FFF777FF012001F064FB1420FFF771FF002001F05EFB1420FFF76BFF08BD10B5012001F092FD1420FFF763FF0120F6
:4013C00001F050FB1420FFF75DFF01F093FD0446002001F047FB1420FFF754FF204610BD38B5012001F07AFD0024254614E0012001F038FB6400E4B21420FFF743FF01F0C8
:4014000079FD08B10134E4B2002001F02BFB1420FFF738FF0135EDB2072DE8D9204638BD2DE9F0410746884615461E46FFF73AFF3846FFF751FFFFF7BBFF18B1FFF770FF03
:4014400000242CE004464046FFF746FFFFF7B0FF804610B1FFF764FF21E0FFF723FF47F00100FFF739FFFFF7A3FF98B1FFF758FF444614E06F1CFFF7B3FF2870631CB34242
:4014800002D1FFF761FF01E0FFF778FF0134E4B23D4600E00024B442ECD3FFF741FF2046BDE8F081FEE700BF08B5104E104D16E029686B68AC68002204E051F8040B43F8D9
:4014C000040B0432A242F8D1E868002203E0002143F8041B04328242F9D11035013E002EE6D102F041FCFEF7D5FDFEE7010000005C3E000008B5134A134B1A60134A1368BD
:4015000043F40073136000230AE0032B03D8104A52F8231000E00F490F4A42F8231001332F2BF2D90D4B1A780D4B1A700A4A0D4B1A6000F0FBF800F0DBF900220A4B1A60C0
:4015400008BD00BF0004FA050CED00E014ED00E000000000A514000000C0FF1FBC76004004C1FF1F08ED00E000C1FF1FF0B40022174611E050F82760F3B226F0FF0608E0FF
:4015800001EB420511F812406D78A5550132013BDBB2002BF4D101372A2FEBD9F0BC704770B41C4B1B78DBB21B480278D2B21B4C2178C9B203F00706194D2E701B09013535
:4015C0002B7042F00303037041F0030323700823A5F262752B70022630352E70C0352B70402305F204752B7002352B70802305F21D252B70202603352E70A02605352E707B
:4016000030352B70217002704422064B1A7070BC704700BFCF010049F8460040F94600406E5800407658004008B50A46002102F0CCFB08BD38B50E222F4B1A8018232F4A09
:40164000137017222E490A8002310B7002310A802C4A137019250232158002321370023215800232137040F2E14102321180023213700222244B1A7008224FF040231A70C8
:40168000042203F500731A70204B1B78DBB2204A137001221F4B1A804FF4716203F21E231A8041F25122023B1A8000240CE01A4B1B7803F0010343EA440404F003044FF45B
:4016C000F07000F005F9013D0DB1032CEFD1114B07221A700021114A117048210232117001221A700222033B1A700D4A137843F03F03137038BD00BF80400040824000405E
:40170000844000408A4000400043004089010049A1460040044000402542004006400040A243004008B502F045FB08BD70B572B6484A137843F00403137000240CE04649CE
:4017400063001A1952000A4423445B00C8589188FFF76AFF0134E4B2072CF0D900240FE03D49A3001A1952000A4452F8300F23445B000B4451681A8FFFF7D4FF0134E4B273
:40178000032CEDD94FF090403449FFF7EFFE34480421FFF749FF334833490422FFF7C2FF324A137843F0020313701032137843F0020313702E4C237843F040032370A2F513
:4017C0008632513A137843F01003137029482A490A22FFF7A7FF294829490A22FFF7A2FF284829490A22FFF79DFF284828490A22FFF798FF274828490822FFF793FF2748C5
:4018000027490A22FFF78EFF264827490822FFF789FF264826490A22FFF784FF254826490A22FFF77FFF254A137843F008031370234E01253570FFF7FDFE81233370214B6A
:401840001D70FFF7ADFE204821460E22FFF76AFF70BD00BFE8460040E03D0000AC00004800760040087600406011004803500140A043004000510040FC100048C051004057
:4018800008110048F0510040141100481051004020110048225100402C11004830510040341100484251004040110048505100404811004860510040541100482243004008
:4018C0000048004004000840B0430040000000000230800803D000BF01380046FCD17047EFF3108072B6704780F31088704700BF0B4A7F2313708021517007E0DA0002F130
:40190000804202F5F042013BDBB21370002BF5D1DB0003F1804303F5F04300221A7070470CC1FF1F172815D831B103010A495A5C42F020025A5405E0030107495A5C02F076
:40194000DF025A540001044A835C43F00103835400207047012070471070004017280CD80001074BC1180A7942F004020A71C25C42F00102C254002070470120704700BFD1
:401980001070004017280BD80001064A835C03F0F10301F0070143EA4101815400207047012070471070004041F6FF73994201D14FF4005141F6FF739A4201D14FF40052AC
:4019C000172808D8C00000F1804000F5EC408180C280002070470120704700BF172805D8034B03EB0010417200207047012070471070004017281BD810B4C00000F1804490
:401A000004F5EC44D201D2B201F07F01114321709DF804201201D2B203F00F03134363709DF8083003F00F03A3700020E07001E0012070475DF8044B704700BF10B5FFF76F
:401A40004FFF0A4B5B78182B0BD9084A1478013B5370E30003F1804303F5F0431B78137000E0FF24FFF740FF204610BD0CC1FF1F10F0800F0CD111F4704F0BD1C00000F1FE
:401A8000804000F5F04001808270C37000207047012070470120704710F0800F08D1C00000F1804000F5F0408180C280002070470120704701BE704710B5044605E0084B67
:401AC0001868FFF705FFA4F50044B4F5004FF6D8034B586800FB04F0FFF7FAFE10BD00BF14C1FF1F08B5034B1B7A03FB00F0FFF7EFFE08BD14C1FF1F70B504460E46074B21
:401B00001D681F2802D90020FFF7D4FF04F01F04103455F8240045F8246070BD08ED00E038B504460D46072902D90020FFF7C2FF1F2C02D90020FFF7BDFF04F01F0000F11E
:401B4000604000F564406D01EDB2057038BD00BF7222074B1A702022073B1A700622A2331A70472210331A700122AE3B1A7070478A64004010B5FFF7B3FE04460A4A1378AB
:401B800043F020031370073A137843F0100313700432137843F01003137000F04BF82046FFF7A2FE10BD00BF9A64004008B5054B1B7823B9FFF7CCFF0122024B1A70FFF707
:401BC000D9FF08BD0CC2FF1F084B1B78DBB213F0200F06D0064A1078C0B213F01E0F02D17047002070470020704700BF636400404D640040034B1B7813F0040FFAD1024B69
:401C0000187070476764004044650040084B1B7833B97047305DFFF7EDFF0134E4B203E070B50D4606460024AC42F3D370BD00BF0CC2FF1F054A137843F010031370103272
:401C4000137843F010031370704700BFA2430040704700BF014B1B689865704708ED00E04001C0B2014B1870704700BF06E400E04022014B1A60704700E100E04022014B92
:401C80001A60704780E100E008B5FFF7F7FF0448FFF7E0FF0720FFF7E3FFFFF7E9FF08BD511C000008B5FFF78FFFFEF7DDFB08BD014B1B681865704708ED00E04001C0B27B
:401CC000014B1870704700BF04E400E01022014B1A60704700E100E01022014B1A60704780E100E008B5FFF7F7FF0448FFF7E0FF0720FFF7E3FFFFF7E9FF08BDA51C000045
:401D0000024A137843F080031370704772640040014B1870704700BF82640040014B1878704700BF62640040014B1880704700BF44680040014B188880B2704784680040B7
:401D4000014B1880704700BF0468004008B501E0FFF7F0FFFFF7E2FF10F0080FF8D108BD08B545F6BF50FFF7DFFF45F6BF50FFF7E7FFFFF7B5FD064A137843F01003137011
:401D8000FFF7B2FDFFF7E2FF0120FFF7C1FF08BD9264004008B5054B1B7823B9FFF7E0FF0122024B1A70FFF7ABFF08BD0EC2FF1F08B52A4A138801331380294B93F8503025
:401DC000012B07D10222264B83F850200022254B1A8003E0234A138801331380224A138801331380214A1388013313801D4B1A884CF620339A420FD9194B93F85030022BE7
:401E00000AD1FFF7DFF80122194B1A800023144A82F85030134A1380104B1B88052B05D90122144B1A7000220C4B1A800F4B1B88642B05D900220D4B1A8001220E4B1A80AF
:401E4000094B1B88032B05D90022074B1A8001220A4B1A80FFF75AF808BD00BFBEE9FF1F6CC2FF1FC0E9FF1FC6E9FF1FC4E9FF1FBAE9FF1FC8E9FF1FBCE9FF1FC2E9FF1FE7
:401E8000014B1B685865704708ED00E04001C0B2014B1870704700BF05E400E02022014B1A60704700E100E02022014B1A60704780E100E008B5FFF7F7FF0448FFF7E0FFFA
:401EC0000720FFF7E3FFFFF7E9FF08BDB11D00007222034B1A702022F9331A70704700BF8F64004010B5FFF7FBFC0446074A137843F020031370F932137843F01003137035
:401F000000F0BCF82046FFF7EFFC10BD9F64004008B5054B1B7823B9FFF7DAFF0122024B1A70FFF7DFFF08BD0FC2FF1F084B1B78DBB213F0200F06D0064A1078C0B213F011
:401F40001E0F02D17047002070470020704700BF686500404B64004038B5324C2578FFF7E5FF25442871237813B92279552A57D10133DBB22B4A13700B2B51D11346002228
:401F80001A701B79552B4BD1264B5B79522B1AD0532B2FD0512B43D1224BD8799979224A41EA00211180587A197A41EA00215180D87A997A41EA00219180597B1B7B43EABA
:401FC0000123538238BD174BD8799979164A41EA0021D180587A197A41EA00211181D87A997A41EA00215181597B1B7B43EA0123538238BD0B4BD87999790B4A41EA00218C
:402000009181587A197A41EA0021D181D87A997A41EA00211182597B1B7B43EA0123538238BD00BF10C2FF1FE4C2FF1F014B1B68D864704708ED00E04001C0B2014B187031
:40204000704700BF03E400E00822014B1A60704700E100E00822014B1A60704780E100E008B5FFF7F7FF0448FFF7E0FF0720FFF7E3FFFFF7E9FF08BD591F0000054A137815
:4020800043F0080313701032137843F008031370704700BFA2430040084A137843F0010313701032137843F00103137002F64D32137843F001031370704700BFA3430040C0
:4020C000014B1880704700BF044F0040014B1880704700BF064F0040014B1870704700BF034F004008B51A4A137843F0020313700232137803F08F0343F010031370154B54
:402100001A7802F0CF021A701A7842F030021A701A7802F0F0021A701A7842F00F021A7042F21070FFF7CCFF41F28830FFF7CEFF0020FFF7D1FF084A137843F00103137041
:4021400002F65E32137843F00103137008BD00BF004F00400B4F0040A343004008B5054B1B7823B9FFF7BEFF0122024B1A70FFF793FF08BD20C2FF1F014B188880B2704774
:40218000044F0040084A137843F0020313701032137843F00203137002F65932137843F001031370704700BFA3430040014B1880704700BF104F0040014B1880704700BFB5
:4021C000124F0040014B1870704700BF0F4F004008B51A4A137843F0020313700232137803F08F0343F010031370154B1A7802F0CF021A701A7842F030021A701A7802F09F
:40220000F0021A701A7842F00F021A7042F21070FFF7CCFF41F28830FFF7CEFF0020FFF7D1FF084A137843F00203137002F66A32137843F00103137008BD00BF0C4F00402A
:40224000174F0040A343004008B5054B1B7823B9FFF7BEFF0122024B1A70FFF793FF08BD21C2FF1F084A137843F0040313701032137843F00403137002F66532137843F0AA
:4022800001031370704700BFA3430040014B1880704700BF1C4F0040014B1880704700BF1E4F0040014B1870704700BF1B4F004008B51A4A137843F00203137002321378D5
:4022C00003F08F0343F010031370154B1A7802F0CF021A701A7842F030021A701A7802F0F0021A701A7842F00F021A7042F21070FFF7CCFF41F28830FFF7CEFF0020FFF739
:40230000D1FF084A137843F00403137002F67632137843F00103137008BD00BF184F0040234F0040A343004008B5054B1B7823B9FFF7BEFF0122024B1A70FFF793FF08BDD5
:4023400022C2FF1F10B5022001214FF4804241F6FF7300F047F9084C20700620012141F6FF72134600F05EF96070044800F078F9002000F07BF910BD24C2FF1F7D2400008D
:4023800070B52C4C2078FFF7E9FA6078FFF7E6FA294B1B78FF2B03D1FFF750FB264B1870254D2A78104606210B46FFF761FB214E341DA4B2287845F6A0312246FFF76CFB67
:4023C00030782978FFF70AFB6B78FF2B02D1FFF735FB6870184D6A78104606210723FFF747FB68782146154A92B2FFF755FB114C60786978FFF7F2FA20780121FFF792FA31
:4024000060780121FFF78EFAFFF76AFA0C4A137843F020031370FFF767FA0A4B1A7842F001021A701A7842F002021A700122064B1A6070BD24C2FF1F24C1FF1FCCE9FF1FCC
:40244000976500407465004080E200E008B5074BDB6823B9FFF776FF0122044BDA60FFF78FFF00F0A9F8024B1B7808BD24C2FF1F6B64004008B500F0ADF808BD704700BF26
:4024800008B50A280FD00C2802D0082806D102E04FF4805209E04FF4807206E00020FFF709FB002201E04FF480620021094B198042F2107303FB02F303F6C413064A82FBAF
:4024C0000302DB17C3EBE223044A1360044B198008BD00BFD4E9FF1FAD8BDB68D8E9FF1FD6E9FF1F10B5FFF7FBF90446184A137843F0010313701032137843F001031370CC
:4025000002F5AA520832137843F0030313701822104B1A70013B1A7842F040021A701A7802F0FC021A70C822053B1A700222A3F597530C3B1A70084A137843F00803137067
:402540000A20FFF7CFFA2046FFF7CEF910BD00BFAB43004006590040275B004010B504460A280DD00C2802D0082804D101E0C22207E0422205E00020FFF79CFAC22200E0A6
:402580008222034B1A702046FFF77AFF10BD00BF0259004008B5064A137843F0060313700C20FFF7DBFF0022024B1A8008BD00BF01590040DCE9FF1F08B5054B1B7823B9CA
:4025C000FFF7E8FF0122024B1A70FFF78BFF08BD34C2FF1F024A137843F001031370704700590040F0B583B086460F4616461D460B4C0123237000220092019218467146A8
:402600003A46FFF7F7F9207831462A46FFF7CCF920780221FFF7B6F9207803B0F0BD00BF26C1FF1FF0B583B086460F4616461D460A4C0023237000930193184671463A465E
:40264000FFF7D8F9207831462A46FFF7ADF920780221FFF797F9207803B0F0BD27C1FF1F014B1B681864704708ED00E04001C0B2014B1870704700BF00E400E0044A1378C8
:4026800003F0FD03400000F0020018431070704700510040044A137803F0DF03400100F0200018431070704710510040044A137803F0DF03400100F020001843107070470F
:4026C00030510040044A137803F0BF03800100F0400018431070704730510040044A137803F07F03C001C0B203431370704700BF30510040044A137803F0FB03800000F0CC
:40270000040018431070704730510040044A137803F0F703C00000F0080018431070704730510040044A137803F0EF03000100F0100018431070704730510040044A137886
:4027400003F0FD03400000F00200184310707047F051004008B500F02BFC00F033FC08BD08B5FFF7F7FF08BD30B583B00C468DF8070000F067FCB4F5006F54D22509C5EB96
:40278000053319010C44A4B200F008FD00284CD1402021460DF10702012300F07FFC044607282FD1234B1B7813F0020FFAD0214B1B7813F0020F06D01E4B1B789B0805D0D5
:4027C0004FF0FF3403E04FF0FF3400E00024E4B9194B402029461A785B7800F09BFC072816D1144B1B7813F0020FFAD0114B1B7813F0020F0FD00F4B1B789B0810D04FF0DB
:40280000FF340DE0012809D10AE04FF0FF3407E04FF0FF3404E04FF0FF3401E04FF0FF3400F0E2FC02E0012400E00424204603B030BD00BF22470040E0E9FF1F38B50446AE
:40284000FFF74EF8054600F0E7FB04F1804000F500400478E4B200F0EDFB2846FFF744F8204638BD084A137843F0080313701032137843F00803137002F67132137843F0AB
:4028800001031370704700BFA3430040014B1880704700BF284F0040014B1880704700BF2A4F0040014B1870704700BF274F004008B51A4A137843F00203137002321378AB
:4028C00003F08F0343F010031370154B1A7802F0CF021A701A7842F030021A701A7802F0F0021A701A7842F00F021A7042F21070FFF7CCFF41F28830FFF7CEFF0020FFF733
:40290000D1FF084A137843F00803137002F68232137843F00103137008BD00BF244F00402F4F0040A343004008B5054B1B7823B9FFF7BEFF0122024B1A70FFF793FF08BDA7
:4029400035C2FF1F7222084B1A702022A3F201131A7006229E331A70472210331A700022B13B1A70704700BF8A65004010B5FEF7B7FF04460A4A137843F020031370A2F260
:402980000112137843F010031370033A137843F01003137000F058F82046FEF7A5FF10BD9A65004008B5054B1B7823B9FFF7CAFF0122024B1A70FFF7D9FF08BD36C2FF1FF6
:4029C000084B1B78DBB213F0200F06D0064A1078C0B213F01E0F02D17047002070470020704700BF696400404A65004008B5FFF7E7FFFEF7A3FB08BD014B1B68986470477C
:402A000008ED00E04001C0B2014B1870704700BF02E400E00422014B1A60704700E100E00422014B1A60704780E100E008B5FFF7F7FF0448FFF7E0FF0720FFF7E3FFFFF7F7
:402A4000E9FF08BDED290000054A137843F0200313701032137843F020031370704700BFA2430040044A137803F0FD03400000F00200184310707047C051004008B50222DD
:402A8000054B1A6001200549FFF736F801200721FFF746F808BD00BF80E100E0512B000010B50224064B1C6000F08CF8A0F5004000B2044B1B68044A1460184410BD00BFCC
:402AC00080E100E03CC2FF1F00E100E0024B187800F00F00704700BF6564004040F00700014B1870704700BF8564004008B50F20FFF7F4FFFFF7EAFFFEF7F2FE054A137840
:402B000043F010031370FEF7EFFE0222024B1A6008BD00BF9564004000E100E008B500F0A3F84FF4004000F047F80022064B1A60064B1B7823B9FFF7A1FF0122034B1A7049
:402B4000FFF7D4FF08BD00BF3CC2FF1F38C2FF1F0D4B1B78DBB213F0010F06D00B490A6802F5FF427F320A6007E013F0020F04D006490A68A2F500420A6013F0040F02D09F
:402B80000022024B1A607047656400403CC2FF1F024A137843F080031370704770640040014B1870704700BF81640040014B1878704700BF61640040014B1880704700BF55
:402BC00000680040024B1B78024B188880B270470064004080680040014B188880B2704780680040014B1880704700BF40680040014B1880704700BF6068004008B501E06C
:402C0000FFF7EAFFFFF7D2FF10F0400FF8D108BD08B5134B1A7802F0F8021A701A7802F0FC021A70FFF7EAFF4FF40040FFF7DAFF4FF40040FFF7C0FF0020FFF7B1FFFFF7BD
:402C4000B5FF4FF40040FFF7D3FFFEF749FE054A137843F010031370FEF746FE08BD00BF706400409164004008B5054B1B7823B9FFF7CEFF0122024B1A70FFF789FF08BDF4
:402C800040C2FF1F044A137803F07F03C001C0B203431370704700BF00510040044A137803F0FB03800000F0040018431070704740510040044A137803F0F703C00000F08C
:402CC000080018431070704740510040044A137803F0EF03000100F0100018431070704740510040044A137803F0FB03800000F00400184310707047F0510040044A13781D
:402D000003F0FB03800000F0040018431070704700510040044A137803F0FB03800000F0040018431070704710510040024A137843F080031370704778640040014B1880D3
:402D4000704700BF12680040014B1880704700BF92680040014B1880704700BF52680040014B1880704700BF7268004008B5114A137803F0C00343F00903137021321378CE
:402D800043F0010313700132137843F0010313704FF47A70FFF7D2FF4FF47A70FFF7D4FF4FF46170FFF7D6FF4FF46170FFF7D8FF08BD00BF7864004008B5054B1B7823B91B
:402DC000FFF7D4FF0122024B1A70FFF7AFFF08BD41C2FF1F024A137843F08003137070477E640040014B1880704700BF106A0040014B1880704700BF906A0040014B188011
:402E0000704700BF506A0040014B1880704700BF706A004008B5114A137803F0C00343F00903137002F58D72137843F0010313700132137843F0010313704FF47A70FFF7BD
:402E4000D1FF4FF47A70FFF7D3FF4FF46170FFF7D5FF4FF46170FFF7D7FF08BD7E64004008B5054B1B7823B9FFF7D4FF0122024B1A70FFF7AFFF08BD42C2FF1F044A137845
:402E800003F0BF03800100F0400018431070704700510040044A137803F0FE0300F0010018431070704700BF60510040044A137803F0F703C00000F0080018431070704779
:402EC00020510040044A137803F0EF03000100F0100018431070704720510040044A137803F0FE0300F0010018431070704700BFC0510040024B187800F00100704700BF7B
:402F0000C151004010B500F09DF800F047F9D0B900F086F90446072812D102E00120FEF7E1FD0A4B1B7813F0020FF7D0074B1B7813F0020F04D0054B1B789B0800D1002490
:402F400000F052F900E00424204610BD2247004010B500F077F800F021F910BB012000F0FFF8072818D11048022100F07DF802280AD102E00120FEF7B5FD0C4B1B7813F09D
:402F8000020FF7D0002409E0084B1B7813F0020FE9D04FF0FF3401E04FF0FF3400F024F900E00424204610BDE0E9FF1F2247004008B5FFF7A7FF034610B9FFF7C9FF03466A
:402FC000184608BD08B5FEF78BFC0F4A137843F0080313701032137843F008031370C8220A4B1A700A4A137843F0100313701032137843F010031370064B1B7813F0200F25
:40300000FAD0FEF771FC08BDA043004001470040AC43004000470040054A137843F001031370034B1B7813F0020FFAD0704700BF02470040024A137803F0FE0313707047E7
:403040000247004008B5FEF74BFC064A137843F0080313701032137843F008031370FEF743FC08BDA043004070B506460D4600240CE00120FEF736FD064B1B7813F0010F74
:40308000F7D0054B1B7833550134E4B2AC42F3D3204670BD224700402047004030B43E2801D81F2B03D93F2827D90F2B27D8174C247814F0020F24D0154CB6252570D425C1
:4030C0002570012525700234247814F0020F1AD10F4C2070C1F300202070C9B22170591EC9B22170002104E0545C094804700131C9B29942F8D3072006E0012004E00120D0
:4031000002E0042000E0092030BC7047224700402047004030B4104C247814F0020F15D00E4CB6252570D8252570052525700234247814F0020F0BD1084C2070080A207053
:40314000C9B2217022702370072002E0042000E0092030BC704700BF22470040204700400C4B1B7813F0020F0FD00B4BB6221A70E1221A700E221A7002331B7813F0020F7E
:4031800005D1054B187007207047042070470920704700BF224700402047004010B5FEF79FFB0F4B1B78A3B901220D4B1A700D4B1B6813F0010F0ED00A4A136823F0010365
:4031C000136000BF00BF00BF0122054B5A60002402E0042400E00024FEF786FB204610BD44C2FF1F0400084008B5FEF779FB0A4B00221A705B68012B0AD1084A136843F0B6
:403200000103136000BF00BF00BF0022024B5A60FEF76AFB08BD00BF44C2FF1F04000840074B1B7813F0020F08D0064BB6221A70E0221A700D221A700720704704207047E1
:40324000224700402047004081F0004102E000BF83F0004330B54FEA41044FEA430594EA050F08BF90EA020F1FBF54EA000C55EA020C7FEA645C7FEA655C00F0E2804FEADA
:403280005454D4EB5555B8BF6D420CDD2C4480EA020281EA030382EA000083EA010180EA020281EA0303362D88BF30BD11F0004F4FEA01314FF4801C4CEA113102D04042E8
:4032C00061EB410113F0004F4FEA03334CEA133302D0524263EB430394EA050F00F0A780A4F10104D5F1200E0DDB02FA0EFC22FA05F2801841F1000103FA0EF2801843FA34
:4033000005F359410EE0A5F120050EF1200E012A03FA0EFC28BF4CF0020C43FA05F3C01851EBE37101F0004507D54FF0000EDCF1000C7EEB00006EEB0101B1F5801F1BD3F6
:40334000B1F5001F0CD349085FEA30004FEA3C0C04F101044FEA445212F5800F80F09A80BCF1004F08BF5FEA500C50F1000041EB045141EA050130BD5FEA4C0C404141EBDF
:40338000010111F4801FA4F10104E9D191F0000F04BF01460020B1FA81F308BF2033A3F10B03B3F120020CDA0C3208DD02F1140CC2F10C0201FA0CF021FA02F10CE002F1F7
:4033C0001402D8BFC2F1200C01FA02F120FA0CFCDCBF41EA0C019040E41AA2BF01EB0451294330BD6FEA04041F3C1CDA0C340EDC04F11404C4F1200220FA04F001FA02F3D7
:4034000040EA030021FA04F345EA030130BDC4F10C04C4F1200220FA02F001FA04F340EA0300294630BD21FA04F0294630BD94F0000F83F4801306BF81F480110134013DC4
:403440004EE77FEA645C18BF7FEA655C29D094EA050F08BF90EA020F05D054EA000C04BF1946104630BD91EA030F1EBF0021002030BD5FEA545C05D14000494128BF41F043
:40348000004130BD14F580043CBF01F5801130BD01F0004545F0FE4141F470014FF0000030BD7FEA645C1ABF194610467FEA655C1CBF0B46024650EA013406BF52EA033569
:4034C00091EA030F41F4002130BD00BF90F0000F04BF0021704730B54FF4806404F132044FF000054FF0000150E700BF90F0000F04BF0021704730B54FF4806404F1320401
:4035000010F0004548BF40424FF000013EE700BF42004FEAE2014FEA31014FEA02701FBF12F07F4393F07F4F81F06051704792F0000F14BF93F07F4F704730B54FF46074F1
:4035400001F0004521F0004120E700BF50EA010208BF704730B54FF000050AE050EA010208BF704730B511F0004502D5404261EB41014FF4806404F132045FEA915C3FF4A7
:40358000DCAE4FF003025FEADC0C18BF03325FEADC0C18BF033202EBDC02C2F1200300FA03FC20FA02F001FA03FE40EA0E0021FA02F11444C1E600BF70B54FF0FF0C4CF46E
:4035C000E06C1CEA11541DBF1CEA135594EA0C0F95EA0C0F00F0DEF82C4481EA030621EA4C5123EA4C5350EA013518BF52EA033541F4801143F4801338D0A0FB02CE4FF09C
:403600000005E1FB02E506F00042E0FB03E54FF00006E1FB03569CF0000F18BF4EF0010EA4F1FF04B6F5007F64F5407404D25FEA4E0E6D4146EB060642EAC62141EA555175
:403640004FEAC52040EA5E504FEACE2EB4F1FD0C88BFBCF5E06F1ED8BEF1004F08BF5FEA500E50F1000041EB045170BD06F0004646EA010140EA020081EA0301B4EB5C04D1
:40368000C2BFD4EB0C0541EA045170BD41F480114FF0000E013C00F3AB8014F1360FDEBF002001F0004170BDC4F10004203C35DA0C341BDC04F11404C4F1200500FA05F304
:4036C00020FA04F001FA05F240EA020001F0004221F0004110EBD37021FA04F642EB06015EEA430E08BF20EAD37070BDC4F10C04C4F1200500FA04F320FA05F001FA04F228
:4037000040EA020001F0004110EBD37041F100015EEA430E08BF20EAD37070BDC4F1200500FA05F24EEA020E20FA04F301FA05F243EA020321FA04F001F0004121FA04F246
:4037400020EA020000EBD3705EEA430E08BF20EAD37070BD94F0000F0FD101F00046400041EB010111F4801F08BF013CF7D041EA060195F0000F18BF704703F000465200CF
:4037800043EB030313F4801F08BF013DF7D043EA0603704794EA0C0F0CEA135518BF95EA0C0F0CD050EA410618BF52EA4306D1D181EA030101F000414FF0000070BD50EA6C
:4037C000410606BF1046194652EA430619D094EA0C0F02D150EA013613D195EA0C0F05D152EA03361CBF104619460AD181EA030101F0004141F0FE4141F470014FF0000093
:4038000070BD41F0FE4141F4780170BD70B54FF0FF0C4CF4E06C1CEA11541DBF1CEA135594EA0C0F95EA0C0F00F0A7F8A4EB050481EA030E52EA03354FEA013100F08880B3
:403840004FEA03334FF0805545EA131343EA12634FEA022245EA111545EA10654FEA00260EF000419D4208BF964244F1FD0404F5407402D25B084FEA3202B61A65EB0305AD
:403880005B084FEA32024FF480104FF4002CB6EB020E75EB030E22BFB61A754640EA0C005B084FEA3202B6EB020E75EB030E22BFB61A754640EA5C005B084FEA3202B6EBDD
:4038C000020E75EB030E22BFB61A754640EA9C005B084FEA3202B6EB020E75EB030E22BFB61A754640EADC0055EA060E18D04FEA051545EA16754FEA06164FEAC30343EAE8
:4039000052734FEAC2025FEA1C1CC0D111F4801F0BD141EA00014FF000004FF0004CB6E711F4801F04BF01430020B4F1FD0C88BFBCF5E06F3FF6AFAEB5EB030C04BFB6EB3B
:40394000020C5FEA500C50F1000041EB045170BD0EF0004E4EEA113114EB5C04C2BFD4EB0C0541EA045170BD41F480114FF0000E013C90E645EA060E8DE60CEA135594EA2A
:403980000C0F08BF95EA0C0F3FF43BAF94EA0C0F0AD150EA01347FF434AF95EA0C0F7FF425AF104619462CE795EA0C0F06D152EA03353FF4FDAE1046194622E750EA41068A
:4039C00018BF52EA43067FF4C5AE50EA41047FF40DAF52EA43057FF4EBAE12E74FEA4102B2F1E04324BFB3F5001CDCF1FE5C0DD901F0004C4FEAC0024CEA5070B2F1004F38
:403A000040EB830008BF20F00100704711F0804F21D113F13872BCBF01F00040704741F480114FEA5252C2F11802C2F1200C10FA0CF320FA02F018BF40F001004FEAC123ED
:403A40004FEAD32303FA0CFC40EA0C0023FA02F34FEA4303CCE77FEA625307D150EA01331EBF4FF0FE4040F44000704701F0004040F0FE4040F40000704700BF4FF0FF0C1C
:403A80001CEAD0521EBF1CEAD15392EA0C0F93EA0C0F6FD01A4480EA010C400218BF5FEA41211ED04FF0006343EA501043EA5111A0FB01310CF00040B1F5000F3EBF490020
:403AC00041EAD3715B0040EA010062F17F02FD2A1DD8B3F1004F40EBC25008BF20F00100704790F0000F0CF0004C08BF49024CEA502040EA51207F3AC2BFD2F1FF0340EACF
:403B0000C250704740F400004FF00003013A5DDC12F1190FDCBF00F000407047C2F10002410021FA02F1C2F1200200FA02FC5FEA310040F1000053EA4C0308BF20EADC7000
:403B4000704792F0000F00F0004C02BF400010F4000F013AF9D040EA0C0093F0000F01F0004C02BF490011F4000F013BF9D041EA0C018FE70CEAD15392EA0C0F18BF93EACE
:403B80000C0F0AD030F0004C18BF31F0004CD8D180EA010000F00040704790F0000F17BF90F0004F084691F0000F91F0004F14D092EA0C0F01D142020FD193EA0C0F03D1A6
:403BC0004B0218BF084608D180EA010000F0004040F0FE4040F40000704740F0FE4040F4400070474FF0FF0C1CEAD0521EBF1CEAD15392EA0C0F93EA0C0F69D0A2EB03027A
:403C000080EA010C49024FEA402037D04FF0805343EA111143EA10130CF000408B4238BF5B0042F17D024FF4000C8B4224BF5B1A40EA0C00B3EB510F24BFA3EB510340EACD
:403C40005C00B3EB910F24BFA3EB910340EA9C00B3EBD10F24BFA3EBD10340EADC001B0118BF5FEA1C1CE0D1FD2A3FF650AF8B4240EBC25008BF20F0010070470CF0004CB5
:403C80004CEA50207F32C2BFD2F1FF0340EAC250704740F400004FF00003013A37E792F0000F00F0004C02BF400010F4000F013AF9D040EA0C0093F0000F01F0004C02BFFA
:403CC000490011F4000F013BF9D041EA0C0195E70CEAD15392EA0C0F08D142027FF47DAF93EA0C0F7FF470AF084676E793EA0C0F04D14B023FF44CAF08466EE730F0004C75
:403D000018BF31F0004CCAD130F000427FF45CAF31F000437FF43CAF5FE700BF4FEA4002B2F1FE4F0FD34FF09E03B3EB12620DD94FEA002343F0004310F0004F23FA02F0A8
:403D400018BF404270474FF00000704712F1610F01D1420205D110F0004008BF6FF0004070474FF0000070470E4B70B51E460E4C0025E41AA410A54204D056F8253098473B
:403D80000135F8E700F058F8084B094C1E46E41AA4100025A54204D056F8253098470135F8E770BD443E0000443E0000443E00004C3E000010B5431E0A44914204D011F818
:403DC000014B03F8014FF8E710BD03460244934202D003F8011BFAE77047000000000000004F0040300000000140800C000D01400003001401400006801A014080010040C7
:403E00000140000A004C0140000210500140100060520040E40F00480600800C0140EC0F00488000001A01406C100048800000500140EC1000481000F8B500BFF8BC08BCCC
:403E40009E4670474D000000F5140000F8B500BFF8BC08BC9E46704729000000703E000008C1FF1F20000000C028000000000000000000007F800000030000000000E02EFC
:403E8000C05D00001800000000366E01FFFFFFFF0000000000000000000000000000000000000000000000000000000000000000000000000000000000000000000000002C
:403EC00000000000000000000000000000000000000000000000000000000000000000000000000000000000000000000000000000000000000000000000000000000000C2
:403F00000000000000000000000000000000000000000000000000000000000000000000000000000000000000000000000000000000000000000000000000000000000081
:403F40000000000000000000000000000000000000000000000000000000000000000000000000000000000000000000000000000000000000000000000000000000000041
:403F80000000000000000000000000000000000000000000000000000000000000000000000000000000000000000000000000000000000000000000000000000000000001
:020000040001F9
:0200000480007A
:40000000084F00400E520040015B004009640040036500406A00014040010140620201404E03014053040140520501403E0601404C0701404A08014051090140560A01401C
:40004000580B0140120C01404D0D0140490E0140300F0140571401405715014038160140521701404D1801404E190140031A0140531B01400D400140174101400B42014028
:400080000F4301400F440140054501400546014007470140144801400D4901400B4C0140134D0140055001400351014001100A360D1016361910223625102E3600200120C6
:4000C000040108C009C01802190228C029C02C0430063184346079082784816F820D8338850F860F870F89388A728F72870288388A720207030F040806F009CF0B3010EC61
:4001000011731494159E16481760180119FD1B021C181E202194236024782530268427C9289C2A202E01301C32F033FF340236013E403F044053410149FF4AFF4BFF4DA0E2
:400140004F0150185280580459045A045B045C025D225F016040628064406540668068406A806C406D206E80810386019D08A103A201A30CAD01B001B104B301B401B508F8
:40018000B702B988BE01BF14C043C101C52CC643C70EC81FC9FFCAFFCBFFCDAFCE07CF01D018D40FD804D904DA04DB04DC29DD22DF05E040E280E440E540E680E840EA80D0
:4001C000EC40ED20EE80010A040808450A04100211101220168019461A041E801F10220425482748286029012C812F0230043104322033023740382039103A023D023F014C
:400200004108420344804508460249404F05548056285720588059405C025D805F28600262806608670470027F028B108F21C02CC20FC417CA93CC17CE85D0DAD208D6F02E
:40024000D860DE10E220020405CC0732113013CF160219FB1A011B042558260827A129AC2B512D7730023201330F340435F03608404649FF4AFF4BFF4F01501852805401D3
:40028000580459045A045B045C225D995F016040624064406540668068806A806C806E80830484048B018C3790019202946096049A089E07A280A457A861AA02AE80AF02CE
:4002C000B070B102B304B480B501B60FB802BE10C046C5ECC702C813C9FFCAFFCBFFCD83CE03CF01D018D418D604D804D904DA04DB04DC02DD49DF01E040E240E440E54003
:40030000E680E880EA80EC80EE80010803020502080109040A090E1810841222162018041A011B021C201E181F412104221023402420250426202A402C042D082F02340181
:400340003501362039103A023D084281434046804A084B054E085004520858025E805F05600461427680810285048E218F01920894289601980499089A209D819E80A1418F
:40038000A240A320A6A0A702AC20AD08C015C26FC42FCA78CCA0CE45D081D224D6D1D80DE008EA01EE080131030E074009310B860D400E0810201205174018131A0C1B13FD
:4003C0001F8C2308240325AC26042703280A29402A142C132E042F403030318A3330340F350F3740380239083A203B223F44580459045C545F018303840188018F0C900168
:40040000940195029D089E019F04A001A10CA801B104B308B501B601B702BF45C063C105C50CC60EC70BC815C9FFCAFFCBFFCEF0CF44D00CD40FD604D804D904DA04DB04A0
:40044000DC20DD25DF01E6C0EA40EB0202020510071008020A040D440F4010081144144419201A041B011F8021112249244026802728280229202A092F40303831803308C3
:40048000374838A039473A043B103D8240084110420844104E214F10550856805C445E025F2065027A027B01800483028C809108922093C095109B409DC19E42A141A20111
:4004C000A322A680A780A802AA04AC80AD02AE02B010B780C061C2BAC457CA8FCC5ECE9FD040D230D6F0D880E210EA4AEC04EE030553070C1308150A175419031B44215332
:400500002304252027452D803140330F3580373039803B083F115401580459045B045C505D505F01830284208502881C8A028C108D0492039310941497089C099E10A00C6A
:40054000A108A211A410A60CA701A901AF04B01FB220B71FB980BA20BE04BF40D401D604D804D904DB04DC05DD40DF01021103040510071009880A400C400F401109140456
:4005800015A8180819041A4021402280246025842709284029512A482C202D012E80329534083620372539283A023B403D0846804702581159045A805C405F2A60806410D1
:4005C00066048D10910992A493C094A0959098089A809CC69D909E479F10A108A22AA320A420A580A708AD40B102B501C067C29DC4ECCADFCCEFCE4FD6FFD801E202E44008
:40060000EA84EE0C0001030106080A080B080D020E020F041510160419041A101B021E012502260427042A102D022F04300831083210330634043501360337103B083E159E
:400640003F405280580459045B045C295D205F0188018E0496089A049E08A203B001B202B408B604BE50C020C106C9FFCAFFCBFFCDA0CF04D018D418D604D80DD904DA0494
:40068000DB04DD52DF01E040E2C0E440E540E6C0E8C0EAC0ECC0EEC00010020104080502060407010A0A0B200C600E010F20104015201610181019521A401E011F252406A9
:4006C0002504275028802A202D082F0230033280371439043A023B103C023D403E1040044A0859015D045E046150620274017B0886028E029008914092109484964499088F
:400700009A149C819E229F40A060A101A209A312A480A504A680A768AA40AF20B504C0F3C2E7C468CA55CC69CEB7D004D204D601D80DDE04E040E440EE4405010D0119018C
:40074000330140204106455046104702481A49FF4AFF4BFF4DAF4E0F4F04501856025712580459045A045B045C405D425F01604062C06440654066C068C06AC06CC06EC06A
:4007800080FF84C388828C0894F3960C980F9AF09EE3A041A404A80CAC0CAEF3B010B20FB42CB6C0B802BA28C021C105C206C404C6E0C70CC818C9FFCAFFCBFFCC62CDA06B
:4007C000CEF0CF41D00CD401D804D904DA04DB0DDC03DD03DF01E640E702E910EA30EB10ED10EE10EF1200100102028004020514070208890A040C400E2811011402152206
:4008000017081C801E2A23102C013210348835023610371039843C103D013E26400445024601471049014A084C054F8050105208542056045A085E4064406601678069849C
:400840006A207108720873017F08900891629218938094A4950496249711980A991C9A109B0A9C819D039E2A9F40A103A312A480A508A614A740A940AA40AC44AD04B30287
:40088000C0FAC2EFC4F8CA10CCD4CEEAD0B4D234D612DE20EC8000800402064508140A2A20092232249F289F30603207341836803E01580459045C035F0100020222030828
:4008C00004020514082009080B011010128113101502171419401A801B381D161F402080214022A4281029402A082B082C0131083221348835023608384039803B193E2604
:400900004050432049404A024B105104521086088D08901A91229212930894A495049620978098229A019B1E9D019F40A005A101A480A614A740A940AF20B009B111B314EF
:40094000B604C07FC207C47FCA1ECCD7CEEFD007D20CE040000502AA07030B020C120E290F08141F18081A541F042301241F2F0C3003310432603308341C350136803702F1
:400980003E045280580459045B045C245D205F0180018110820285088A088D7F917C93029401953C96029741980299679A019B189C019E069F04A210A343A504A780A91880
:4009C000B010B11FB204B320B403B558B608B780BA20BB02BF04D602D711D804D904DB04DC32DD30DF010042020106040740082009030A280E161104168018501A0A1D0202
:400A00001E161F22200821402208234024082682272029012B022C082F5030803402369638A43E0A3F805F206C016F1472807408760A770A8B408E08C059C2E6C414CAE9E6
:400A4000CCF8CEDED620008004800510070C0D200E4C1031120E1303146C1514160318311A461B201E132109231025102608291C2B022D0C2F11304A311F320F343036803F
:400A8000372038A03A0A3E503F4040244101450B46E0470C481949FF4AFF4BFF4EF04F44500C52035302580459045A045B045C445D045F0166C06A406B028D01910195016A
:400AC0009B01A301A501A901B301C006C704C9FFCA07CBFFCC40CD20CEF0CF05D008D608D804D904DA04DB04DD94DF01E040E1A8E240E3200008010102030591060807121C
:400B0000080209400A540E010F421010110814041508170818801A501B5821022302272028122A012B082C042E09310633203501371838043B803F404006428449044F20C7
:400B40005214554456805E80640168046A806B048080824083208640880189019108920493C09480980499119B109C809D809E149F04A202A321A542A748A902AF20B004D9
:400B8000B101B280B341B404C07DC29FC464CAEFCCE7CE1AD00DD220D610D810E080E401E81100010401080110011E01220124013601580459045F018140838087028920E3
:400BC0008B108F0491809340950899109B209D04A102A501A601AB01AF08B1FFB401B908BB20BF05C006C740C9FFCA07CBFFCC40CD20CEF0CF05D008D602D73ED804D904F0
:400C0000DA04DB0CDC30DD05DF01E040E1A8E240E32001200511071008010A210F42100412801348150919301F80200422012320280129102A0A2D21308031403214331160
:400C400034013680371039193B443F444402454048204A085201580159015B046380688069146A086B01720A730878808401850489048A018B818C048E10900891089224A8
:400C800093C094809510960A9C069DD19E1F9F10A28AA320A420A708AC01AE10C072C29DC43FCAAFCCBFCE5FD204D602D801DE08E28AE442E88002012A02340236014040F7
:400CC000410249FF4AFF4BFF4DA04F04501854185604580459045A045B045D325F01604062C06440654066C068C06AC06CC06EC086838A048CA78E18909C9222941898088A
:400D0000A010A4BFA81CAAA1AC04AE40B01FB240B498B620B880BA02C040C106C550C601C702C816C9FFCAFFCBFFCDAFCE0FCF04D018D804D904DA04DC05DD02DF01E0400C
:400D4000E2C0E440E540E6C0E8C0EAC0ECC0EEC0001801800510078209080A400B040C020E040F1010041140122013011420162A18141A4A1D601E05288029082D082E02C9
:400D80002F02316033023680370238403A023E054102450346044888504852045E02678A860C87408B928C488D108EA08F40930A9480960E97309A029C809D019E219F05B9
:400DC000A101A201A482A680A748A801AC40AD10C0D7C27EC4EFCAD3CC9DCEC9D0A1D204D680D8B0E050E4E0E880EC04D804D904DF01004A020803400688070208840A62CA
:400E00000C020E041008114013051408160219811A2A2048214022082D082E892F023020324834083702384239103E06408441404805520153105A08682069106A8070089C
:400E40007108730583088B018C018D409004924595409725980899089A029B429C049D819E019F01A002A302A404A508A708AB04B0A2B108B201B302B740C0DFC25DC4CFA8
:400E8000CAD0CCCECECDD00DD20CD602E080E420E680E8B0EC40EE8010101680308032023610370839803B023E808980C430CCF0CE7001083180374052805B046608814079
:400EC0009580970298109B049F08A180A480A612AB04C010CC30D420D640D880E280EA808F40970298109F48A480A612AD08AE08B680EC10EE401B421E201F2086028F40E1
:400F000098109F08A602A880AB01B210C6F0E240EA20EE2008400D08141056205E8061108A408E20C206C404D402D604D802E004E4029D10B050B508EA05EE081B042608F6
:400F40009D10C608C80144028F029D10A208AB04D004E40224085840661068206C207020870888408F0298109F08A210A302B320C820D480D880DAC0DC20E2105F80838059
:400F800084108A109810A210AC20AE10B404D620E280E440EA4066018E0193089C02A208A302A910B304D801E402E8010040630267087F028A088B018C409308A208A302C2
:400FC000B402C002D602D801DE04E001E202E601E808103D11011A391B011C2D00FF013F100A0000C0C0000020000000411000001C04E3000F00F003F37F0C000000000462
:401000000C180000C33C004208000000FF00000004080000003CF34182670018C0402C201C1F0F00000288A000000004560402000300C00E18FFFFFF62A0F0410C00000082
:401040000000000004040400440400010000000000004002001030100010101200000000000000000000000000000000FF0A00510000D300829F0000C30100262C00D30020
:401080002F14D049009F0000F3800C0008000000040000000C00000041000000C0071C1820800F600000880000001040460502000100E0C028FFFFFF62A0F0410C00000029
:4010C00000000212040404045555000100000000000040020010301000101012000000000000000000000000000000003D01000000000000150135003D011D00040001F67E
:40110000F600300808000000C30020C0C300C00000000000040000060600000808000000E40000E4E400C000000000000018180000000000FC0000FCFC000002020000009F
:40114000001C1C0000000000F00004F0F000F000000000008000608787008600000000000001000000000000000000000000000000000000000000000000000000000000FE
:40118000000000000000000000000000000000000000000000000000000000000000000000000000000000000000000000000000000000000000000000000000000000002F
:4011C00000000000000000000000000000000000000000000000000000000000000000000000000000000000000000000000000000000000000000000000000000000000EF
:4012000000000000000000000000000000000000000000000000000000000000000000000000000000000000000000000000000000000000000000000000000000000000AE
:40124000000000000000000000000000000000000000000000000000000000000000000000000000000000000000000000000000000000000000000000000000000000006E
:0200000490006A
:0400000000004005B7
:0200000490105A
:04000000BC90ACAF55
:0200000490303A
:02000000179C4B
:0200000490402A
:4000000000000000000000000000000000000000000000000000000000000000000000000000000000000000000000000000000000000000000000000000000000000000C0
:400040000000000000000000000000000000000000000000000000000000000000000000000000000000000000000000000000000000000000000000000000000000000080
:0200000490501A
:0C00000000012E13306900012E3148056C
:00000001FF