:400000000040002011000000851000008510000008B5044B1A6803F53F5302331A6001F033F800BFFA46004010B5054C237833B9044B13B10448AFF300800123237010BD61
:4000400028C1FF1F00000000083D0000084B10B51BB108480849AFF300800848036803B910BD074B002BFBD0BDE81040184700BF00000000083D00002CC1FF1F08C1FF1FB7
:400080000000000008B502F0EFFD014B188508BDB4C3FF1F08B500F031FF08BD08B502F0B9F900F029FE01F075FB01F089FD02F0D3FA01F00BFC01F0DBFB01F029FE02F0E8
:4000C0000DFB01F061FC01F083FC01F063FE01F09DFE01F0D5FE01F00FFF01F041FF01F07BFF02F03FFA02F079FA01F0C9FC01F039FD00F0ADFD02F0DFFD012002F024F9F8
:4001000002F04EFB62B600F0E7FD00F0ADFC364C204636494FF47A720A2300F01DFE204600F024FE324C2046324941F288324FF47A7300F011FE204600F018FE2E4C2046F2
:400140002E496422134600F007FE204600F00EFE2B4C20462B4900224FF47A7300F0FCFD204600F003FE284C204628499622022300F0F2FD204600F0F9FD254C2046254957
:400180003222C82300F0E8FD204600F0EFFD4FF4FA7001F085FA204C2046204940F2DC524FF4FA7300F0D8FD204600F0DFFD1C4C20461C4964224FF4FA7300F0CDFD204601
:4001C00000F0D4FD184C204618494FF4FA72134600F0C2FD204600F0C9FD0422144B83F82A2000F0E7FDFCE7F8C3FF1FF506000034C4FF1F310D00005CC4FF1FA90C000024
:4002000048C4FF1FB10A000024C4FF1FF50B0000A4C3FF1F9500000094C4FF1F050E00007CC4FF1F850000006CC4FF1F750F0000B4C3FF1F08B501F0DDFA08BD08B50D4B87
:40024000AA221A705A70EF229A700222DA701871597100231A4605E00649C95C0A44D2B20133DBB2052BF7D9024882710721FFF7E1FF08BDA4C4FF1F70B500231C4604E0FF
:40028000C25C2244D4B20133DBB24A1E9342F7DB835CA34240F0C0800378AA2B40F0BC804378AF2B40F0B88083782BB90279AA2A02D10121594A1170012B02D10179584A15
:4002C0001170022B02D10279554B9A708378032B0CD10279437943EA0223514AD38044F62062934202D900224D4BDA8005468378042B47D10679C6F16406F6B2632E00D91C
:40030000642601F091FD474BA3FB0030400906FB00F080B201F032FD6E79C6F16406F6B2632E00D9642601F07FFD3E4BA3FB0030400906FB00F080B201F096FDAE79C6F192
:400340006406F6B2632E00D9642601F06DFD354BA3FB0030400906FB00F080B201F0F4FDEE79C6F16406F6B2632E00D9642601F05BFD2C4BA3FB0030400906FB00F080B262
:4003800002F0E4F8AB78052B02D12A79244BDA70AB78062B09D12B79012B03D1012002F027F802E0002002F023F8AB78072B17D12E796B7943EA0626A6F51C53103B9BB217
:4003C0004CF2503293420BD8304601F0D1FC304601F044FD304601F0B1FD304602F0B0F8AB78092B06D12B79632B03D101220C4B83F82020A878132802D12146FFF71EFF73
:40040000A878142802D12146FFF718FFA878152802D12146FFF712FF70BD00BFD8C4FF1FB4C3FF1F1F85EB5110B5294B1B7833B9AA2804D1264B01221A70187110BD012B61
:4004400006D1AF2804D1224B02221A70587110BD022B06D1F02804D81D4B03221A70987110BD032B0BD1312809D8194B04221A70D87183F83600002283F8372010BD042B21
:4004800013D1134A92F836207AB1013AD2B2104981F8362091F837305C1C81F837400B441872A2B905220A7010BD052B0CD1084B00221A7093F837105A1810720531181DD2
:4004C000C9B2FFF7D9FE10BD0022014B1A7010BD44C1FF1F70B582B0ADF80600ADF80410ADF80220ADF80030154DAA242C706C700024AC70060A2E716871080AA871E971B3
:40050000110A29726A721A0AAA72EB729DF819302B739DF818306B730A23EB702346224605E00749C95C0A44D2B20133DBB20D2BF7D9034882730F21FFF77CFE02B070BD48
:40054000A4C4FF1F70B582B0BDF81860134DAA242C706C700124AC70002428716971110AA971EA711A0A2A726B72ADF80660330AAB72EE720823EB702346224605E0074975
:40058000C95C0A44D2B20133DBB20B2BF7D9034802730D21FFF74EFE02B070BDA4C4FF1FF0B583B0089F099E2A4DAA242C706C700224AC7000244FEA106E85F804E0C0F3D4
:4005C000074E85F805E0C0F3072E85F806E0E871080E2872C1F307406872C1F30720A872E972110E2973C2F307416973C2F30721A973EA731A0E2A74C3F307426A74C3F388
:400600000722AA74EB743B0E2B75C7F307436B75C7F30723AB75EF750196330E2B76C6F307436B76C6F30723AB76EE761823EB702346224605E00749C95C0A44D2B2013353
:40064000DBB21B2BF7D9034802771D21FFF7F2FD03B0F0BDA4C4FF1F10B582B0ADF80600ADF804100F4BAA221A705A7003229A700022040A1C715871080A9871D9710421F6
:40068000D970134605E00749C95C0A44D2B20133DBB2072BF7D9034802720921FFF7CAFD02B010BDA4C4FF1F10B582B0104BAA221A705A7005229A700022040A1C715871D5
:4006C000ADF80610080A9871D9710421D970134605E00749C95C0A44D2B20133DBB2072BF7D9034802720921FFF7A4FD02B010BDA4C4FF1F2DE9F04182B0734B93F8382085
:40070000724BA3FB02139B0803EB8303D31ADBB2042B02D101216E4B99706E4BA3FB0213DB0803EB830103EB4103D31ADBB20A2B02D10121664B5970674BA3FB02139B08B9
:4007400003EB430103EB8103D31ADBB20C2B02D101215F4B59725D4BA3FB02131B0903EB83039B00D31ADBB2132B02D10121584BD97202F00703072B02D10121544B197343
:400780000132514B83F83820514B1B7893B10133DBB24F4A1370322B02D100224C4B1A704E4CA08FE18F228E638EA48E0094FFF791FE86E0464B5B7863B10020444B58705A
:4007C000464CA178E288464B1B88248D0094FFF7B9FE76E03E4B9B78002B5AD000243C4B9C70404EB6F90C0002F016FE00224FF07C5302F077FE00223B4B02F073FE03F0DC
:4008000083F88046304DE863B6F90E0002F004FE00224FF07C5302F065FE0022324B02F061FE03F071F807462864B6F9100002F0F3FD00224FF07C5302F054FE00222A4BA8
:4008400002F050FE03F060F8064668644046274903F0AAF880463846244903F0A5F805463046224903F0A0F80746404603F0ECF90646284603F0E8F90546384603F0E4F980
:40088000024600940194304629462346FFF788FE17E00F4B5B7A43B100220D4B5A720F4B588C998CFFF7D8FE0BE0094B1B7B43B10022074B1A730E4B18880E4B1988FFF7BB
:4008C000F3FE02B0BDE8F08144C1FF1FCDCCCCCCD8C4FF1FA38B2EBA4FECC44EB4C3FF1F08C4FF1F0CC4FF1F0080664000007A4492C4FF1F44C4FF1F10B50C460346B8B912
:40090000022915D001F02CFD204601F041FD194B1B7833B9012001F02FFD0122154B1A7010BD002001F028FD0022124B1A7010BD012B18D1022C16D0002001F035FD20461F
:4009400001F04AFD0B4B1B7833B9012001F038FD0122084B1A7010BD002001F031FD0022044B1A7010BD012001F0FAFC012001F01BFD10BD8CC1FF1F10B50C4600F0F8FFE7
:4009800034B9012000F0B0FF002000F0B9FF10BD012C06D1002000F0A7FF012000F0B0FF10BD002000F0A0FF002000F0A9FF10BD10B50C4600F0DCFF34B9012000F094FF07
:4009C000002000F09DFF10BD012C06D1002000F08BFF012000F094FF10BD002000F084FF002000F08DFF10BD10B50C4600F0C6FF34B9012000F090FF002000F099FF10BDA5
:400A0000012C06D1002000F087FF012000F090FF10BD002000F080FF002000F089FF10BD10B504460021FFF7A7FF20460021FFF7BFFF20460021FFF7D7FF20460021FFF7E4
:400A4000D3FF10BD10B504460121FFF795FF20460121FFF7ADFF20460121FFF7C5FF20460121FFF7C1FF10BD08B5104B4FF4CD729A876E22DA8708221A7143F2B061D980A5
:400A80009A700222DA70012001F06AFC002001F07FFC002001F070FC012001F085FC002001F09AFC002001F08BFC08BDB4C3FF1F074B93F82030012B05D1054B002283F8F5
:400AC00020205A7070470122014B5A70704700BFB4C3FF1F84B008B50DF1080E8EE80F009DF80B3023B900200146FFF705FF1CE0012B04D100200121FFF7FEFE15E0022B07
:400B000004D101200021FFF7F7FE0EE0032B04D101200146FFF7F0FE07E000200221FFF7EBFE01200221FFF7E7FEBDE8084004B0704700BF38B50446450828460021FFF72E
:400B40001BFF28460021FFF733FF20460121FFF74BFF20460121FFF747FF38BD10B504460121FFF709FF20460121FFF721FF640820460021FFF738FF20460021FFF734FF86
:400B800010BD00BF08B500200221FFF7F5FE00200221FFF70DFF00200221FFF725FF00200221FFF721FF08BD84B010B502AC84E80F009DF80A401CB9BDF80E00FFF730FF42
:400BC000012C03D1BDF80E00FFF73CFF022C03D1BDF80E00FFF7AEFF032C03D1BDF80E00FFF7BCFF082C01D1FFF7CCFFBDE8104004B07047F0B58DB0144B5B78FBB9134FD0
:400C00006D4607F110040FCC0FC50FCC0FC594E80F0085E80F0097E80F00FFF7C5FF6D4607F110060FCE0FC50FCE0FC594E80F0085E80F0097E80F00FFF74CFF04E0082241
:400C4000024B9A70FFF79EFF0DB0F0BDB4C3FF1F08B501F053FA01F065FA08BD38B50546002407E0284601F061FA0D4B23F814000134E4B2632CF5D90022134605E008491E
:400C800031F913100A440133DBB2632BF7D9054880FB0230D217C2EB601000B238BD00BF90C1FF1F1F85EB5108B50020FFF7D6FF064B18800120FFF7D1FF054B1880022043
:400CC000FFF7CCFF034B188008BD00BF92C4FF1F44C4FF1F08C4FF1F0222044B1A705422034B1A700522034B1A707047DDEAFF1F20EBFF1F14E1FF1F38B50C4D00232B8609
:400D0000012001F0F5FB0402022001F0F1FB2043013080B22886000A012101F07FFB95F83000022101F07AFB38BD00BFB4C3FF1F074B5A8E01325A8606490A8801320A8027
:400D40009B78082B03D0024A938E013393867047B4C3FF1FDEEAFF1F8160034909680A4402604360704700BF20C3FF1F084B5A68134602E0834207D0DB68002BFAD1C260BF
:400D8000034B5860002070474FF0FF30704700BF20C3FF1F064A06E0834202D1DB68136001E003F10C021368002BF5D1704700BF24C3FF1F10B50B4B5C680FE02268094B77
:400DC0001B689A4209D862681AB92046FFF7E2FF01E013442360A3689847E468002CEDD110BD00BF20C3FF1F024A136801331360704700BF20C3FF1F014B1870704700BF42
:400E000028C3FF1F08B5214B1B785BB31F4A53780133DBB25370012B0CD1002000F0AEFF002001F021F8002001F08EF8002001F08DFB17E0022B15D142F2107000F09EFFBC
:400E400042F2107001F010F842F2107001F07CF842F2107001F07AFB0C4B00225A701A78013A1A700A4B5B78084A9370D27893420BD0012B03D11E20FFF7BEFF02E001208D
:400E8000FFF7BAFF014B9A78DA7008BD28C3FF1FB4C3FF1F38B50C461546C0B2002101F0F9FD30B9204601F087FE10B9284601F083FE01F065FE38BD38B50D46C4B2204691
:400EC000002101F0E7FD10B9284601F075FE2046012101F01FFE05460A2000F0F7FB2DB9002001F095FE04460DB104E0002401F047FE204638BD002038BD00BF38B51A4B23
:400F00001B786BB968200221B422FFF7C3FFF4200221B422FFF7BEFF0122134B1A7038BD68200221FFF7C8FF104C0002208068200321FFF7C1FF2388184480B220800C4D07
:400F4000A884F4200221FFF7B7FF00022080F4200321FFF7B1FF2388184480B2208068840022014B1A7038BD2CC3FF1FE0EAFF1FB4C3FF1F08B5414B93F82A30012B1CD15F
:400F80003F4B1B787BB9012001F022FF002001F037FF002001F028FF002001F03DFF0122374B1A7008BD002001F012FF0023344A1370324A82F82A3008BD022B1CD1304BFD
:400FC0001B7833B9012001F003FF01222C4B1A7008BD002001F0FCFE012001F011FF012001F002FF012001F017FF0023244A1370224A82F82A3008BD032B13D1204B1B78E4
:4010000033B9012001F0F0FE01221D4B1A7008BD002001F0E9FE0023194A1370174A82F82A3008BD042B13D1154B1B7833B9012001F0E6FE0122124B1A7008BD002001F027
:40104000DFFE00230E4A13700C4A82F82A3008BD052B12D10A4B1B7833B9012001F0DCFE0122074B1A7008BD002001F0D5FE0023034A1370014A82F82A3008BDB4C3FF1FBF
:4010800030C3FF1FFEE700BF08B5104E104D16E029686B68AC68002204E051F8040B43F8040B0432A242F8D1E868002203E0002143F8041B04328242F9D11035013E002EC4
:4010C000E6D102F0E7FDFEF7E9FFFEE701000000883D000008B5134A134B1A60134A136843F40073136000230AE0032B03D8104A52F8231000E00F490F4A42F823100133D5
:401100002F2BF2D90D4B1A780D4B1A700A4A0D4B1A6000F0FBF800F0DFF900220A4B1A6008BD00BF0004FA050CED00E014ED00E0000000008510000000C0FF1FBC760040D6
:4011400004C1FF1F08ED00E000C1FF1FF0B40022174611E050F82760F3B226F0FF0608E001EB420511F812406D78A5550132013BDBB2002BF4D101372A2FEBD9F0BC70473C
:4011800070B41A4B1B78DBB219480278D2B2194C2178C9B203F00706174D2E701B0901352B7042F00303037041F0030323700225124B1D70102530331D70082590331D708F
:4011C00040230F4D2B7002352B70A1250D4B1D70202503331D70A02535331D70217002704422A3F2E2231A7070BC7047CF010049F8460040F94600406E5800403D510040FC
:4012000001590040205B004008B50A46002102F072FD08BD38B50E222F4B1A8018232F4A137017222E490A8002310B7002310A802C4A13701925023215800232137002320D
:4012400015800232137040F2E14102321180023213700222244B1A7008224FF040231A70042203F500731A70204B1B78DBB2204A137001221F4B1A804FF4716203F21E23D9
:401280001A8041F25122023B1A8000240CE01A4B1B7803F0010343EA440404F003044FF4F07000F009F9013D0DB1032CEFD1114B07221A700021114A1170482102321170FE
:4012C00001221A700222033B1A700D4A137843F03F03137038BD00BF8040004082400040844000408A4000400043004089010049A146004004400040254200400640004089
:40130000A243004008B502F0EBFC08BD70B572B64A4A137843F00403137000240CE0484963001A1952000A4423445B00C8589188FFF76AFF0134E4B2082CF0D9002410E0F7
:401340003F49A3001A1952000A4452F8380F23445B000B445168B3F84020FFF7D3FF0134E4B2022CECD94FF090403649FFF7EEFE35480421FFF748FF344835490422FFF71E
:40138000C1FF344A137843F0020313701032137843F002031370304C237843F040032370A2F58632513A137843F0100313702B482B490A22FFF7A6FF2A482B490A22FFF71D
:4013C000A1FF2A482A490A22FFF79CFF29482A490A22FFF797FF294829490822FFF792FF284829490A22FFF78DFF284828490822FFF788FF274828490A22FFF783FF274870
:4014000027490822FFF77EFF8422264B1A70264A137843F008031370244E01253570FFF7F9FE81233370224B1D70FFF7A9FE214821460E22FFF766FF70BD00BFE846004085
:401440000C3D0000AC0000480076004008760040CC10004803500140A0430040005100406C100048C051004078100048F051004084100048105100409010004822510040D1
:401480009C10004830510040A410004842510040B010004850510040B810004862510040C4100048DB040140224300400048004004000840B04300400230800803D000BF88
:4014C00001380046FCD17047EFF3108072B6704780F31088704700BF0B4A7F2313708021517007E0DA0002F1804202F5F042013BDBB21370002BF5D1DB0003F1804303F5D5
:40150000F04300221A7070470CC1FF1F172815D831B103010A495A5C42F020025A5405E0030107495A5C02F0DF025A540001044A835C43F0010383540020704701207047B2
:401540001070004017280CD80001074BC1180A7942F004020A71C25C42F00102C254002070470120704700BF1070004017280BD80001064A835C03F0F10301F0070143EA30
:401580004101815400207047012070471070004041F6FF73994201D14FF4005141F6FF739A4201D14FF40052172808D8C00000F1804000F5EC408180C280002070470120E3
:4015C000704700BF172805D8034B03EB0010417200207047012070471070004017281BD810B4C00000F1804404F5EC44D201D2B201F07F01114321709DF804201201D2B25A
:4016000003F00F03134363709DF8083003F00F03A3700020E07001E0012070475DF8044B704700BF10B5FFF74FFF0A4B5B78182B0BD9084A1478013B5370E30003F1804385
:4016400003F5F0431B78137000E0FF24FFF740FF204610BD0CC1FF1F10F0800F0CD111F4704F0BD1C00000F1804000F5F04001808270C37000207047012070470120704704
:4016800010F0800F08D1C00000F1804000F5F0408180C280002070470120704701BE704710B5044605E0084B1868FFF705FFA4F50044B4F5004FF6D8034B586800FB04F063
:4016C000FFF7FAFE10BD00BF14C1FF1F08B5034B1B7A03FB00F0FFF7EFFE08BD14C1FF1F70B504460E46074B1D681F2802D90020FFF7D4FF04F01F04103455F8240045F8A6
:40170000246070BD08ED00E038B504460D46072902D90020FFF7C2FF1F2C02D90020FFF7BDFF04F01F0000F1604000F564406D01EDB2057038BD00BF7222074B1A7020229A
:4017400001331A700622A1331A70472210331A70012253331A7070478264004010B5FFF7B3FE04460A4A137843F0200313700132137843F01003137002F58272137843F041
:401780001003137000F04AF82046FFF7A1FE10BD9264004008B5054B1B7823B9FFF7CCFF0122024B1A70FFF7D9FF08BD68C3FF1F084B1B78DBB213F0200F06D0064A1078FD
:4017C000C0B213F01E0F02D17047002070470020704700BF6364004042640040034B1B7813F0040FFAD1024B187070476765004047650040084B1B7833B97047305DFFF711
:40180000EDFF0134E4B203E070B50D4606460024AC42F3D370BD00BF68C3FF1F054A137843F0100313701032137843F010031370704700BFA2430040704700BF014B1B6824
:401840005865704708ED00E04001C0B2014B1870704700BF05E400E02022014B1A60704700E100E02022014B1A60704780E100E008B5FFF7F7FF0448FFF7E0FF0720FFF7F2
:40188000E3FFFFF7E9FF08BD3918000008B5FFF78FFFFEF7C9FD08BD014B1B68D864704708ED00E04001C0B2014B1870704700BF03E400E00822014B1A60704700E100E0CE
:4018C0000822014B1A60704780E100E008B5FFF7F7FF0448FFF7E0FF0720FFF7E3FFFFF7E9FF08BD8D180000044A137803F0DF03400100F0200018431070704710510040BD
:40190000044A137803F0EF03000100F0100018431070704710510040044A137803F0DF03400100F0200018431070704720510040044A137803F0BF03800100F040001843D9
:401940001070704720510040024A137843F080031370704779650040014B1880704700BF18680040014B1880704700BF98680040014B1880704700BF58680040014B1880A8
:40198000704700BF7868004008B5104A137803F0C00343F009031370DD3A137843F0010313700132137843F00103137044F62060FFF7D2FF44F62060FFF7D4FF43F2B0605A
:4019C000FFF7D6FF3F20FFF7D9FF08BD7965004008B5054B1B7823B9FFF7D6FF0122024B1A70FFF7B1FF08BD6AC3FF1F024A137843F080031370704778650040014B18705D
:401A0000704700BF8A640040014B1878704700BF6A640040014B1880704700BF506A0040014B188880B27047906A0040014B1880704700BF106A004008B501E0FFF7F0FFA8
:401A4000FFF7E2FF10F0080FF8D108BD08B545F6BF50FFF7DFFF45F6BF50FFF7E7FFFFF733FD064A137843F010031370FFF730FDFFF7E2FF0120FFF7C1FF08BD9A6400404B
:401A800008B5054B1B7823B9FFF7E0FF0122024B1A70FFF7ABFF08BD6BC3FF1F10B51C4B1988013189B219801A4B1888013080B21880194A138801339BB21380174C228838
:401AC000013292B22280B0F5FA6F05D901241448048000240F480480052905D901201149087000200A490880642A05D900210B4A118001210C4A1180032B05D90022064BE8
:401B00001A800122094B1A80FFF76EF910BD00BFE8EAFF1FE6EAFF1FEEEAFF1FECEAFF1FE2EAFF1FF0EAFF1FE4EAFF1FEAEAFF1F014B1B681865704708ED00E04001C0B2FE
:401B4000014B1870704700BF04E400E01022014B1A60704700E100E01022014B1A60704780E100E008B5FFF7F7FF0448FFF7E0FF0720FFF7E3FFFFF7E9FF08BD9D1A0000D0
:401B80007222034B1A7020220F3B1A70704700BF8F64004010B5FFF797FC0446074A137843F0200313700F3A137843F01003137000F0BCF82046FFF78BFC10BD9F64004079
:401BC00008B5054B1B7823B9FFF7DAFF0122024B1A70FFF7DFFF08BD6CC3FF1F084B1B78DBB213F0200F06D0064A1078C0B213F01E0F02D17047002070470020704700BFCE
:401C0000606400404F64004038B5324C2578FFF7E5FF25442871237813B92279552A57D10133DBB22B4A13700B2B51D1134600221A701B79552B4BD1264B5B79522B1AD02E
:401C4000532B2FD0512B43D1224BD8799979224A41EA00211180587A197A41EA00215180D87A997A41EA00219180597B1B7B43EA0123538238BD174BD8799979164A41EA25
:401C80000021D180587A197A41EA00211181D87A997A41EA00215181597B1B7B43EA0123538238BD0B4BD87999790B4A41EA00219181587A197A41EA0021D181D87A997A93
:401CC00041EA00211182597B1B7B43EA0123538238BD00BF70C3FF1F0CC4FF1F014B1B689864704708ED00E04001C0B2014B1870704700BF02E400E00422014B1A607047C5
:401D000000E100E00422014B1A60704780E100E008B5FFF7F7FF0448FFF7E0FF0720FFF7E3FFFFF7E9FF08BD091C0000054A137843F0080313701032137843F00803137044
:401D4000704700BFA2430040084A137843F0010313701032137843F00103137002F64D32137843F001031370704700BFA3430040014B1880704700BF044F0040014B188081
:401D8000704700BF064F0040014B1870704700BF034F004008B51A4A137843F0020313700232137803F08F0343F010031370154B1A7802F0CF021A701A7842F030021A7009
:401DC0001A7802F0F0021A701A7842F00F021A7042F21070FFF7CCFF41F28830FFF7CEFF0020FFF7D1FF084A137843F00103137002F65E32137843F00103137008BD00BF93
:401E0000004F00400B4F0040A343004008B5054B1B7823B9FFF7BEFF0122024B1A70FFF793FF08BD80C3FF1F014B188880B27047044F0040084A137843F00203137010323A
:401E4000137843F00203137002F65932137843F001031370704700BFA3430040014B1880704700BF104F0040014B1880704700BF124F0040014B1870704700BF0F4F0040DC
:401E800008B51A4A137843F0020313700232137803F08F0343F010031370154B1A7802F0CF021A701A7842F030021A701A7802F0F0021A701A7842F00F021A7042F21070DC
:401EC000FFF7CCFF41F28830FFF7CEFF0020FFF7D1FF084A137843F00203137002F66A32137843F00103137008BD00BF0C4F0040174F0040A343004008B5054B1B7823B9B5
:401F0000FFF7BEFF0122024B1A70FFF793FF08BD81C3FF1F084A137843F0040313701032137843F00403137002F66532137843F001031370704700BFA3430040014B1880CD
:401F4000704700BF1C4F0040014B1880704700BF1E4F0040014B1870704700BF1B4F004008B51A4A137843F0020313700232137803F08F0343F010031370154B1A7802F0ED
:401F8000CF021A701A7842F030021A701A7802F0F0021A701A7842F00F021A7042F21070FFF7CCFF41F28830FFF7CEFF0020FFF7D1FF084A137843F00403137002F67632A4
:401FC000137843F00103137008BD00BF184F0040234F0040A343004008B5054B1B7823B9FFF7BEFF0122024B1A70FFF793FF08BD82C3FF1F10B5022001214FF4804241F67B
:40200000FF7300F055F9084C20700620012141F6FF72134600F06CF96070044800F086F9002000F089F910BD84C3FF1F4921000070B52C4C2078FFF785FA6078FFF782FAC1
:40204000294B1B78FF2B03D1FFF7ECFA264B1870254D2A78104606210B46FFF7FDFA214E341DA4B2287845F6A0312246FFF708FB30782978FFF7A6FA6B78FF2B02D1FFF7DF
:40208000D1FA6870184D6A78104606210723FFF7E3FA68782146154A92B2FFF7F1FA114C60786978FFF78EFA20780121FFF72EFA60780121FFF72AFAFFF706FA0C4A13789A
:4020C00043F020031370FFF703FA0A4B1A7842F001021A701A7842F002021A700122064B1A6070BD84C3FF1F24C1FF1FF4EAFF1F916400407B65004080E200E008B5074BF7
:40210000DB6823B9FFF776FF0122044BDA60FFF78FFF00F0B7F8024B1B7808BD84C3FF1F6C64004008B500F0BBF808BDC0F10200034B33F81030034A1088181A00B270471B
:40214000F4EAFF1FFEEAFF1F704700BF08B50A280FD00C2802D0082806D102E04FF4805209E04FF4807206E00020FFF797FA002201E04FF480620021094B198042F210737D
:4021800003FB02F303F6C413064A82FB0302DB17C3EBE223044A1360044B198008BD00BFFCEAFF1FAD8BDB6800EBFF1FFEEAFF1F10B5FFF789F90446184A137843F001037F
:4021C00013701032137843F00103137002F5AA520832137843F0030313701822104B1A70013B1A7842F040021A701A7802F0FC021A70C822053B1A700222A3F597530C3BC9
:402200001A70084A137843F0080313700A20FFF75DFA2046FFF75CF910BD00BFAB43004006590040275B004010B504460A280DD00C2802D0082804D101E0C22207E04222FA
:4022400005E00020FFF72AFAC22200E08222034B1A702046FFF77AFF10BD00BF0259004008B5064A137843F0060313700C20FFF7DBFF0022024B1A8008BD00BF0159004089
:4022800004EBFF1F08B5054B1B7823B9FFF7E8FF0122024B1A70FFF78BFF08BD94C3FF1F024A137843F001031370704700590040F0B583B086460F4616461D460B4C0123F0
:4022C0002370002200920192184671463A46FFF785F9207831462A46FFF75AF920780221FFF744F9207803B0F0BD00BF26C1FF1FF0B583B086460F4616461D460A4C002358
:40230000237000930193184671463A46FFF766F9207831462A46FFF73BF920780221FFF725F9207803B0F0BD27C1FF1F014B1B681864704708ED00E04001C0B2014B187025
:40234000704700BF00E400E0044A137803F0FB03800000F0040018431070704700510040044A137803F0FE0300F0010018431070704700BFC0510040044A137803F0FD0396
:40238000400000F00200184310707047C0510040044A137803F0FB03800000F00400184310707047F0510040044A137803F0DF03400100F020001843107070473051004065
:4023C000044A137803F0BF03800100F0400018431070704730510040044A137803F07F03C001C0B203431370704700BF30510040044A137803F0FD03400000F00200184371
:4024000010707047F051004008B500F067FD00F06FFD08BD08B5FFF7F7FF08BD30B583B00C468DF8070000F0A3FDB4F5006F54D22509C5EB053319010C44A4B200F044FE78
:4024400000284CD1402021460DF10702012300F0BBFD044607282FD1234B1B7813F0020FFAD0214B1B7813F0020F06D01E4B1B789B0805D04FF0FF3403E04FF0FF3400E021
:402480000024E4B9194B402029461A785B7800F0D7FD072816D1144B1B7813F0020FFAD0114B1B7813F0020F0FD00F4B1B789B0810D04FF0FF340DE0012809D10AE04FF03C
:4024C000FF3407E04FF0FF3404E04FF0FF3401E04FF0FF3400F01EFE02E0012400E00424204603B030BD00BF224700401CEBFF1F38B50446FEF7E8FF054600F023FD04F196
:40250000804000F500400478E4B200F029FD2846FEF7DEFF204638BD084A137843F0080313701032137843F00803137002F67132137843F001031370704700BFA34300403B
:40254000014B1880704700BF284F0040014B1880704700BF2A4F0040014B1870704700BF274F004008B51A4A137843F0020313700232137803F08F0343F010031370154B63
:402580001A7802F0CF021A701A7842F030021A701A7802F0F0021A701A7842F00F021A7042F21070FFF7CCFF41F28830FFF7CEFF0020FFF7D1FF084A137843F008031370B6
:4025C00002F68232137843F00103137008BD00BF244F00402F4F0040A343004008B5054B1B7823B9FFF7BEFF0122024B1A70FFF793FF08BD95C3FF1F7222084B1A70202230
:40260000A3F201131A700622623B1A70472210331A70002251331A70704700BF8A65004010B5FEF751FF04460A4A137843F020031370A2F20112137843F010031370013ACB
:40264000137843F01003137000F056F82046FEF73FFF10BD9A65004008B5054B1B7823B9FFF7CAFF0122024B1A70FFF7D9FF08BD96C3FF1F084B1B78DBB213F0200F06D069
:40268000064A1078C0B213F01E0F02D17047002070470020704700BF696400404A65004008B5FFF7E7FF08BD014B1B685864704708ED00E04001C0B2014B1870704700BF3B
:4026C00001E400E00222014B1A60704700E100E00222014B1A60704780E100E008B5FFF7F7FF0448FFF7E0FF0720FFF7E3FFFFF7E9FF08BDA1260000054A137843F020036E
:4027000013701032137843F020031370704700BFA243004038B50622114B1A7081220E3B1A70082202331A700F2511331D70002401331C704FF400420A4B1A6028460721A8
:40274000FEF7E2FF28460849FEF7CAFF1022074B1A70074B1C70074B1C70074B1C7038BDD649004080E100E0C927000006EBFF1F08EBFF1F0AEBFF1F10EBFF1F08B5FEF7DB
:40278000A3FE064A137843F0040313701032137843F004031370FEF79BFE08BDA543004008B5074B1B7823B9FFF7B4FF0122044B1A70FFF7E3FF4FF40042024B1A6008BDCF
:4027C00098C3FF1F00E100E038B5A44B1C78E4B2A34B1B7813F0400F00F0378114F0010F00F01B819E4B1B78453B052B00F21281DFE813F006008200100110010600DE0075
:4028000004F0DF0504F00A04082C42D1944B1B78DBB2452B35D1934B1B7813F0FF0F10D0914B1B681B78DBB2904A137004228B4B1A7001228E4B1A704622894B1A702C4680
:40284000EBE08C4B1B7813F0020F0DD08A4A137843F00A0313706022814B1A704FF40042864B1A602C46D8E0854A137843F0100313701022834B1A700422023B1A702C4632
:40288000CBE00022754B1A704A22754B1A702C46C3E00A2C2BD1784A137843F0A0031370744B1B7813F0020F14D06D4B1B7813F0080F01D0092300E00A236F4A11780B4315
:4028C00013706022664B1A704FF400426B4B1A602C46A2E06A4A137843F0100313701022684B1A700422023B1A702C4695E00020FEF7D4FE2C4690E014F0020F35D15C4B19
:402900001B78584A1278DBB2934210D2584A1378DBB255490968CB5CDBB254490B7004214E4B197013780133DBB2137075E0514B1B7813F0020F0CD04F4A137843F00A0311
:4029400013706022464B1A704FF400424B4B1A6063E04B4A137843F0100313701022494B1A700422023B1A7057E0424B1B7813F0020F0CD0404A137843F09A031370602208
:40298000374B1A704FF400423C4B1A6045E03C4A137843F01003137010223A4B1A700422023B1A70344A137843F09003137034E0354A1378DBB2354908682C490978C9B2FC
:4029C000C15413780133DBB213701378304A1278DBB2934203D21022204B1A701DE0254B1B7813F0020F0CD0234A137843F00903137060221A4B1A704FF400421F4B1A6082
:402A00000BE01F4A137843F0100313700022134B1A7002E00020FEF741FE14F0200F1CD00F4B1B7813F0080F01D0012300E00223114A11780B431370114A137803F0EF030E
:402A400013701022064B1A7038BD054B1B7813F0100F02D11022024B1A7038BDD749004006EBFF1F18EBFF1F0CEBFF1FD849004010EBFF1F11EBFF1F08EBFF1F80E100E070
:402A8000D6490040D94900400AEBFF1F14EBFF1F09EBFF1F1A4B1B78DBB2102B29D1194B1B7813F0080F26D14FF40042164B1A604000C0B229B140F001004922104B1A70E4
:402AC00002E045220E4B1A70104B1870012201331A700F4B1B7813F0010FFAD00C4B1B7803F00A030A2B08D11022054B1A700320704702207047012070470020704700BFF7
:402B000006EBFF1FD949004080E100E0D8490040D7490040164B1B7813F0040F23D04000C0B229B140F001004922124B1A7002E04522104B1A70104B1870122201331A7013
:402B40000422023B1A700D4B1B7813F0010FFAD00A4B1B7803F00A030A2B06D11022054B1A7003207047022070470020704700BFD949004006EBFF1FD8490040D749004025
:402B80000A4B1B7813F0040F0ED01023074A13700421023A1170064A1370064B1B7813F0210FFAD00020704702207047D949004006EBFF1FD7490040114B1B7813F0040F16
:402BC0001BD0104B18700422013B1A7046220E4B1A700E4B1B7813F0010FFAD00B4B1B7813F0020F04D16022074B1A70002070476022054B1A70032070470220704700BF32
:402C0000D9490040D849004006EBFF1FD7490040114B1B7813F0040F1BD0104B1B78DBB2492B05D100220E4B1A704A220B4B1A700B4B1B7813F0010FFAD00A4B1B78DBB221
:402C400018B11021064A117004E06021034A117000E0002318467047D949004006EBFF1FD7490040D849004008B500F051F8A0F5004000B208BD00BF024B187800F00F002F
:402C8000704700BF65650040014B1870704700BF8565004008B50F20FFF7F6FFFFF7ECFFFEF712FC034A137843F010031370FEF70FFC08BD9565004008B500F07BF84FF462
:402CC000004000F01FF8044B1B7813B90122024B1A70FFF7DFFF08BD99C3FF1F024A137843F080031370704775650040014B1870704700BF85640040014B1878704700BF2C
:402D000065640040014B1880704700BF0A680040024B1B78024B188880B27047056400408A680040014B188880B270478A680040014B1880704700BF4A680040014B1880B6
:402D4000704700BF6A68004008B501E0FFF7EAFFFFF7D2FF10F0400FF8D108BD08B5134B1A7802F0F8021A701A7802F0FC021A70FFF7EAFF4FF40040FFF7DAFF4FF40040C7
:402D8000FFF7C0FF0020FFF7B1FFFFF7B5FF4FF40040FFF7D3FFFEF797FB054A137843F010031370FEF794FB08BD00BF756500409564004008B5054B1B7823B9FFF7CEFFDF
:402DC0000122024B1A70FFF789FF08BD9AC3FF1F044A137803F07F03C001C0B203431370704700BF00510040044A137803F0FB03800000F004001843107070474051004029
:402E0000044A137803F0F703C00000F0080018431070704740510040044A137803F0EF03000100F010001843107070474051004010B500F09DF800F047F9D0B900F086F91D
:402E40000446072812D102E00120FEF73FFC0A4B1B7813F0020FF7D0074B1B7813F0020F04D0054B1B789B0800D1002400F052F900E00424204610BD2247004010B500F0E4
:402E800077F800F021F910BB012000F0FFF8072818D11048022100F07DF802280AD102E00120FEF713FC0C4B1B7813F0020FF7D0002409E0084B1B7813F0020FE9D04FF0FE
:402EC000FF3401E04FF0FF3400F024F900E00424204610BD1CEBFF1F2247004008B5FFF7A7FF034610B9FFF7C9FF0346184608BD08B5FEF7E9FA0F4A137843F00803137067
:402F00001032137843F008031370C8220A4B1A700A4A137843F0100313701032137843F010031370064B1B7813F0200FFAD0FEF7CFFA08BDA043004001470040AC430040BF
:402F400000470040054A137843F001031370034B1B7813F0020FFAD0704700BF02470040024A137803F0FE03137070470247004008B5FEF7A9FA064A137843F008031370F9
:402F80001032137843F008031370FEF7A1FA08BDA043004070B506460D4600240CE00120FEF794FB064B1B7813F0010FF7D0054B1B7833550134E4B2AC42F3D3204670BD57
:402FC000224700402047004030B43E2801D81F2B03D93F2827D90F2B27D8174C247814F0020F24D0154CB6252570D4252570012525700234247814F0020F1AD10F4C2070B9
:40300000C1F300202070C9B22170591EC9B22170002104E0545C094804700131C9B29942F8D3072006E0012004E0012002E0042000E0092030BC704722470040204700409B
:4030400030B4104C247814F0020F15D00E4CB6252570D8252570052525700234247814F0020F0BD1084C2070080A2070C9B2217022702370072002E0042000E0092030BCC3
:40308000704700BF22470040204700400C4B1B7813F0020F0FD00B4BB6221A70E1221A700E221A7002331B7813F0020F05D1054B187007207047042070470920704700BF8C
:4030C000224700402047004010B5FEF7FDF90F4B1B78A3B901220D4B1A700D4B1B6813F0010F0ED00A4A136823F00103136000BF00BF00BF0122054B5A60002402E00424C5
:4031000000E00024FEF7E4F9204610BD9CC3FF1F0400084008B5FEF7D7F90A4B00221A705B68012B0AD1084A136843F00103136000BF00BF00BF0022024B5A60FEF7C8F9DD
:4031400008BD00BF9CC3FF1F04000840074B1B7813F0020F08D0064BB6221A70E0221A700D221A700720704704207047224700402047004081F0004102E000BF83F0004327
:4031800030B54FEA41044FEA430594EA050F08BF90EA020F1FBF54EA000C55EA020C7FEA645C7FEA655C00F0E2804FEA5454D4EB5555B8BF6D420CDD2C4480EA020281EA8B
:4031C000030382EA000083EA010180EA020281EA0303362D88BF30BD11F0004F4FEA01314FF4801C4CEA113102D0404261EB410113F0004F4FEA03334CEA133302D05242E1
:4032000063EB430394EA050F00F0A780A4F10104D5F1200E0DDB02FA0EFC22FA05F2801841F1000103FA0EF2801843FA05F359410EE0A5F120050EF1200E012A03FA0EFC8B
:4032400028BF4CF0020C43FA05F3C01851EBE37101F0004507D54FF0000EDCF1000C7EEB00006EEB0101B1F5801F1BD3B1F5001F0CD349085FEA30004FEA3C0C04F1010468
:403280004FEA445212F5800F80F09A80BCF1004F08BF5FEA500C50F1000041EB045141EA050130BD5FEA4C0C404141EB010111F4801FA4F10104E9D191F0000F04BF0146F5
:4032C0000020B1FA81F308BF2033A3F10B03B3F120020CDA0C3208DD02F1140CC2F10C0201FA0CF021FA02F10CE002F11402D8BFC2F1200C01FA02F120FA0CFCDCBF41EAEA
:403300000C019040E41AA2BF01EB0451294330BD6FEA04041F3C1CDA0C340EDC04F11404C4F1200220FA04F001FA02F340EA030021FA04F345EA030130BDC4F10C04C4F120
:40334000200220FA02F001FA04F340EA0300294630BD21FA04F0294630BD94F0000F83F4801306BF81F480110134013D4EE77FEA645C18BF7FEA655C29D094EA050F08BFAD
:4033800090EA020F05D054EA000C04BF1946104630BD91EA030F1EBF0021002030BD5FEA545C05D14000494128BF41F0004130BD14F580043CBF01F5801130BD01F0004555
:4033C00045F0FE4141F470014FF0000030BD7FEA645C1ABF194610467FEA655C1CBF0B46024650EA013406BF52EA033591EA030F41F4002130BD00BF90F0000F04BF002188
:40340000704730B54FF4806404F132044FF000054FF0000150E700BF90F0000F04BF0021704730B54FF4806404F1320410F0004548BF40424FF000013EE700BF42004FEA56
:40344000E2014FEA31014FEA02701FBF12F07F4393F07F4F81F06051704792F0000F14BF93F07F4F704730B54FF4607401F0004521F0004120E700BF50EA010208BF704716
:4034800030B54FF000050AE050EA010208BF704730B511F0004502D5404261EB41014FF4806404F132045FEA915C3FF4DCAE4FF003025FEADC0C18BF03325FEADC0C18BF5E
:4034C000033202EBDC02C2F1200300FA03FC20FA02F001FA03FE40EA0E0021FA02F11444C1E600BF70B54FF0FF0C4CF4E06C1CEA11541DBF1CEA135594EA0C0F95EA0C0F0E
:4035000000F0DEF82C4481EA030621EA4C5123EA4C5350EA013518BF52EA033541F4801143F4801338D0A0FB02CE4FF00005E1FB02E506F00042E0FB03E54FF00006E1FBAC
:4035400003569CF0000F18BF4EF0010EA4F1FF04B6F5007F64F5407404D25FEA4E0E6D4146EB060642EAC62141EA55514FEAC52040EA5E504FEACE2EB4F1FD0C88BFBCF549
:40358000E06F1ED8BEF1004F08BF5FEA500E50F1000041EB045170BD06F0004646EA010140EA020081EA0301B4EB5C04C2BFD4EB0C0541EA045170BD41F480114FF0000E52
:4035C000013C00F3AB8014F1360FDEBF002001F0004170BDC4F10004203C35DA0C341BDC04F11404C4F1200500FA05F320FA04F001FA05F240EA020001F0004221F0004125
:4036000010EBD37021FA04F642EB06015EEA430E08BF20EAD37070BDC4F10C04C4F1200500FA04F320FA05F001FA04F240EA020001F0004110EBD37041F100015EEA430E31
:4036400008BF20EAD37070BDC4F1200500FA05F24EEA020E20FA04F301FA05F243EA020321FA04F001F0004121FA04F220EA020000EBD3705EEA430E08BF20EAD37070BD5B
:4036800094F0000F0FD101F00046400041EB010111F4801F08BF013CF7D041EA060195F0000F18BF704703F00046520043EB030313F4801F08BF013DF7D043EA0603704711
:4036C00094EA0C0F0CEA135518BF95EA0C0F0CD050EA410618BF52EA4306D1D181EA030101F000414FF0000070BD50EA410606BF1046194652EA430619D094EA0C0F02D125
:4037000050EA013613D195EA0C0F05D152EA03361CBF104619460AD181EA030101F0004141F0FE4141F470014FF0000070BD41F0FE4141F4780170BD70B54FF0FF0C4CF4C7
:40374000E06C1CEA11541DBF1CEA135594EA0C0F95EA0C0F00F0A7F8A4EB050481EA030E52EA03354FEA013100F088804FEA03334FF0805545EA131343EA12634FEA0222C4
:4037800045EA111545EA10654FEA00260EF000419D4208BF964244F1FD0404F5407402D25B084FEA3202B61A65EB03055B084FEA32024FF480104FF4002CB6EB020E75EB22
:4037C000030E22BFB61A754640EA0C005B084FEA3202B6EB020E75EB030E22BFB61A754640EA5C005B084FEA3202B6EB020E75EB030E22BFB61A754640EA9C005B084FEA72
:403800003202B6EB020E75EB030E22BFB61A754640EADC0055EA060E18D04FEA051545EA16754FEA06164FEAC30343EA52734FEAC2025FEA1C1CC0D111F4801F0BD141EA78
:4038400000014FF000004FF0004CB6E711F4801F04BF01430020B4F1FD0C88BFBCF5E06F3FF6AFAEB5EB030C04BFB6EB020C5FEA500C50F1000041EB045170BD0EF0004E8D
:403880004EEA113114EB5C04C2BFD4EB0C0541EA045170BD41F480114FF0000E013C90E645EA060E8DE60CEA135594EA0C0F08BF95EA0C0F3FF43BAF94EA0C0F0AD150EA92
:4038C00001347FF434AF95EA0C0F7FF425AF104619462CE795EA0C0F06D152EA03353FF4FDAE1046194622E750EA410618BF52EA43067FF4C5AE50EA41047FF40DAF52EA66
:4039000043057FF4EBAE12E74FEA4102B2F1E04324BFB3F5001CDCF1FE5C0DD901F0004C4FEAC0024CEA5070B2F1004F40EB830008BF20F00100704711F0804F21D113F121
:403940003872BCBF01F00040704741F480114FEA5252C2F11802C2F1200C10FA0CF320FA02F018BF40F001004FEAC1234FEAD32303FA0CFC40EA0C0023FA02F34FEA4303B6
:40398000CCE77FEA625307D150EA01331EBF4FF0FE4040F44000704701F0004040F0FE4040F40000704700BF4FF0FF0C1CEAD0521EBF1CEAD15392EA0C0F93EA0C0F6FD03B
:4039C0001A4480EA010C400218BF5FEA41211ED04FF0006343EA501043EA5111A0FB01310CF00040B1F5000F3EBF490041EAD3715B0040EA010062F17F02FD2A1DD8B3F1F5
:403A0000004F40EBC25008BF20F00100704790F0000F0CF0004C08BF49024CEA502040EA51207F3AC2BFD2F1FF0340EAC250704740F400004FF00003013A5DDC12F1190F3A
:403A4000DCBF00F000407047C2F10002410021FA02F1C2F1200200FA02FC5FEA310040F1000053EA4C0308BF20EADC70704792F0000F00F0004C02BF400010F4000F013ACC
:403A8000F9D040EA0C0093F0000F01F0004C02BF490011F4000F013BF9D041EA0C018FE70CEAD15392EA0C0F18BF93EA0C0F0AD030F0004C18BF31F0004CD8D180EA0100A9
:403AC00000F00040704790F0000F17BF90F0004F084691F0000F91F0004F14D092EA0C0F01D142020FD193EA0C0F03D14B0218BF084608D180EA010000F0004040F0FE40CC
:403B000040F40000704740F0FE4040F4400070474FF0FF0C1CEAD0521EBF1CEAD15392EA0C0F93EA0C0F69D0A2EB030280EA010C49024FEA402037D04FF0805343EA1111CB
:403B400043EA10130CF000408B4238BF5B0042F17D024FF4000C8B4224BF5B1A40EA0C00B3EB510F24BFA3EB510340EA5C00B3EB910F24BFA3EB910340EA9C00B3EBD10F6E
:403B800024BFA3EBD10340EADC001B0118BF5FEA1C1CE0D1FD2A3FF650AF8B4240EBC25008BF20F0010070470CF0004C4CEA50207F32C2BFD2F1FF0340EAC250704740F495
:403BC00000004FF00003013A37E792F0000F00F0004C02BF400010F4000F013AF9D040EA0C0093F0000F01F0004C02BF490011F4000F013BF9D041EA0C0195E70CEAD1534F
:403C000092EA0C0F08D142027FF47DAF93EA0C0F7FF470AF084676E793EA0C0F04D14B023FF44CAF08466EE730F0004C18BF31F0004CCAD130F000427FF45CAF31F0004342
:403C40007FF43CAF5FE700BF4FEA4002B2F1FE4F0FD34FF09E03B3EB12620DD94FEA002343F0004310F0004F23FA02F018BF404270474FF00000704712F1610F01D14202FD
:403C800005D110F0004008BF6FF0004070474FF0000070470E4B70B51E460E4C0025E41AA410A54204D056F8253098470135F8E700F058F8084B094C1E46E41AA410002553
:403CC000A54204D056F8253098470135F8E770BD703D0000703D0000703D0000783D000010B5431E0A44914204D011F8014B03F8014FF8E710BD03460244934202D003F8F1
:403D0000011BFAE77047000000000000C84900401900004F0040300000000140800E000F0140000100140140800400190140000300400140000A004C0140000200500140A5
:403D40002000000060520040640F00480600800E01406C0F0048800080180140EC0F004880000000F8B500BFF8BC08BC9E4670474D000000D5100000F8B500BFF8BC08BC2D
:403D80009E46704729000000983D000008C1FF1F20000000F8290000000000007F800000030000000000E02EC05D00001800000000366E01FFFFFFFF00000000000000005C
:403DC00000000000000000000000000000000000000000000000000000000000000000000000000000000000000000000000000000000000000000000000000000000000C3
:403E00000000000000000000000000000000000000000000000000000000000000000000000000000000000000000000000000000000000000000000000000000000000082
:403E40000000000000000000000000000000000000000000000000000000000000000000000000000000000000000000000000000000000000000000000000000000000042
:403E80000000000000000000000000000000000000000000000000000000000000000000000000000000000000000000000000000000000000000000000000000000000002
:020000040001F9
:0200000480007A
:40000000084F00400D520040015B00400964004003650040250001403D01014035020140500301403E0401405B0501405E060140510701404708014053090140450A014089
:400040004B0B01406B0C01404C0D01400B0E0140360F0140561401405215014042160140551701401C18014050190140421A0140551B01400B400140104101400B42014005
:4000800016430140094401400845014006460140094701400F48014007490140154C0140104D01400C5001400451014001100A270D10161B1910222725102E27010204013C
:4000C000088009C00CC01080190228C029C02C0430103460790827848038810282728338856F880F89388A0D8F72850F870F8A7254185604580459045B045D305F018104F3
:40010000832085C7871889DF919C9342959C960197419B04A303A508A918AD10B001B140B320B580B71FB902BB80BF10D602D73CD804D904DB0EDC40DF0102400640082138
:400140000B420C100E800F1010141102128013021425160817021E801F0124402540272928202A402C602D802E2030143280360437213B423C043E103F0259105A215C8077
:4001800060026210638065016FAA754076057D0880028604873A89408E108F80C018C27BC4FECAFACCEECEE9D611D88DDE40E008E40AE601059F099F0D8015021745191465
:4001C0001B2A2509273231603307351837803F01406441034205440146C047E0482849FF4AFF4BFF4C624DA04EF04F41500C56025712580459045A045B045C405D445F019F
:400200006640670269106A306B106D106E106F12D418D604D804D904DB04DD40DF0100080220064008220B410C110D100F0110111240142216082618274228212B802C018B
:400240002F213220361839203B413D203E4442104304444047464C044E02540257105B015F08616063806D206E4474207580762082848340840486088A1090409208930296
:4002800094049610974099109A059B089CF09D819E78A140A420A505A604A701AB40AE41C014C2DBC4EDCA4BCC64CE7DD0D0D230D641D80DE001E602E810EA08EC022A01E7
:4002C0003601580459045F018141840285F3870C890C8C088D1C8FE3950F960197F099829D08A002A20CA3F3A504A9FFADC3AE01B004B11CB202B32CB408B50FB601B7C07D
:40030000B808BB28BE50C023C106C9FFCAFFCBFFCDA0CF01D018D40FD804D904DA04DB04DC42DD22DF05E040E280E440E540E680E840EA80EC40ED20EE8000080240038051
:4003400004400610072008200B420F201010110212841301150117401B801C401D401E041F08240C2606274128202B802C602E102F02301031083280358036143B423C04D8
:400380003D803E203F0247184E085C025E845F206608670479107B087E10810185208C0292089302940C96109741984099909AA59CB09D419E409F01A0A6A140A211A31380
:4003C000A525A606A780A8C0AA01AE08AF23B380B504C0ACC22BC49ECAF3CC7ECEF9D060D220D6F0D860DE40E24CEA04EC04EE01047305C1072208FD0A020B07110413F076
:4004000014941577166019811A0F1B121C301DB71EC91F40249E266028CF29C02A302B142F0830FF330F35F038203A083E1140234106453C4620474E483B49FF4AFF4BFFC1
:400440004DAF4E074F015018580459045A045C245D025F016040628064406540668068406A806C406D206E80840388188C149002942098039C0CA601A818B020B21CB403A7
:40048000B828BE11C002C740C9FFCA07CBFFCC40CD20CEF0CF05D008D804D904DA04DC02DD05DF01E040E1A8E240E3200180032404200504080909A00C080E2A10041220D8
:4004C0001404170419041AA41C081E502414260C270428A02A402C042E4030303108358436113A023B423C14420447184D014E084F04500151105220563857026580670161
:400500007E047F08801181808240860287048A408D84902091109208930295019630974499109AC19C329E189F18A088A201A50DA648A818AC80C067C2EFC466CA3BCCF65A
:40054000CE69D064D220E202E404EA05EE0700AC02110409061008140D610E030F8E115C138314401561168017961B1C1C1C1EA2228024B0260C270828102BA32D602F80FC
:40058000310F3260348035F0361F371A38083BA23E104036410545EB46EC480F49FF4AFF4BFF4EF04F44500C5401580459045A045B045C555D555F0166C06A406B029202A3
:4005C000A202A401B201B402BA02BE14D418D604D804D904DB04DC05DD50DF010422054007100B800C080D080E0210201280140816801708180419081AC01D501E202402AE
:4006000025422601270829802C082E802F20322833013611371839243B403D804110420447084C194D01542056805A015C405D095F20608463028008832089848A808B2075
:400640008D20908091C09348950496249D259E349F01A004A301A403A626A708A960AA01AF08B010B404C0F0C2A8C47CCA78CCE7CE1ED040D230D6F1D80DE010E202E4808C
:40068000EE04050A06080705090C0B030D230F1C151016081720190F1A061D051E011F0A21102204232025102602276029073008320133403402350F360437303B803E01D4
:4006C0005401580459045B045C225D905F0182048301860889088E089301940197029A049F04A502A603A908B004B101B202B308B401B506B608B701B908BE41BF44D608A3
:40070000D80CD904DB04DC90DD90DF0102100602075008400A280E100F0810A01708180A19081B011C801E111F202168254426012708284029282B402F28312832403580C5
:400740003602370839803A243C223D803E4059055A405C8065807F028001810486018C408F30908091409288934894409504960498809A029B409F01A0A4A346A442A62417
:40078000AA42AB08B301B702C0B4C267C42CCA67CCDECEAED61BD810DE10E240E444E880EC4000800301049F05200710089F09020D400F8013081414162A170418021910D2
:4007C0001A451B201D01218023402702280929082A322D0430803218340735FF36603B803E403F104060410249FF4AFF4BFF4DA04F0450185401580459045A045B0C5C33D6
:400800005D025F01604062C06440654066C068C06AC06CC06EC0800282018401860A87018D0191019401950196029B019C019E06A501AD01AE10B003B204B410B501B60807
:40084000BA02C020C106C515C702C813C9FFCAFFCBFFCDAFCE0FCF04D018D804D904DA04DC02DD02DF01E040E2C0E440E540E6C0E8C0EAC0ECC0EEC0010203200402071450
:400880000A120D2C10021608188419021A9A1DAA2210270A28102B012C102D402E042F4530043220330134043624378139043B403C083D103F424004460448A84E04500875
:4008C00052045C407F028380841088408D208E108F029002911093CA950898809A089B549D209F02A004A364A5A2A801AA02AF42B101B208B480B508C07CC265C441CAFA55
:40090000CCF7CEFAD024D224D610DE10E620E81002010604220126023001340236043E0158045C025F0100010108051106100D651090154016651A801B601C011D181F0A76
:400940002404254427402C402D402E082F083511370A3D883E204440458A46404C804D204E024F085C046C016F1476257708824084048744881089508A108D488F01C07CAB
:40098000C2F0C4FCCAF0CCE0CE70D0D0D230D640E0C0001405400B200C090D010E100F0E10701101120C131616031703191C1B031C6C1E111F082010231C245C26022A2049
:4009C0002D203060311A321F3340350F372038023B223E013F444004460449FF4A074BFF4C404D204EF04F055008580459045A045C445D045F01604061A8624063208304F6
:400A00008402870C880C9104950198089A04A002A402A601AA0CAF03B004B108B208B304B402B502B601B701B820BE15BF44D280D40FD804D904DB04DC22DD20DF010180B8
:400A40000281050C070408090A920E08108812201511162018401A101D401E642140222523402642271429402A012F02308932203602370438083A203B403C023D04404286
:400A8000414050885A045B085D085E605F017401810483018704880489048D049008911192809309960A99849A209C0E9F18A284A302A408A504A660A8A0A901AD01AF10A1
:400AC000B108B701C069C24DC47ECA19CCCFCECED001D6F0E001E204E408E814EA40EC02EE0508020A010C031203140318032003240330013402580459045F0183228E0830
:400B00008F0190339108920C950298039A149B049C339E049F10A40AA504A634A840AA15AB08AD01B00FB11FB320B410B660B880B902BA02BE10BF01C046C101C6CBC70EAC
:400B4000C81CC9FFCAFFCBFFCEF0CF44D00CD401D604D804D904DA04DB04DC04DD44DF01E6C0EA40EB02018005400604081009A00A820C200D080F401008122014A0198082
:400B80001AC01B201E041F0121092208234028A029402A402B182F04308131183401354036083A853B283D023F6041804240480850045120528058505A085B026380830439
:400BC000846187208A048C048F4291119309974099149AE19B049CAE9F18A080A204A30AA420A50DA640AB20AC01AD20B004B110C0C1C27BC436CA2FCCDFCEBFD009D2047C
:400C0000D60FD801E005E202E660E880EA2AEE0607042B022F01330135043702404549FF4AFF4BFF4F0150185280580459045A045B045D995F016040624064406540668042
:400C400068806A806C806E8000040180038004200721092A0B020C900D04104513081704180419101A301BC12110228523082420262C270529802B402D402F04304031284F
:400C80003241380439203A823B023C083E013F0241014640480149054E025101520270027401764082048701908091C892C093089504962597809D059E349F01A004A4034F
:400CC000A6AEA708A801AC80AD02AF08B108B440B510C0EDC2EFC42FCA39CC0FCE4FD081D218E004E880EC2004F90C011090122C142016C224F928482A34301832E03406F2
:400D000036013E10406541044203440246CE480C49FF4AFF4BFF4C624DA04EF04F41500C56025712580459045A045B045C055D555F016640670269106A306B106D106E106F
:400D40006F12885E8A218C428E0C943B9A019C069E78A467A610A865AA0AB278B407D203D302D804D904DB04DC02DF01000801400480070408050AA00D400E080F2011241A
:400D80001624180419801AA01C201E081F1028502CC02F2430083220332134103701382039083B183E043F10400442504990521053405A08680469446F0A7128720283063D
:400DC000844088108A208B108D128E808F1090A09188925C9780981099109A049B019C059D809EB2A008A220A480A52AA708AA24AC10AD04B008B204B320C0C5C2ECC4663A
:400E0000CAE3CCA7CE66D007D20CD602E010E220E680E814EC201302168032803302364838103B023E80C430CCF0CE70010831205B406302820894109702A6C8AB02B7023B
:400E4000C010CC10D480D640E220EA203D808E80941097029F40A520A6C0A701AD08CE20EC1019801B011F2267406A0273407E01834085409F40A560A640A701A810AB015E
:400E8000C6F0D880DCA0DE20E240E680EEA00B020D0114105D028901C206C404D601E2045C028D029D02B010B701D601E002EA061B04260882809C02C608C801440284081C
:400EC000A280AB04B208B402D004E808EE0124085A2081808A028D209980A302A520AE40B201B360C820D480E020EE405202A202AB02B404B610D480E82008200C10104862
:400F0000148052806080644078107C20830293089C02A280A408B304C203C40ED404D803DE03E80102025B0867087F028E0293089B08A302AB08B402C002D602D801DE04C4
:400F4000E608E808003D010108190A350C250D010E0D103511011A151C251D0100FF010F03C0100AC0C0000020000000FF0000001C00E3040F18F000003C0042417F0000D2
:400F800082080000C33C0041F3000C000000F3030C0400800467001808100000C0400F802C201C1F00022880000000103406050001CE000003FFFFFF62A0F0410C0000002A
:400FC00000000212040404043333000100000000000040020010301000101012000000000000000000000000000000000F10F000F3670C18003C00420004F38041000004DB
:401000000C18000004080000087F0000FF3C00411C00E300C300000082000003C0801C200F1F2C400080A020000000045400000000EC002023FFFFFF00830301180080003D
:4010400000000000040404045529000140004000404080008000800080008000000000000000000000000000000000006A0001EEEE00620000000000C30020C3C300C0008F
:4010800000000000040000060600000808000000C0000034F400C4000000000000E0E00080000000E00000E0E000000202000000001C1C0000000000F00004F0F000F00084
:4010C000000000006000000000101000000100000000000000000000000000000000000000000000000000000000000000000000000000000000000000000000000000006F
:4011000000000000000000000000000000000000000000000000000000000000000000000000000000000000000000000000000000000000000000000000000000000000AF
:40114000000000000000000000000000000000000000000000000000000000000000000000000000000000000000000000000000000000000000000000000000000000006F
:40118000000000000000000000000000000000000000000000000000000000000000000000000000000000000000000000000000000000000000000000000000000000002F
:4011C00000000000000000000000000000000000000000000000000000000000000000000000000000000000000000000000000000000000000000000000000000000000EF
:0200000490006A
:0400000000004005B7
:0200000490105A
:04000000BC90ACAF55
:0200000490303A
:02000000E70017
:0200000490402A
:4000000000000000000000000000000000000000000000000000000000000000000000000000000000000000000000000000000000000000000000000000000000000000C0
:400040000000000000000000000000000000000000000000000000000000000000000000000000000000000000000000000000000000000000000000000000000000000080
:0200000490501A
:0C00000000012E13306900012E3017693A
:00000001FF