:400000000040002011000000690E0000690E000008B5044B1A6803F53F5302331A6000F025FF00BFFA46004010B5054C237833B9044B13B10448AFF300800123237010BDA5
:4000400028C1FF1F00000000B4360000084B10B51BB108480849AFF300800848036803B910BD074B002BFBD0BDE81040184700BF00000000B43600002CC1FF1F08C1FF1F6D
:400080000000000008B5012002F062F8142001F0F9F9002002F05CF8142001F0F3F9012002F080F9142001F0EDF9002002F07AF908BD00BF08B502F09FFA00F007FE01F0BA
:4000C00019FA01F02DFC01F0B1FA01F081FA01F0CFFC01F009FB01F02BFB01F00BFD01F045FD01F07DFD01F0B7FD01F0E9FD01F023FE02F029FB02F063FB01F071FB01F02A
:40010000E1FB02F08DF802F0B5F902F0E3F802F03BF9002002F01CF8002002F043F900F089FD02F0E1F9012001F0BEFF62B600F0BDFD00F08BFC294C204629494FF47A729F
:400140000A2300F0F3FD204600F0FAFD254C2046254941F288324FF47A7300F0E7FD204600F0EEFD214C204621496422134600F0DDFD204600F0E4FD1E4C20461E49002238
:400180004FF47A7300F0D2FD204600F0D9FD1B4C20461B499622032300F0C8FD204600F0CFFD184C2046184932225A2300F0BEFD204600F0C5FD4FF4FA7001F04DF9134C3C
:4001C0002046134940F2DC524FF4FA7300F0AEFD204600F0B5FD00F0D7FDFCE7C8C3FF1FCD06000004C4FF1F050D00002CC4FF1F8D0C000018C4FF1F950A0000F4C3FF1F5A
:40020000D90B000078C3FF1F8500000044C4FF1FD90D000008B501F09DF908BD08B50D4BAA221A705A70EF229A700222DA701871597100231A4605E00649C95C0A44D2B228
:400240000133DBB2052BF7D9024882710721FFF7E1FF08BD54C4FF1F70B500231C4604E0C25C2244D4B20133DBB24A1E9342F7DB835CA34240F0C0800378AA2B40F0BC802F
:400280004378AF2B40F0B88083782BB90279AA2A02D10121594A1170012B02D10179584A1170022B02D10279554B9A708378032B0CD10279437943EA0223514AD38044F682
:4002C0002062934202D900224D4BDA8005468378042B47D10679C6F16406F6B2632E00D9642601F051FC474BA3FB0030400906FB00F080B201F0F2FB6E79C6F16406F6B257
:40030000632E00D9642601F03FFC3E4BA3FB0030400906FB00F080B201F056FCAE79C6F16406F6B2632E00D9642601F02DFC354BA3FB0030400906FB00F080B201F0B4FC3E
:40034000EE79C6F16406F6B2632E00D9642601F01BFC2C4BA3FB0030400906FB00F080B202F0E6F9AB78052B02D12A79244BDA70AB78062B09D12B79012B03D1012002F068
:4003800087F802E0002002F083F8AB78072B17D12E796B7943EA0626A6F51C53103B9BB24CF2503293420BD8304601F091FB304601F004FC304601F071FC304602F0B2F9D3
:4003C000AB78092B06D12B79632B03D101220C4B83F82020A878132802D12146FFF71EFFA878142802D12146FFF718FFA878152802D12146FFF712FF70BD00BF88C4FF1F55
:4004000088C3FF1F1F85EB5110B5294B1B7833B9AA2804D1264B01221A70187110BD012B06D1AF2804D1224B02221A70587110BD022B06D1F02804D81D4B03221A70987128
:4004400010BD032B0BD1312809D8194B04221A70D87183F83600002283F8372010BD042B13D1134A92F836207AB1013AD2B2104981F8362091F837305C1C81F837400B4493
:400480001872A2B905220A7010BD052B0CD1084B00221A7093F837105A1810720531181DC9B2FFF7D9FE10BD0022014B1A7010BD44C1FF1F70B582B0ADF80600ADF80410F4
:4004C000ADF80220ADF80030154DAA242C706C700024AC70060A2E716871080AA871E971110A29726A721A0AAA72EB729DF819302B739DF818306B730A23EB7023462246AC
:4005000005E00749C95C0A44D2B20133DBB20D2BF7D9034882730F21FFF77CFE02B070BD54C4FF1F30B583B0124DAA242C706C700124AC70002428716971110AA971EA71AC
:40054000ADF806301A0A2A726B720623EB702346224605E00749C95C0A44D2B20133DBB2092BF7D9034882720B21FFF753FE03B030BD00BF54C4FF1FF0B583B0089F099E50
:400580002A4DAA242C706C700224AC7000244FEA106E85F804E0C0F3074E85F805E0C0F3072E85F806E0E871080E2872C1F307406872C1F30720A872E972110E2973C2F3AD
:4005C00007416973C2F30721A973EA731A0E2A74C3F307426A74C3F30722AA74EB743B0E2B75C7F307436B75C7F30723AB75EF750196330E2B76C6F307436B76C6F307230D
:40060000AB76EE761823EB702346224605E00749C95C0A44D2B20133DBB21B2BF7D9034802771D21FFF7F6FD03B0F0BD54C4FF1F10B582B0ADF80600ADF804100F4BAA22C9
:400640001A705A7003229A700022040A1C715871080A9871D9710421D970134605E00749C95C0A44D2B20133DBB2072BF7D9034802720921FFF7CEFD02B010BD54C4FF1FF7
:4006800010B582B0104BAA221A705A7005229A700022040A1C715871ADF80610080A9871D9710421D970134605E00749C95C0A44D2B20133DBB2072BF7D903480272092152
:4006C000FFF7A8FD02B010BD54C4FF1F2DE9F04182B0754B93F83820744BA3FB02139B0803EB8303D31ADBB2042B02D10121704B9970704BA3FB0213DB0803EB830103EBF2
:400700004103D31ADBB20A2B02D10121684B5970694BA3FB02139B0803EB430103EB8103D31ADBB20C2B02D10121614B59725F4BA3FB02131B0903EB83039B00D31ADBB280
:40074000132B02D101215A4BD9725C4BA3FB02131B09322101FB1323DBB2312B02D10121534B19730132504B83F83820504B1B7893B10133DBB24E4A13700A2B02D1002232
:400780004B4B1A704E4C208F618FA28DE38D248E0094FFF78FFE84E0454B5B7853B10020434B5870464B9978DA88464B1B88FFF7B9FE76E03E4B9B78002B5AD000243C4B60
:4007C0009C70414EB6F90C0002F0FCFA00224FF07C5302F05DFB00223C4B02F059FB02F069FD8046304DE863B6F90E0002F0EAFA00224FF07C5302F04BFB0022334B02F0DF
:4008000047FB02F057FD07462864B6F9100002F0D9FA00224FF07C5302F03AFB00222B4B02F036FB02F046FD064668644046284902F090FD80463846254902F08BFD054687
:400840003046234902F086FD0746404602F0D2FE0646284602F0CEFE0546384602F0CAFE024600940194304629462346FFF784FE17E00F4B5B7A43B100220D4B5A72104B9F
:40088000588C998CFFF7D4FE0BE0094B1B7B43B10022074B1A730F4B18880F4B1988FFF7EFFE02B0BDE8F08144C1FF1FCDCCCCCC88C4FF1FA38B2EBA4FECC44E1F85EB51FC
:4008C00088C3FF1FD8C3FF1FDCC3FF1F0080664000007A4442C4FF1F14C4FF1F10B50C460346B8B9022915D001F0EAFB204601F0FFFB194B1B7833B9012001F0EDFB012213
:40090000154B1A7010BD002001F0E6FB0022124B1A7010BD012B18D1022C16D0002001F0F3FB204601F008FC0B4B1B7833B9012001F0F6FB0122084B1A7010BD002001F0FF
:40094000EFFB0022044B1A7010BD012001F0B8FB012001F0D9FB10BD8CC1FF1F10B50C4600F0B6FE34B9012000F06EFE002000F077FE10BD012C06D1002000F065FE0120D3
:4009800000F06EFE10BD002000F05EFE002000F067FE10BD10B50C4600F09AFE34B9012000F052FE002000F05BFE10BD012C06D1002000F049FE012000F052FE10BD002094
:4009C00000F042FE002000F04BFE10BD10B50C4600F084FE34B9012000F04EFE002000F057FE10BD012C06D1002000F045FE012000F04EFE10BD002000F03EFE002000F0BF
:400A000047FE10BD10B504460021FFF7A7FF20460021FFF7BFFF20460021FFF7D7FF20460021FFF7D3FF10BD10B504460121FFF795FF20460121FFF7ADFF20460121FFF7CB
:400A4000C5FF20460121FFF7C1FF10BD08B5104B4FF4CD721A876E225A8708221A7143F2B061D9809A70DA70012001F029FB002001F03EFB002001F02FFB012001F044FB47
:400A8000002001F059FB002001F04AFB08BD00BF88C3FF1F074B93F82030012B05D1054B002283F820205A7070470122014B5A70704700BF88C3FF1F84B008B50DF1080E94
:400AC0008EE80F009DF80B3023B900200146FFF705FF1CE0012B04D100200121FFF7FEFE15E0022B04D101200021FFF7F7FE0EE0032B04D101200146FFF7F0FE07E00020CB
:400B00000221FFF7EBFE01200221FFF7E7FEBDE8084004B0704700BF38B50446450828460021FFF71BFF28460021FFF733FF20460121FFF74BFF20460121FFF747FF38BD22
:400B400010B504460121FFF709FF20460121FFF721FF640820460021FFF738FF20460021FFF734FF10BD00BF08B500200221FFF7F5FE00200221FFF70DFF00200221FFF7E5
:400B800025FF00200221FFF721FF08BD84B010B502AC84E80F009DF80A401CB9BDF80E00FFF730FF012C03D1BDF80E00FFF73CFF022C03D1BDF80E00FFF7AEFF032C03D1D5
:400BC000BDF80E00FFF7BCFF082C01D1FFF7CCFFBDE8104004B07047F0B58DB0144B5B78FBB9134F6D4607F110040FCC0FC50FCC0FC594E8070085E8070097E80F00FFF798
:400C0000C5FF6D4607F110060FCE0FC50FCE0FC594E8070085E8070097E80F00FFF74CFF04E00822024B9A70FFF79EFF0DB0F0BD88C3FF1F08B501F011F901F023F908BDB2
:400C400038B50546002407E0284601F01FF90D4B23F814000134E4B2632CF5D90022134605E0084931F913100A440133DBB2632BF7D9054880FB0230D217C2EB601000B2EE
:400C800038BD00BF90C1FF1F1F85EB5108B50020FFF7D6FF034B18800220FFF7D1FF024B188008BD42C4FF1FD8C3FF1F0222044B1A705422034B1A700522034B1A70704733
:400CC0008DEAFF1FB8EAFF1FC4E0FF1F38B50C4D0023AB85012001F0FDFC0402022001F0F9FC2043013080B2A885000A012101F087FC95F82C00022101F082FC38BD00BF99
:400D000088C3FF1F074BDA8D0132DA8506490A8801320A809B78082B03D0024A138E01331386704788C3FF1F8EEAFF1F8160034909680A4402604360704700BF20C3FF1F70
:400D4000084B5A68134602E0834207D0DB68002BFAD1C260034B5860002070474FF0FF30704700BF20C3FF1F064A06E0834202D1DB68136001E003F10C021368002BF5D197
:400D8000704700BF24C3FF1F10B50B4B5C680FE02268094B1B689A4209D862681AB92046FFF7E2FF01E013442360A3689847E468002CEDD110BD00BF20C3FF1F024A1368C3
:400DC00001331360704700BF20C3FF1F014B1870704700BF28C3FF1F08B5214B1B785BB31F4A53780133DBB25370012B0CD1002000F074FE002000F0E7FE002000F054FF1D
:400E0000002001F095FC17E0022B15D142F2107000F064FE42F2107000F0D6FE42F2107000F042FF42F2107001F082FC0C4B00225A701A78013A1A700A4B5B78084A937069
:400E4000D27893420BD0012B03D11E20FFF7BEFF02E00120FFF7BAFF014B9A78DA7008BD28C3FF1F88C3FF1FFEE700BF08B5104E104D16E029686B68AC68002204E051F81D
:400E8000040B43F8040B0432A242F8D1E868002203E0002143F8041B04328242F9D11035013E002EE6D102F0CBFBFFF703F9FEE7010000001437000008B5134A134B1A602C
:400EC000134A136843F40073136000230AE0032B03D8104A52F8231000E00F490F4A42F8231001332F2BF2D90D4B1A780D4B1A700A4A0D4B1A6000F0EFF800F0C9F900221C
:400F00000A4B1A6008BD00BF0004FA050CED00E014ED00E000000000690E000000C0FF1FBC76004004C1FF1F08ED00E000C1FF1FF0B40022174611E050F82760F3B226F0A5
:400F4000FF0608E001EB420511F812406D78A5550132013BDBB2002BF4D101372A2FEBD9F0BC704770B4174B1B78DBB216480278D2B2164C2178C9B203F00706144D2E70FC
:400F80001B0901352B7042F00303037041F00303237044250F4B1D70042640331E7040230D4E33700236337006F21D26337020260A4B1E7021700270A3F2AD231D7070BCE8
:400FC000704700BFCF010049F8460040F94600406E5800400D51004001590040235B004008B50A46002102F05CFB08BD38B50E222C4B1A8018232C4A137017222B490A8094
:4010000002310B7002310A80294A13701925023215800232137002321580023213700222244B1A7008224FF040231A70042203F500731A70204B1B78DBB2204A13700122E8
:401040001F4B1A804FF4716203F21E231A8041F25122023B1A8000240CE01A4B1B7803F0010343EA440404F003044FF4F07000F0FFF8013D0DB1032CEFD1114B07221A7016
:401080000021114A117048210232117001221A700222033B1A700D4A137843F01F03137038BD00BF8040004082400040844000408A4000400043004089010049A146004081
:4010C000044000402542004006400040A243004008B502F0DBFA08BD70B572B6464A137843F00403137000240CE0444963001A1952000A4423445B00C8589188FFF770FF79
:401100000134E4B2062CF0D900240BE03B49A3001A1952000A44D06A116B8022FFF7D8FF0134E4B2002CF1D04FF090403449FFF7FFFE34480421FFF753FF3348334904227E
:40114000FFF7C6FF324A137843F0020313701032137843F0020313702E4C237843F040032370A2F58632513A137843F01003137029482A490A22FFF7ABFF294829490A225F
:40118000FFF7A6FF284829490822FFF7A1FF284828490A22FFF79CFF274828490A22FFF797FF274827490A22FFF792FF264827490822FFF78DFF264826490A22FFF788FF1A
:4011C000254826490A22FFF783FF254A137843F008031370234E01253570FFF707FF81233370214B1D70FFF7BDFE204821460E22FFF76EFF70BD00BFE8460040B8360000E1
:40120000AC0000480076004008760040A010004803500140A0430040005100403C100048C051004048100048F251004054100048105100405C10004820510040681000488C
:401240003051004074100048425100408010004850510040881000486051004094100048224300400048004004000840B04300400230800803D000BF01380046FCD170479D
:40128000EFF3108072B6704780F31088704700BF0B4A7F2313708021517007E0DA0002F1804202F5F042013BDBB21370002BF5D1DB0003F1804303F5F04300221A70704784
:4012C0000CC1FF1F172815D831B103010A495A5C42F020025A5405E0030107495A5C02F0DF025A540001044A835C43F00103835400207047012070471070004017280CD8A8
:401300000001074BC1180A7942F004020A71C25C42F00102C254002070470120704700BF1070004017280BD80001064A835C03F0F10301F0070143EA410181540020704767
:40134000012070471070004041F6FF73994201D14FF4005141F6FF739A4201D14FF40052172808D8C00000F1804000F5EC408180C280002070470120704700BF172805D881
:40138000034B03EB0010417200207047012070471070004017281BD810B4C00000F1804404F5EC44D201D2B201F07F01114321709DF804201201D2B203F00F031343637000
:4013C0009DF8083003F00F03A3700020E07001E0012070475DF8044B704700BF10B5FFF74FFF0A4B5B78182B0BD9084A1478013B5370E30003F1804303F5F0431B781370B5
:4014000000E0FF24FFF740FF204610BD0CC1FF1F10F0800F0CD111F4704F0BD1C00000F1804000F5F04001808270C37000207047012070470120704710F0800F08D1C0005F
:4014400000F1804000F5F0408180C280002070470120704701BE704710B5044605E0084B1868FFF705FFA4F50044B4F5004FF6D8034B586800FB04F0FFF7FAFE10BD00BF53
:4014800014C1FF1F08B5034B1B7A03FB00F0FFF7EFFE08BD14C1FF1F7222074B1A702022FF331A7006225E3B1A70472210331A70012249331A7070478A64004010B5FFF758
:4014C000DFFE04460A4A137843F020031370FF32137843F010031370053A137843F01003137000F04BF82046FFF7CEFE10BD00BF9A64004008B5054B1B7823B9FFF7CCFF93
:401500000122024B1A70FFF7D9FF08BD2CC3FF1F084B1B78DBB213F0200F06D0064A1078C0B213F01E0F02D17047002070470020704700BF696500404A640040034B1B7848
:4015400013F0040FFAD1024B18707047646500404A650040084B1B7833B97047305DFFF7EDFF0134E4B203E070B50D4606460024AC42F3D370BD00BF2CC3FF1F054A1378F1
:4015800043F0100313701032137843F010031370704700BFA2430040704700BF014B1B68D865704708ED00E04001C0B2014B1870704700BF07E400E08022014B1A6070473C
:4015C00000E100E08022014B1A60704780E100E008B5FFF7F7FF0448FFF7E0FF0720FFF7E3FFFFF7E9FF08BD9915000008B5FFF78FFFFEF709FF08BD014B1B68D8647047EB
:4016000008ED00E04001C0B2014B1870704700BF03E400E00822014B1A60704700E100E00822014B1A60704780E100E008B5FFF7F7FF0448FFF7E0FF0720FFF7E3FFFFF702
:40164000E9FF08BDED150000044A137803F0FE0300F0010018431070704700BFC0510040044A137803F0BF03800100F0400018431070704730510040044A137803F0FD03FD
:40168000400000F00200184310707047C0510040044A137803F07F03C001C0B203431370704700BF30510040024A137843F080031370704778640040014B1880704700BF57
:4016C00010680040014B1880704700BF90680040014B1880704700BF50680040014B1880704700BF7068004008B5104A137803F0C00343F0090313702032137843F00103AE
:4017000013700132137843F00103137044F62060FFF7D2FF44F62060FFF7D4FF43F2B060FFF7D6FF3F20FFF7D9FF08BD7864004008B5054B1B7823B9FFF7D6FF0122024BD5
:401740001A70FFF7B1FF08BD2EC3FF1F024A137843F080031370704774640040014B1870704700BF85640040014B1878704700BF65640040014B1880704700BF486800406E
:40178000014B188880B2704788680040014B1880704700BF0868004008B501E0FFF7F0FFFFF7E2FF10F0080FF8D108BD08B545F6BF50FFF7DFFF45F6BF50FFF7E7FFFFF724
:4017C0005FFD064A137843F010031370FFF75CFDFFF7E2FF0120FFF7C1FF08BD9564004008B5054B1B7823B9FFF7E0FF0122024B1A70FFF7ABFF08BD2FC3FF1F10B51C4B02
:401800001988013189B219801A4B1888013080B21880194A138801339BB21380174C2288013292B22280B0F5FA6F05D901241448048000240F480480052905D90120114952
:40184000087000200A490880642A05D900210B4A118001210C4A1180032B05D90022064B1A800122094B1A80FFF7A8FA10BD00BF96EAFF1F94EAFF1F9CEAFF1F9AEAFF1FAB
:4018800090EAFF1F9EEAFF1F92EAFF1F98EAFF1F014B1B689865704708ED00E04001C0B2014B1870704700BF06E400E04022014B1A60704700E100E04022014B1A60704712
:4018C00080E100E008B5FFF7F7FF0448FFF7E0FF0720FFF7E3FFFFF7E9FF08BDFD1700007222034B1A70202202331A70704700BF8164004010B5FFF7C3FC0446074A13787F
:4019000043F0200313700232137843F01003137000F0BCF82046FFF7B7FC10BD9164004008B5054B1B7823B9FFF7DAFF0122024B1A70FFF7DFFF08BD30C3FF1F084B1B78BC
:40194000DBB213F0200F06D0064A1078C0B213F01E0F02D17047002070470020704700BF636400404264004038B5324C2578FFF7E5FF25442871237813B92279552A57D1E7
:401980000133DBB22B4A13700B2B51D1134600221A701B79552B4BD1264B5B79522B1AD0532B2FD0512B43D1224BD8799979224A41EA00211180587A197A41EA002151808D
:4019C000D87A997A41EA00219180597B1B7B43EA0123538238BD174BD8799979164A41EA0021D180587A197A41EA00211181D87A997A41EA00215181597B1B7B43EA01235D
:401A0000538238BD0B4BD87999790B4A41EA00219181587A197A41EA0021D181D87A997A41EA00211182597B1B7B43EA0123538238BD00BF34C3FF1FDCC3FF1F014B1B6844
:401A40009864704708ED00E04001C0B2014B1870704700BF02E400E00422014B1A60704700E100E00422014B1A60704780E100E008B5FFF7F7FF0448FFF7E0FF0720FFF7EC
:401A8000E3FFFFF7E9FF08BD69190000054A137843F0080313701032137843F008031370704700BFA2430040084A137843F0010313701032137843F00103137002F64D32C6
:401AC000137843F001031370704700BFA3430040014B1880704700BF044F0040014B1880704700BF064F0040014B1870704700BF034F004008B51A4A137843F002031370E6
:401B00000232137803F08F0343F010031370154B1A7802F0CF021A701A7842F030021A701A7802F0F0021A701A7842F00F021A7042F21070FFF7CCFF41F28830FFF7CEFF57
:401B40000020FFF7D1FF084A137843F00103137002F65E32137843F00103137008BD00BF004F00400B4F0040A343004008B5054B1B7823B9FFF7BEFF0122024B1A70FFF729
:401B800093FF08BD44C3FF1F014B188880B27047044F0040084A137843F0020313701032137843F00203137002F65932137843F001031370704700BFA3430040014B1880D9
:401BC000704700BF104F0040014B1880704700BF124F0040014B1870704700BF0F4F004008B51A4A137843F0020313700232137803F08F0343F010031370154B1A7802F095
:401C0000CF021A701A7842F030021A701A7802F0F0021A701A7842F00F021A7042F21070FFF7CCFF41F28830FFF7CEFF0020FFF7D1FF084A137843F00203137002F66A3235
:401C4000137843F00103137008BD00BF0C4F0040174F0040A343004008B5054B1B7823B9FFF7BEFF0122024B1A70FFF793FF08BD45C3FF1F084A137843F0040313701032BC
:401C8000137843F00403137002F66532137843F001031370704700BFA3430040014B1880704700BF1C4F0040014B1880704700BF1E4F0040014B1870704700BF1B4F00406C
:401CC00008B51A4A137843F0020313700232137803F08F0343F010031370154B1A7802F0CF021A701A7842F030021A701A7802F0F0021A701A7842F00F021A7042F210709E
:401D0000FFF7CCFF41F28830FFF7CEFF0020FFF7D1FF084A137843F00403137002F67632137843F00103137008BD00BF184F0040234F0040A343004008B5054B1B7823B950
:401D4000FFF7BEFF0122024B1A70FFF793FF08BD46C3FF1F10B5022001214FF4804241F6FF7300F055F9084C20700620012141F6FF72134600F06CF96070044800F086F940
:401D8000002000F089F910BD48C3FF1FA91E000070B52C4C2078FFF7B1FA6078FFF7AEFA294B1B78FF2B03D1FFF718FB264B1870254D2A78104606210B46FFF729FB214E16
:401DC000341DA4B2287845F6A0312246FFF734FB30782978FFF7D2FA6B78FF2B02D1FFF7FDFA6870184D6A78104606210723FFF70FFB68782146154A92B2FFF71DFB114C10
:401E000060786978FFF7BAFA20780121FFF75AFA60780121FFF756FAFFF732FA0C4A137843F020031370FFF72FFA0A4B1A7842F001021A701A7842F002021A700122064B94
:401E40001A6070BD48C3FF1F24C1FF1FA0EAFF1F926400407764004080E200E008B5074BDB6823B9FFF776FF0122044BDA60FFF78FFF00F0B7F8024B1B7808BD48C3FF1F1E
:401E80006664004008B500F0BBF808BDC0F10200034B33F81030034A1088181A00B27047A0EAFF1FAAEAFF1F704700BF08B50A280FD00C2802D0082806D102E04FF4805265
:401EC00009E04FF4807206E00020FFF7C3FA002201E04FF480620021094B198042F2107303FB02F303F6C413064A82FB0302DB17C3EBE223044A1360044B198008BD00BFB7
:401F0000A8EAFF1FAD8BDB68ACEAFF1FAAEAFF1F10B5FFF7B5F90446184A137843F0010313701032137843F00103137002F5AA520832137843F0030313701822104B1A709C
:401F4000013B1A7842F040021A701A7802F0FC021A70C822053B1A700222A3F597530C3B1A70084A137843F0080313700A20FFF789FA2046FFF788F910BD00BFAB43004086
:401F800006590040275B004010B504460A280DD00C2802D0082804D101E0C22207E0422205E00020FFF756FAC22200E08222034B1A702046FFF77AFF10BD00BF0259004000
:401FC00008B5064A137843F0060313700C20FFF7DBFF0022024B1A8008BD00BF01590040B0EAFF1F08B5054B1B7823B9FFF7E8FF0122024B1A70FFF78BFF08BD58C3FF1FDE
:40200000024A137843F001031370704700590040F0B583B086460F4616461D460B4C01232370002200920192184671463A46FFF7B1F9207831462A46FFF786F920780221CE
:40204000FFF770F9207803B0F0BD00BF26C1FF1FF0B583B086460F4616461D460A4C0023237000930193184671463A46FFF792F9207831462A46FFF767F920780221FFF7BE
:4020800051F9207803B0F0BD27C1FF1F014B1B681864704708ED00E04001C0B2014B1870704700BF00E400E0044A137803F07F03C001C0B203431370704700BF20510040CF
:4020C000044A137803F0DF03400100F0200018431070704730510040044A137803F0EF03000100F0100018431070704730510040044A137803F0F703C00000F008001843A3
:402100001070704730510040044A137803F0FB03800000F0040018431070704730510040044A137803F0FD03400000F0020018431070704730510040044A137803F0FE03F8
:4021400000F0010018431070704700BF30510040044A137803F0F703C00000F0080018431070704720510040024A137843F08003137070477E640040014B1870704700BF68
:402180008F640040014B1878704700BF6F640040014B1880704700BF5C680040014B188880B270479C680040014B1880704700BF1C68004000F00300044B1A7802F0FC022E
:4021C0001A701A7810431870704700BF7E64004008B501E0FFF7E2FFFFF7D4FF10F0080FF8D108BD08B54FF6FF70FFF7D1FF4FF6FF70FFF7D9FFFFF743F8084A137843F073
:4022000010031370FFF740F80020FFF7D3FFFFF7DFFF0220FFF7B0FF08BD00BF9F64004008B5054B1B7823B9FFF7DCFF0122024B1A70FFF799FF08BD59C3FF1F10B5154C96
:40224000237801332370FFF7A9FFC04380B260802378022B1AD1A388984202D3C01AE08003E0C01A01380B4BD8800A4B00225A801A70DA88642303FB02F3074A82FB031244
:402280001A44DB17C3EB6213044A5384014B5A889A8010BD5AC3FF1F09CB3D8D88C3FF1F014B1B685865704708ED00E04001C0B2014B1870704700BF05E400E02022014BC3
:4022C0001A60704700E100E02022014B1A60704780E100E008B5FFF7F7FF0448FFF7E0FF0720FFF7E3FFFFF7E9FF08BD3D22000010B5154C23780133237000F079F8C04335
:4023000080B260802378022B1AD1A388984202D3C01AE08003E0C01A01380B4BD8800A4B00225A801A70DA88642303FB02F3074A82FB03121A44DB17C3EB6213044A9384AE
:40234000014B5A889A8010BD62C3FF1F09CB3D8D88C3FF1F014B1B681865704708ED00E04001C0B2014B1870704700BF04E400E01022014B1A60704700E100E01022014B73
:402380001A60704780E100E008B5FFF7F7FF0448FFF7E0FF0720FFF7E3FFFFF7E9FF08BDF1220000044A137803F0FD03400000F0020018431070704720510040024A137814
:4023C00043F08003137070477D640040014B1870704700BF8D640040014B1878704700BF6D640040014B1880704700BF58680040014B188880B2704798680040014B18809B
:40240000704700BF1868004000F00300044B1A7802F0FC021A701A7810431870704700BF7D64004008B501E0FFF7E2FFFFF7D4FF10F0080FF8D108BD08B54FF6FF70FFF7CA
:40244000D1FF4FF6FF70FFF7D9FFFEF719FF084A137843F010031370FEF716FF0020FFF7D3FFFFF7DFFF0220FFF7B0FF08BD00BF9D64004008B5054B1B7823B9FFF7DCFFB8
:402480000122024B1A70FFF799FF08BD6AC3FF1F044A137803F0FD03400000F00200184310707047F0510040024B187800F00F00704700BF66650040014B1870704700BFCC
:4024C0008665004008B50F20FFF7F6FFFFF7ECFFFEF7D6FE034A137843F010031370FEF7D3FE08BD9665004008B500F071F84FF4004000F01FF8044B1B7813B90122024B0B
:402500001A70FFF7DFFF08BD6BC3FF1F024A137843F080031370704777650040014B1870704700BF87650040014B1878704700BF67650040014B1880704700BF0C68004067
:40254000014B188880B270478C680040014B1880704700BF4C680040014B1880704700BF6C68004008B501E0FFF7EAFFFFF7DCFF10F0400FF8D108BD08B5134B1A7802F0CC
:40258000F8021A701A7802F0FC021A70FFF7EAFF4FF40040FFF7DAFF4FF40040FFF7CAFF0020FFF7BBFFFFF7BFFF4FF40040FFF7D3FFFEF765FE054A137843F0100313704E
:4025C000FEF762FE08BD00BF776500409765004008B5054B1B7823B9FFF7CEFF0122024B1A70FFF793FF08BD6CC3FF1F08B500F04BF900F053F908BD08B5FFF7F7FF08BD77
:4026000030B583B00C468DF8070000F087F9B4F5006F54D22509C5EB053319010C44A4B200F028FA00284CD1402021460DF10702012300F09FF9044607282FD1234B1B78D5
:4026400013F0020FFAD0214B1B7813F0020F06D01E4B1B789B0805D04FF0FF3403E04FF0FF3400E00024E4B9194B402029461A785B7800F0BBF9072816D1144B1B7813F070
:40268000020FFAD0114B1B7813F0020F0FD00F4B1B789B0810D04FF0FF340DE0012809D10AE04FF0FF3407E04FF0FF3404E04FF0FF3401E04FF0FF3400F002FA02E001243A
:4026C00000E00424204603B030BD00BF22470040B4EAFF1F38B50446FEF7D2FD054600F007F904F1804000F500400478E4B200F00DF92846FEF7C8FD204638BD084A137820
:4027000043F0080313701032137843F00803137002F67132137843F001031370704700BFA3430040014B1880704700BF284F0040014B1880704700BF2A4F0040014B1870D6
:40274000704700BF274F004008B51A4A137843F0020313700232137803F08F0343F010031370154B1A7802F0CF021A701A7842F030021A701A7802F0F0021A701A7842F036
:402780000F021A7042F21070FFF7CCFF41F28830FFF7CEFF0020FFF7D1FF084A137843F00803137002F68232137843F00103137008BD00BF244F00402F4F0040A3430040CB
:4027C00008B5054B1B7823B9FFF7BEFF0122024B1A70FFF793FF08BD6DC3FF1F10B500F09DF800F047F9D0B900F086F90446072812D102E00120FEF745FE0A4B1B7813F021
:40280000020FF7D0074B1B7813F0020F04D0054B1B789B0800D1002400F052F900E00424204610BD2247004010B500F077F800F021F910BB012000F0FFF8072818D11048E8
:40284000022100F07DF802280AD102E00120FEF719FE0C4B1B7813F0020FF7D0002409E0084B1B7813F0020FE9D04FF0FF3401E04FF0FF3400F024F900E00424204610BD2A
:40288000B4EAFF1F2247004008B5FFF7A7FF034610B9FFF7C9FF0346184608BD08B5FEF7EFFC0F4A137843F0080313701032137843F008031370C8220A4B1A700A4A1378A6
:4028C00043F0100313701032137843F010031370064B1B7813F0200FFAD0FEF7D5FC08BDA043004001470040AC43004000470040054A137843F001031370034B1B7813F035
:40290000020FFAD0704700BF02470040024A137803F0FE03137070470247004008B5FEF7AFFC064A137843F0080313701032137843F008031370FEF7A7FC08BDA043004028
:4029400070B506460D4600240CE00120FEF79AFD064B1B7813F0010FF7D0054B1B7833550134E4B2AC42F3D3204670BD224700402047004030B43E2801D81F2B03D93F289B
:4029800027D90F2B27D8174C247814F0020F24D0154CB6252570D4252570012525700234247814F0020F1AD10F4C2070C1F300202070C9B22170591EC9B22170002104E007
:4029C000545C094804700131C9B29942F8D3072006E0012004E0012002E0042000E0092030BC7047224700402047004030B4104C247814F0020F15D00E4CB6252570D8253D
:402A00002570052525700234247814F0020F0BD1084C2070080A2070C9B2217022702370072002E0042000E0092030BC704700BF22470040204700400C4B1B7813F0020FE2
:402A40000FD00B4BB6221A70E1221A700E221A7002331B7813F0020F05D1054B187007207047042070470920704700BF224700402047004010B5FEF703FC0F4B1B78A3B944
:402A800001220D4B1A700D4B1B6813F0010F0ED00A4A136823F00103136000BF00BF00BF0122054B5A60002402E0042400E00024FEF7EAFB204610BD70C3FF1F04000840A6
:402AC00008B5FEF7DDFB0A4B00221A705B68012B0AD1084A136843F00103136000BF00BF00BF0022024B5A60FEF7CEFB08BD00BF70C3FF1F04000840074B1B7813F0020FCC
:402B000008D0064BB6221A70E0221A700D221A700720704704207047224700402047004081F0004102E000BF83F0004330B54FEA41044FEA430594EA050F08BF90EA020FEB
:402B40001FBF54EA000C55EA020C7FEA645C7FEA655C00F0E2804FEA5454D4EB5555B8BF6D420CDD2C4480EA020281EA030382EA000083EA010180EA020281EA0303362D76
:402B800088BF30BD11F0004F4FEA01314FF4801C4CEA113102D0404261EB410113F0004F4FEA03334CEA133302D0524263EB430394EA050F00F0A780A4F10104D5F1200E7F
:402BC0000DDB02FA0EFC22FA05F2801841F1000103FA0EF2801843FA05F359410EE0A5F120050EF1200E012A03FA0EFC28BF4CF0020C43FA05F3C01851EBE37101F0004599
:402C000007D54FF0000EDCF1000C7EEB00006EEB0101B1F5801F1BD3B1F5001F0CD349085FEA30004FEA3C0C04F101044FEA445212F5800F80F09A80BCF1004F08BF5FEAB7
:402C4000500C50F1000041EB045141EA050130BD5FEA4C0C404141EB010111F4801FA4F10104E9D191F0000F04BF01460020B1FA81F308BF2033A3F10B03B3F120020CDA8F
:402C80000C3208DD02F1140CC2F10C0201FA0CF021FA02F10CE002F11402D8BFC2F1200C01FA02F120FA0CFCDCBF41EA0C019040E41AA2BF01EB0451294330BD6FEA0404A0
:402CC0001F3C1CDA0C340EDC04F11404C4F1200220FA04F001FA02F340EA030021FA04F345EA030130BDC4F10C04C4F1200220FA02F001FA04F340EA0300294630BD21FADA
:402D000004F0294630BD94F0000F83F4801306BF81F480110134013D4EE77FEA645C18BF7FEA655C29D094EA050F08BF90EA020F05D054EA000C04BF1946104630BD91EA2D
:402D4000030F1EBF0021002030BD5FEA545C05D14000494128BF41F0004130BD14F580043CBF01F5801130BD01F0004545F0FE4141F470014FF0000030BD7FEA645C1ABFDD
:402D8000194610467FEA655C1CBF0B46024650EA013406BF52EA033591EA030F41F4002130BD00BF90F0000F04BF0021704730B54FF4806404F132044FF000054FF00001A4
:402DC00050E700BF90F0000F04BF0021704730B54FF4806404F1320410F0004548BF40424FF000013EE700BF42004FEAE2014FEA31014FEA02701FBF12F07F4393F07F4F23
:402E000081F06051704792F0000F14BF93F07F4F704730B54FF4607401F0004521F0004120E700BF50EA010208BF704730B54FF000050AE050EA010208BF704730B511F094
:402E4000004502D5404261EB41014FF4806404F132045FEA915C3FF4DCAE4FF003025FEADC0C18BF03325FEADC0C18BF033202EBDC02C2F1200300FA03FC20FA02F001FA82
:402E800003FE40EA0E0021FA02F11444C1E600BF70B54FF0FF0C4CF4E06C1CEA11541DBF1CEA135594EA0C0F95EA0C0F00F0DEF82C4481EA030621EA4C5123EA4C5350EAF2
:402EC000013518BF52EA033541F4801143F4801338D0A0FB02CE4FF00005E1FB02E506F00042E0FB03E54FF00006E1FB03569CF0000F18BF4EF0010EA4F1FF04B6F5007F51
:402F000064F5407404D25FEA4E0E6D4146EB060642EAC62141EA55514FEAC52040EA5E504FEACE2EB4F1FD0C88BFBCF5E06F1ED8BEF1004F08BF5FEA500E50F1000041EB4B
:402F4000045170BD06F0004646EA010140EA020081EA0301B4EB5C04C2BFD4EB0C0541EA045170BD41F480114FF0000E013C00F3AB8014F1360FDEBF002001F0004170BDF5
:402F8000C4F10004203C35DA0C341BDC04F11404C4F1200500FA05F320FA04F001FA05F240EA020001F0004221F0004110EBD37021FA04F642EB06015EEA430E08BF20EA3B
:402FC000D37070BDC4F10C04C4F1200500FA04F320FA05F001FA04F240EA020001F0004110EBD37041F100015EEA430E08BF20EAD37070BDC4F1200500FA05F24EEA020E15
:4030000020FA04F301FA05F243EA020321FA04F001F0004121FA04F220EA020000EBD3705EEA430E08BF20EAD37070BD94F0000F0FD101F00046400041EB010111F4801F39
:4030400008BF013CF7D041EA060195F0000F18BF704703F00046520043EB030313F4801F08BF013DF7D043EA0603704794EA0C0F0CEA135518BF95EA0C0F0CD050EA41064E
:4030800018BF52EA4306D1D181EA030101F000414FF0000070BD50EA410606BF1046194652EA430619D094EA0C0F02D150EA013613D195EA0C0F05D152EA03361CBF1046C5
:4030C00019460AD181EA030101F0004141F0FE4141F470014FF0000070BD41F0FE4141F4780170BD70B54FF0FF0C4CF4E06C1CEA11541DBF1CEA135594EA0C0F95EA0C0F45
:4031000000F0A7F8A4EB050481EA030E52EA03354FEA013100F088804FEA03334FF0805545EA131343EA12634FEA022245EA111545EA10654FEA00260EF000419D4208BF01
:40314000964244F1FD0404F5407402D25B084FEA3202B61A65EB03055B084FEA32024FF480104FF4002CB6EB020E75EB030E22BFB61A754640EA0C005B084FEA3202B6EB81
:40318000020E75EB030E22BFB61A754640EA5C005B084FEA3202B6EB020E75EB030E22BFB61A754640EA9C005B084FEA3202B6EB020E75EB030E22BFB61A754640EADC0014
:4031C00055EA060E18D04FEA051545EA16754FEA06164FEAC30343EA52734FEAC2025FEA1C1CC0D111F4801F0BD141EA00014FF000004FF0004CB6E711F4801F04BF014374
:403200000020B4F1FD0C88BFBCF5E06F3FF6AFAEB5EB030C04BFB6EB020C5FEA500C50F1000041EB045170BD0EF0004E4EEA113114EB5C04C2BFD4EB0C0541EA045170BD0F
:4032400041F480114FF0000E013C90E645EA060E8DE60CEA135594EA0C0F08BF95EA0C0F3FF43BAF94EA0C0F0AD150EA01347FF434AF95EA0C0F7FF425AF104619462CE77B
:4032800095EA0C0F06D152EA03353FF4FDAE1046194622E750EA410618BF52EA43067FF4C5AE50EA41047FF40DAF52EA43057FF4EBAE12E74FEA4102B2F1E04324BFB3F5C6
:4032C000001CDCF1FE5C0DD901F0004C4FEAC0024CEA5070B2F1004F40EB830008BF20F00100704711F0804F21D113F13872BCBF01F00040704741F480114FEA5252C2F11F
:403300001802C2F1200C10FA0CF320FA02F018BF40F001004FEAC1234FEAD32303FA0CFC40EA0C0023FA02F34FEA4303CCE77FEA625307D150EA01331EBF4FF0FE4040F4BA
:403340004000704701F0004040F0FE4040F40000704700BF4FF0FF0C1CEAD0521EBF1CEAD15392EA0C0F93EA0C0F6FD01A4480EA010C400218BF5FEA41211ED04FF00063FD
:4033800043EA501043EA5111A0FB01310CF00040B1F5000F3EBF490041EAD3715B0040EA010062F17F02FD2A1DD8B3F1004F40EBC25008BF20F00100704790F0000F0CF0BE
:4033C000004C08BF49024CEA502040EA51207F3AC2BFD2F1FF0340EAC250704740F400004FF00003013A5DDC12F1190FDCBF00F000407047C2F10002410021FA02F1C2F1EE
:40340000200200FA02FC5FEA310040F1000053EA4C0308BF20EADC70704792F0000F00F0004C02BF400010F4000F013AF9D040EA0C0093F0000F01F0004C02BF490011F46E
:40344000000F013BF9D041EA0C018FE70CEAD15392EA0C0F18BF93EA0C0F0AD030F0004C18BF31F0004CD8D180EA010000F00040704790F0000F17BF90F0004F084691F0E2
:40348000000F91F0004F14D092EA0C0F01D142020FD193EA0C0F03D14B0218BF084608D180EA010000F0004040F0FE4040F40000704740F0FE4040F4400070474FF0FF0C2E
:4034C0001CEAD0521EBF1CEAD15392EA0C0F93EA0C0F69D0A2EB030280EA010C49024FEA402037D04FF0805343EA111143EA10130CF000408B4238BF5B0042F17D024FF440
:40350000000C8B4224BF5B1A40EA0C00B3EB510F24BFA3EB510340EA5C00B3EB910F24BFA3EB910340EA9C00B3EBD10F24BFA3EBD10340EADC001B0118BF5FEA1C1CE0D1E4
:40354000FD2A3FF650AF8B4240EBC25008BF20F0010070470CF0004C4CEA50207F32C2BFD2F1FF0340EAC250704740F400004FF00003013A37E792F0000F00F0004C02BF22
:40358000400010F4000F013AF9D040EA0C0093F0000F01F0004C02BF490011F4000F013BF9D041EA0C0195E70CEAD15392EA0C0F08D142027FF47DAF93EA0C0F7FF470AF41
:4035C000084676E793EA0C0F04D14B023FF44CAF08466EE730F0004C18BF31F0004CCAD130F000427FF45CAF31F000437FF43CAF5FE700BF4FEA4002B2F1FE4F0FD34FF017
:403600009E03B3EB12620DD94FEA002343F0004310F0004F23FA02F018BF404270474FF00000704712F1610F01D1420205D110F0004008BF6FF0004070474FF00000704709
:403640000E4B70B51E460E4C0025E41AA410A54204D056F8253098470135F8E700F048F8084B094C1E46E41AA4100025A54204D056F8253098470135F8E770BDFC36000021
:40368000FC360000FC3600000437000010B5431E0A44914204D011F8014B03F8014FF8E710BD03460244934202D003F8011BFAE77047000000000000004F00403000000060
:4036C0000140000A800A0140800500140140000800400140000A004C014000020050014020000000000A0140BC0F004880000000F8B500BFF8BC08BC9E4670474D0000005D
:40370000B90E0000F8B500BFF8BC08BC9E467047290000002837000008C1FF1F200000009029000000000000000000007F800000030000000000E02EC05D000018000000B6
:4037400000366E01FFFFFFFF0000000000000000000000000000000000000000000000000000000000000000000000000000000000000000000000000000000000000000A8
:403780000000000000000000000000000000000000000000000000000000000000000000000000000000000000000000000000000000000000000000000000000000000009
:4037C00000000000000000000000000000000000000000000000000000000000000000000000000000000000000000000000000000000000000000000000000000000000C9
:403800000000000000000000000000000000000000000000000000000000000000000000000000000000000000000000000000000000000000000000000000000000000088
:403840000000000000000000000000000000000000000000000000000000000000000000000000000000000000000000000000000000000000000000000000000000000048
:020000040001F9
:0200000480007A
:40000000084F00400D520040015B0040076400400465004037000140360101404B020140590301404C0401404B0501404A0601404F0701406E08014048090140030A01409E
:40004000530B0140650C0140480D0140520E01403B0F01402D1401404E15014021160140511701404A1801404B190140661A0140551B014010400140164101400B420140B5
:400080000C43014004440140084501400B46014009470140194801400A4901400A4C01400A4D01400C5001400351014001100A360D1016361910223625102E36014008C002
:4000C00009C014142410283029303180344060C061C079047C302784817282028338850D8A728D0F8F0F840F860F876F8938080110011A011C01200124012C0136015804BF
:4001000059045F01824383018404857E889C897E8A628C9C8D028E61911092049360941898FF99489B14A408A701A8E7A924AA18AB18AC10B058B170B280B30CB41FB501E0
:40014000B620B702B880BA22BE04BF10D602D711D804D904DB04DC33DD30DF01030404420530062008A009010C080D121001110112101340160217281A021C401D101E2197
:400180001F0224222621271028202A102C202E2030013240330436013710380839013B023D603E055E206D606E0474087504760A770887408C808E40C0F2C27BC4EDCA662D
:4001C000CCABCEF3D620E40201080504060309410B200DD30F0C10031403150C180319821FD3200221C32201240125DF2602291C2BC32C032D0F2FD03120330F3401351C3D
:40020000360237C03B08406541024203440145CE480349FF4AFF4BFF4C624DA04EF04F41500C56025731580459045A045B0F5C305D035F016640670269106A306B106D1015
:400240006E106F1282019E02AA02B001B602BE40D418D604D804DB04DC02DD30DF01028005080B010F6411281210130414801601170418011B011F602512260827292D2001
:400280002E052F02358437103A013B023EAA4008411042044408458047084C214D804E084F015B015D105E0360016101622065406D046E806F487440751079017A407E4006
:4002C0008104868087608D01902295209742988099249A2A9B109E109F24A101A221A352A420A502A804A901AA20AB50AC20B201B704C028C271C4B2CAF0CC70CEF0D0706A
:40030000D230D621D81DDE80E004E640EA60EE0908040C01100816032804300232083401360438803E44405449FF4AFF4BFF4F0150185280580C59045A045B045D995F01CE
:400340006040624064406540668068806A806C806E8082018A10921094029A029E08A204A601AB01B001B201B406B501B618BE41C054C5ECC622C80FC9FFCAFFCBFFCD8300
:40038000CE03CF01D018D401D804D904DA04DB04DC09DD99DF01E040E240E440E540E680E880EA80EC80EE80001003020420050108020B200E0A0FA01110166019441B1235
:4003C0001C401D801E081F14270429202C012D082F09301133043410361037043A123BC03D0A3E023F404280468048024C024F0556A05C405F0570027101798080108304B5
:400400009020910595309680974299109A109B409D489F04A040A101A201A349A584A680AF20C053C2FCC432CA74CC67CEDDD081D218D6D0DE08E001E204E601EE040A0188
:400440000F01300133014053410649FF4AFF4BFF4DA04F0150185401580459045A045B0F5D025F016040628064406540668068406A806C406D206E808D028F08930595015A
:4004800097049902AD05B102B301B504B708B902BF14C032C106C542C6C3C70EC81FC9FFCAFFCBFFCDAFCE07CF01D018D203D302D804D904DA04DB04DC20DD02DF01E04083
:4004C000E280E440E540E680E840EA80EC40ED20EE80030405180A400B080C040E6110041108134217161E401F0122112321250427102B012D202E402F04302032093610C3
:40050000370638803C803D083E0140084108470848204A884E0A5040521458085B085C8069906A807E40800883018508870488029105934095B096809782988099149B44AF
:400540009C029D289E40A040A309A504A690A880AB10AF04B701C062C2BAC47FCA38CCE7CED8D046D234D610DE80E008E408EE0401100308070109080B100F011108131083
:40058000150416011A021B06250827102E042F0431183204330434013502360237013B023F444010410249FF4AFF4BFF4DA04F0450185280580459045A045B045C225D2258
:4005C0005F01604062C06440654066C068C06AC06CC06EC08404851F86028802891F8A04910893149402960499129A019B099C029E04A208A505A601A70AAA08AB20AF20B8
:40060000B008B11CB206B401B503B720BA08BB08BE11BF40C010C103C505C610C702C819C9FFCAFFCBFFCDAFCE0FCF04D018D804D904DA04DC42DD02DF01E040E2C0E4403F
:40064000E540E6C0E8C0EAC0ECC0EEC00108030809200A010B100E24104813041602180419081A801E3620882108229125012729282029402A102E4432113601371839144F
:400680003D423E103F08404041844301458046044B08502051045204764087208B108D1091569304944095209680986099419A129D029E019F42A008A120A304A444A5082C
:4006C000A720B202B508C006C267C48ECA5ECCE5CEF6D03AE008E220E840EE04D804D904DF01008801010204052A082009800A100B800C901020131215021761180419452E
:400700001A102120220129042C802F203010310832083320352A36013740388839083A043B803F014004410644014583470249404A084B0452105A0269146B017020718083
:4007400073108201832189018A08908891409440952196909710986099209C019D089E049F40A088A304A464A501A601A720AB80B404B502C07FC2CFC4CECAC2CCF2CE8A76
:40078000D007D20CD601E60100010206041006200C30140818021A011C3022032410262030383203340436033A033E044046420349FF4AFF4BFF4F01501858045A045C0208
:4007C0005D025F016040624064406540668068806A806C806E8080DF815A83A08480853087C388C789308A188BC68CC0901C92C294DC960197FF98449A209E04A2C3A40890
:40080000A818AC10AD50AFADB01FB30FB4D8B5F0B620BA22BB08C046C203C5ECC702C813C9FFCAFFCBFFCD83CE03CF01D018D283D403D804D904DA04DB04DC24DD22DF01D7
:40084000E040E240E440E540E680E880EA80EC80EE8000880101020405020601072208200A510E240F0210211102131014401680170818881A411D081E241F8A210422107C
:4008800023202B03330839183A014280430845084680480849054C08500859055AA069106B0A728080808120914094449520982099209D089F40A304A520A601A720AB40A5
:4008C000AF20B020B110B401B510B604C0BFC2EFC43FCA08CC02CE07D0C3D224D60FEA40EC100008021004010606081809300BC30C020D550E010FA018201BFF1D301FC921
:400900002018280829502A102BAE2E033004323833F034033603370F3A0C3B803E104046420249FF4AFF4BFF4F0150185283580459045A045B045C225D225F016040624085
:4009400064406540668068806A806C806E80C042C206C5ECC702C813C9FFCAFFCBFFCD83CE03CF01D018D403D804D904DA04DB04DD22DF01E040E240E440E540E680E880C4
:40098000EA80EC80EE800006030A05280A040D200E020F04100811401302141016061740180219101A041B1A2002218023102B082C102D602E802F203190350836013990BD
:4009C0003D203E023F044284468848044D044F215404560857045C405D045F11680869906B02728085208E01C06FC2C2C4EBCA64CCCCCEECD0A5D224D6F0E21007013701B7
:400A000054015604580459045B045D405F0182048304870289408A018B808D028E02921093089510972099019A089C049D04A008A180A340A508A802A920AB10AC01AF01E4
:400A4000B1FFB21FB808BE04BF01D608D804D904DB04DD90DF01030404400510062007400A800B080C600D020E21104111181401160817061F0422402302250228402A2887
:400A80002C212D052F09324033043510374639143B023CE03D183E09580259445B205D406080664080808140832085408A0A8B04910592019302970C980299149A209B44B0
:400AC0009C019E489F02A050A104A210A308A60AAB01AC80AD10B520C0F2C2FAC4FFCAF7CCFACEF7D61FD811E201E440E608EA03EE060201220232023601540F56045804EA
:400B000059045B045D205F018D028F089102950899029B049F01A104AD01B104B308B502B701B920BF55D280D40FD804D904DB04DD20DF05030406200742080109080A0184
:400B40000B080C010E21110813021501160817041C201D081E211F402245230828802B012E202F053038312032823610370638803D083E0158105A8A5D405F25621467400C
:400B800070027A0287408C028D408E108F029080910592209302952096019788980299149A149B649E409F0AA068A104A280A309A618AD08AE02B210C0B2C2BFC47CCA398D
:400BC000CCEFCEC8D6FFD886DE08E208E408E620E810EA02EC4001180320045805EC06A109780B840CAC0D9C0E510F2010CC119412321348170118771B04203022CF24FB2A
:400C00002508260427F02B022F02300F3102331C34F0350137F038083E04580459045C225F018140854089408A028D388F069502971C9A089B389E019F06A310A501A60155
:400C4000A902AA04AB2CB001B11EB204B334B408B501B602B740BB0ABF10D418D604D804D904DB04DC42DD40DF0103080508070109900E84102013101501162017041902D9
:400C80001A011B181CA01E8820402118220123022622271129202A062C012D082F043080310832103719384039163C803D033E2444014580590160046281633084108A0217
:400CC0008E408F4090049116930895209641973099099A409E019F52A020A111A280A580A708AF20B102C0A2C253C436CA77CCEECEFFD601D80DE010E448E620E890EC407D
:400D000001100608070308730A0C0D141473152C1604171119091B101C4A1D401E14211C223523222403261429302B0C3010320F331F34603560382039203A083E114062E2
:400D40004103450C46EB480D49FF4AFF4BFF4EF04F44500C580459045A045C445D045F0166C06A406B0280618194820283608404857388578C608DCF8E048F30919E936024
:400D800095FD9607970298379C019E02A280A530A7C9AA08AB0FB20FB3FFB470B680B820BB80BF04C006C740C9FFCA07CBFFCC40CD20CEF0CF05D008D804D904DA04DC32B1
:400DC000DD04DF01E040E1A8E240E32000180120044005090704084009080A020E240F0110A016401720181019021B101C201D801E241F04200821042210254027202840AB
:400E000029202D082F04308031083210350136043705388039083A063CC03D023E043F0140044108482049204C804F2050405310560280A4850288108A049202962497207A
:400E400099089A409B019D209E069F04A040A109A204A480A5C0A902AB04AD40AE20B708C0F6C2E5C45CCA65CCCECEDBD006D224E440E6A0EC400A40128016803002334022
:400E80003640370839403B023E805310C210C430CCF0CE70D4203210330834405380631087108C029220954097029F48A280A402A640AA40B310B610CC70D420D840E21034
:400EC000E820830897029C409F48A280A640A708A940AF80E220EE3018101B401D218520A280A640A708AB41AC40C6F0E010EEB008406202C202D80201400904B040B2029F
:400F0000C002C208EA01EC04000105021B0424108010B544C00CC608C801EA02EE02440887088C019001AB04B102D004E608EA01261050205910678068026A016C02840260
:400F4000865187408820A280A340A640A708B410B501C820D4A0D880DAC0DC20E210E410E640828083088F40A280A340A708A910E420E680EE206480840898809B089C08B1
:400F8000A002B482D801E808EC025B08650174028D019B08A002D602D801DE04E402001D0101080D0A050B010C150E15101D11011A151B011C1C00FF01FF100AFC000000AD
:400FC00080030100E4001800C00102021C00E0001803E40040000100100000000000E400080100021800000000000000C001380003021C00002008000000100134060500C7
:40100000020EC00009FFFFFF62A0F0410C00000000000213040404044444000100000000000040020010301000101012000000000000000000000000000000000100000127
:401040000100004444000000C00000C3C300C00000000000300E0E000C000000C00000C0C000C000000000000A00148A8A000000000000003F0000FFFF000000000000001A
:401080001000000000040400F00000F0F000F00000000000800040808000800000000000000100000000000000000000000000000000000000000000000000000000000017
:4010C00000000000000000000000000000000000000000000000000000000000000000000000000000000000000000000000000000000000000000000000000000000000F0
:4011000000000000000000000000000000000000000000000000000000000000000000000000000000000000000000000000000000000000000000000000000000000000AF
:40114000000000000000000000000000000000000000000000000000000000000000000000000000000000000000000000000000000000000000000000000000000000006F
:40118000000000000000000000000000000000000000000000000000000000000000000000000000000000000000000000000000000000000000000000000000000000002F
:0200000490006A
:0400000000004005B7
:0200000490105A
:04000000BC90ACAF55
:0200000490303A
:02000000FD9C65
:0200000490402A
:4000000000000000000000000000000000000000000000000000000000000000000000000000000000000000000000000000000000000000000000000000000000000000C0
:400040000000000000000000000000000000000000000000000000000000000000000000000000000000000000000000000000000000000000000000000000000000000080
:0200000490501A
:0C00000000012E13306900012E2E2E0589
:00000001FF