:400000000040002011000000D5070000D507000008B5044B1A6803F53F5302331A6000F0DBFB00BFFA46004010B5054C237833B9044B13B10448AFF300800123237010BD29
:4000400048C1FF1F00000000081F0000084B10B51BB108480849AFF300800848036803B910BD074B002BFBD0BDE81040184700BF00000000081F00004CC1FF1F08C1FF1FB3
:400080000000000008B500F015FF01F069F901F0A9FD00F0AFFF00F07FFF01F009FA01F0D1FE01F021F801F053F801F059FA01F08DFA01F0D5FA01F009FB01F051FB01F0F0
:4000C00083FB01F0ADF801F00DF9204B08229A7043F2B06199805A7000F0D4FA62B64FF4FA7000F06DFE00F0F9FA194B1B78012B02D10022164B1A70164B1B78012B04D174
:4001000000F0A6FA0022134B1A70134B1B88012B0CD1002000F0BCFA104B1880012000F0B7FA0F4B188000220B4B1A800D4B1B78012BDAD1012001F0A1FE0B4800F060F98D
:400140000020084B187001F099FECEE790C3FF1F0AEAFF1F16EAFF1F0CEAFF1FCEC3FF1FC8C3FF1F43C3FF1F18D6FF1F08B500F0D1FE08BD08B50D4BAA221A705A70EF2283
:400180009A700222DA701871597100231A4605E00649C95C0A44D2B20133DBB2052BF7D9024882710721FFF7E1FF08BDD0C3FF1F38B500231C4604E0C25C2244D4B20133C0
:4001C000DBB24A1E9342F7DB835CA34240F0BF800378AA2B40F0BB804378AF2B40F0B7808378022B02D10179594A5170032B0ED102794379564943EA02228B8813449BB2B5
:400200008B8044F62062934201D900228A8005468378042B77D10379C3F16403DBB2632B00D9642303EB830303EB83039A0090B201F06EF96B79C3F16403DBB2632B00D93E
:40024000642303EB830303EB83039A0090B201F05FF9AB79C3F16403DBB2632B00D9642303EB830303EB83039A0090B201F056F9EB79C3F16403DBB2632B00D9642303EB44
:40028000830303EB83039A0090B201F047F92B7AC3F16403DBB2632B00D9642303EB830303EB83039A0090B201F0B2F96B7AC3F16403DBB2632B00D9642303EB830303EBBF
:4002C00083039A0090B201F0A3F9AB7AC3F16403DBB2632B00D9642303EB830303EB83039A0090B201F09AF9EB7AC3F16403DBB2632B00D9642303EB830303EB83039A008F
:4003000090B201F08BF9A878102802D12146FFF731FFA878112802D12146FFF72BFFA878122802D12146FFF725FFA878132802D12146FFF71FFFA878142802D12146FFF7B8
:4003400019FFA878152802D12146FFF713FF38BD90C3FF1F10B5294B1B7833B9AA2804D1264B01221A70187110BD012B06D1AF2804D1224B02221A70587110BD022B06D129
:40038000F02804D81D4B03221A70987110BD032B0BD1312809D8194B04221A70D87183F83600002283F8372010BD042B13D1134A92F836207AB1013AD2B2104981F83620E7
:4003C00091F837305C1C81F837400B441872A2B905220A7010BD052B0CD1084B00221A7093F837105A1810720531181DC9B2FFF7DFFE10BD0022014B1A7010BD64C1FF1FA3
:4004000008B5264BAA221A705A7004229A700022DA700178197181785971417899710179D971C178197241795972C17999728179D972417A1973017A5973817A9973017BA1
:40044000D973C17A1974817B5974417B9974C17BD974417C1975017C5975C17C9975817CD975017D1976817D5976417D9976017ED976C17D19771921D970134605E00749CD
:40048000C95C0A44D2B20133DBB21C2BF7D9034842771E21FFF76AFE08BD00BFD0C3FF1F10B50C4600F0F8FD34B9012000F0B0FD002000F0B9FD10BD012C06D1002000F049
:4004C000A7FD012000F0B0FD10BD002000F0A0FD002000F0A9FD10BD10B50C4600F0DCFD34B9012000F094FD002000F09DFD10BD012C06D1002000F08BFD012000F094FD79
:4005000010BD002000F084FD002000F08DFD10BD10B50C4600F0C6FD34B9012000F090FD002000F099FD10BD012C06D1002000F087FD012000F090FD10BD002000F080FD9E
:40054000002000F089FD10BD10B504460021FFF7A7FF20460021FFF7BFFF20460021FFF7D7FF20460021FFF7D3FF10BD10B504460121FFF795FF20460121FFF7ADFF204657
:400580000121FFF7C5FF20460121FFF7C1FF10BD38B50446450828460021FFF781FF28460021FFF799FF20460121FFF7B1FF20460121FFF7ADFF38BD10B504460121FFF73A
:4005C0006FFF20460121FFF787FF640820460021FFF79EFF20460021FFF79AFF10BD00BF08B500200221FFF75BFF00200221FFF773FF00200221FFF78BFF00200221FFF76A
:4006000087FF08BD84B010B502AC84E80F009DF809401CB9BDF80C00FFF796FF012C03D1BDF80C00FFF7A2FF022C03D1BDF80C00FFF7AEFF032C03D1BDF80C00FFF7BCFF1A
:40064000082C01D1FFF7CCFFBDE8104004B07047F0B585B00A4CD4F800E06768A668E3686D4654F8100F6168A26807C5A2892A80704639463246FFF7C5FF05B0F0BD00BF35
:4006800090C3FF1F08B501F031F901F043F908BD38B50546002407E0284601F03FF90D4B23F814000134E4B2632CF5D90022134605E0084931F913100A440133DBB2632BDB
:4006C000F7D9054880FB0230D217C2EB601000B238BD00BFACC1FF1F1F85EB5108B50221054B19705422054B1A700522044B1A70044801F0FDFA08BD09EAFF1F40EAFF1FFE
:4007000040E0FF1F0CC1FF1F70B5044642082D4B1B7863B9424012F0010F08D0012001F0ADFB0122274B1A70274B1C7070BD012B0ED114F0010F0BD0224B02221A70224ABF
:40074000547000225A70214A1278023A9A7070BD022B32D11B4B9B78002B2ED0013BDBB218498B704A78501C4870023216498C5433BB144A9388013393800B7813F0010FCD
:4007800002D000220F4B9A800E4A937903EB83040F4825180C490E682650097929710133DBB29371052B04D113460122DA7100229A710022034B1A7070BD0022014B1A702A
:4007C00070BD00BF3CC3FF1FE4CDFF1F40E0FF1F18D6FF1FFEE700BF08B5104E104D16E029686B68AC68002204E051F8040B43F8040B0432A242F8D1E868002203E000214C
:4008000043F8041B04328242F9D11035013E002EE6D101F03FFBFFF735FCFEE701000000741F000008B5134A134B1A60134A136843F40073136000230AE0032B03D8104A0F
:4008400052F8231000E00F490F4A42F8231001332F2BF2D90D4B1A780D4B1A700A4A0D4B1A6000F0F1F800F0C7F900220A4B1A6008BD00BF0004FA050CED00E014ED00E0F7
:4008800000000000D507000000C0FF1FBC76004004C1FF1F08ED00E000C1FF1FF0B40022174611E050F82760F3B226F0FF0608E001EB420511F812406D78A5550132013B0E
:4008C000DBB2002BF4D101372A2FEBD9F0BC704770B4184B1B78DBB217480278D2B2174C2178C9B203F00706154D2E701B0901352B7042F00303037041F0030323701023AB
:40090000A5F232752B70042610352E7040250D4E35700236357050260B4D2E70202603352E7035352B70217002704422074B1A7070BC7047CF010049F8460040F9460040C4
:400940006E58004001590040205B00407658004008B50A46002101F0CEFA08BD38B500242E4B1C80582202331A700E2202331A8018232B4A1370172102321180023213701D
:4009800019250232158002321370023215800232137002321580023213700222214B1A7008224FF040231A70042203F500731A701D4B1B78DBB21D4A137001221C4B1A8058
:4009C0004FF4716203F21E231A8041F25122023B1A800CE0174B1B7803F0010343EA440404F003044FF4F07000F0F6F8013D0DB1032CEFD10E4B07221A7000210E4A1170DA
:400A000048210232117001221A700222033B1A700A4A137843F03F03137038BD80400040864000400043004089010049A1460040044000402542004006400040A2430040DA
:400A400008B501F04DFA08BD70B572B6454A137843F00403137000240CE0434963001A1952000A4423445B00C8589188FFF770FF0134E4B2072CF0D900240FE03A49A30066
:400A80001A1952000A4452F8300F23445B000B4451681A8FFFF7D4FF0134E4B2012CEDD94FF090403149FFF7F9FE31480421FFF74FFF304830490422FFF7C2FF2F4A1378B6
:400AC00043F0020313701032137843F0020313702B4C237843F040032370A2F58632513A137843F010031370264827490822FFF7A7FF264826490822FFF7A2FF254826494C
:400B00000A22FFF79DFF254825490822FFF798FF244825490A22FFF793FF244824490822FFF78EFF234824490A22FFF789FF234823490A22FFF784FF224A137843F008031E
:400B40001370214E01253570FFF708FF812333701E4B1D70FFF7BCFE1D4821460E22FFF76FFF70BDE84600400C1F0000AC0000480076004008760040B8100048035001409C
:400B8000A04300400251004068100048C251004070100048F0510040781000481251004084100048305100408C100048425100409810004850510040A010004860510040A2
:400BC000AC100048224300400048004004000840B0430040000000000230800803D000BF01380046FCD17047EFF3108072B6704780F31088704700BF0B4A7F231370802109
:400C0000517007E0DA0002F1804202F5F042013BDBB21370002BF5D1DB0003F1804303F5F04300221A70704728C1FF1F172815D831B103010A495A5C42F020025A5405E0EE
:400C4000030107495A5C02F0DF025A540001044A835C43F00103835400207047012070471070004017280CD80001074BC1180A7942F004020A71C25C42F00102C254002030
:400C800070470120704700BF1070004017280BD80001064A835C03F0F10301F0070143EA4101815400207047012070471070004041F6FF73994201D14FF4005141F6FF73AE
:400CC0009A4201D14FF40052172808D8C00000F1804000F5EC408180C280002070470120704700BF172805D8034B03EB0010417200207047012070471070004017281BD893
:400D000010B4C00000F1804404F5EC44D201D2B201F07F01114321709DF804201201D2B203F00F03134363709DF8083003F00F03A3700020E07001E0012070475DF8044B74
:400D4000704700BF10B5FFF74FFF0A4B5B78182B0BD9084A1478013B5370E30003F1804303F5F0431B78137000E0FF24FFF740FF204610BD28C1FF1F10F0800F0CD111F40A
:400D8000704F0BD1C00000F1804000F5F04001808270C37000207047012070470120704710F0800F08D1C00000F1804000F5F0408180C280002070470120704701BE70476F
:400DC00010B5044605E0084B1868FFF705FFA4F50044B4F5004FF6D8034B586800FB04F0FFF7FAFE10BD00BF30C1FF1F08B5034B1B7A03FB00F0FFF7EFFE08BD30C1FF1FC4
:400E000070B504460E46074B1D681F2802D90020FFF7D4FF04F01F04103455F8240045F8246070BD08ED00E038B504460D46072902D90020FFF7C2FF1F2C02D90020FFF7D6
:400E4000BDFF04F01F0000F1604000F564406D01EDB2057038BD00BF7222074B1A702022013B1A7006225E3B1A70472210331A70012244331A7070478E64004010B5FFF782
:400E8000B3FE04460A4A137843F020031370013A137843F0100313700A3A137843F01003137000F04BF82046FFF7A2FE10BD00BF9E64004008B5054B1B7823B9FFF7CCFF1E
:400EC0000122024B1A70FFF7D9FF08BD58C3FF1F084B1B78DBB213F0200F06D0064A1078C0B213F01E0F02D17047002070470020704700BF6D6400404D640040034B1B785D
:400F000013F0040FFAD1024B18707047636400404C640040084B1B7833B97047305DFFF7EDFF0134E4B203E070B50D4606460024AC42F3D370BD00BF58C3FF1F054A13780C
:400F400043F0200313701032137843F020031370704700BFA2430040704700BF014B1B681866704708ED00E04001C0B2014B1870704700BF08E400E04FF48072014B1A6044
:400F8000704700BF00E100E04FF48072014B1A60704700BF80E100E008B5FFF7F5FF0448FFF7DCFF0720FFF7DFFFFFF7E5FF08BD590F000008B5FFF78BFFFFF7CBF908BDC6
:400FC000014B1B685865704708ED00E04001C0B2014B1870704700BF05E400E02022014B1A60704700E100E02022014B1A60704780E100E008B5FFF7F7FF0448FFF7E0FFC9
:401000000720FFF7E3FFFFF7E9FF08BDB50F0000044A137803F0FE0300F0010018431070704700BF40510040044A137803F0FB03800000F00400184310707047C051004049
:40104000044A137803F0FD03400000F0020018431070704740510040044A137803F0F703C00000F00800184310707047C0510040024A137843F080031370704779650040C9
:40108000014B1880704700BF146A0040014B1880704700BF946A0040014B1880704700BF546A0040014B1880704700BF746A0040014B1870704700BF8A650040014B18785B
:4010C000704700BF6A650040014B188880B27047B46A004008B501E0FFF7F6FFFFF7EEFF10F0100FF8D108BD10B5174A137803F0C00343F009031370144C237843F00103C4
:4011000023702232137843F00103137044F62060FFF7B6FF44F62060FFF7B8FF40F24C40FFF7BAFF3F20FFF7BDFF0020FFF7C0FFFFF75AFD237843F010032370FFF758FD58
:40114000FFF7C8FF10BD00BF796500409A65004008B5054B1B7823B9FFF7C6FF0122024B1A70FFF785FF08BD5AC3FF1F084A137843F0010313701032137843F00103137000
:4011800002F64D32137843F001031370704700BFA3430040014B1870704700BF034F0040014B1880704700BF044F0040014B1880704700BF064F004008B5164A137803F084
:4011C000010313700232137803F0FC031370124B1A7802F0CF021A701A7842F030021A701A7802F0F0021A701A7842F00F021A700A4A137843F00103137045F6BF50FFF740
:40120000CFFF45F6BF50FFF7D1FF0820FFF7C2FF08BD00BF004F00400B4F0040014F004008B5054B1B7823B9FFF7C6FF0122024B1A70FFF79BFF08BD5BC3FF1F154B1A88F0
:40124000013292B21A80144B1988013189B219800120124B18801248038801339BB20380B1F57A7F05D901200E49088000200A490880052A05D901210B4A11700021054A6B
:401280001180642B05D90022054B1A800122074B1A80704710EAFF1F0EEAFF1F14EAFF1F12EAFF1F0AEAFF1F16EAFF1F0CEAFF1F014B1B689865704708ED00E04001C0B2AB
:4012C000014B1870704700BF06E400E04022014B1A60704700E100E04022014B1A60704780E100E008B5FFF7F7FF0448FFF7E0FF0720FFF7E3FFFFF7E9FF08BD3D1200005F
:401300007222084B1A702022F93B1A700622693B1A70472210331A70002203F255131A70704700BF8465004010B5FFF75DFC04460A4A137843F020031370F93A137843F001
:4013400010031370FC32137843F01003137000F0BDF82046FFF74CFC10BD00BF9465004008B5054B1B7823B9FFF7CAFF0122024B1A70FFF7D9FF08BD5CC3FF1F084B1B785C
:40138000DBB213F0200F06D0064A1078C0B213F01E0F02D17047002070470020704700BF6B6400404765004038B5324C2578FFF7E5FF25442871237813B92279552A57D19F
:4013C0000133DBB22B4A13700B2B51D1134600221A701B79552B4BD1264B5B79522B1AD0532B2FD0512B43D1224BD8799979224A41EA00211180587A197A41EA0021518053
:40140000D87A997A41EA00219180597B1B7B43EA0123538238BD174BD8799979164A41EA0021D180587A197A41EA00211181D87A997A41EA00215181597B1B7B43EA012322
:40144000538238BD0B4BD87999790B4A41EA00219181587A197A41EA0021D181D87A997A41EA00211182597B1B7B43EA0123538238BD00BF60C3FF1FB0C3FF1F014B1B680A
:401480001865704708ED00E04001C0B2014B1870704700BF04E400E01022014B1A60704700E100E01022014B1A60704780E100E008B5FFF7F7FF0448FFF7E0FF0720FFF717
:4014C000E3FFFFF7E9FF08BDA9130000054A137843F0080313701032137843F008031370704700BFA2430040024A137843F080031370704775640040014B1880704700BFAD
:40150000086A0040014B1880704700BF886A0040014B1880704700BF486A0040014B1880704700BF686A0040014B1870704700BF85650040014B1878704700BF65650040E5
:40154000014B188880B27047A86A004008B501E0FFF7F6FFFFF7EEFF10F0100FF8D108BD10B5184A137803F0C00343F00903137002F21F12137843F001031370124C23789E
:4015800043F00103237040F2BF30FFF7B5FF40F2BF30FFF7B7FF4FF4C870FFF7B9FF4FF4C870FFF7BBFF0020FFF7BEFFFFF71CFB237843F010032370FFF71AFBFFF7C6FF5B
:4015C00010BD00BF756400409565004008B5054B1B7823B9FFF7C4FF0122024B1A70FFF783FF08BD70C3FF1F024A137843F080031370704776650040014B1880704700BF13
:401600000C680040014B1880704700BF8C680040014B1880704700BF4C680040014B1880704700BF6C680040014B1870704700BF85640040014B1878704700BF65640040DE
:40164000014B188880B27047AC68004008B501E0FFF7F6FFFFF7EEFF10F0100FF8D108BD08B5184A137803F0C00343F009031370E03A137843F0010313700132137843F0B6
:401680000103137040F2BF30FFF7B6FF40F2BF30FFF7B8FF4FF4C870FFF7BAFF4FF4C870FFF7BCFF0020FFF7BFFFFFF79DFA064A137843F010031370FFF79AFAFFF7C6FF69
:4016C00008BD00BF766500409564004008B5054B1B7823B9FFF7C4FF0122024B1A70FFF783FF08BD71C3FF1F024A137843F080031370704778650040014B1880704700BF16
:4017000014680040014B1880704700BF94680040014B1880704700BF54680040014B1880704700BF74680040014B1870704700BF8B650040014B1878704700BF6B650040AF
:40174000014B188880B27047B468004008B501E0FFF7F6FFFFF7EEFF10F0100FF8D108BD08B5174A137803F0C00343F009031370DE3A137843F0010313700132137843F0B0
:401780000103137040F2BF30FFF7B6FF40F2BF30FFF7B8FF0020FFF7BBFF0020FFF7BEFF0020FFF7C1FFFFF71FFA064A137843F010031370FFF71CFAFFF7C8FF08BD00BF8F
:4017C000786500409B65004008B5054B1B7823B9FFF7C6FF0122024B1A70FFF785FF08BD72C3FF1F10B5022001214FF4804241F6FF7300F055F9084C20700620012141F671
:40180000FF72134600F06CF96070044800F086F9002000F089F910BD74C3FF1F3919000070B52C4C2078FFF71DFA6078FFF71AFA294B1B78FF2B03D1FFF784FA264B187062
:40184000254D2A78104606210B46FFF795FA214E341DA4B2287845F6A0312246FFF7A0FA30782978FFF73EFA6B78FF2B02D1FFF769FA6870184D6A78104606210723FFF7DB
:401880007BFA68782146154A92B2FFF789FA114C60786978FFF726FA20780121FFF7C6F960780121FFF7C2F9FFF79EF90C4A137843F020031370FFF79BF90A4B1A7842F020
:4018C00001021A701A7842F002021A700122064B1A6070BD74C3FF1F40C1FF1F18EAFF1F916400407664004080E200E008B5074BDB6823B9FFF776FF0122044BDA60FFF78E
:401900008FFF00F0B7F8024B1B7808BD74C3FF1F6264004008B500F0BBF808BDC0F10200034B33F81030034A1088181A00B2704718EAFF1F22EAFF1F704700BF08B50A28BA
:401940000FD00C2802D0082806D102E04FF4805209E04FF4807206E00020FFF72FFA002201E04FF480620021094B198042F2107303FB02F303F6C413064A82FB0302DB17CD
:40198000C3EBE223044A1360044B198008BD00BF20EAFF1FAD8BDB6824EAFF1F22EAFF1F10B5FFF721F90446184A137843F0010313701032137843F00103137002F5AA520E
:4019C0000832137843F0030313701822104B1A70013B1A7842F040021A701A7802F0FC021A70C822053B1A700222A3F597530C3B1A70084A137843F0080313700A20FFF786
:401A0000F5F92046FFF7F4F810BD00BFAB43004006590040275B004010B504460A280DD00C2802D0082804D101E0C22207E0422205E00020FFF7C2F9C22200E08222034BB0
:401A40001A702046FFF77AFF10BD00BF0259004008B5064A137843F0060313700C20FFF7DBFF0022024B1A8008BD00BF0159004028EAFF1F08B5054B1B7823B9FFF7E8FFDD
:401A80000122024B1A70FFF78BFF08BD84C3FF1F024A137843F001031370704700590040F0B583B086460F4616461D460B4C01232370002200920192184671463A46FFF709
:401AC0001DF9207831462A46FFF7F2F820780221FFF7DCF8207803B0F0BD00BF42C1FF1FF0B583B086460F4616461D460A4C0023237000930193184671463A46FFF7FEF8A8
:401B0000207831462A46FFF7D3F820780221FFF7BDF8207803B0F0BD43C1FF1F014B1B681864704708ED00E04001C0B2014B1870704700BF00E400E008B501201049FFF720
:401B40005FF901200721FFF76FF900220D4B1A7072220D4B1A70202202331A7002200B49FFF74EF902200721FFF75EF90622084B1A70472210331A700222B53B1A7008BD03
:401B8000191D000085C3FF1F88640040AD1D00002965004010B5FFF727F804460D4A137843F0200313700232137843F010031370094A0223136009490B7843F010030B70DD
:401BC000042307490B60136000F04AF92046FFF70FF810BD9864004000E100E09464004080E200E008B5054B5B7823B9FFF7A4FF0122024B5A70FFF7CDFF08BD85C3FF1F3A
:401C00000222194B1A60194A9378DBB2D178C9B2127912F0FF0F01D18B4211D0144AD05CC0B20133DBB2042B00D900230F4A9370137913F0FF0F13D000220C4B1A710FE011
:401C40000C4B1B78DBB213F0200F06D00A4A1078C0B213F01E0F02D102E0002000E000200222064B1A60704780E100E085C3FF1F34EAFF1F6A6400404865004000E100E04D
:401C8000164BD9799B79DBB2994205D25A1E914214BF0022012204E0CA1A042A14BF00220122002AECD18B4207D10D4B1B7813F0040F02D10B4B18707047042900D9002191
:401CC000094B58540131054BD971054B1B7813F0020F02D00422054B1A60704785C3FF1F64640040446400402CEAFF1F00E200E0084B5B7833B97047305DFFF7C1FF01341B
:401D0000E4B203E070B50D4606460024AC42F3D370BD00BF85C3FF1F1C4B1B78DBB213F01E0F05D01A4803F01E0201780A43027003F0200303F0FF022BB3164B1978C9B2AE
:401D4000154B1B78DBB21548C154154B1B7813F0FF0F02D00121134B19700F490B780133DBB20B700B78DBB2042B02D900210A4B1970094B1B780C490978DBB28B4202D178
:401D80000121074B1970002AC6D170476A64004085C3FF1F4865004088C3FF1F34EAFF1F89C3FF1F8AC3FF1F87C3FF1F13E0104B1B78DBB2042B02D900220D4B1A700C4A99
:401DC0001378DBB20B49CB5CDBB20B490B7013780133DBB21370064B1B78DBB2074A1278934204D0064B1B7813F0040FDFD070478BC3FF1F2CEAFF1F446400408CC3FF1FDB
:401E00006464004008B5FFF7FBFEFEF77DFC08BD014B1B68D864704708ED00E04001C0B2014B1870704700BF03E400E00822014B1A60704700E100E00822014B1A60704751
:401E400080E100E008B5FFF7F7FF0448FFF7E0FF0720FFF7E3FFFFF7E9FF08BD051E0000054A137843F0100313701032137843F010031370704700BFA2430040044A1378E5
:401E800003F0F703C00000F00800184310707047605100400E4B70B51E460E4C0025E41AA410A54204D056F8253098470135F8E700F04EF8084B094C1E46E41AA41000257C
:401EC000A54204D056F8253098470135F8E770BD5C1F00005C1F00005C1F0000641F000010B5431E0A44914204D011F8014B03F8014FF8E710BD03460244934202D003F8D7
:401F0000011BFAE77047000000000000004F00400C0020510040100000000140001000140140000480180140800300400140000A004C014000021050014010000018014067
:401F4000D80F0048800000500140581000481000F8B500BFF8BC08BC9E4670474D00000025080000F8B500BFF8BC08BC9E46704729000000881F000008C1FF1F40000000F2
:401F8000F82800000000000000000000A5200000A5520000A5820500000000002200000001020304050000007F800000030000000000E02EC05D00001800000000366E01FE
:401FC000FFFFFFFF000000000000000000000000000000000000000000000000000000000000000000000000000000000000000000000000000000000000000000000000E5
:4020000000000000000000000000000000000000000000000000000000000000000000000000000000000000000000000000000000000000000000000000000000000000A0
:402040000000000000000000000000000000000000000000000000000000000000000000000000000000000000000000000000000000000000000000000000000000000060
:402080000000000000000000000000000000000000000000000000000000000000000000000000000000000000000000000000000000000000000000000000000000000020
:4020C00000000000000000000000000000000000000000000000000000000000000000000000000000000000000000000000000000000000000000000000000000000000E0
:020000040001F9
:0200000480007A
:40000000024F00400D520040015B00400964004005650040390001403A0101405D020140520301403B040140410501405D06014051070140380801405B090140640A014058
:400040004F0B0140560C0140510D0140440E01402F0F01405E140140431501404B1601405217014016180140501901405C1A0140441B0140104001401141014010420140D2
:400080000343014004440140044501400A460140094701400E4801400F490140064C01400E4D0140035001400451014001800A4B0001010208C009C01820283029303080F7
:4000C000344060C061C078017C2227848102830F840F850F88728A388B388D388E728472850F870F8A0F8B0F030807010F0223042F0431023301350837043F405804590421
:400100005C115F0180808148824084208610871188018B408E018F0490409280930894109540962099509A029C049D42A204A320A408A544AA08AB02AC02AD40B301B53ED0
:40014000B6FFB740B920BE40BF10D602D735D804D904DB0CDC10DD10DF0101010314040A0580070A0A400E460F94120813061507160117101F8020022101220823142510EC
:400180002640271429402A022D202E442F8035803609371038883A013C803D255E2067086C456D046E0274407520760177087F0287048A408C018E10C0FEC2F8C4FECAF98B
:4001C000CCF0CEFBD620D820DE10E002E220021C0510090C0B110C610E16105C11101203130C1461160E19141F03211C230226232A082D092F10300F321A3460371F3820FD
:4002000039083A0A3E103F044002470449FF4A074BFF4C404D204EF04F0550085401580459045A045B0C5C335D135F01604061A8624063208093820C8E08900A9294949337
:4002400096049840A420A685A803AA84B00FB240B480B630B880BA02BE14C012C103C50BC7ECC831C9FFCAFFCBFFCEF0CF44D00CD401D604D804D904DA04DB04DC13DD5355
:40028000DF01E6C0EA40EB0201820482060209080A440B800D080E4010081210132016581702188219861B101C201D281E4026842A402B402D802F4033143440350236A0A9
:4002C00039013B143C203E0841084202432045204A20500853015618572059045A905B015C805F4062017F028080834084018B108E1091019220931497089B1C9D409F0241
:40030000A001A610A742AA02AD01B710C099C23EC466CA99CCB6CE67D02ED61FD801DE10E004E201E408E602EC02EE04050A075409030B440C011308140815201745195384
:400340001B0C1D80220226012A0C2D532F0430023130320433803408350F3601374039023B203F444062410545E046C0470B481A49FF4AFF4BFF4EF04F44500C5401560444
:40038000580459045A045B045C405D445F0166C06A406B02D280D407D804D904DB04DC11DF0100400420051007100A100F9412541404170619A01A502008226529402D010A
:4003C000308832213716382039043F94411048844941501459115A885DAA62027640802082048304850486028C04910192209312974898409B3C9F02A204A310A610A74267
:40040000B140B204B301B641C021C274C47ECA88CCEFCE76D004D20CD6FFD801E001E208E603EE4000010E04140117011E0220082802300832013606370138083E054030FA
:40044000410449FF4AFF4BFF4DA04F04501852035302580459045A045B045C195D105F01604062C06440654066C068C06AC06CC06EC0800F810182F088828B048C4192F307
:40048000940C98049C08A01CA2E3A4FFA704A8F3AA0CACC3AF03B00FB102B21CB304B4C0B501B62CBA82BF04C030C105C5D0C612C705C81EC9FFCAFFCBFFCDAFCE0FCF04FD
:4004C000D018D804D90CDA04DC13DF01E040E2C0E440E540E6C0E8C0EAC0ECC0EEC0002003810602074008020A150E221104128A14401520180219051B901C801D401E02C7
:400500001F0421152220270229442A082C202D01371A382039023F9441084508464049024B805080525453406D406E206F0279408202831085048A048F4091019260931261
:400540009440974C98C09B3C9D0A9E149F02A020A610A742A880AB10AC08AD50B004B101B201B620C09BC2AFC45FCACACCE0CE75D0C2D208DE08E008E401E604EA02EE085C
:4005800002F30301040C0508081C09390AE30B440C410F80111014F31518160C180F197F1AF01CC31F802082210124042539274228FF29672B182C082F06301C3140320FD5
:4005C000331F342C358036C0372039023A283B083F5056025713580459045B045C445D405F01D608D804D904DB04DC11DD90DF0100C0012004120508060208150D480E0421
:400600001080122013081480160117141D091E041F4824152740281029202A202E062F093085322033203518375238403A203C123D803E084C014E0158405C016280650254
:4006400067806C106D106F017508760977068281864088848B049125921293029424951896419728981499909A329C029D429E409F09A0C5A110A210A305A420A520A6011F
:40068000A720A901AC20AE04B222B302B520C0F3C2EEC4FCCAF2CCFFCEFCD688D808E080E210E834EC80015C03030414070808200A030C1C0E0214101561160C170E180C65
:4006C0001A111B2320092210231C241029612B163020310F321F331A356039203A203B0A3E013F104052410449FF4AFF4BFF4DA04F04501854185604580459045A045B0419
:400700005C445D405F01604062C06440654066C068C06AC06CC06EC0883F8C209402960598149A0AA83FAC09AE52B020B207B418B640C052C104C5D5C721C833C9FFCAFF7F
:40074000CBFFCDAFCE0FCF04D018D418D604D804D904DA04DB04DC14DD30DF01E040E2C0E440E540E6C0E8C0EAC0ECC0EEC00040022003080420070108080A0A0B020E1835
:40078000104013061510160219111B081C0A1E181F01204021112204284829202C802E202F203020320434103720390A3B043CA03D0841204302452149404B404D054F404B
:4007C0005501570759025E0260866640678880808320850187408E2096419720980499809A109C109F08A0D0A114A210B020B320B740C0C7C266C4CCCAE5CC26CE73D0A52A
:40080000D218D681D8BDE010EA90EE200103031419731B0C1F35214A2314257327042F0831103360350F39083BA03F054035410245CE46B0480B49FF4AFF4BFF4EF04F4474
:40084000500C580459045A045C515D055F0166C06A406B02810A82018354853F8601893F8D019524975299109BA8B1C0B306B538B601B701BE40BF01C025C101C206C404CA
:40088000C5C0C6E0C80AC9FFCAFFCBFFCC62CDA0CEF0CF41D00CD418D604D804D904DA04DB04DC51DD55DF01E640E702E910EA30EB10ED10EE10EF1200A8010A06A007089F
:4008C000081609040C900D0410801308140219402042212825C0261027542E492F10312C3580369039563F024044418046084704480549024C604D804F02532055105A02F3
:40090000600861406340808084088740885089048A808C409004915692029508980299089A309C109D049F18A040A104A280A491A560A910AC02B004B121B504B620C07F2C
:40094000C2EEC48CCAD0CC36CE8FD06DD21CD601D80DE201E480E610EC40010802830404050C09040A040CDC0E220FE3105C12A114E715E31618170C19C31CFF1D0F1FE0DD
:40098000201021EF24082582281829412B102D0C2FE3304031C0329833103420350F361F372C38203A803BA03E0156025713580459045B045C555D505F01C002C640C9FFE2
:4009C000CA07CBFFCC40CD20CEF0CF05D008D804D904DA04DC11DD05DF01E040E1A8E240E320000A018002480620084409400AA00C900D04102011011312140217091999AF
:400A000020042259284029A42C902E2030043120324034023708382839013A403CA047104E805610590169547034731284408701C02FC2EDC4BECAEFCCCECE3FD020D6011E
:400A400001020305053F06050D20110913521514160E170A193F22082A02300131073208331834023540360437203E044040410249FF4AFF4BFF4DA04F04501856025713E0
:400A8000580459045A045B045C305D305F01604062C06440654066C068C06AC06CC06EC0830C87039102920E99089E08A602AA04AE01B008B102B201B308B402B504B604D0
:400AC000B701BE10C040C103C5D0C620C751C83AC9FFCAFFCBFFCDAFCE0FCF04D018D407D804D904DA04DB04DF01E040E2C0E440E540E6C0E8C0EAC0ECC0EEC002100908F7
:400B00000E400F021080120416281740184219281D081E081F8120202181222A261027A2321833013610370239463E083F0242C0432046A04F01562857215A025E085FA112
:400B400069446A207008711072158001812087808F019242944096159A149B419D18A080A418A588A622AE61AF01B310C004C294C4EACCA7CECBD0C5D6F1E220E40DE69087
:400B8000EC2004010C011201140118012001260130015280580459045B045C115F01815C8321857F89108A018D5C8E018F2291049208951896049B049C109F03A167A318AE
:400BC000A608A908AE02B003B140B210B408B520B604B71FB920BB88BE15BF01C051C103C202C404C6CEC80CC9FFCAFFCBFFCC62CDA0CEF0CF41D00CD401D804D904DA04DB
:400C0000DB04DC31DD33DF01E640E702E910EA30EB10ED10EE10EF120020030107120A200B820F94120213081501170419041A081B421E8021442281230829112D013008BB
:400C400031803220330137163802398C3A203F9440024184420843024B4050105340588159045B20640165016742774087048840900291019260931294609504961D9704EB
:400C8000988099019A1C9B369C029D089F01A0C0A410A508A682A740A901AA08AE20AF40B302C0A3C27DC435CA85CCEFCE7FD00FD208D60FE202E440E624E880C002C704E3
:400CC000C9FFCA07CBFFCC40CD20CEF0CF05D008D280D804D904DA04DB04DC11DD24DF01E040E1A8E240E32000C0012002080599068008150B800C400E6110801308170195
:400D00001C101D101E411F102604274428042B202E502F103090320834403612370538403A203C083D203E0241104508468047504D084E01502051045540734074028001BB
:400D400084408C128D208E048F0291259212950896419720981499A19A029B189C039D40A0C4A118A212A325A420A560B040B232B540B610C0F3C2BEC41CCA76CCFECEEC43
:400D8000D0F4D210E440E8A00303060E1108120415021B0C1E0226082E01300431043202330134013508360837023E044020410449FF4AFF4BFF4DA04F0450185407580402
:400DC00059045A045B045C225D225F01604062C06440654066C068C06AC06CC06EC087038E0E9102920199089A089E02A604A70CB004B102B208B308B402B504B601B70159
:400E0000BC80BD0ABE10C060C104C5D5C602C710C827C9FFCAFFCBFFCDAFCE0FCF04D018D407D804D904DA04DB04DD02DF05E040E2C0E440E540E6C0E8C0EAC0ECC0EEC0F4
:400E40000004054009410C020F0A102013401504188619041A081C201D401E88210822522440262027222D04302031083202362037023A013F084004428046804C204D02EA
:400E80004E045541568159065AA05C405D015E085F207F0288108A408C409105934094029D40A002A307B220B340C084C2D9C425CA40CCA7CE41D085D220D6FFDE10E04021
:400EC000E220E40DE690ECA01040168033413520360138013B803E8052206E0275208A20C430CCF0CE70D42032203301368856045A208001834086209401978098409D201F
:400F00009F41CCF0D4C0E280E6C012805908812887419620978098409D209E049F01A680B608C410D640E250E6A0962098409E0408105D08C202D60180409D08B010EA0490
:400F4000050218802410501094809D08C004C608C801D40444018C1090109D08A810B102D004E208EA01078020802520561082108A108D2096209E04B040C020C860D44009
:400F8000E620531058025E018A018B108E0498029E04AC02AF80B040D420D6C0E840EE4066028D089C019D08D801E0025B0264207C408020830286028C409E02B001D60235
:400FC000D801DE04E002EC04103F1A0B1C3700FF01EF0203100A00000000802000008020281413004000090000101600288015030010000C161C290200000200000C001139
:40100000000000400009001060608080071F1B000200A0000000040535020400010C0E0005FFFFFF62A0F0410C0080000000000004040404550400010000000000004002E8
:401040000010301000101012000000000000000000000000000000003B010000000000002A001B011B012200000303000300000000CCCC00C000000019002219190011004F
:401080000000000000C0C000C00000000400002424002410100000000003030000040400F00000F0F000F00000000000800040888800800000000000000100000000000041
:4010C00000000000000000000000000000000000000000000000000000000000000000000000000000000000000000000000000000000000000000000000000000000000F0
:4011000000000000000000000000000000000000000000000000000000000000000000000000000000000000000000000000000000000000000000000000000000000000AF
:40114000000000000000000000000000000000000000000000000000000000000000000000000000000000000000000000000000000000000000000000000000000000006F
:40118000000000000000000000000000000000000000000000000000000000000000000000000000000000000000000000000000000000000000000000000000000000002F
:0200000490006A
:0400000000004005B7
:0200000490105A
:04000000BC90ACAF55
:0200000490303A
:02000000971B4C
:0200000490402A
:4000000000000000000000000000000000000000000000000000000000000000000000000000000000000000000000000000000000000000000000000000000000000000C0
:400040000000000000000000000000000000000000000000000000000000000000000000000000000000000000000000000000000000000000000000000000000000000080
:0200000490501A
:0C00000000012E13306900012E24C7847B
:00000001FF