:400000000040002011000000490B0000490B000008B5044B1A6803F53F5302331A6000F095FD00BFFA46004010B5054C237833B9044B13B10448AFF300800123237010BD7D
:4000400028C1FF1F00000000DC2C0000084B10B51BB108480849AFF300800848036803B910BD074B002BFBD0BDE81040184700BF00000000DC2C00002CC1FF1F08C1FF1F31
:400080000000000008B501F0A3F801F0F3FA01F03BF901F00BF901F095FB01F0AFF901F0E1F901F0E7FB01F019FC01F061FC01F093FC01F02FFA01F09FFA01F001FF02F0EC
:4000C00029F801F057FF01F0AFFF00F001FD62B64FF4FA7001F02CF800F026FD00F012FC002001F085FE002001F0ACFF012001F02BFE2B4B1B78012B0FD10022284B1A7061
:40010000284B9B7F012B05D11346264A9377264A137002E00122244B1A70244B1B78012B04D100F03DFA0022204B1A70204B1B88012B21D1002000F0D1FC1E4B18800220FF
:4001400000F0CCFC1C4B1880012001F051FEC82001F004F8002001F04BFEC82000F0FEFF012001F06FFFC82000F0F8FF002001F069FF00220E4B1A80104B1B88012BB8D1D3
:40018000094B1B7813B900F06BFC04E00822054B5A7000F02DFC0022084B1A80A9E700BFEAE9FF1F60C3FF1FACC3FF1FF8E9FF1FECE9FF1FAEC3FF1F88C3FF1FF2E9FF1FF4
:4001C00008B501F035F808BD08B50D4BAA221A705A70EF229A700222DA701871597100231A4605E00649C95C0A44D2B20133DBB2052BF7D9024882710721FFF7E1FF08BDDF
:40020000B0C3FF1F38B500231C4604E0C25C2244D4B20133DBB24A1E9342F7DB835CA34240F090800378AA2B40F08C804378AF2B40F088808378012B02D10179424A11701F
:40024000022B02D10179404A5170032B0CD10279437943EA02233C4A938044F62062934202D90022384B9A8005468378042B3BD10379C3F16403DBB2632B00D9642303EBE0
:40028000830303EB83039A0090B201F0CBFA6B79C3F16403DBB2632B00D9642303EB830303EB83039A0090B201F0C2FAAB79C3F16403DBB2632B00D9642303EB830303EBAB
:4002C00083039A0090B201F02BFBEB79C3F16403DBB2632B00D9642303EB830303EB83039A0090B201F022FBAB78052B02D12A79154B9A70AB78062B09D12B79012B03D1B4
:40030000012001F015FF02E0002001F011FFAB78092B05D12B79632B02D101220A4B9A77A878132802D12146FFF74EFFA878142802D12146FFF748FFA878152802D1214697
:40034000FFF742FF38BD00BF60C3FF1F10B5294B1B7833B9AA2804D1264B01221A70187110BD012B06D1AF2804D1224B02221A70587110BD022B06D1F02804D81D4B032299
:400380001A70987110BD032B0BD1312809D8194B04221A70D87183F83600002283F8372010BD042B13D1134A92F836207AB1013AD2B2104981F8362091F837305C1C81F887
:4003C00037400B441872A2B905220A7010BD052B0CD1084B00221A7093F837105A1810720531181DC9B2FFF70DFF10BD0022014B1A7010BD44C1FF1F30B583B0124DAA2430
:400400002C706C700124AC70002428716971110AA971EA71ADF806301A0A2A726B720623EB702346224605E00749C95C0A44D2B20133DBB2092BF7D9034882720B21FFF7BD
:40044000BFFE03B030BD00BFB0C3FF1FF0B583B0089F099E2A4DAA242C706C700224AC7000244FEA106E85F804E0C0F3074E85F805E0C0F3072E85F806E0E871080E2872B0
:40048000C1F307406872C1F30720A872E972110E2973C2F307416973C2F30721A973EA731A0E2A74C3F307426A74C3F30722AA74EB743B0E2B75C7F307436B75C7F307237D
:4004C000AB75EF750196330E2B76C6F307436B76C6F30723AB76EE761823EB702346224605E00749C95C0A44D2B20133DBB21B2BF7D9034802771D21FFF762FE03B0F0BD91
:40050000B0C3FF1F10B582B0ADF80600ADF804100F4BAA221A705A7003229A700022040A1C715871080A9871D9710421D970134605E00749C95C0A44D2B20133DBB2072B55
:40054000F7D9034802720921FFF73AFE02B010BDB0C3FF1F10B582B0104BAA221A705A7005229A700022040A1C715871ADF80610080A9871D9710421D970134605E007493F
:40058000C95C0A44D2B20133DBB2072BF7D9034802720921FFF714FE02B010BDB0C3FF1F2DE9F04182B06E4B93F838206D4BA3FB02139B0803EB8303D31ADBB2042B02D16D
:4005C0000121694B9970694BA3FB0213DB0803EB830103EB4103D31ADBB20A2B02D10121614B5970624BA3FB02139B0803EB430103EB8103D31ADBB20C2B02D101215A4B23
:400600005972584BA3FB02131B0903EB83039B00D31ADBB2132B02D10121534BD972554BA3FB02131B09322101FB1323DBB2312B02D101214C4B19730132494B83F8382039
:40064000494B1B781BB10022474B1A7084E0464B5B7853B10020444B5870474B59789A88464B1B88FFF7C8FE76E03F4B9B78002B5AD000243C4B9C70414EB6F90C0001F057
:40068000B5FE00224FF07C5301F016FF00223D4B01F012FF02F022F98046314DE863B6F90E0001F0A3FE00224FF07C5301F004FF0022344B01F000FF02F010F90746286431
:4006C000B6F9100001F092FE00224FF07C5301F0F3FE00222B4B01F0EFFE02F0FFF8064668644046284902F049F980463846264902F044F905463046234902F03FF9074680
:40070000404602F08BFA0646284602F087FA0546384602F083FA024600940194304629462346FFF793FE17E00F4B5B7A43B100220D4B5A72104B188C598CFFF7E3FE0BE00B
:40074000094B1B7B43B10022074B1A730F4B18880F4B1988FFF7FEFE02B0BDE8F08100BF44C1FF1FCDCCCCCCE4C3FF1FA38B2EBA4FECC44E1F85EB5160C3FF1F88C3FF1F26
:400780008CC3FF1F0080664000007A44AEC3FF1FA4C3FF1F10B50C460346B8B9022915D001F0DEFA204601F0F3FA194B1B7833B9012001F0E1FA0122154B1A7010BD00201C
:4007C00001F0DAFA0022124B1A7010BD012B18D1022C16D0002001F0E7FA204601F0FCFA0B4B1B7833B9012001F0EAFA0122084B1A7010BD002001F0E3FA0022044B1A7075
:4008000010BD012001F0ACFA012001F0CDFA10BD8CC1FF1F10B50C4600F0C8FD34B9012000F080FD002000F089FD10BD012C06D1002000F077FD012000F080FD10BD002075
:4008400000F070FD002000F079FD10BD10B50C4600F0ACFD34B9012000F064FD002000F06DFD10BD012C06D1002000F05BFD012000F064FD10BD002000F054FD002000F056
:400880005DFD10BD10B50C4600F096FD34B9012000F060FD002000F069FD10BD012C06D1002000F057FD012000F060FD10BD002000F050FD002000F059FD10BD10B5044697
:4008C0000021FFF7A7FF20460021FFF7BFFF20460021FFF7D7FF20460021FFF7D3FF10BD10B504460121FFF795FF20460121FFF7ADFF20460121FFF7C5FF20460121FFF7EC
:40090000C1FF10BD08B50D4B0822DA7043F2B06199805A709A70012001F022FA002001F037FA002001F028FA012001F03DFA002001F052FA002001F043FA08BD60C3FF1FD1
:4009400084B008B50DF1080E8EE80F009DF80A3023B900200146FFF71DFF1CE0012B04D100200121FFF716FF15E0022B04D101200021FFF70FFF0EE0032B04D101200146E9
:40098000FFF708FF07E000200221FFF703FF01200221FFF7FFFEBDE8084004B0704700BF38B50446450828460021FFF733FF28460021FFF74BFF20460121FFF763FF20467A
:4009C0000121FFF75FFF38BD10B504460121FFF721FF20460121FFF739FF640820460021FFF750FF20460021FFF74CFF10BD00BF08B500200221FFF70DFF00200221FFF7C8
:400A000025FF00200221FFF73DFF00200221FFF739FF08BD84B010B502AC84E80F009DF809401CB9BDF80C00FFF748FF012C03D1BDF80C00FFF754FF022C03D1BDF80C0046
:400A4000FFF7AEFF032C03D1BDF80C00FFF7BCFF082C01D1FFF7CCFFBDE8104004B070472DE9F04186B0194DD5F80080D5F804C0D5F808E0EF686E462C4654F8100F616810
:400A8000A268E3680FC620693060A38AB3804046614672463B46FFF7BDFFD5F800C0D5F804E0AF68EE686D4620686168A268E3680FC520692860A38AAB80604671463A465D
:400AC0003346FFF73DFF06B0BDE8F08160C3FF1F08B501F013F801F025F808BD38B50546002407E0284601F021F80D4B23F814000134E4B2632CF5D90022134605E0084997
:400B000031F913100A440133DBB2632BF7D9054880FB0230D217C2EB601000B238BD00BF90C1FF1F1F85EB510222044B1A705422034B1A700522034B1A707047E9E9FF1F55
:400B400010EAFF1F20E0FF1FFEE700BF08B5104E104D16E029686B68AC68002204E051F8040B43F8040B0432A242F8D1E868002203E0002143F8041B04328242F9D1103551
:400B8000013E002EE6D102F06FF8FFF77BFAFEE7010000003C2D000008B5134A134B1A60134A136843F40073136000230AE0032B03D8104A52F8231000E00F490F4A42F85F
:400BC000231001332F2BF2D90D4B1A780D4B1A700A4A0D4B1A6000F0E7F800F0C5F900220A4B1A6008BD00BF0004FA050CED00E014ED00E000000000490B000000C0FF1F96
:400C0000BC76004004C1FF1F08ED00E000C1FF1FF0B40022174611E050F82760F3B226F0FF0608E001EB420511F812406D78A5550132013BDBB2002BF4D10137292FEBD973
:400C4000F0BC704770B4174B1B78DBB216480278D2B2164C2178C9B203F00706144D2E701B0901352B7042F00303037041F00303237044250F4B1D70042640331E70402352
:400C80000D4E33700236337006F21D26337020260A4B1E7021700270A3F2AD231D7070BC704700BFCF010049F8460040F94600406E5800400D51004001590040235B0040AB
:400CC00008B50A46002102F000F808BD38B50E222A4B1A8018232A4A1370172102321180023213701925023215800232137002321580023213700222224B1A7008224FF043
:400D000040231A70042203F500731A701E4B1B78DBB21E4A137001221D4B1A804FF4716203F21E231A8041F25122023B1A8000240CE0184B1B7803F0010343EA440404F049
:400D400003044FF4F07000F0FFF8013D0DB1032CEFD10F4B07221A7000210F4A117048210232117001221A700222033B1A700B4A137843F00F03137038BD00BF80400040DC
:400D8000824000400043004089010049A1460040044000402542004006400040A243004008B501F087FF08BD70B572B6484A137843F00403137000240CE0464963001A1989
:400DC00052000A4423445B00C8589188FFF778FF0134E4B2052CF0D900240FE03D49A3001A1952000A4452F8240F23445B000B4451689A8DFFF7D4FF0134E4B2012CEDD922
:400E00004FF090403449FFF703FF34480421FFF757FF334833490422FFF7C2FF324A137843F0020313701032137843F0020313702E4C237843F040032370A2F58632513A2B
:400E4000137843F01003137029482A490A22FFF7A7FF294829490822FFF7A2FF284829490822FFF79DFF284828490822FFF798FF274828490A22FFF793FF274827490A22F9
:400E8000FFF78EFF264827490A22FFF789FF264826490A22FFF784FF254826490A22FFF77FFF254A137843F008031370234E01253570FFF70BFF81233370214B1D70FFF7FC
:400EC000C1FE204821460E22FFF76AFF70BD00BFE8460040E02C0000A800004800760040087600401411004803500140A043004000510040B4100048C2510040C0100048DF
:400F0000F2510040C810004812510040D010004820510040D810004830510040E410004840510040F010004850510040FC1000486051004008110048224300400048004098
:400F400004000840B04300400230800803D000BF01380046FCD17047EFF3108072B6704780F31088704700BF0B4A7F2313708021517007E0DA0002F1804202F5F042013B1A
:400F8000DBB21370002BF5D1DB0003F1804303F5F04300221A7070470CC1FF1F172815D831B103010A495A5C42F020025A5405E0030107495A5C02F0DF025A540001044A49
:400FC000835C43F00103835400207047012070471070004017280CD80001074BC1180A7942F004020A71C25C42F00102C254002070470120704700BF1070004017280BD857
:401000000001064A835C03F0F10301F0070143EA4101815400207047012070471070004041F6FF73994201D14FF4005141F6FF739A4201D14FF40052172808D8C00000F147
:40104000804000F5EC408180C280002070470120704700BF172805D8034B03EB0010417200207047012070471070004017281BD810B4C00000F1804404F5EC44D201D2B269
:4010800001F07F01114321709DF804201201D2B203F00F03134363709DF8083003F00F03A3700020E07001E0012070475DF8044B704700BF10B5FFF74FFF0A4B5B78182BC0
:4010C0000BD9084A1478013B5370E30003F1804303F5F0431B78137000E0FF24FFF740FF204610BD0CC1FF1F10F0800F0CD111F4704F0BD1C00000F1804000F5F0400180DB
:401100008270C37000207047012070470120704710F0800F08D1C00000F1804000F5F0408180C280002070470120704701BE704710B5044605E0084B1868FFF705FFA4F543
:401140000044B4F5004FF6D8034B586800FB04F0FFF7FAFE10BD00BF14C1FF1F08B5034B1B7A03FB00F0FFF7EFFE08BD14C1FF1F7222084B1A70202204331A700622673B94
:401180001A70472210331A70012203F24F131A70704700BF8B64004010B5FFF7DDFE04460A4A137843F0200313700432137843F010031370F832137843F01003137000F036
:4011C0004BF82046FFF7CCFE10BD00BF9B64004008B5054B1B7823B9FFF7CAFF0122024B1A70FFF7D9FF08BD20C3FF1F084B1B78DBB213F0200F06D0064A1078C0B213F02A
:401200001E0F02D17047002070470020704700BF6F6400404F640040034B1B7813F0040FFAD1024B187070476765004047640040084B1B7833B97047305DFFF7EDFF013412
:40124000E4B203E070B50D4606460024AC42F3D370BD00BF20C3FF1F054A137843F0080313701032137843F008031370704700BFA2430040704700BF014B1B6898657047AF
:4012800008ED00E04001C0B2014B1870704700BF06E400E04022014B1A60704700E100E04022014B1A60704780E100E008B5FFF7F7FF0448FFF7E0FF0720FFF7E3FFFFF713
:4012C000E9FF08BD7512000008B5FFF78FFFFFF73DF808BD014B1B689864704708ED00E04001C0B2014B1870704700BF02E400E00422014B1A60704700E100E00422014B99
:401300001A60704780E100E008B5FFF7F7FF0448FFF7E0FF0720FFF7E3FFFFF7E9FF08BDC9120000044A137803F0FE0300F0010018431070704700BFC0510040044A1378BB
:4013400003F0BF03800100F0400018431070704730510040044A137803F0FD03400000F00200184310707047C0510040044A137803F07F03C001C0B203431370704700BF13
:4013800030510040024A137843F080031370704772640040014B1880704700BF0A6A0040014B1880704700BF8A6A0040014B1880704700BF4A6A0040014B1880704700BF4B
:4013C0006A6A0040014B1870704700BF86650040014B1878704700BF66650040014B188880B27047AA6A004008B501E0FFF7F6FFFFF7EEFF10F0100FF8D108BD10B5174A9F
:40140000137803F0C00343F00903137002F22312137843F001031370114C237843F00103237044F62060FFF7B5FF44F62060FFF7B7FF43F2B060FFF7B9FF3F20FFF7BCFFAC
:401440000020FFF7BFFFFFF787FD237843F010032370FFF785FDFFF7C7FF10BD726400409665004008B5054B1B7823B9FFF7C6FF0122024B1A70FFF785FF08BD22C3FF1FE5
:40148000024A137843F080031370704779640040014B1870704700BF8A640040014B1878704700BF6A640040014B1880704700BF54680040014B188880B270479468004009
:4014C000014B1880704700BF1468004008B501E0FFF7F0FFFFF7E2FF10F0080FF8D108BD08B545F6BF50FFF7DFFF45F6BF50FFF7E7FFFFF731FD064A137843F0100313700E
:40150000FFF72EFDFFF7E2FF0120FFF7C1FF08BD9A64004008B5054B1B7823B9FFF7E0FF0122024B1A70FFF7ABFF08BD23C3FF1F10B41C4B1988013189B219801A4B18884E
:40154000013080B21880194A138801339BB21380174C2288013292B22280B0F5FA6F05D901241448048000240F480480052905D901201149087000200A490880642A05D9E2
:4015800000210B4A118001210C4A1180032B05D90022064B1A800122094B1A805DF8044B704700BFF0E9FF1FEEE9FF1FF6E9FF1FF4E9FF1FEAE9FF1FF8E9FF1FECE9FF1F10
:4015C000F2E9FF1F014B1B685865704708ED00E04001C0B2014B1870704700BF05E400E02022014B1A60704700E100E02022014B1A60704780E100E008B5FFF7F7FF04489F
:40160000FFF7E0FF0720FFF7E3FFFFF7E9FF08BD311500007222084B1A70202203F584731A700622613B1A70472210331A7000224D331A70704700BF8064004010B5FFF7BC
:401640008BFC04460A4A137843F02003137002F58472137843F010031370043A137843F01003137000F0BCF82046FFF779FC10BD9064004008B5054B1B7823B9FFF7CAFF5D
:401680000122024B1A70FFF7D9FF08BD24C3FF1F084B1B78DBB213F0200F06D0064A1078C0B213F01E0F02D17047002070470020704700BF686500404464004038B5324C4C
:4016C0002578FFF7E5FF25442871237813B92279552A57D10133DBB22B4A13700B2B51D1134600221A701B79552B4BD1264B5B79522B1AD0532B2FD0512B43D1224BD8790B
:401700009979224A41EA00211180587A197A41EA00215180D87A997A41EA00219180597B1B7B43EA0123538238BD174BD8799979164A41EA0021D180587A197A41EA002112
:401740001181D87A997A41EA00215181597B1B7B43EA0123538238BD0B4BD87999790B4A41EA00219181587A197A41EA0021D181D87A997A41EA00211182597B1B7B43EA85
:401780000123538238BD00BF28C3FF1F8CC3FF1F014B1B685864704708ED00E04001C0B2014B1870704700BF01E400E00222014B1A60704700E100E00222014B1A6070472A
:4017C00080E100E008B5FFF7F7FF0448FFF7E0FF0720FFF7E3FFFFF7E9FF08BDBD160000054A137843F0040313701032137843F004031370704700BFA2430040024A1378D6
:4018000043F08003137070477A650040014B1880704700BF146A0040014B1880704700BF946A0040014B1880704700BF546A0040014B1880704700BF746A0040014B187045
:40184000704700BF8A650040014B1878704700BF6A650040014B188880B27047B46A004008B501E0FFF7F6FFFFF7EEFF10F0100FF8D108BD10B5174A137803F0C00343F07C
:4018800009031370144C237843F0010323702132137843F00103137042F21070FFF7B6FF42F21070FFF7B8FF42F21070FFF7BAFF42F21070FFF7BCFF0020FFF7BFFFFFF7EA
:4018C0004BFB237843F010032370FFF749FBFFF7C7FF10BD7A6500409A65004008B5054B1B7823B9FFF7C6FF0122024B1A70FFF785FF08BD38C3FF1F024A137843F08003F7
:401900001370704776650040014B1880704700BF106A0040014B1880704700BF906A0040014B1880704700BF506A0040014B1880704700BF706A0040014B1870704700BF98
:4019400089650040014B1878704700BF69650040014B188880B27047B06A004008B501E0FFF7F6FFFFF7EEFF10F0100FF8D108BD10B5174A137803F0C00343F00903137068
:401980002232137843F001031370124C237843F00103237042F21070FFF7B6FF42F21070FFF7B8FF42F21070FFF7BAFF42F21070FFF7BCFF0020FFF7BFFFFFF7CDFA237817
:4019C00043F010032370FFF7CBFAFFF7C7FF10BD766500409965004008B5054B1B7823B9FFF7C6FF0122024B1A70FFF785FF08BD39C3FF1F10B5022001214FF4804241F6A2
:401A0000FF7300F055F9084C20700620012141F6FF72134600F06CF96070044800F086F9002000F089F910BD3CC3FF1F491B000070B52C4C2078FFF7CDFA6078FFF7CAFA85
:401A4000294B1B78FF2B03D1FFF734FB264B1870254D2A78104606210B46FFF745FB214E341DA4B2287845F6A0312246FFF750FB30782978FFF7EEFA6B78FF2B02D1FFF7C3
:401A800019FB6870184D6A78104606210723FFF72BFB68782146154A92B2FFF739FB114C60786978FFF7D6FA20780121FFF776FA60780121FFF772FAFFF74EFA0C4A1378A5
:401AC00043F020031370FFF74BFA0A4B1A7842F001021A701A7842F002021A700122064B1A6070BD3CC3FF1F24C1FF1FFCE9FF1F986400407C64004080E200E008B5074BEF
:401B0000DB6823B9FFF776FF0122044BDA60FFF78FFF00F0B7F8024B1B7808BD3CC3FF1F6564004008B500F0BBF808BDC0F10200034B33F81030034A1088181A00B2704770
:401B4000FCE9FF1F06EAFF1F704700BF08B50A280FD00C2802D0082806D102E04FF4805209E04FF4807206E00020FFF7DFFA002201E04FF480620021094B198042F210732C
:401B800003FB02F303F6C413064A82FB0302DB17C3EBE223044A1360044B198008BD00BF04EAFF1FAD8BDB6808EAFF1F06EAFF1F10B5FFF7D1F90446184A137843F0010326
:401BC00013701032137843F00103137002F5AA520832137843F0030313701822104B1A70013B1A7842F040021A701A7802F0FC021A70C822053B1A700222A3F597530C3BCF
:401C00001A70084A137843F0080313700A20FFF7A5FA2046FFF7A4F910BD00BFAB43004006590040275B004010B504460A280DD00C2802D0082804D101E0C22207E0422270
:401C400005E00020FFF772FAC22200E08222034B1A702046FFF77AFF10BD00BF0259004008B5064A137843F0060313700C20FFF7DBFF0022024B1A8008BD00BF0159004047
:401C80000CEAFF1F08B5054B1B7823B9FFF7E8FF0122024B1A70FFF78BFF08BD4CC3FF1F024A137843F001031370704700590040F0B583B086460F4616461D460B4C012337
:401CC0002370002200920192184671463A46FFF7CDF9207831462A46FFF7A2F920780221FFF78CF9207803B0F0BD00BF26C1FF1FF0B583B086460F4616461D460A4C002386
:401D0000237000930193184671463A46FFF7AEF9207831462A46FFF783F920780221FFF76DF9207803B0F0BD27C1FF1F014B1B681864704708ED00E04001C0B2014B187053
:401D4000704700BF00E400E0044A137803F07F03C001C0B203431370704700BF20510040044A137803F0DF03400100F0200018431070704730510040044A137803F0EF03A8
:401D8000000100F0100018431070704730510040044A137803F0F703C00000F0080018431070704730510040044A137803F0FB03800000F00400184310707047305100406D
:401DC000044A137803F0FD03400000F0020018431070704730510040044A137803F0FE0300F0010018431070704700BF30510040044A137803F0F703C00000F008001843E9
:401E00001070704720510040024A137843F080031370704776640040014B1870704700BF82640040014B1878704700BF62640040014B1880704700BF44680040014B1888DF
:401E400080B2704784680040014B1880704700BF0468004000F00300044B1A7802F0FC021A701A7810431870704700BF7664004008B501E0FFF7E2FFFFF7D4FF10F0080FA7
:401E8000F8D108BD08B54FF6FF70FFF7D1FF4FF6FF70FFF7D9FFFFF75FF8084A137843F010031370FFF75CF80020FFF7D3FFFFF7DFFF0220FFF7B0FF08BD00BF9264004061
:401EC00008B5054B1B7823B9FFF7DCFF0122024B1A70FFF799FF08BD4DC3FF1F10B5154C237801332370FFF7A9FFC04380B260802378022B1AD1A388984202D3C01AE08018
:401F000003E0C01A01380B4BD8800A4B00225A801A70DA88642303FB02F3074A82FB03121A44DB17C3EB6213044A1384014B5A889A8010BD4EC3FF1F09CB3D8D60C3FF1FE8
:401F4000014B1B681865704708ED00E04001C0B2014B1870704700BF04E400E01022014B1A60704700E100E01022014B1A60704780E100E008B5FFF7F7FF0448FFF7E0FF9A
:401F80000720FFF7E3FFFFF7E9FF08BDDD1E000010B5154C23780133237000F079F8C04380B260802378022B1AD1A388984202D3C01AE08003E0C01A01380B4BD8800A4BC6
:401FC00000225A801A70DA88642303FB02F3074A82FB03121A44DB17C3EB6213044A5384014B5A889A8010BD56C3FF1F09CB3D8D60C3FF1F014B1B68D864704708ED00E042
:402000004001C0B2014B1870704700BF03E400E00822014B1A60704700E100E00822014B1A60704780E100E008B5FFF7F7FF0448FFF7E0FF0720FFF7E3FFFFF7E9FF08BD20
:40204000911F0000044A137803F0FD03400000F0020018431070704720510040024A137843F080031370704779650040014B1870704700BF8E640040014B1878704700BFBC
:402080006E640040014B1880704700BF58680040014B188880B2704798680040014B1880704700BF1868004000F00300044B1A7802F0FC021A701A7810431870704700BF54
:4020C0007965004008B501E0FFF7E2FFFFF7D4FF10F0080FF8D108BD08B54FF6FF70FFF7D1FF4FF6FF70FFF7D9FFFEF735FF084A137843F010031370FEF732FF0020FFF71B
:40210000D3FFFFF7DFFF0220FFF7B0FF08BD00BF9E64004008B5054B1B7823B9FFF7DCFF0122024B1A70FFF799FF08BD5EC3FF1F044A137803F0FD03400000F0020018433A
:4021400010707047F051004081F0004102E000BF83F0004330B54FEA41044FEA430594EA050F08BF90EA020F1FBF54EA000C55EA020C7FEA645C7FEA655C00F0E2804FEA83
:402180005454D4EB5555B8BF6D420CDD2C4480EA020281EA030382EA000083EA010180EA020281EA0303362D88BF30BD11F0004F4FEA01314FF4801C4CEA113102D04042F9
:4021C00061EB410113F0004F4FEA03334CEA133302D0524263EB430394EA050F00F0A780A4F10104D5F1200E0DDB02FA0EFC22FA05F2801841F1000103FA0EF2801843FA45
:4022000005F359410EE0A5F120050EF1200E012A03FA0EFC28BF4CF0020C43FA05F3C01851EBE37101F0004507D54FF0000EDCF1000C7EEB00006EEB0101B1F5801F1BD307
:40224000B1F5001F0CD349085FEA30004FEA3C0C04F101044FEA445212F5800F80F09A80BCF1004F08BF5FEA500C50F1000041EB045141EA050130BD5FEA4C0C404141EBF0
:40228000010111F4801FA4F10104E9D191F0000F04BF01460020B1FA81F308BF2033A3F10B03B3F120020CDA0C3208DD02F1140CC2F10C0201FA0CF021FA02F10CE002F108
:4022C0001402D8BFC2F1200C01FA02F120FA0CFCDCBF41EA0C019040E41AA2BF01EB0451294330BD6FEA04041F3C1CDA0C340EDC04F11404C4F1200220FA04F001FA02F3E8
:4023000040EA030021FA04F345EA030130BDC4F10C04C4F1200220FA02F001FA04F340EA0300294630BD21FA04F0294630BD94F0000F83F4801306BF81F480110134013DD5
:402340004EE77FEA645C18BF7FEA655C29D094EA050F08BF90EA020F05D054EA000C04BF1946104630BD91EA030F1EBF0021002030BD5FEA545C05D14000494128BF41F054
:40238000004130BD14F580043CBF01F5801130BD01F0004545F0FE4141F470014FF0000030BD7FEA645C1ABF194610467FEA655C1CBF0B46024650EA013406BF52EA03357A
:4023C00091EA030F41F4002130BD00BF90F0000F04BF0021704730B54FF4806404F132044FF000054FF0000150E700BF90F0000F04BF0021704730B54FF4806404F1320412
:4024000010F0004548BF40424FF000013EE700BF42004FEAE2014FEA31014FEA02701FBF12F07F4393F07F4F81F06051704792F0000F14BF93F07F4F704730B54FF4607402
:4024400001F0004521F0004120E700BF50EA010208BF704730B54FF000050AE050EA010208BF704730B511F0004502D5404261EB41014FF4806404F132045FEA915C3FF4B8
:40248000DCAE4FF003025FEADC0C18BF03325FEADC0C18BF033202EBDC02C2F1200300FA03FC20FA02F001FA03FE40EA0E0021FA02F11444C1E600BF70B54FF0FF0C4CF47F
:4024C000E06C1CEA11541DBF1CEA135594EA0C0F95EA0C0F00F0DEF82C4481EA030621EA4C5123EA4C5350EA013518BF52EA033541F4801143F4801338D0A0FB02CE4FF0AD
:402500000005E1FB02E506F00042E0FB03E54FF00006E1FB03569CF0000F18BF4EF0010EA4F1FF04B6F5007F64F5407404D25FEA4E0E6D4146EB060642EAC62141EA555186
:402540004FEAC52040EA5E504FEACE2EB4F1FD0C88BFBCF5E06F1ED8BEF1004F08BF5FEA500E50F1000041EB045170BD06F0004646EA010140EA020081EA0301B4EB5C04E2
:40258000C2BFD4EB0C0541EA045170BD41F480114FF0000E013C00F3AB8014F1360FDEBF002001F0004170BDC4F10004203C35DA0C341BDC04F11404C4F1200500FA05F315
:4025C00020FA04F001FA05F240EA020001F0004221F0004110EBD37021FA04F642EB06015EEA430E08BF20EAD37070BDC4F10C04C4F1200500FA04F320FA05F001FA04F239
:4026000040EA020001F0004110EBD37041F100015EEA430E08BF20EAD37070BDC4F1200500FA05F24EEA020E20FA04F301FA05F243EA020321FA04F001F0004121FA04F257
:4026400020EA020000EBD3705EEA430E08BF20EAD37070BD94F0000F0FD101F00046400041EB010111F4801F08BF013CF7D041EA060195F0000F18BF704703F000465200E0
:4026800043EB030313F4801F08BF013DF7D043EA0603704794EA0C0F0CEA135518BF95EA0C0F0CD050EA410618BF52EA4306D1D181EA030101F000414FF0000070BD50EA7D
:4026C000410606BF1046194652EA430619D094EA0C0F02D150EA013613D195EA0C0F05D152EA03361CBF104619460AD181EA030101F0004141F0FE4141F470014FF00000A4
:4027000070BD41F0FE4141F4780170BD70B54FF0FF0C4CF4E06C1CEA11541DBF1CEA135594EA0C0F95EA0C0F00F0A7F8A4EB050481EA030E52EA03354FEA013100F08880C4
:402740004FEA03334FF0805545EA131343EA12634FEA022245EA111545EA10654FEA00260EF000419D4208BF964244F1FD0404F5407402D25B084FEA3202B61A65EB0305BE
:402780005B084FEA32024FF480104FF4002CB6EB020E75EB030E22BFB61A754640EA0C005B084FEA3202B6EB020E75EB030E22BFB61A754640EA5C005B084FEA3202B6EBEE
:4027C000020E75EB030E22BFB61A754640EA9C005B084FEA3202B6EB020E75EB030E22BFB61A754640EADC0055EA060E18D04FEA051545EA16754FEA06164FEAC30343EAF9
:4028000052734FEAC2025FEA1C1CC0D111F4801F0BD141EA00014FF000004FF0004CB6E711F4801F04BF01430020B4F1FD0C88BFBCF5E06F3FF6AFAEB5EB030C04BFB6EB4C
:40284000020C5FEA500C50F1000041EB045170BD0EF0004E4EEA113114EB5C04C2BFD4EB0C0541EA045170BD41F480114FF0000E013C90E645EA060E8DE60CEA135594EA3B
:402880000C0F08BF95EA0C0F3FF43BAF94EA0C0F0AD150EA01347FF434AF95EA0C0F7FF425AF104619462CE795EA0C0F06D152EA03353FF4FDAE1046194622E750EA41069B
:4028C00018BF52EA43067FF4C5AE50EA41047FF40DAF52EA43057FF4EBAE12E74FEA4102B2F1E04324BFB3F5001CDCF1FE5C0DD901F0004C4FEAC0024CEA5070B2F1004F49
:4029000040EB830008BF20F00100704711F0804F21D113F13872BCBF01F00040704741F480114FEA5252C2F11802C2F1200C10FA0CF320FA02F018BF40F001004FEAC123FE
:402940004FEAD32303FA0CFC40EA0C0023FA02F34FEA4303CCE77FEA625307D150EA01331EBF4FF0FE4040F44000704701F0004040F0FE4040F40000704700BF4FF0FF0C2D
:402980001CEAD0521EBF1CEAD15392EA0C0F93EA0C0F6FD01A4480EA010C400218BF5FEA41211ED04FF0006343EA501043EA5111A0FB01310CF00040B1F5000F3EBF490031
:4029C00041EAD3715B0040EA010062F17F02FD2A1DD8B3F1004F40EBC25008BF20F00100704790F0000F0CF0004C08BF49024CEA502040EA51207F3AC2BFD2F1FF0340EAE0
:402A0000C250704740F400004FF00003013A5DDC12F1190FDCBF00F000407047C2F10002410021FA02F1C2F1200200FA02FC5FEA310040F1000053EA4C0308BF20EADC7011
:402A4000704792F0000F00F0004C02BF400010F4000F013AF9D040EA0C0093F0000F01F0004C02BF490011F4000F013BF9D041EA0C018FE70CEAD15392EA0C0F18BF93EADF
:402A80000C0F0AD030F0004C18BF31F0004CD8D180EA010000F00040704790F0000F17BF90F0004F084691F0000F91F0004F14D092EA0C0F01D142020FD193EA0C0F03D1B7
:402AC0004B0218BF084608D180EA010000F0004040F0FE4040F40000704740F0FE4040F4400070474FF0FF0C1CEAD0521EBF1CEAD15392EA0C0F93EA0C0F69D0A2EB03028B
:402B000080EA010C49024FEA402037D04FF0805343EA111143EA10130CF000408B4238BF5B0042F17D024FF4000C8B4224BF5B1A40EA0C00B3EB510F24BFA3EB510340EADE
:402B40005C00B3EB910F24BFA3EB910340EA9C00B3EBD10F24BFA3EBD10340EADC001B0118BF5FEA1C1CE0D1FD2A3FF650AF8B4240EBC25008BF20F0010070470CF0004CC6
:402B80004CEA50207F32C2BFD2F1FF0340EAC250704740F400004FF00003013A37E792F0000F00F0004C02BF400010F4000F013AF9D040EA0C0093F0000F01F0004C02BF0B
:402BC000490011F4000F013BF9D041EA0C0195E70CEAD15392EA0C0F08D142027FF47DAF93EA0C0F7FF470AF084676E793EA0C0F04D14B023FF44CAF08466EE730F0004C86
:402C000018BF31F0004CCAD130F000427FF45CAF31F000437FF43CAF5FE700BF4FEA4002B2F1FE4F0FD34FF09E03B3EB12620DD94FEA002343F0004310F0004F23FA02F0B9
:402C400018BF404270474FF00000704712F1610F01D1420205D110F0004008BF6FF0004070474FF0000070470E4B70B51E460E4C0025E41AA410A54204D056F8253098474C
:402C80000135F8E700F048F8084B094C1E46E41AA4100025A54204D056F8253098470135F8E770BD242D0000242D0000242D00002C2D000010B5431E0A44914204D011F8FD
:402CC000014B03F8014FF8E710BD03460244934202D003F8011BFAE7704700000000000000000140000480040140800B00140140000800400140000A004C01400002105040
:402D0000014010000004014024100048800000500140A41000481000F8B500BFF8BC08BC9E4670474D000000990B0000F8B500BFF8BC08BC9E46704729000000502D0000CF
:402D400008C1FF1F20000000E828000000000000000000007F800000030000000000E02EC05D00001800000000366E01FFFFFFFF0000000000000000000000000000000056
:402D80000000000000000000000000000000000000000000000000000000000000000000000000000000000000000000000000000000000000000000000000000000000013
:402DC00000000000000000000000000000000000000000000000000000000000000000000000000000000000000000000000000000000000000000000000000000000000D3
:402E00000000000000000000000000000000000000000000000000000000000000000000000000000000000000000000000000000000000000000000000000000000000092
:402E40000000000000000000000000000000000000000000000000000000000000000000000000000000000000000000000000000000000000000000000000000000000052
:020000040001F9
:0200000480007A
:400000000C520040015B00400864004006650040330001403301014063020140490301401504014053050140590601405507014042080140550901405E0A0140500B014074
:400040006D0C01404F0D0140450E0140380F01404314014055150140511601404C1701404A1801404D1901405B1A0140561B01401540014011410140104201400443014088
:40008000074401400945014009460140054701400E48014001490140034C01400F4D01400350014003510140014008C009C01414200C2104241029503080344061C07804D7
:4000C00027848072820F860F88028A0D8B728E0F8F38840F860F870F8838890F8A0F0110040F051806F0088209080C410F0410F3120C14C3157F181C193C1AE31B421EF35A
:400100001F032008210423802404253C2741280C2CFF2D672F18300F3180321C3320342C351F36C0374039803A223B203F0456025712580459045B045C225D205F01D8040D
:40014000D904DF0100200201032004100702084009200A620F841029130114801602170819041A411B322120224423402A012B122E0230403128370A38283B413C183D02F7
:400180003F845A0869A4703C73018312840185088A018B108C808D018F08C0C7C25FC4BFCA8BCCCECEFFD602E2280203061808010A060B800D2B0F501278152B1648175039
:4001C00019191B621C021E011F80267029192B622C282D042F7830033180327833783403350736043A083B303E013F014016420449FF4AFF4BFF4F0150185280540358041D
:4002000059045A045B045C115D115F016040624064406540668068806A806C806E80810A8351859F899F8D809514974999019B26B180B318B507B760BF40C016C204C5EC95
:40024000C702C813C9FFCAFFCBFFCD83CE03CF01D018D804D904DA04DC20DD01DF01E040E240E440E540E680E880EA80EC80EE800018018004080628074009010E91131AC8
:40028000154017041D021EB11F12202221012215244027242E202F0232143610374439A43A013DC03F2043424502474049024A084B044E084F2052085C405D025F24768099
:4002C0007A807B4081048C1091A4928094109622972098029A019B109E029F08A414A509A740AA01AF02B402B504C077C2B8C4AECA30CC76CE3FD099D224D6F0E204E60230
:40030000EE0281018501880189018D019201930198019C01A101A201A401A701AC01B101B601D401D804D904DB0EDF010018014002B004100A260B500C200F81102011021F
:40034000120513091612170218801F4021682202244028012B202C202E0230803120370239043B023C183D023F804002410943104801490151805A405C8062407D0880604B
:400380008101874088808B408E129102928093029418971098029A809B109E029F4AA001A104A280A340A444A549AB01B040B580B608B740C04FC2DFC4BFCACACC8CCEF385
:4003C000D00FD208D618D808DE40E004E223E683EE050B0311021401190422032B0C3102320233043508360137014010410245D246104705481B49FF4AFF4BFF4DA04F0450
:40040000501852835407580E59045A045B045C105D115F01604062C06440654066C068C06AC06CC06EC0830186108A458F029043920C9403964498309C20A030A101A44354
:40044000A604A80AAA44AE08B00FB103B430B640B820BA02BE50C043C101C5E0C6B0C70CC81AC9FFCAFFCBFFCEF0CF44D00CD280D804D904DA04DB04DC93DD13DF01E6C043
:40048000EA40EB02011C030409280A500B020C400D400E201095150219601A401E201F80210124402620272128802B802F083620370139023A403E083F24400242404304A1
:4004C0004580460849014F055010510857185C405F296C046D80734077407D08801081408254860489308A018E4090809180928093129418954496069AC09C809E059F42FD
:40050000A124A282A4C4A541A720B081B222B580B640C006C22FC41FCA21CCA0CE29D03BD6F0DE40E004E203E401E604EC400280034004700512060D0720080509200A38F0
:400540000DE00F181005110112581306162019281A701C021E0C21B82280230425D827223003313E3280346835C0363C3701380239203AA03E043F504003464049FF4A075D
:400580004BFF4C404D204EF04F05500856025731580459045A045B0C5C335D035F01604061A862406320D280D804D904DB04DD90DF010040012002200380051006200740D4
:4005C00009100A080E040FA21104120414801C801D101F542601270929202A042B802F5032243601371038C039043E063FA247084F0257105C2065806C806D906E086F04B2
:4006000071017240760877027F02820483548540880289048A028B038F409080910195169640974098A099A09C409D019E089F02A108A306A40BA540B114B310B480B584F5
:40064000C07FC2F2C416CAC7CCA6CEFAD040D620D810DE10E2A0E4C0E830ECA0120413011A041E0122022301300132043402350137013E043F40404149FF4AFF4BFF4F0115
:4006800050185401580459045A045B045C905D995F016040624064406540668068806A806C806E80820483018418887F89028C1091029223945C962298679A189C5C9E217C
:4006C000A080A404A502A808AB01B040B102B21FB301B480B638BA88BB20BE11BF04C015C5ECC602C807C9FFCAFFCBFFCD83CE03CF01D018D602D710D804D904DA04DB04B0
:40070000DC33DD39DF01E040E240E440E540E680E880EA80EC80EE8004020601071409400B480C040D020E2A130214101502160418A019301C401E262260250A2602270CE5
:400740002B402C202E203001310137013D224240438044014D0A4F8057C0590A5A805C406C206D206F017605771080408220860C8D109002910193089420953C97609830BB
:400780009C449D209E059F18A105A204A306A42BA510A623AA40AB84B001B48CC0F0C2FBC478CA61CC81CEA0D019D210D61BE240E601EA10EC20EE400041040C08040B0204
:4007C0000D01108214C3150118F31A0C1C0F1EF022E324FF282C2AD32C0830C032103301340F3502362C380839083A203F044016420549FF4AFF4BFF4F015018520353021B
:40080000580459045A045B045C035D015F016040624064406540668068806A806C806E80803088308C089130920393C394019530960697C698029A019C109E20A15AA3A030
:40084000A810A950AA20ABADAFFFB003B10FB238B404B5F0B603BA0CBB02BE40C043C201C5ECC702C813C9FFCAFFCBFFCD83CE03CF01D018D804D904DA04DC11DD01DF0172
:40088000E040E240E440E540E680E880EA80EC80EE8000020182030806840710080A0A460B400E2A0F80100814041601170919801A851B081D601E181F01221124042504DD
:4008C00029822B0830083201360237053C803D10410842414422470449054C044D8050045108530467036F068302862088408C80900291019420952C9630972198109A808F
:400900009CC19D659F08A101A210A3C0A4A2A530A602AD04B008B280B410B581C07BC2FFC4F2CA0DCC43CE30D01BD230E010E8105403580459045B045D105F0182208601D2
:4009400089DC8D908E018F499002920C962099089B169C189E06A206A402A5DCA61CA944AA18ABA9AE10B001B1C0B220B303B51CB61EB720BA80BE05BF04C025C103C20457
:40098000C406C5E0C6C0C80AC9FFCAFFCBFFCC62CDA0CEF0CF41D00CD418D604D804D904DA04DB04DC32DD33DF01E640E702E910EA30EB10ED10EE10EF12012002200542F3
:4009C0000620070108800A400B200C020E1110801104144115281E011F8524422618288029202C28308032203302361039043B203C403D203F80452047094D024E0A56203D
:400A000059855A205F01678A8740881089018E608F02C0B6C2BDC4FCCA65CC2DCE36D0E0D230D68FD8B0E010E4C0050409020E010F10130215011B081D0823042721311F1D
:400A40003320340139023F0140234106450B46C0470E481949FF4AFF4BFF4EF04F44500C5401580459045A045B045D225F0166C06A406B02850189018F0191019D01A50158
:400A8000AD01B701C030C106C9FFCAFFCBFFCDA0CF04D018D804D904DA04DD01DF01E040E2C0E440E540E6C0E8C0EAC0ECC0EEC0001402C103400414074208080F50135295
:400AC0001710180420102101220423402540280829042A412F123255330436803702388439023B303C1C3D083F404020412044084508471049084A084F20532858425910FE
:400B00005A048104824083028508871088828A088B088D108F3690809226931094109502986099049A019C08A128A280A310A484A540A728A901AD02AE04B282B781C0FFAC
:400B4000C234C44BCA5FCC9FCE7FD046D224D60FE004E40AE601E810EE110201030D08020B02110816041A0E2B03300231013201330834083502360437043F10403041067B
:400B800045D146204750482B49FF4AFF4BFF4DAF4E0F4F04501852805407580459045A045B045C115D115F01604062C06440654066C068C06AC06CC06EC087088F0195044D
:400BC0009F08A102B104B302B508B701BF15C006C540C9FFCA07CBFFCC40CD20CEF0CF05D008D401D604D804D904DA04DB04DC10DD32DF01E040E1A8E240E32000180280FF
:400C000005100680080809010D080F0813121D181E401F44218222042308240427A1282029092F043180330837013B443F224508484049284B024F29571159415A185C0444
:400C40005E405F216040774080408340854089018B429080923293549410984099659A819D089F0AA120A282A4C4A581A720A904AC17B108B601C05EC26CC40ACA21CC8A4D
:400C8000CEAAD040D224D6FFD801E208E401E680EA0AEE034040410149FF4AFF4BFF4DA04F04501854185604580459045A045B045D215F01604062C06440654066C068C036
:400CC0006AC06CC06EC0860C870B8D088E0A920194049E02A704AF01B001B102B202B308B404B504B608B701BE04C050C101C5D5C602C701C817C9FFCAFFCBFFCDAFCE0FEE
:400D0000CF04D018D283D407D804D904DA04DB04DC11DD11DF01E040E2C0E440E540E6C0E8C0EAC0ECC0EEC0010802020303048405A0062009810A200E2014021504160CA1
:400D400019141A021B022040225829082B022E0A340235A0362038483D243E20418045804701490A4A025004518059165A405D0164016788680973408101874089048E48E0
:400D80009080910993089506974098419E04A204A304A409A510A620A780AA08AC40AE24AF50B041B108B480C0E5C22DC4E0CACACCB0CE6AD098D208D68FD8B0E020E88001
:400DC000EE4006021304160617011B032308260129082D022E0C300131023208330434023508360437013E104030410649FF4AFF4BFF4DA04F045018528054075804590440
:400E00005A045B045C115D115F01604062C06440654066C068C06AC06CC06EC080108240840986D08E03940C9671970198DC9A229E20A410A6ACA814B01FB2E0B501BA084F
:400E4000C030C102C5D1C605C702C817C9FFCAFFCBFFCDAFCE0FCF04D018D804D904DA04DC02DD01DF01E040E2C0E440E540E6C0E8C0EAC0ECC0EEC0000804420720090831
:400E80000C400E100F0810201180151819401A081B091C601E10201021082290238026202B892C082D042E02302031093402358036243C04405041014508460848044C2009
:400EC0004D02540455405608578059025A285B807101800482A084028510881089408C088D808E449002910C928094049502984099809A029B209C029E04A204A304A620B7
:400F0000AA20AE01B212B3A0B401C0B4C2E4C465CAEDCCF7CE40D062D204D60FE414E6C0E8D0EC220A4011081680300232203580370238083B403E8054085F2084028B4040
:400F4000C210C430CCF0CE70D440D620E2103180342053806208858094089D809F22A104A408A620AA40CC30D420D840E640E8208004838084088A2894089C209D809F20C4
:400F8000A104A408A628A780AB02E240E6A0EE809C209D809F20B5040880094064018880C202D601E204014009018B809C01B140C002C208E604EE041B08278083089C01DA
:400FC0009F80B541C608C801EA0A440288019C01D004E4042408500856408020858087208A409C209D809F20C820D460E250E620B40C66029C02D801590460807B01820231
:401000008B018D0498809E02AC80B402D602D802DC01E009E808100F1A0F1C0700FF013F100A0000101420290040040B000001000800000001000000000002008027401806
:401040000227000800000800400680092000100004000010FF600000001E000100020028000001402403010005C00E0006FFFFFF62A0F0410C0000000000080004040404E6
:401080002092000100000000000040020010301000101012000000000000000000000000000000000F0100000000000007000F0109010F00010000010100004444000000EE
:4010C00000C3C300C0000000000E0E000C00000000C0C000C00000000A00148A8A000000000000003F0000FFFF00000000000000080010080800080404000000F00000F0BB
:40110000F000F0000000000080004080800080000000000000010000000000000000000000000000000000000000000000000000000000000000000000000000000000008E
:40114000000000000000000000000000000000000000000000000000000000000000000000000000000000000000000000000000000000000000000000000000000000006F
:40118000000000000000000000000000000000000000000000000000000000000000000000000000000000000000000000000000000000000000000000000000000000002F
:4011C00000000000000000000000000000000000000000000000000000000000000000000000000000000000000000000000000000000000000000000000000000000000EF
:4012000000000000000000000000000000000000000000000000000000000000000000000000000000000000000000000000000000000000000000000000000000000000AE
:0200000490006A
:0400000000004005B7
:0200000490105A
:04000000BC90ACAF55
:0200000490303A
:02000000A5C099
:0200000490402A
:4000000000000000000000000000000000000000000000000000000000000000000000000000000000000000000000000000000000000000000000000000000000000000C0
:400040000000000000000000000000000000000000000000000000000000000000000000000000000000000000000000000000000000000000000000000000000000000080
:0200000490501A
:0C00000000012E13306900012E2AD629C1
:00000001FF