:4000000000400020110000001D0A00001D0A000008B5044B1A6803F53F5302331A6000F0FFFC00BFFA46004010B5054C237833B9044B13B10448AFF300800123237010BD6E
:4000400038C1FF1F00000000E42D0000084B10B51BB108480849AFF300800848036803B910BD074B002BFBD0BDE81040184700BF00000000E42D00003CC1FF1F08C1FF1FFF
:400080000000000008B501F015F801F03BFA01F079FE01F081F801F0DDFA01F0A3FF01F0F5F801F027F901F02DFB01F05FFB01F0A7FB01F0DBFB01F023FC01F055FC01F042
:4000C00081F901F0E1F9184B08229A7043F2B06199805A7000F0F0FB62B600F019FC134B1B78012B02D10022104B1A70104B1B78012B06D100F016FA00F0C4FB00220C4BF3
:400100001A700C4B1B88012BE9D1002000F0DAFB094B1880012000F0D5FB084B18800022044B1A80DBE700BF78C3FF1FF2E9FF1FFEE9FF1FF4E9FF1FB6C3FF1FB0C3FF1FB2
:4001400008B500F0E7FF08BD08B50D4BAA221A705A70EF229A700222DA701871597100231A4605E00649C95C0A44D2B20133DBB2052BF7D9024882710721FFF7E1FF08BDA7
:40018000B8C3FF1F38B500231C4604E0C25C2244D4B20133DBB24A1E9342F7DB835CA34240F0BF800378AA2B40F0BB804378AF2B40F0B7808378022B02D10179594A5170B3
:4001C000032B0ED102794379564943EA02228B8813449BB28B8044F62062934201D900228A8005468378042B77D10379C3F16403DBB2632B00D9642303EB830303EB8303BB
:400200009A0090B201F056FA6B79C3F16403DBB2632B00D9642303EB830303EB83039A0090B201F047FAAB79C3F16403DBB2632B00D9642303EB830303EB83039A0090B2B3
:4002400001F03EFAEB79C3F16403DBB2632B00D9642303EB830303EB83039A0090B201F02FFA2B7AC3F16403DBB2632B00D9642303EB830303EB83039A0090B201F098FAFB
:400280006B7AC3F16403DBB2632B00D9642303EB830303EB83039A0090B201F089FAAB7AC3F16403DBB2632B00D9642303EB830303EB83039A0090B201F080FAEB7AC3F188
:4002C0006403DBB2632B00D9642303EB830303EB83039A0090B201F071FAA878102802D12146FFF731FFA878112802D12146FFF72BFFA878122802D12146FFF725FFA878C3
:40030000132802D12146FFF71FFFA878142802D12146FFF719FFA878152802D12146FFF713FF38BD78C3FF1F10B5294B1B7833B9AA2804D1264B01221A70187110BD012BA4
:4003400006D1AF2804D1224B02221A70587110BD022B06D1F02804D81D4B03221A70987110BD032B0BD1312809D8194B04221A70D87183F83600002283F8372010BD042B22
:4003800013D1134A92F836207AB1013AD2B2104981F8362091F837305C1C81F837400B441872A2B905220A7010BD052B0CD1084B00221A7093F837105A1810720531181DD3
:4003C000C9B2FFF7DFFE10BD0022014B1A7010BD54C1FF1F10B582B0104BAA241C705C7001249C70002418715971ADF80620110A9971DA710422DA702346224605E0074919
:40040000C95C0A44D2B20133DBB2072BF7D9034802720921FFF794FE02B010BDB8C3FF1FF0B583B0089F099E2A4DAA242C706C700224AC7000244FEA106E85F804E0C0F365
:40044000074E85F805E0C0F3072E85F806E0E871080E2872C1F307406872C1F30720A872E972110E2973C2F307416973C2F30721A973EA731A0E2A74C3F307426A74C3F309
:400480000722AA74EB743B0E2B75C7F307436B75C7F30723AB75EF750196330E2B76C6F307436B76C6F30723AB76EE761823EB702346224605E00749C95C0A44D2B20133D5
:4004C000DBB21B2BF7D9034802771D21FFF738FE03B0F0BDB8C3FF1F10B582B0104BAA221A705A7005229A700022040A1C715871ADF80610080A9871D9710421D970134622
:4005000005E00749C95C0A44D2B20133DBB2072BF7D9034802720921FFF712FE02B010BDB8C3FF1F2DE9F04182B0604B93F838205F4BA3FB0213DB0803EB83035B00D31AC2
:40054000DBB2092B02D101215A4B99700121594B5970574BA3FB02131B0903EB83039B00D31ADBB2132B02D10121524B5972504BA3FB02131B0903EB83039B00D31ADBB2F0
:40058000132B02D101214B4BD9724B4BA3FB02131B09322101FB1323DBB2312B02D10121444B19730132414B83F83820414B1B781BB100223F4B1A700AE03E4B5B783BB157
:4005C00000203C4B58703D4B59789A88FFF702FF384B9B78002B5AD00024364B9C70384EB6F90C0001F078FE00224FF07C5301F0D9FE0022334B01F0D5FE02F0E5F88046E5
:400600002A4DE863B6F90E0001F066FE00224FF07C5301F0C7FE00222A4B01F0C3FE02F0D3F807462864B6F9100001F055FE00224FF07C5301F0B6FE0022224B01F0B2FE19
:4006400002F0C2F80646686440461F4902F01AFA804638461C4902F015FA054630461A4902F010FA0746404602F05CFB0646284602F058FB0546384602F054FB02460094F7
:400680000194304629462346FFF7CAFE0BE0094B1B7B43B10022074B1A730C4B18880C4B1988FFF719FF02B0BDE8F08154C1FF1FCDCCCCCCECC3FF1F1F85EB5178C3FF1FA0
:4006C00098C3FF1F0080664000007A44B6C3FF1FB0C3FF1F10B50C4600F0B0FD34B9012000F068FD002000F071FD10BD012C06D1002000F05FFD012000F068FD10BD002040
:4007000000F058FD002000F061FD10BD10B50C4600F094FD34B9012000F04CFD002000F055FD10BD012C06D1002000F043FD012000F04CFD10BD002000F03CFD002000F057
:4007400045FD10BD10B50C4600F07EFD34B9012000F048FD002000F051FD10BD012C06D1002000F03FFD012000F048FD10BD002000F038FD002000F041FD10BD10B5044698
:400780000021FFF7A7FF20460021FFF7BFFF20460021FFF7D7FF20460021FFF7D3FF10BD10B504460121FFF795FF20460121FFF7ADFF20460121FFF7C5FF20460121FFF72D
:4007C000C1FF10BD38B50446450828460021FFF781FF28460021FFF799FF20460121FFF7B1FF20460121FFF7ADFF38BD10B504460121FFF76FFF20460121FFF787FF640874
:4008000020460021FFF79EFF20460021FFF79AFF10BD00BF08B500200221FFF75BFF00200221FFF773FF00200221FFF78BFF00200221FFF787FF08BD84B010B502AC84E8A7
:400840000F009DF809401CB9BDF80C00FFF796FF012C03D1BDF80C00FFF7A2FF022C03D1BDF80C00FFF7AEFF032C03D1BDF80C00FFF7BCFF082C01D1FFF7CCFFBDE810407A
:4008800004B07047F0B585B00A4CD4F800E06768A668E3686D4654F8100F6168A26807C5A2892A80704639463246FFF7C5FF05B0F0BD00BF78C3FF1F08B501F0E7F801F0D8
:4008C000F9F808BD38B50546002407E0284601F0F5F80D4B23F814000134E4B2632CF5D90022134605E0084931F913100A440133DBB2632BF7D9054880FB0230D217C2EB09
:40090000601000B238BD00BF9CC1FF1F1F85EB5108B50221054B19705422054B1A700522044B1A70044801F0B3FA08BDF1E9FF1F28EAFF1F28E0FF1F0CC1FF1F10B5420886
:40094000324B1B7863B9424012F0010F08D001232E4A13702E4A1070184601F05FFB10BD012B0ED110F0010F0BD0284B02221A70274A507000225A70264A1278023A9A70DE
:4009800010BD022B3ED1214B9B78002B3AD0013BDBB21E498B704A78541C4C7002321C498854002B31D10B7813F0010F02D00022164BDA70164B98785B7843EA00204008B1
:4009C00002F008F84FF0725102F05CF80F4BDB78114A42F82300C82B04D10C4B0022DA7001221A71094B1B7943B9084BDA780132DA7001221A71002001F010FB0022034BDF
:400A00001A7010BD0022014B1A7010BD2CC3FF1FCCCDFF1F28E0FF1F30CEFF1FFEE700BF08B5104E104D16E029686B68AC68002204E051F8040B43F8040B0432A242F8D17F
:400A4000E868002203E0002143F8041B04328242F9D11035013E002EE6D102F089F9FFF711FBFEE701000000382E000008B5134A134B1A60134A136843F4007313600023AD
:400A80000AE0032B03D8104A52F8231000E00F490F4A42F8231001332F2BF2D90D4B1A780D4B1A700A4A0D4B1A6000F0EDF800F0B7F900220A4B1A6008BD00BF0004FA0536
:400AC0000CED00E014ED00E0000000001D0A000000C0FF1FBC76004004C1FF1F08ED00E000C1FF1FF0B40022174611E050F82760F3B226F0FF0608E001EB420511F8124015
:400B00006D78A5550132013BDBB2002BF4D101372A2FEBD9F0BC704770B4184B1B78DBB217480278D2B2174C2178C9B203F00706154D2E701B0901352B7042F00303037017
:400B400041F0030323701023A5F232752B70042610352E7040250D4E35700236357050260B4D2E70202603352E7035352B70217002704422074B1A7070BC7047CF01004982
:400B8000F8460040F94600406E58004001590040205B00407658004008B50A46002102F018F908BD38B500242C4B1C80582202331A700E2202331A801823294A137019250E
:400BC0000232158002321370023215800232137002321580023213700222224B1A7008224FF040231A70042203F500731A701E4B1B78DBB21D4A137001221D4B1A804FF40E
:400C0000716203F21E231A8041F25122023B1A800CE0184B1B7803F0010343EA440404F003044FF4F07000F0EBF8013D0DB1032CEFD10F4B07221A7000210F4A1170482179
:400C40000232117001221A700222033B1A700B4A137843F01F03137038BD00BF80400040864000400043004089010049A1460040044000402542004006400040A243004061
:400C800008B502F09BF808BD70B572B63F4A137843F00403137000240CE03D4963001A1952000A4423445B00C8589188FFF774FF0134E4B2062CF0D94FF090403549FFF796
:400CC00011FF35480421FFF767FF344834490422FFF7D6FF334A137843F0020313701032137843F0020313702F4C237843F040032370A2F58632513A137843F01003137064
:400D00002A482B490A22FFF7BBFF2A482A490822FFF7B6FF29482A490A22FFF7B1FF294829490822FFF7ACFF284829490822FFF7A7FF284828490A22FFF7A2FF27482849A7
:400D40000A22FFF79DFF274827490A22FFF798FF8423264A137003321370A2F55542B93A137843F008031370214E01253570FFF719FF812333701F4B1D70FFF7CDFE1E48B1
:400D800021460E22FFF77CFF70BD00BFE8460040E82D0000AC00004800760040087600401011004803500140A043004000510040BC100048C2510040C8100048F05100409B
:400DC000D010004812510040DC10004832510040E410004840510040EC10004850510040F81000486051004004110048D81801400048004004000840B04300400000000029
:400E00000230800803D000BF01380046FCD17047EFF3108072B6704780F31088704700BF0B4A7F2313708021517007E0DA0002F1804202F5F042013BDBB21370002BF5D1D9
:400E4000DB0003F1804303F5F04300221A7070471CC1FF1F172815D831B103010A495A5C42F020025A5405E0030107495A5C02F0DF025A540001044A835C43F0010383548E
:400E800000207047012070471070004017280CD80001074BC1180A7942F004020A71C25C42F00102C254002070470120704700BF1070004017280BD80001064A835C03F062
:400EC000F10301F0070143EA4101815400207047012070471070004041F6FF73994201D14FF4005141F6FF739A4201D14FF40052172808D8C00000F1804000F5EC408180CA
:400F0000C280002070470120704700BF172805D8034B03EB0010417200207047012070471070004017281BD810B4C00000F1804404F5EC44D201D2B201F07F011143217036
:400F40009DF804201201D2B203F00F03134363709DF8083003F00F03A3700020E07001E0012070475DF8044B704700BF10B5FFF74FFF0A4B5B78182B0BD9084A1478013B59
:400F80005370E30003F1804303F5F0431B78137000E0FF24FFF740FF204610BD1CC1FF1F10F0800F0CD111F4704F0BD1C00000F1804000F5F04001808270C370002070470E
:400FC000012070470120704710F0800F08D1C00000F1804000F5F0408180C280002070470120704701BE704708B5034B1B7A03FB00F0FFF705FF08BD24C1FF1F70B504461C
:401000000E46074B1D681F2802D90020FFF7EAFF04F01F04103455F8240045F8246070BD08ED00E038B504460D46072902D90020FFF7D8FF1F2C02D90020FFF7D3FF04F051
:401040001F0000F1604000F564406D01EDB2057038BD00BF7222084B1A70202201331A700622623B1A70472210331A70002203F5A6731A70704700BF8C64004010B5FFF7DD
:40108000C7FE04460A4A137843F0200313700132137843F010031370FA32137843F01003137000F04BF82046FFF7B6FE10BD00BF9C64004008B5054B1B7823B9FFF7CAFF18
:4010C0000122024B1A70FFF7D9FF08BD40C3FF1F084B1B78DBB213F0200F06D0064A1078C0B213F01E0F02D17047002070470020704700BF6D6400404E640040034B1B7872
:4011000013F0040FFAD1024B187070476765004043640040084B1B7833B97047305DFFF7EDFF0134E4B203E070B50D4606460024AC42F3D370BD00BF40C3FF1F054A137826
:4011400043F0100313701032137843F010031370704700BFA243004008B5FFF7B9FFFFF7E3F808BD014B1B685865704708ED00E04001C0B2014B1870704700BF05E400E096
:401180002022014B1A60704700E100E02022014B1A60704780E100E008B5FFF7F7FF0448FFF7E0FF0720FFF7E3FFFFF7E9FF08BD59110000044A137803F0FE0300F001001B
:4011C00018431070704700BF40510040044A137803F0FB03800000F00400184310707047C0510040044A137803F0FD03400000F0020018431070704740510040044A137872
:4012000003F0F703C00000F00800184310707047C0510040024A137843F080031370704775650040014B1880704700BF0A6A0040014B1880704700BF8A6A0040014B1880C5
:40124000704700BF4A6A0040014B1880704700BF6A6A0040014B1870704700BF86650040014B1878704700BF66650040014B188880B27047AA6A004008B501E0FFF7F6FF12
:40128000FFF7EEFF10F0100FF8D108BD10B5174A137803F0C00343F0090313702032137843F001031370124C237843F00103237044F62060FFF7B6FF44F62060FFF7B8FF4F
:4012C00040F24C40FFF7BAFF3F20FFF7BDFF0020FFF7C0FFFFF79CFD237843F010032370FFF79AFDFFF7C8FF10BD00BF756500409665004008B5054B1B7823B9FFF7C6FF36
:401300000122024B1A70FFF785FF08BD42C3FF1F084A137843F0010313701032137843F00103137002F64D32137843F001031370704700BFA3430040014B1870704700BF91
:40134000034F0040014B1880704700BF044F0040014B1880704700BF064F004008B5164A137803F0010313700232137803F0FC031370124B1A7802F0CF021A701A7842F0A9
:4013800030021A701A7802F0F0021A701A7842F00F021A700A4A137843F00103137045F6BF50FFF7CFFF45F6BF50FFF7D1FF0820FFF7C2FF08BD00BF004F00400B4F0040CF
:4013C000014F004008B5054B1B7823B9FFF7C6FF0122024B1A70FFF79BFF08BD43C3FF1F154B1A88013292B21A80144B1988013189B219800120124B18801248038801336B
:401400009BB20380B1F57A7F05D901200E49088000200A490880052A05D901210B4A11700021054A1180642B05D90022054B1A800122074B1A807047F8E9FF1FF6E9FF1F23
:40144000FCE9FF1FFAE9FF1FF2E9FF1FFEE9FF1FF4E9FF1F014B1B689865704708ED00E04001C0B2014B1870704700BF06E400E04022014B1A60704700E100E04022014B02
:401480001A60704780E100E008B5FFF7F7FF0448FFF7E0FF0720FFF7E3FFFFF7E9FF08BDE11300007222084B1A70202203331A7006225B3B1A70472210331A70002203F54F
:4014C000A8731A70704700BF8064004010B5FFF79FFC04460A4A137843F0200313700332137843F01003137002F20512137843F01003137000F0BCF82046FFF78DFC10BD17
:401500009064004008B5054B1B7823B9FFF7CAFF0122024B1A70FFF7D9FF08BD44C3FF1F084B1B78DBB213F0200F06D0064A1078C0B213F01E0F02D1704700207047002014
:40154000704700BF636400404F64004038B5324C2578FFF7E5FF25442871237813B92279552A57D10133DBB22B4A13700B2B51D1134600221A701B79552B4BD1264B5B79E3
:40158000522B1AD0532B2FD0512B43D1224BD8799979224A41EA00211180587A197A41EA00215180D87A997A41EA00219180597B1B7B43EA0123538238BD174BD879997910
:4015C000164A41EA0021D180587A197A41EA00211181D87A997A41EA00215181597B1B7B43EA0123538238BD0B4BD87999790B4A41EA00219181587A197A41EA0021D18134
:40160000D87A997A41EA00211182597B1B7B43EA0123538238BD00BF48C3FF1F98C3FF1F014B1B681865704708ED00E04001C0B2014B1870704700BF04E400E01022014B65
:401640001A60704700E100E01022014B1A60704780E100E008B5FFF7F7FF0448FFF7E0FF0720FFF7E3FFFFF7E9FF08BD4D150000054A137843F0040313701032137843F023
:4016800004031370704700BFA2430040024A137843F080031370704774650040014B1880704700BF08680040014B1880704700BF88680040014B1880704700BF4868004047
:4016C000014B1880704700BF68680040014B1870704700BF85640040014B1878704700BF65640040014B188880B27047A868004008B501E0FFF7F6FFFFF7EEFF10F0100F02
:40170000F8D108BD10B5174A137803F0C00343F009031370E03A137843F001031370124C237843F00103237040F2BF30FFF7B6FF40F2BF30FFF7B8FF4FF4C870FFF7BAFF0C
:401740004FF4C870FFF7BCFF0020FFF7BFFFFFF75FFB237843F010032370FFF75DFBFFF7C7FF10BD746500409564004008B5054B1B7823B9FFF7C6FF0122024B1A70FFF755
:4017800085FF08BD58C3FF1F024A137843F080031370704776650040014B1880704700BF0C680040014B1880704700BF8C680040014B1880704700BF4C680040014B1880F7
:4017C000704700BF6C680040014B1870704700BF84650040014B1878704700BF64650040014B188880B27047AC68004008B501E0FFF7F6FFFFF7EEFF10F0100FF8D108BD4F
:4018000008B5184A137803F0C00343F009031370E03A137843F0010313700132137843F00103137040F2BF30FFF7B6FF40F2BF30FFF7B8FF4FF4C870FFF7BAFF4FF4C87070
:40184000FFF7BCFF0020FFF7BFFFFFF7E1FA064A137843F010031370FFF7DEFAFFF7C6FF08BD00BF766500409465004008B5054B1B7823B9FFF7C4FF0122024B1A70FFF7E8
:4018800083FF08BD59C3FF1F024A137843F080031370704779650040014B1880704700BF126A0040014B1880704700BF926A0040014B1880704700BF526A0040014B1880DC
:4018C000704700BF726A0040014B1870704700BF89650040014B1878704700BF69650040014B188880B27047B26A004008B501E0FFF7F6FFFFF7EEFF10F0100FF8D108BD34
:4019000010B5174A137803F0C00343F009031370144C237843F0010323702132137843F00103137040F2BF30FFF7B6FF40F2BF30FFF7B8FF4FF46170FFF7BAFF4FF46170B0
:40194000FFF7BCFF0020FFF7BFFFFFF761FA237843F010032370FFF75FFAFFF7C7FF10BD796500409965004008B5054B1B7823B9FFF7C6FF0122024B1A70FFF785FF08BD79
:401980005AC3FF1F10B5022001214FF4804241F6FF7300F055F9084C20700620012141F6FF72134600F06CF96070044800F086F9002000F089F910BD5CC3FF1FD91A00005B
:4019C00070B52C4C2078FFF761FA6078FFF75EFA294B1B78FF2B03D1FFF7C8FA264B1870254D2A78104606210B46FFF7D9FA214E341DA4B2287845F6A0312246FFF7E4FADC
:401A000030782978FFF782FA6B78FF2B02D1FFF7ADFA6870184D6A78104606210723FFF7BFFA68782146154A92B2FFF7CDFA114C60786978FFF76AFA20780121FFF70AFA2E
:401A400060780121FFF706FAFFF7E2F90C4A137843F020031370FFF7DFF90A4B1A7842F001021A701A7842F002021A700122064B1A6070BD5CC3FF1F34C1FF1F00EAFF1FB2
:401A8000946400407264004080E200E008B5074BDB6823B9FFF776FF0122044BDA60FFF78FFF00F0B7F8024B1B7808BD5CC3FF1F6F64004008B500F0BBF808BDC0F1020061
:401AC000034B33F81030034A1088181A00B2704700EAFF1F0AEAFF1F704700BF08B50A280FD00C2802D0082806D102E04FF4805209E04FF4807206E00020FFF773FA0022A2
:401B000001E04FF480620021094B198042F2107303FB02F303F6C413064A82FB0302DB17C3EBE223044A1360044B198008BD00BF08EAFF1FAD8BDB680CEAFF1F0AEAFF1FC2
:401B400010B5FFF765F90446184A137843F0010313701032137843F00103137002F5AA520832137843F0030313701822104B1A70013B1A7842F040021A701A7802F0FC02F3
:401B80001A70C822053B1A700222A3F597530C3B1A70084A137843F0080313700A20FFF723FA2046FFF738F910BD00BFAB43004006590040275B004010B504460A280DD0CF
:401BC0000C2802D0082804D101E0C22207E0422205E00020FFF706FAC22200E08222034B1A702046FFF77AFF10BD00BF0259004008B5064A137843F0060313700C20FFF71A
:401C0000DBFF0022024B1A8008BD00BF0159004010EAFF1F08B5054B1B7823B9FFF7E8FF0122024B1A70FFF78BFF08BD6CC3FF1F024A137843F001031370704700590040C5
:401C4000F0B583B086460F4616461D460B4C01232370002200920192184671463A46FFF761F9207831462A46FFF736F920780221FFF720F9207803B0F0BD00BF36C1FF1F38
:401C8000F0B583B086460F4616461D460A4C0023237000930193184671463A46FFF742F9207831462A46FFF717F920780221FFF701F9207803B0F0BD37C1FF1F014B1B6866
:401CC0001864704708ED00E04001C0B2014B1870704700BF00E400E008B501201049FFF78DF901200721FFF79DF900220D4B1A7072220D4B1A702022013B1A7002200B499B
:401D0000FFF77CF902200721FFF78CF90622084B1A70472210331A70022250331A7008BDB91E00006DC3FF1F8A6400404D1F00002B65004010B5FFF76BF804460D4A137869
:401D400043F020031370013A137843F010031370094A0223136009490B7843F010030B70042307490B60136000F04AF92046FFF753F810BD9A64004000E100E09B6500403F
:401D800080E200E008B5054B5B7823B9FFF7A4FF0122024B5A70FFF7CDFF08BD6DC3FF1F0222194B1A60194A9378DBB2D178C9B2127912F0FF0F01D18B4211D0144AD05C17
:401DC000C0B20133DBB2042B00D900230F4A9370137913F0FF0F13D000220C4B1A710FE00C4B1B78DBB213F0200F06D00A4A1078C0B213F01E0F02D102E0002000E00020E4
:401E00000222064B1A60704780E100E06DC3FF1F1CEAFF1F696400404964004000E100E0164BD9799B79DBB2994205D25A1E914214BF0022012204E0CA1A042A14BF00223A
:401E40000122002AECD18B4207D10D4B1B7813F0040F02D10B4B18707047042900D90021094B58540131054BD971054B1B7813F0020F02D00422054B1A6070476DC3FF1F99
:401E80006B6500404465004014EAFF1F00E200E0084B5B7833B97047305DFFF7C1FF0134E4B203E070B50D4606460024AC42F3D370BD00BF6DC3FF1F1C4B1B78DBB213F031
:401EC0001E0F05D01A4803F01E0201780A43027003F0200303F0FF022BB3164B1978C9B2154B1B78DBB21548C154154B1B7813F0FF0F02D00121134B19700F490B780133FE
:401F0000DBB20B700B78DBB2042B02D900210A4B1970094B1B780C490978DBB28B4202D10121074B1970002AC6D17047696400406DC3FF1F4964004070C3FF1F1CEAFF1F64
:401F400071C3FF1F72C3FF1F6FC3FF1F13E0104B1B78DBB2042B02D900220D4B1A700C4A1378DBB20B49CB5CDBB20B490B7013780133DBB21370064B1B78DBB2074A127890
:401F8000934204D0064B1B7813F0040FDFD0704773C3FF1F14EAFF1F4465004074C3FF1F6B65004008B5FFF7FBFEFEF7C7FC08BD014B1B68D864704708ED00E04001C0B2E7
:401FC000014B1870704700BF03E400E00822014B1A60704700E100E00822014B1A60704780E100E008B5FFF7F7FF0448FFF7E0FF0720FFF7E3FFFFF7E9FF08BDA51F000050
:40200000054A137843F0080313701032137843F008031370704700BFA2430040044A137803F0F703C00000F008001843107070476051004081F0004102E000BF83F00043D2
:4020400030B54FEA41044FEA430594EA050F08BF90EA020F1FBF54EA000C55EA020C7FEA645C7FEA655C00F0E2804FEA5454D4EB5555B8BF6D420CDD2C4480EA020281EADC
:40208000030382EA000083EA010180EA020281EA0303362D88BF30BD11F0004F4FEA01314FF4801C4CEA113102D0404261EB410113F0004F4FEA03334CEA133302D0524232
:4020C00063EB430394EA050F00F0A780A4F10104D5F1200E0DDB02FA0EFC22FA05F2801841F1000103FA0EF2801843FA05F359410EE0A5F120050EF1200E012A03FA0EFCDD
:4021000028BF4CF0020C43FA05F3C01851EBE37101F0004507D54FF0000EDCF1000C7EEB00006EEB0101B1F5801F1BD3B1F5001F0CD349085FEA30004FEA3C0C04F10104B9
:402140004FEA445212F5800F80F09A80BCF1004F08BF5FEA500C50F1000041EB045141EA050130BD5FEA4C0C404141EB010111F4801FA4F10104E9D191F0000F04BF014646
:402180000020B1FA81F308BF2033A3F10B03B3F120020CDA0C3208DD02F1140CC2F10C0201FA0CF021FA02F10CE002F11402D8BFC2F1200C01FA02F120FA0CFCDCBF41EA3B
:4021C0000C019040E41AA2BF01EB0451294330BD6FEA04041F3C1CDA0C340EDC04F11404C4F1200220FA04F001FA02F340EA030021FA04F345EA030130BDC4F10C04C4F172
:40220000200220FA02F001FA04F340EA0300294630BD21FA04F0294630BD94F0000F83F4801306BF81F480110134013D4EE77FEA645C18BF7FEA655C29D094EA050F08BFFE
:4022400090EA020F05D054EA000C04BF1946104630BD91EA030F1EBF0021002030BD5FEA545C05D14000494128BF41F0004130BD14F580043CBF01F5801130BD01F00045A6
:4022800045F0FE4141F470014FF0000030BD7FEA645C1ABF194610467FEA655C1CBF0B46024650EA013406BF52EA033591EA030F41F4002130BD00BF90F0000F04BF0021D9
:4022C000704730B54FF4806404F132044FF000054FF0000150E700BF90F0000F04BF0021704730B54FF4806404F1320410F0004548BF40424FF000013EE700BF42004FEAA8
:40230000E2014FEA31014FEA02701FBF12F07F4393F07F4F81F06051704792F0000F14BF93F07F4F704730B54FF4607401F0004521F0004120E700BF50EA010208BF704767
:4023400030B54FF000050AE050EA010208BF704730B511F0004502D5404261EB41014FF4806404F132045FEA915C3FF4DCAE4FF003025FEADC0C18BF03325FEADC0C18BFAF
:40238000033202EBDC02C2F1200300FA03FC20FA02F001FA03FE40EA0E0021FA02F11444C1E600BF70B54FF0FF0C4CF4E06C1CEA11541DBF1CEA135594EA0C0F95EA0C0F5F
:4023C00000F0DEF82C4481EA030621EA4C5123EA4C5350EA013518BF52EA033541F4801143F4801338D0A0FB02CE4FF00005E1FB02E506F00042E0FB03E54FF00006E1FBFE
:4024000003569CF0000F18BF4EF0010EA4F1FF04B6F5007F64F5407404D25FEA4E0E6D4146EB060642EAC62141EA55514FEAC52040EA5E504FEACE2EB4F1FD0C88BFBCF59A
:40244000E06F1ED8BEF1004F08BF5FEA500E50F1000041EB045170BD06F0004646EA010140EA020081EA0301B4EB5C04C2BFD4EB0C0541EA045170BD41F480114FF0000EA3
:40248000013C00F3AB8014F1360FDEBF002001F0004170BDC4F10004203C35DA0C341BDC04F11404C4F1200500FA05F320FA04F001FA05F240EA020001F0004221F0004176
:4024C00010EBD37021FA04F642EB06015EEA430E08BF20EAD37070BDC4F10C04C4F1200500FA04F320FA05F001FA04F240EA020001F0004110EBD37041F100015EEA430E83
:4025000008BF20EAD37070BDC4F1200500FA05F24EEA020E20FA04F301FA05F243EA020321FA04F001F0004121FA04F220EA020000EBD3705EEA430E08BF20EAD37070BDAC
:4025400094F0000F0FD101F00046400041EB010111F4801F08BF013CF7D041EA060195F0000F18BF704703F00046520043EB030313F4801F08BF013DF7D043EA0603704762
:4025800094EA0C0F0CEA135518BF95EA0C0F0CD050EA410618BF52EA4306D1D181EA030101F000414FF0000070BD50EA410606BF1046194652EA430619D094EA0C0F02D176
:4025C00050EA013613D195EA0C0F05D152EA03361CBF104619460AD181EA030101F0004141F0FE4141F470014FF0000070BD41F0FE4141F4780170BD70B54FF0FF0C4CF419
:40260000E06C1CEA11541DBF1CEA135594EA0C0F95EA0C0F00F0A7F8A4EB050481EA030E52EA03354FEA013100F088804FEA03334FF0805545EA131343EA12634FEA022215
:4026400045EA111545EA10654FEA00260EF000419D4208BF964244F1FD0404F5407402D25B084FEA3202B61A65EB03055B084FEA32024FF480104FF4002CB6EB020E75EB73
:40268000030E22BFB61A754640EA0C005B084FEA3202B6EB020E75EB030E22BFB61A754640EA5C005B084FEA3202B6EB020E75EB030E22BFB61A754640EA9C005B084FEAC3
:4026C0003202B6EB020E75EB030E22BFB61A754640EADC0055EA060E18D04FEA051545EA16754FEA06164FEAC30343EA52734FEAC2025FEA1C1CC0D111F4801F0BD141EACA
:4027000000014FF000004FF0004CB6E711F4801F04BF01430020B4F1FD0C88BFBCF5E06F3FF6AFAEB5EB030C04BFB6EB020C5FEA500C50F1000041EB045170BD0EF0004EDE
:402740004EEA113114EB5C04C2BFD4EB0C0541EA045170BD41F480114FF0000E013C90E645EA060E8DE60CEA135594EA0C0F08BF95EA0C0F3FF43BAF94EA0C0F0AD150EAE3
:4027800001347FF434AF95EA0C0F7FF425AF104619462CE795EA0C0F06D152EA03353FF4FDAE1046194622E750EA410618BF52EA43067FF4C5AE50EA41047FF40DAF52EAB7
:4027C00043057FF4EBAE12E74FEA4102B2F1E04324BFB3F5001CDCF1FE5C0DD901F0004C4FEAC0024CEA5070B2F1004F40EB830008BF20F00100704711F0804F21D113F173
:402800003872BCBF01F00040704741F480114FEA5252C2F11802C2F1200C10FA0CF320FA02F018BF40F001004FEAC1234FEAD32303FA0CFC40EA0C0023FA02F34FEA430307
:40284000CCE77FEA625307D150EA01331EBF4FF0FE4040F44000704701F0004040F0FE4040F40000704700BF80F0004002E000BF81F0004142001FBF5FEA410392EA030F35
:402880007FEA226C7FEA236C6AD04FEA1262D2EB1363C1BFD218414048404140B8BF5B42192B88BF704710F0004F40F4000020F07F4018BF404211F0004F41F4000121F083
:4028C0007F4118BF494292EA030F3FD0A2F1010241FA03FC10EB0C00C3F1200301FA03F100F0004302D5494260EB4000B0F5000F13D3B0F1807F06D340084FEA310102F1A3
:402900000102FE2A51D2B1F1004F40EBC25008BF20F0010040EA03007047490040EB000010F4000FA2F10102EDD1B0FA80FCACF1080CB2EB0C0200FA0CF0AABF00EBC250A6
:4029400052421843BCBFD0401843704792F0000F81F4000106BF80F400000132013BB5E74FEA41037FEA226C18BF7FEA236C21D092EA030F04D092F0000F08BF084670478D
:4029800090EA010F1CBF0020704712F07F4F04D1400028BF40F00040704712F100723CBF00F50000704700F0004343F0FE4040F4000070477FEA226216BF08467FEA23633E
:4029C0000146420206BF5FEA412390EA010F40F4800070474FF0000304E000BF10F0004348BF40425FEA000C08BF704743F0964301464FF000001CE050EA010208BF704718
:402A00004FF000030AE000BF50EA010208BF704711F0004302D5404261EB41015FEA010C02BF84460146002043F0B64308BFA3F18053A3F50003BCFA8CF2083AA3EBC2536F
:402A400010DB01FA02FC634400FA02FCC2F12002BCF1004F20FA02F243EB020008BF20F00100704702F1200201FA02FCC2F1200250EA4C0021FA02F243EB020008BF20EABC
:402A8000DC7070474FF0FF0C1CEAD0521EBF1CEAD15392EA0C0F93EA0C0F6FD01A4480EA010C400218BF5FEA41211ED04FF0006343EA501043EA5111A0FB01310CF00040DE
:402AC000B1F5000F3EBF490041EAD3715B0040EA010062F17F02FD2A1DD8B3F1004F40EBC25008BF20F00100704790F0000F0CF0004C08BF49024CEA502040EA51207F3A54
:402B0000C2BFD2F1FF0340EAC250704740F400004FF00003013A5DDC12F1190FDCBF00F000407047C2F10002410021FA02F1C2F1200200FA02FC5FEA310040F1000053EA0C
:402B40004C0308BF20EADC70704792F0000F00F0004C02BF400010F4000F013AF9D040EA0C0093F0000F01F0004C02BF490011F4000F013BF9D041EA0C018FE70CEAD1535D
:402B800092EA0C0F18BF93EA0C0F0AD030F0004C18BF31F0004CD8D180EA010000F00040704790F0000F17BF90F0004F084691F0000F91F0004F14D092EA0C0F01D1420217
:402BC0000FD193EA0C0F03D14B0218BF084608D180EA010000F0004040F0FE4040F40000704740F0FE4040F4400070474FF0FF0C1CEAD0521EBF1CEAD15392EA0C0F93EA24
:402C00000C0F69D0A2EB030280EA010C49024FEA402037D04FF0805343EA111143EA10130CF000408B4238BF5B0042F17D024FF4000C8B4224BF5B1A40EA0C00B3EB510FE6
:402C400024BFA3EB510340EA5C00B3EB910F24BFA3EB910340EA9C00B3EBD10F24BFA3EBD10340EADC001B0118BF5FEA1C1CE0D1FD2A3FF650AF8B4240EBC25008BF20F0D6
:402C8000010070470CF0004C4CEA50207F32C2BFD2F1FF0340EAC250704740F400004FF00003013A37E792F0000F00F0004C02BF400010F4000F013AF9D040EA0C0093F017
:402CC000000F01F0004C02BF490011F4000F013BF9D041EA0C0195E70CEAD15392EA0C0F08D142027FF47DAF93EA0C0F7FF470AF084676E793EA0C0F04D14B023FF44CAF87
:402D000008466EE730F0004C18BF31F0004CCAD130F000427FF45CAF31F000437FF43CAF5FE700BF4FEA4002B2F1FE4F0FD34FF09E03B3EB12620DD94FEA002343F0004307
:402D400010F0004F23FA02F018BF404270474FF00000704712F1610F01D1420205D110F0004008BF6FF0004070474FF0000070470E4B70B51E460E4C0025E41AA410A54243
:402D800004D056F8253098470135F8E700F042F8084B094C1E46E41AA4100025A54204D056F8253098470135F8E770BD202E0000202E0000202E0000282E000010B5431EB6
:402DC0000A44914204D011F8014B03F8014FF8E710BD03460244934202D003F8011BFAE77047000000000000004F00400C00205100401000000001400010001401400008A3
:402E000000400140000A004C014000020050014020000000F8B500BFF8BC08BC9E4670474D0000006D0A0000F8B500BFF8BC08BC9E46704729000000482E000008C1FF1F7F
:402E400030000000F028000000000000A5200000A582050000000000220000007F800000030000000000E02EC05D00001800000000366E01FFFFFFFF000000000000000011
:402E80000000000000000000000000000000000000000000000000000000000000000000000000000000000000000000000000000000000000000000000000000000000012
:402EC00000000000000000000000000000000000000000000000000000000000000000000000000000000000000000000000000000000000000000000000000000000000D2
:402F00000000000000000000000000000000000000000000000000000000000000000000000000000000000000000000000000000000000000000000000000000000000091
:402F40000000000000000000000000000000000000000000000000000000000000000000000000000000000000000000000000000000000000000000000000000000000051
:020000040001F9
:0200000480007A
:40000000024F00400F520040015B0040086400400665004046000140370101404002014058030140500401404E05014053060140400701405608014059090140450A01405F
:40004000520B0140540C01405A0D0140660E0140410F0140571401404B15014039160140441701405D1801404F190140561A0140581B0140154001400F4101400C42014060
:400080000743014006440140044501400D4601400A4701400D4801400B490140064C0140094D01400A5001400451014001800A4B0001010208C009C01910200C21082410D7
:4000C00028F029C03180344060C078047C202784807283388402850F89388A728C728D38840F860F870F880F890F8B0F016702800404050207050A800B080C670D100E18D1
:40010000107F145C1508162119441A031B221E04201021082408256728182C5C2D212E222F4230403220330734803560361F3718380839803A803E11560257135804590445
:400140005B045C425D205F01840185378C019201940195379C01A001A511A72AA801A902AB05AD24AF12B330B507B601B708BB02D804D904DC21DF01004A030805040701BA
:4001800009610A200C400F5010A811401520164019111B481F802184222825412605274428802A042B012E102F11310832203708382039883A023D403E043F805901680274
:4001C00069106A046B1870A88210830486408950C0AFC2BFC45FCA7BCC46CE4FD601E001E248E440E60152035302580459045B045C115D105F0180FF844188C3890190F3B9
:400200009101920C940F950296F099019AF39C829F04A008A304A404A508A80CAC1CAD02AEE3B00FB102B22CB308B4C0B501B61CB704B902BA0ABF45C031C104C50BC6EC09
:40024000C80DC9FFCAFFCBFFCEF0CF44D00CD418D604D804D904DA04DB04DC22DD24DF01E6C0EA40EB02000803440504070109200AA00B020C400F5410A811401640184023
:400280001AA11B9021202286230828022BA02C402E043002314033183504378039103E403F144080414848105040521053205B025FC0611262806C016E906F08805083121B
:4002C000841086028B408C408D8091509302946095A09620975099509A409B549CC09D049E069F01A0AEA180A528AB80AC05AF10B228B301B605B701C0AEC2FFC41FCACB90
:40030000CC5FCE74D00BD601D80DE009E204E608EA02EC02EE081C0122022A082E0430043208340236013E404060410249FF4AFF4BFF4DA04F0450185602573D5804590423
:400340005A045B0F5C115D105F01604062C06440654066C068C06AC06CC06EC0830C87038A02910296019908A607AE04B004B102B202B308B401B504B701B880BE50C0606D
:40038000C102C5D0C620C751C83AC9FFCAFFCBFFCDAFCE0FCF04D018D407D804D904DA04DB04DF01E040E2C0E440E540E6C0E8C0EAC0ECC0EEC006080A020F2010881140B6
:4003C00016011708180219041A441B2A1C601E081F80261027A22B02310432803320361037023B543E083F024120452048044A084E084F015520560957115A105E085FA19B
:4004000062026848694470A07A408040814083088A048B018C01921895A0964497549A109C429D049F01A242AD08B102B201B481B604B708C040C221C4ABCA08CCAECECE2A
:40044000D024D224D6F4D801DE01E201E405EA02EE214010410649FF4AFF4BFF4DA04F045018580459045A045C115F01604062C06440654066C068C06AC06CC06EC08204E8
:4004800084088742881089088A208C048D2090409280954096089A029B099E019F10A002A380A401A510A820AA10AC80AE40AF24B0FFB1F8B302B501B704B902BA20BE0194
:4004C000BF01C010C106C5D5C610C702C81BC9FFCAFFCBFFCDAFCE0FCF04D018D804D904DA04DC14DF01E040E2C0E440E540E6C0E8C0EAC0ECC0EEC00080018402C0030C80
:4005000006400706081209490A440F5410A811401410180419022118228023542810298A2E402F0830A031083508368039243A403F544180458049054A084E085218532442
:4005400089088B409144924C95209602975498019F08A0E8A308A404A680AC10AF80B041B290B402C0DFC27FC42FCA3BCC5ECE7ED018D224E808EE0403A005E009090B105C
:400580000D1C0F0211E0178019101B0C1F0321142510290C2B112D402F8033603580371F39083F144001464049FF4A074BFF4C404D204EF04F055008580459045A045C21BD
:4005C0005D025F01604061A86240632087028B088F029F01A304A701AF08B306B501B708BB02BF54C025C104C201C406C6C0C70EC818C9FFCAFFCBFFCC62CDA0CEF0CF41E7
:40060000D00CD418D604D804D904DA04DB04DC31DD33DF01E640E702E910EA30EB10ED10EE10EF12008202200340050406080740088009020D100F20100111021401168099
:4006400020042181220826502710280229402A042B802C202E022F06324034103641370438A039083C403D203E043F01400A4101454048024A084D01501052045420561059
:40068000590160046180620288C089108A0890809108928493019522982999419B049C809D049EA09F10A003A101A201A392A642B001B185B20AB304C07DC269C499CAFBED
:4006C000CCF8CEFED01DD20CD601D80DE020E420E888EA10EE0400C3017F040F051806F009080C410F8010821139134414F3160C170118FF1B801C1C1D101EE32008230650
:40070000240425392742280C29672B182D012EF330C0311F322C3320340F3580361C374039803A283B023F1456025711580459045B045C335D305F01C002C704C9FFCA079D
:40074000CBFFCC40CD20CEF0CF05D008D804D904DA04DC11DD04DF01E040E1A8E240E320018803800504068208080A420B040C100D100F2010A21201131014811969226147
:400780002320280829A82A012F04308031203205349135043708382839823E883F2447104F0157085B20680469046B0270B4731081018311880190809180924C9524970181
:4007C00098209B049C019D809E229F0AA002A120A201A382A404A662A718A880AE04B310B420B504B601B711C0BDC26FC49FCA2FCCFFCE3FD020D604E040E424E840EA1046
:40080000ECC0EE1000AC01090243031004310520064E09200A8C0D20110C1311151418311AC61B031D401E53243025102640270C29102A082D1C2F02300F331F34F03540B6
:40084000368A37203AA23F1056025712580459045B045C445D405F0180028205843F850889188C098E528F049014920A9303953C9742993C9B41A020A110A43FA567A7186E
:40088000A97FAD04AF80B018B180B220B31FB440B520B607B740B980BB08BF10D418D604D804D904DB04DC43DD40DF01000801800380050506080A400E040F011104130217
:4008C0001404170418A01A481B801D011E061F0220402148230424082721281029402A212C042E042F0A31083210330134203649372038403A143D9A5A025F04608062202B
:4009000063026C206D9874807528761583068510860889018C128D418E089222940895629712981099409C019D289E229F19A120A301A480A508A602A710AD02AE02AF0877
:40094000B087B140B340B782C07DC2C8C46CCA7FCCF7CEFED641D80DE070E870EA80EC80020405F30604070C09FF0A010DC3121013F3151C17E3190F1BF01D081E022001F0
:400980002182250C261029042D412E08301031C03203330F340C352C371C3B283E114064410342054402450C46E0480949FF4AFF4BFF4C624DA04EF04F41500C5608580477
:4009C00059045A045B045C495D945F016640670269106A306B106D106E106F128B0897039901A304AB04B10CB502B701BF01C052C104C206C401C5E0C6C0C80AC9FFCAFFD3
:400A0000CBFFCC62CDA0CEF0CF41D00CD401D804D90CDA04DB0CDC11DD12DF01E640E702E910EA30EB10ED10EE10EF12001A061207080A800B410D100F201022128014112B
:400A4000150A181419041B012104225926D02780288029682F8830803108321033013504361039083A203B803D20400442204301479248204A084B404D424F105120572056
:400A80005A405E8063017F018004811087088A108B208EC0C0EEC269C49DCAAFCC6FCE2ED0B7D23CD618D808DE10E2C0E4600014040C0611081C0A020C100E0C0F021108B7
:400AC00012201410170E1A201E03200922102F013104330834203501361F37023E104035410245B046EC480E49FF4AFF4BFF4EF04F44500C52805407580459045A045B04DF
:400B00005C035D035F0166C06A406B028204850189018C088F01930195019D019E02A609A901B008B202B404B501B601C020C106C9FFCAFFCBFFCDA0CF04D018D280D804F5
:400B4000D904DA04DB04DC10DF01E040E2C0E440E540E6C0E8C0EAC0ECC0EEC00142020803200540078009080A020B880F02108016101A061D601E50200A21022328240830
:400B80002A802F0831063402350836803B803F54402043204520471049024A024F20505059015A445B207280778080748140840188808A028B208D088E0893DC96129802D0
:400BC000990D9A109F18A280A319A404AA01AB20B440C09FC28FC428CA28CCD3CE78D026D228D60FE005E408E604E808EA01EC20EE080302070808020B0114011B0B1E019A
:400C0000230427042A0A2E04300131043202330134083502360437083F044020410645D046204715483A49FF4AFF4BFF4DAF4E0F4F04501852805407580459045A045B046D
:400C40005F01604062C06440654066C068C06AC06CC06EC0D401D604D804D904DB04DC11DD40DF01010802800308051008020E100F021354160817801D901E601F40244216
:400C80002624280229082B082F60328037103B543E083F2247104D014F205608571158415A085B205D015E686201778082208C019208935C96029843990D9A109F08A2808C
:400CC000A328A404A580A804AC40AD40AF04B501B702C04EC2A8C4C7CACECC28CEEED020D220D6FFD801E260E806EE08011003030602070108600A800C560E89161622A9AB
:400D00002468250F26932868290F2A952D042F09301B3207330134E43518370639A03A2A3F4440244103450C47BE483149FF4AFF4BFF4EF04F44500C5401580459045A0445
:400D40005B045C225D225F0166C06A406B028308860D910296029B039C01A504AA06B004B101B202B308B401B504B608B702BC20BD88BE04BF10C062C103C9FFCAFFCBFFF0
:400D8000CDA0CF04D018D280D407D804D904DA04DB04DF05E040E2C0E440E540E6C0E8C0EAC0ECC0EEC001080470061009080A020E2012081501162819141A021B011C401A
:400DC0001F162008224A25502610271028202C102E282F163020320238023D033F0441044320450146284A084C104F04560659155A805C105E445F01700178047B20840469
:400E00008B408E408F1091019440970898A19A109B049C109E02A041A102A220A310A550AA20AD02AE90B504B620C0E4C225C472CA72CC05CEC1D0E6D204D6FFDE02E220D3
:400E4000E402E8104062410345D546104702481B49FF4AFF4BFF4DAF4E0F4F045018580459045A045C115F01604062C06440654066C068C06AC06CC06EC080808203844198
:400E8000860E89038B148E088F55901C924399209DD39E1C9F0CA041A216A308A820A9D3AB04AD8AAF14B00FB110B21AB3C0B420B520B6C0B70FB880B908BA0ABB80BE104F
:400EC000BF15C002C540C9FFCA07CBFFCC40CD20CEF0CF05D008D401D604D804D904DA04DB04DC33DD33DF01E040E1A8E240E32000820180024004800504068008900902A4
:400F00000A800D800E4010011220160417021D841E441F44244426802722289029802B102C022E402F4430013260368037103A403E103F8041044320472049094A084C40E8
:400F40004F015020510C568057405C445E1267407A017B02829083128A808B448C028F0195089604974098819A049D09A041A102A228A330A420A508AB04AC04AF01B604D4
:400F8000B701C0B9C29BC455CABBCC3DCE38D026D204D6F0D880E280E408E6F0E840EC200B40108016803281360237803A103B023E805501572081018C808E80C210C4302D
:400FC000CCF0CE70D440D620E6803241368857105910960297029E10AB20AE02AFC0CCF0D4C0EA40EC40EE2012806302960297029D10A688A710AA40B210C410D640EE804B
:4010000096029D10A608A710AB01AF01EE30084062207502C202D802DE049D02A620B040EA0106401B042410538081028F809D02A620C004C608C801D404E00244019380BB
:40104000A620AB04AF40B240B410D004EA08EE0120802520572083108A018D1096029D10A608A710C860D440E68060108010AA08AD20AF20B040D840E680E810EA20EE1082
:401080006780862093809C01A620D801670A87049302B001B701D601D801E802EC04001F010108160A130C1E0E1E0F01101F1A1B1C0F00FF01EF0203100A00001400041742
:4010C000130003000000000000CCCC00C000000014002014140014000000000000C0C000C000000000000000001010000800100B0B00080404000000F00000F0F000F000B4
:40110000000000008000408888008000000000000001000000000000000000000000000000000000000000000000000000000000000000000000000000000000000000005E
:40114000000000000000000000000000000000000000000000000000000000000000000000000000000000000000000000000000000000000000000000000000000000006F
:40118000000000000000000000000000000000000000000000000000000000000000000000000000000000000000000000000000000000000000000000000000000000002F
:4011C00000000000000000000000000000000000000000000000000000000000000000000000000000000000000000000000000000000000000000000000000000000000EF
:4012000000000000000000000000000000000000000000000000000000000000000000000000000000000000000000000000000000000000000000000000000000000000AE
:0200000490006A
:0400000000004005B7
:0200000490105A
:04000000BC90ACAF55
:0200000490303A
:02000000F830D6
:0200000490402A
:4000000000000000000000000000000000000000000000000000000000000000000000000000000000000000000000000000000000000000000000000000000000000000C0
:400040000000000000000000000000000000000000000000000000000000000000000000000000000000000000000000000000000000000000000000000000000000000080
:0200000490501A
:0C00000000012E13306900012E2B2899FE
:00000001FF